:100000003BC100005AC1000058C1000056C10000A9
:1000100054C1000052C1000050C100004EC1000098
:100020004CC100004AC1000048C1000046C10000A8
:1000300044C1000042C1000040C100003EC10000B8
:100040003CC100003AC1000038C1000036C10000C8
:1000500034C1000032C1000030C100002EC10000D8
:100060002CC100002AC1000028C1000026C10000E8
:1000700024C1000022C1000020C100001EC10000F8
:100080001CC100001AC1000018C1000016C1000008
:1000900014C1000012C1000010C100000EC1000018
:1000A0000CC100000AC1000008C1000006C1000028
:1000B00004C1000002C1000000C10000FEC0000039
:1000C000FCC00000FAC00000F8C00000F6C000004C
:1000D000F4C00000F2C00000F0C00000EEC000005C
:1000E000ECC00000EAC00000E8C00000E6C000006C
:1000F000E4C00000E2C00000E0C00000DEC000007C
:10010000DCC00000DAC00000D8C00000D6C000008B
:10011000D4C00000D2C00000D0C00000CEC000009B
:10012000CCC00000CAC00000C8C00000C6C00000AB
:10013000C4C00000C2C00000C0C00000BEC00000BB
:10014000BCC00000BAC00000B8C00000B6C00000CB
:10015000B4C00000B2C00000B0C00000AEC00000DB
:10016000ACC00000AAC00000A8C00000A6C00000EB
:10017000A4C00000A2C00000A0C000009EC00000FB
:100180009CC000009AC0000098C0000096C000000B
:1001900094C0000092C0000090C000008EC000001B
:1001A0008CC000008AC0000088C0000086C000002B
:1001B00084C0000082C0000080C000007EC000003B
:1001C0007CC000007AC0000078C0000076C000004B
:1001D00074C0000072C0000070C000006EC000005B
:1001E0006CC000006AC0000068C0000066C000006B
:1001F00064C000000C94BC130C947A14CF04D9048E
:10020000D904D904D904D904D904D904D904D90406
:10021000D704D904D904D904D904D904D904D904F8
:10022000D904D904D904D904D904D904D904D904E6
:10023000D904D904D904D904D904D904D904D304DC
:10024000D104D504D904D904D904D904D904D904D2
:10025000D904D904D904D904D904D904D904D904B6
:10026000D904D7041605CD041805A90EAC0EAF0E9F
:10027000B20EB50EB80EBB0E11241FBECFEFCDBF10
:10028000DFE5DEBF00E00CBF11E2A0E0B0E2EEE38C
:10029000FCE200E00BBF02C007900D92A839B10745
:1002A000D9F724E2A8E9B1E201C01D92A230B20759
:1002B000E1F70E9472150C941D16A2CE80E00895FD
:1002C0003091F4232091F523822F90E00297C1F41E
:1002D000311118C08091F8239091F9230297A1F46D
:1002E000E2EFF3E288E991E28087918782E090E093
:1002F0008287938789EA91E08487958781E00895D2
:1003000080E0089580E0089580E0089581E0809382
:10031000A22108950F931F9309EA11E022E030E033
:1003200048E951E260E083E00E946A121F910F9158
:100330000895CF931092A6211092A42181E080937A
:10034000A221E8DFC82F81110E94F1158C2FCF91D7
:100350000895811106C06230710519F488E991E2AF
:10036000F4D4D8CF08950C94F515089520E631E023
:1003700040E050E264EA71E286EA91E24FC70895F4
:10038000FF920F931F93CF93DF931F92CDB7DEB7EA
:10039000FC018091A221882319F18FB78983F894F9
:1003A000F98087E02AE931E2D9011D928A95E9F7BF
:1003B00087E0D90101900D928A95E1F706E811E0F6
:1003C00027E030E04AE951E260E084E80E946A12E6
:1003D00091E089278093A221FFBE8091A2218927E5
:1003E0000F90DF91CF911F910F91FF900895E0E062
:1003F000F6E09FEF91839583E0E2F6E03FE33283FE
:1004000088E1808B818B828B838B848B858B20EC26
:10041000218340E4458340E84583E0E4F6E04CEF87
:100420004283828B838B848B858B868B878B43E087
:1004300041834583E0E6F6E03283808B818B828BBB
:10044000838B848B858B21832683E0E8F6E092837F
:10045000808B818B828B838B848B858B868B878B28
:10046000E0EAF6E090EF9283848B858B868B878B16
:100470008FE081838583F8D22AD19EC3089580912D
:1004800048062091680690E0922B96958795969560
:100490008795BC017F7080FF17C021E030E0E1E06C
:1004A000F0E0822FAF01022E02C0440F551F0A94C4
:1004B000E2F746235723452B41F02F5F3F4F2C3067
:1004C000310579F78FEF089580E0089580918806CF
:1004D0002091280690E0922BBC017F7080FF17C00E
:1004E00021E030E0E1E0F0E0822FAF01022E02C017
:1004F000440F551F0A94E2F746235723452B41F03A
:100500002F5F3F4F2C30310579F78FEF089580E052
:1005100008958823F4F19BEF980F9230E0F1853035
:1005200034F495E0981B923008F042C036C09AEF40
:10053000980F9230B0F531C062E023E030E090E0F7
:1005400080E0E1E0F0E0AF01022E02C0440F551F51
:100550000A94E2F7842B9F5F21503109961798F394
:1005600008958150482F50E04B5F5F4F24E030E00A
:1005700080E0E1E0F0E0BF01022E02C0660F771FCD
:100580000A94E2F7862B2F5F3F4F2417350799F720
:10059000089580E0089588E1089585306CF282E046
:1005A000E0CF8550853008F084E08111DACF0895DE
:1005B00066E0681B653008F064E06111BECF80E042
:1005C0000895CF935CDFC82F81DFCC2324F48823E8
:1005D000C4F090E009C0C6301CF09BEF9C0F02C035
:1005E00095E09C1B882354F086301CF02BEF280FDD
:1005F00002C025E0281B921708F4C82F8C2F89DF32
:1006000001C080E0CF91089561DF88233CF0E82F9E
:10061000880FFF0BE858FE4D808101C080E8809371
:10062000A8212DDF88233CF0E82F880FFF0BE85826
:10063000FE4D808101C080E8E8EAF1E281832081FB
:1006400090912620291304C090912720981771F0CB
:1006500088EA91E2F2D4882349F0E6E2F0E2A8EADF
:10066000B1E28C91808311968C91818308950F93D0
:100670001F93809148062091680690E0922B40914C
:1006800088062091280650E0522B409550955F70C7
:1006900060E070E0032E3CE0440F551F661F771F9B
:1006A0003A95D1F7302D96958795969587958095B3
:1006B00090959F70A0E0B0E08A019B01082B192B58
:1006C0002A2B3B2BC901B8011F910F91089510925D
:1006D000C5211092C2211092C3211092BF21109205
:1006E000C6211092C421ECECF1E281E180838AE220
:1006F00081831282138288E2848389E28583168251
:10070000178287E0808711861286138614861586E5
:100710009AE396879CE39787108A118A9BE3928BD2
:100720009DE3938BE7ECF1E29EE090839DE0918363
:100730009BE0928383838FEF848308954F925F922F
:100740006F927F928F929F92AF92BF92CF92DF92E1
:10075000EF92FF920F931F93CF93DF93EEEAF1E2B4
:1007600087EB91E211928E179F07E1F74090AD2140
:1007700004E811E2C0E0D0E0B12C0F2EF5E06F2EBE
:10078000F02D6894772472F80F2EF0EAEF2EF6E041
:10079000FF2EF02D0F2EF0E2CF2EF6E0DF2EF02D03
:1007A0006894882487F899249394AC2EFE01E95329
:1007B000FE4D8081D70114968C93B4E0CB1303C017
:1007C000F601868203C0D60115968C92F7018085CA
:1007D000807F8095F82FF07F5F2E84FDB39485FD98
:1007E000B39486FDB39455200CF4B394F80184E0DF
:1007F00090E0252D30E0A901B901082E02C07595C1
:1008000067950A94E2F760FF0AC06081693038F4A6
:10081000062E000C770B62557E4DDB019C920196F3
:1008200031968830910539F7CA0101974823592339
:10083000452B49F0B42DB095B52109F4B52D8B2F7A
:100840008195B82301C0B52DB03279F020F4B031D4
:1008500009F448C00EC0B03409F446C0B03849F4B9
:100860000F2EF3E07F2EF02D42C0BB2311F06A2C37
:10087000792C21960C5F1F4F452CC530D10509F00E
:1008800094CF5092AD2180E880932506B3E0B71550
:10089000E0F0E62DF0E0EE0FFF1FEE0FFF1FE45338
:1008A000FE4DE70DF11D80819091C521911106C08B
:1008B0008093C42181E08093C5210DC09091C42113
:1008C000891749F08093C42106C08091C5218130E9
:1008D00011F41092C52181E08B1508F080E080931F
:1008E000C02107C0712C03C06894772471F86A2C6A
:1008F000C0CFDF91CF911F910F91FF90EF90DF90CC
:10090000CF90BF90AF909F908F907F906F905F90AF
:100910004F900895EEEAF1E220E030E040E050E050
:1009200061E070E09191992349F0CB01022E02C061
:10093000880F991F0A94E2F7482B592B2F5F3F4FDE
:100940002930310579F7CA010895809128068093EE
:10095000BE218091C5218093C2218091C4218093C2
:10096000C1218091BE2184FD28C08091C2218130A7
:1009700009F04CC08091C321811148C0E091C12190
:100980008E2F90E0FC013797E733F10590F488272C
:10099000E250FF4F8F4F0C940C1684E009C080E1A9
:1009A00007C080E205C080E403C080E801C081E0A8
:1009B00073D081E08093BF2129C08091C52190919F
:1009C000AC2191110BC0813009F58093AC2180914D
:1009D000C1218093AB211092AA2118C0813051F51A
:1009E0008091AA21811112C08091C021882371F0C9
:1009F00081E08093AA210AC08091AB21DBD3809152
:100A0000AB219CD31092AC211092AA218091BE21DF
:100A100084FF07C08091BF21813019F474D01092F7
:100A2000BF218091C2218093C321089582E0C0CF6D
:100A300088E0BECF8091AA218111E4CFDDCFE8EE1E
:100A4000F1E220E030E090E0AC01022E02C05595CA
:100A500047950A94E2F740FD60832F5F3F4F319640
:100A60002830310589F70895E0E0F6E08FEF8183C3
:100A70008583E0E2F6E080E48183858308958FEF4B
:100A80008093050660E0DBDFBDC108958093060614
:100A900061E0D5DFB7C1089580930706E8EEF1E283
:100AA00020E030E0682F70E081E0AB01022E02C050
:100AB000559547950A94E2F740FF03C09081982727
:100AC00090832F5F3F4F31962830310571F79AC1DF
:100AD0000895E0E0F6E09FEF95838683E8EEF1E28B
:100AE00020E030E090E0AC01022E02C05595479521
:100AF0000A94E2F7417041932F5F3F4F2830310550
:100B000091F780C108958FEF8093050660E097CF3D
:100B10000895CF93DF93A8EEB1E268EF71E2FD0193
:100B200040E050E0C1E0D0E09F012A1B3B0B9191D7
:100B3000992341F0CE0102C0880F991F2A95E2F750
:100B4000482B592BE617F70779F7CA01DF91CF91A8
:100B5000089580E48093260681E08093F021089533
:100B600080E4809325061092F021089580E480931C
:100B70002706E8EEF1E2908581E0892780870895D5
:100B80008FEF8093060661E05ADFE3DF2FEB86EC00
:100B90009DE2215080409040E1F700C00000B3DFAB
:100BA000DFDF2FE181EA97E0215080409040E1F7BC
:100BB00000C0000080E00895E0EEF1E281E0808373
:100BC000118212821382148215828AEF90E086834A
:100BD000978308951092E02196CF08958091E021A7
:100BE000882309F45CC012D1882311F0F3CF089553
:100BF000E0EEF1E2848195810196848395832681DC
:100C000037818217930708F44AC0148215828381C2
:100C1000883008F11382818181111DC082818F5F2C
:100C200082832536310538F02B5431092093E62193
:100C30003093E72106C022E330E02093E621309391
:100C4000E721843040F0E0EEF1E281E0818382E34D
:100C500090E0868397836091E32141E050E0062E87
:100C600002C0440F551F0A94E2F7E0E0F6E08FEF70
:100C700085834683E8EEF1E280E090E055279A0113
:100C8000082E02C0359527950A94E2F7217021932A
:100C900001968830910599F76F5F6093E32108957D
:100CA0008091E0210895A3CB0895BF92CF92DF9267
:100CB000EF92FF920F931F93CF93DF93CDB7DEB7E1
:100CC0002797CDBFDEBF25DFB82E192F23DEC82E14
:100CD000D92ECDDCE62EF72E082FB982E1DF811167
:100CE00082E0182B1A83CB82DC82ED82FE820F8396
:100CF000CE01019645DB2796CDBFDEBFDF91CF91B8
:100D00001F910F91FF90EF90DF90CF90BF900895CB
:100D100015DD1BCE0895CF9354DCC82F8091280693
:100D200084FD09C0CC2379F0AADE8C2FAFDE81E0F0
:100D30008093F92108C068DC8091F921813019F491
:100D4000E2DE1092F921CF910895FC019181923455
:100D500021F481E08093FA210895953421F41092D2
:100D6000FA212ACF0895983411F4F3CE08959135DD
:100D700011F4F6CE08958081ACCE0895CF93909172
:100D80002806C1E0492F407194FDC0E02091FB216D
:100D90003091FC212F5F3F4F2093FB213093FC21AA
:100DA00041111EC0813069F48091FB219091FC219A
:100DB000843F9140E8F0DADE1092FB211092FC2192
:100DC00017C0811115C08091FB219091FC218830C2
:100DD000974070F0CBDE1092FB211092FC2108C0EE
:100DE0008091F8218111BCDE1092FB211092FC2130
:100DF000C093F821CF910895C3DE809328200895F1
:100E0000EDCE089581E08093FA2108958091FA2132
:100E100008950F931F93CF93DF93CDB7DEB7279736
:100E2000CDBFDEBF8FEF8093700080937100809301
:100E30007200809373008093740080937500809398
:100E4000760065E081E490E081D66CE170E082E0BC
:100E500073D68A836DE170E082E06ED689838981E2
:100E60009A81019621F480E493E289839A838981AF
:100E70009A818B839C83E0E6F0E082838C8183837C
:100E80008FB78E83F8949E81E0E5F0E080818260E8
:100E900080839FBF818181FFFDCF8FB78F83F894BF
:100EA0009F8100E510E0D80116968C911697897FF6
:100EB00016968C931697E0E6F0E080E885838BEB3E
:100EC000868316968C911697846016968C938081F3
:100ED000816080839FBF61E080E490E037D68FB768
:100EE0008D83F8949D81F80180818E7F80839FBFE0
:100EF0002796CDBFDEBFDF91CF911F910F9108954F
:100F0000CF93DF931F92CDB7DEB79FB79983F89445
:100F10009981E82FF0E0E059FF4F609580816823C8
:100F200060839FBF0F90DF91CF910895CF93DF93A0
:100F30001F921F92CDB7DEB7863011F060E001C07E
:100F400068E18091510081FD2AC08FB78983F894B0
:100F50009981E0E5F0E08081826080839FBF81819C
:100F600081FFFDCF8FB78A83F8949A81A0E5B0E026
:100F700016968C911697897F16968C931697E0E6B5
:100F8000F0E080E885838BEB868316968C9116972C
:100F9000846016968C938081816080839FBF63609C
:100FA00084E490E0D3D560E480E0AADF0F900F9056
:100FB000DF91CF91089580E008953091F42320913E
:100FC000F523822F90E00397B1F4311116C0809180
:100FD000F8239091F923892B91F4E2EFF3E28EEF5D
:100FE00091E28087918781E098E0848795871286D7
:100FF000138681E0089580E0089580E0089580E000
:101000000895089581E080930022089510920422AB
:101010001092022281E0809300220C94EA15089538
:101020000C94EE1508952DED37E04EEA50E262E0A3
:1010300072E284E092E2F2C00895FF920F931F9350
:10104000CF93DF931F92CDB7DEB79C018091002232
:10105000882309F1F9018FB78983F894F9801092F8
:10106000FE211092FF21808191818093FE21909337
:10107000FF2102E018E022E030E04EEF51E260E0B4
:1010800082E80E946A1291E0892780930022FFBEC5
:101090008091002289270F90DF91CF911F910F91AE
:1010A000FF90089580E0089580E0089510921A223C
:1010B0001092182210920E2288E0EFE0F2E2DF0197
:1010C0001D928A95E9F7109217220C94E315089562
:1010D0000C94E715089524E538E040ED50E268E10E
:1010E00072E28AE192E29AC008950F931F93809171
:1010F0000E22811118C088E0EFE0F2E2A6E0B2E231
:1011000001900D928A95E1F71092172207E918E0F5
:1011100028E030E046E052E260E081E80E946A1296
:1011200080930E2201C080E01F910F9108951092CC
:101130000E22809117228111D8CF08951F93CF934B
:10114000DF931F92CDB7DEB79FB79983F8941981CB
:1011500090911122992341F08917A9F0E2E1F2E27E
:1011600093E02191211102C01FBF1EC0281721F05A
:101170009F5F9830B1F705C0983019F0973020F094
:101180000CC01FBF11C092E0E92FF0E0E15FFD4D00
:10119000818180839F5F9730B9F71092162281E09A
:1011A00080931722A2DF1FBF81E00F90DF91CF91C4
:1011B0001F9108951F93CF93DF931F92CDB7DEB792
:1011C0009FB79983F8941981909111229923B1F0D6
:1011D000891741F0A2E1B2E2E3E09D91992349F041
:1011E000981303C01FBF81E014C0EF5FE830A9F778
:1011F00002C0E83021F41FBF80E00BC0E2E0F0E065
:10120000E15FFD4D808381E0809317226EDF1FBF79
:1012100081E00F90DF91CF911F910895CF93DF93DD
:10122000DC01EA019091F22399230CF068C09076DA
:1012300009F045C08091F323863009F040C076D193
:10124000DC011A962C911A97213209F077C020916F
:10125000F52330E021323105B1F49C01275F3F4F87
:101260002093FA233093FB23E2EFF3E219968C915B
:101270002681378190E02817390708F4C901828751
:10128000938781E068C0FC01478550E0421753070F
:1012900009F056C0C093FA23D093FB23E2EFF3E2A8
:1012A00026813781DC0150968D919C9151972817AA
:1012B000390708F4C9018287938781E04CC09032D6
:1012C00009F040C08091F323823039F0833071F00F
:1012D0008130D1F5F90119953EC0E2EFF3E2A08724
:1012E000B18781E090E08287938735C0E2EFF3E237
:1012F0006087718781E090E0828793872CC0907629
:10130000903221F58091F3238A3039F08B3051F0FF
:101310008930F1F4F90119951EC08091F5238C9361
:1013200081E019C08091F8239091F923892B91F4E1
:101330008091F423DB018C9381E00DC080E00BC031
:1013400080E009C080E007C080E005C080E003C005
:1013500080E001C080E0DF91CF910895E0912022EC
:10136000F09121220190F081E02D228133812E0F16
:101370003F1FFC014081E40FF11DE217F307A0F4C9
:1013800081818430A1F0861306C014C0818184302D
:10139000A1F08617A9F08081E80FF11DE217F3078D
:1013A000A8F380E090E0089580E090E0089580E068
:1013B00090E008958E2F9F2F089580E090E008958B
:1013C0008E2F9F2F08958091F4238F779CC70895C7
:1013D00090912222992381F1E0912022F091212203
:1013E0000190F081E02D9481891740F5E0931E2251
:1013F000F0931F22228133812E0F3F1FE217F30744
:10140000F8F49181943061F49281891309C0938139
:10141000961306C0E0931E22F0931F2281E00895E8
:101420009081E90FF11DE217F30758F3E0931E22B4
:10143000F0931F2280E0089580E0089580E00895F1
:1014400080E00895EF92FF921F93CF93DF93C82F10
:1014500060E0BEDF182F882381F1A0912022B09197
:101460002122EC2FF0E0EE0FFF1F12968D919C9140
:101470001397E80FF91FE080F180D7011696ED91E0
:10148000FC9117971995682F8C2FA2DF182F8823AE
:10149000A1F0C0911E22D0911F2265E0CE015EDF37
:1014A000EC01892B21F08A810E948313F6CFD701AA
:1014B0001296ED91FC9113971995812FDF91CF91A1
:1014C0001F91FF90EF9008951F93CF93DF93182FF4
:1014D0007FDF882339F1C0911E22D0911F2265E061
:1014E000CE013CDFEC01892B41F04C815D816B81A9
:1014F0008A8116D78111F3CF15C0A0912022B09117
:101500002122E12FF0E0EE0FFF1F12968D919C91AA
:101510001397E80FF91F0190F081E02D0190F08101
:10152000E02D1995DF91CF911F91089580911E2292
:1015300090911F2208955CC60895CF938091222236
:101540008823C1F0E0912022F09121220190F081C6
:10155000E02D8481882371F0C0E08C2F73DFCF5F92
:10156000E0912022F09121220190F081E02D8481F0
:10157000C81798F3109222228091262281FD0E94A2
:10158000E2151092262210922722CF910895CF9330
:1015900080912222882349F1A0912022B09121221A
:1015A000ED91FC91119784818823F9F0C0E0EC2F34
:1015B000F0E0EE0FFF1F12968D919C911397E80FAC
:1015C000F91F0190F081E02D0084F185E02D309726
:1015D00009F01995CF5FA0912022B0912122ED91C1
:1015E000FC9111978481C81710F3CF9108950F9340
:1015F0001F93CF93DF93E2EFF3E2128613861486F4
:10160000158616861786808188230CF07EC220916D
:10161000F8233091F9232115310509F07BC26DC201
:101620008F7109F0A0C09091F323963079F0983033
:1016300009F48FC0911197C02230310509F019C209
:1016400062E070E086E292E264D669C28091F4239F
:101650009091F523292F332722303105A9F020F46A
:101660002130310541F0C7C123303105D9F12F3088
:10167000310551F1C0C180912F2090913020DC01C3
:101680006C9170E046D656C0E0912F20F09130204A
:101690002189821708F0EDC19927880F991F880FBB
:1016A000991FE0913120F0913220E80FF91F8081DD
:1016B0009181FC01628173812CD6E091FA23F09133
:1016C000FB2382E0818336C08091332090913420C7
:1016D000009709F4CEC1DC0112966D917C911397AD
:1016E00018D628C099278130910571F038F00297FB
:1016F00009F08AC1EEE4F1E23BE109C064E070E088
:1017000084E791E206D616C0EAE6F1E239E0A8E104
:10171000B1E220E0819190E08D939D932F5F23179C
:10172000C8F3632F660F6E5F6093162170E086E149
:1017300091E2EFD5E2EFF3E286819781228533854E
:101740008217930708F0EBC18093FC239093FD234D
:10175000E6C12130310509F08CC161E070E082E220
:1017600092E2D7D5DCC18130E1F59091F3239A3034
:10177000C1F52130310509F04CC180912222882326
:1017800009F447C1C091F623D091F723009120229C
:1017900010912122D801ED91FC918481C81708F0A5
:1017A00038C160E08C2F14DE882309F42DC1CE01EE
:1017B0009927880F991FD8011296ED91FC911397E4
:1017C000E80FF91F0190F081E02D86819781FC01DF
:1017D00019958093242261E070E084E292E299D529
:1017E0009EC1823009F010C18091F323811105C19F
:1017F0002230310509F03DC18091F62319D690E0E1
:1018000080931C2290931D2262E070E08CE192E2B2
:1018100080D585C18F7109F09FC09091F3239330DB
:1018200091F118F49130A9F097C0953021F09930DA
:1018300009F443C091C08091F8239091F923892B3A
:1018400009F017C183EE99E08093FE239093FF2364
:1018500066C18091F8239091F923892B09F009C181
:101860008091F4239091F523019709F002C18091B2
:101870002622909127228D7F8093262290932722E3
:101880000E94E2154CC18091F8239091F923892B95
:1018900009F0EFC08091F4239091F523019709F0AE
:1018A000AEC08091262290912722826080932622CA
:1018B000909327220E94E11532C18091F8239091E4
:1018C000F923892B09F0D5C021D5882309F49CC0C0
:1018D0002091F4233091F5233327E0912F20F091CC
:1018E0003020818990E08217930708F48DC025DEAF
:1018F0008091F4239091F52380932222882309F488
:101900000EC199278150904C880F991F880F991FFD
:10191000E0913120F0913220E80FF91FE09320226E
:10192000F09321220190F081E02D8481882309F435
:10193000F6C0C0E060E08C2FC7DD882309F464C0E6
:10194000CF5FE0912022F09121220190F081E02DE3
:101950008481C81778F3E3C08130E9F49091F323D0
:101960009B30C9F48091F8239091F923892B09F0D9
:1019700050C080912222882309F44BC0E2EFF3E2A9
:10198000C481D2818C2F5EDD882309F43DC06D2F88
:101990008C2F9ADD37C08230B9F58091F3238130E6
:1019A00019F0833099F02DC08091F8239091F9239C
:1019B000892B09F05EC08091F4239091F523892B47
:1019C00009F057C08091F6234ED51CC08091F823B2
:1019D0009091F923892B09F04CC08091F4239091C8
:1019E000F523892B09F045C0C2EFD3E28C813CD6A8
:1019F0008C81A5D607C080E005C080E003C080E0F0
:101A000001C080E081118CC08091F2238F71813000
:101A100081F580912222882309F471C00091F62378
:101A20001091F723C0912022D0912122E881F981E1
:101A30008481081708F065C060E0802FC9DC882326
:101A4000C1F0F801FF27CF01880F991FEA81FB81C0
:101A5000E80FF91FC081D181EE81FF811995682FB0
:101A6000802FB6DC882329F0EC81FD811995811146
:101A700057C08091F2238F71823009F044C0809169
:101A800022228823B1F1A0912022B0912122ED9150
:101A9000FC9111978481882371F1C0E0EC2FF0E074
:101AA000EE0FFF1F12968D919C911397E80FF91F6F
:101AB00000811181D8011696ED91FC911797199527
:101AC000682F8C2F85DC882359F1D8011496ED916D
:101AD000FC9115971995811123C0CF5FA091202209
:101AE000B0912122ED91FC9111979481C917B0F228
:101AF00017C080E015C080E013C080E011C080E016
:101B00000FC080E00DC080E00BC0982F907609F0E8
:101B10007BCF80CE982F907609F076CF81CD81E073
:101B2000DF91CF911F910F91089581E09091222232
:101B3000911101C080E008954091CA01E62FF72F6E
:101B40008093CA0184914093CA0108951BBEFC0191
:101B500028ED24BF60830895CF93DF931F921F92D7
:101B6000CDB7DEB7811126C09091E8239923F9F013
:101B70009091ED23911101C0FFCF9FB79A83F89404
:101B80002A81ECEEF3E29181915091832FBF0FC037
:101B90009091ED239F3F09F4FFCF9FB79983F8946D
:101BA0002981ECEEF3E291819F5F91832FBF8093B7
:101BB000E82305C09091E823992351F3F8CF0F90C3
:101BC0000F90DF91CF9108950F93E8ECF4E08081BE
:101BD0008F7D808380818F7D8083ECE9F3E202E05A
:101BE000059310929E2310929F2300E2069300E437
:101BF0000693E4E9F3E200E40693E2EFF3E21486ED
:101C00001586168617861286138610927D230F91ED
:101C100008950F9385E080937D23EDE9F3E204E0DE
:101C20000593E5E9F3E204E005930F9108950F931E
:101C300083E080937D2310929E2310929F23ECE9F2
:101C4000F3E202E006930F910895E091FE23F091F4
:101C5000FF23309709F0199508950F93CF93DF93E1
:101C600080917D23833019F4F0DFAEDF5EC0809178
:101C7000792390917A23C091FC23D091FD23C81B36
:101C8000D90B71F520917B2330917C23820F931F18
:101C900080937B2390937C232091F8233091F92328
:101CA0008217930721F080912822882341F084E055
:101CB00080937D23E4E9F3E202E0069336C0E091ED
:101CC0000024F0910124309799F01995882381F030
:101CD0001092792310927A23C091FC23D091FD2396
:101CE000C830D10528F010922822C8E0D0E003C007
:101CF00081E080932822E0E8F3E2C68FD78F8091BD
:101D0000792390917A232091FA233091FB23280F95
:101D1000391F20A331A3C80FD91FC0937923D093B3
:101D20007A23ECE9F3E202E00693DF91CF910F9181
:101D30000895FC018181E82FE7708E2F90E0FC016F
:101D40003197E730F105D0F48827EB5CFE4F8F4FD9
:101D500063C780E190E0089580E290E0089580E418
:101D600090E0089580E890E0089580E091E0089583
:101D700080E092E008958FEF93E0089588E090E08E
:101D80000895282F2F7030E0220F331F082E000CEB
:101D9000990B8827990F881F9927820F931F029705
:101DA0009C01220F331F220F331F220F331F820F7C
:101DB000931F875D9C4D08950F93CF938091CC0422
:101DC00080FF64C081E08093CC04E4E9F3E200E8A2
:101DD0000693ECE9F3E200E806938093CA04E4E991
:101DE000F3E200E1069380917D23882329F083505C
:101DF000823008F42ADFE8DE8091962390919723C1
:101E0000089709F045C088E0E1E7F3E2A2EFB3E20A
:101E100001900D928A95E1F7E8ECF4E08081806210
:101E20008083808180628083E2DBC82F811103C0C0
:101E3000F0DEC1E02EC08091F22388236CF4109272
:101E40007B2310927C231092792310927A2382E0D4
:101E500080937D2302DF1DC08091F8239091F923A8
:101E6000892B11F4E4DE15C010927B2310927C23A1
:101E70001092792310927A2381E080937D23E4E904
:101E8000F3E202E0069300E2069303C0C0E001C063
:101E9000C1E08C2FCF910F9108958F929F92AF92B6
:101EA000BF92DF92EF92FF920F931F93CF93DF9336
:101EB000D82E67DF8C01CD2DCF70D0E0CE01880FFA
:101EC000991FCD2D0D2C000CDD0BCC27DD0FCC1F69
:101ED000DD27C80FD91FCE01880F991F880F991FC2
:101EE000880F991F9C012C563C4D7901C90121DFB7
:101EF0004C01DD200CF079C0FE01EE0FFF1FEE0F4C
:101F0000FF1FEE0FFF1FE058FC4D228D338DD801CF
:101F100015968D919C911697820F931F15968D9310
:101F20009C93169713962D913C91149782179307C3
:101F300009F445C0281B390B2115B4E03B0738F0E4
:101F40002FEF33E0C901B40153D6281B390BF80138
:101F5000808181FF09C0C901B4014AD641E0892BC3
:101F600009F040E0842F01C080E0D8019C9180FB03
:101F700091F99C93FE01EE0FFF1FEE0FFF1FEE0F76
:101F8000FF1FE058FC4D128E138E268B378B119657
:101F90002D913C91129715968D919C911697820FD9
:101FA000931FCC0FDD1FCC0FDD1FCC0FDD1FC856DC
:101FB000DC4D88839983F70102E00693E0C0D801E5
:101FC0008C9181FFC9C08D7F8C93CC0FDD1FCC0F0E
:101FD000DD1FCC0FDD1FC058DC4D1A8E1B8E1E8AF4
:101FE0001F8AF70102E00693CAC0FE01EE0FFF1F31
:101FF000EE0FFF1FEE0FFF1FE058FC4DA688B788BD
:10200000D8018C9182FF19C01196ED91FC91129725
:1020100015962D913C91169713968D919C9114973E
:10202000B401E6D5B0E4DB9EB001112467517E4DCA
:10203000AC01CF01820F931FF7D5F80125813681BE
:102040002A0D3B1D25833683838194818217930754
:1020500068F485839683CC0FDD1FCC0FDD1FCC0F7A
:10206000DD1FC058DC4D8A8D9B8D76C0FE01EE0FC2
:10207000FF1FEE0FFF1FEE0FFF1FE058FC4D428DBC
:10208000538DA416B50609F067C02817390709F45F
:1020900063C0AC01421B530B9A01211554E0350774
:1020A00040F02FEF33E0C901B401A2D5281B390B52
:1020B00005C0C901B4019CD5281B390BFE01EE0FE8
:1020C000FF1FEE0FFF1FEE0FFF1FE058FC4D168A9B
:1020D000178A2815390500F5D8018C9184608C93F6
:1020E000B0E4DB9EC001112487519E4DFE01EE0F2E
:1020F000FF1FEE0FFF1FEE0FFF1FE856FC4D808302
:102100009183CC0FDD1FCC0FDD1FCC0FDD1FC0581E
:10211000DC4D8A8E9B8E1CC0F801418152818581E5
:102120009681840F951FFE01EE0FFF1FEE0FFF1F1C
:10213000EE0FFF1FE856FC4D80839183CC0FDD1F0F
:10214000CC0FDD1FCC0FDD1FC058DC4D2A8F3B8F1D
:10215000F70102E0069313C0D8018C9180FF0FC0F5
:102160008E7F8C931796ED91FC911897309739F0EC
:1021700015966D917C9116974D2D80E01995DF9104
:10218000CF911F910F91FF90EF90DF90BF90AF9094
:102190009F908F9008951F93CF93DF931F92CDB799
:1021A000DEB78FB78983F894198181E0D5DCEAEC3A
:1021B000F4E080E4808380E28083E1ECF4E08081DD
:1021C00081608083A9ECB4E08C9182608C93E8EC10
:1021D000F4E08081806480838C9181608C93808125
:1021E000806880831FBF0F90DF91CF911F9108956A
:1021F0000F931F93CF93DF931F921F92CDB7DEB73C
:1022000000E610E0F801108280E30E949607E0ECFF
:10221000F4E080818064808381E0F80180838FB75F
:102220008A83F8941A8180E090E0FC01EE0FFF1F92
:10223000EE0FFF1FEE0FFF1FE058FC4D158A0196B1
:102240008A30910591F780E090E0FC01EE0FFF1FCE
:10225000EE0FFF1FEE0FFF1FE80FF91FE75DFC4DAC
:1022600020812E7F208301968830910571F76AE1E5
:1022700070E082E061DC8F3F19F08093FA0403C0C4
:102280008FE18093FA046BE170E082E055DC8F3FD0
:1022900019F08093FB0403C08FE18093FB04E0EC12
:1022A000F4E0808184608083808180688083808185
:1022B0008061808384E993E2868397838081806252
:1022C00080838FEF8093C504E8ECF4E08081816027
:1022D00080831092E8238091F1238F3F09F4FFCF90
:1022E0008FB78983F8949981ECEEF3E285818F5F53
:1022F00085839FBF50DF1FBF0F900F90DF91CF915D
:102300001F910F9108958093C30408958091C30491
:102310000895E2EFF3E280879187628773870895DB
:10232000282F2F7030E0220F331F082E000C990B3E
:102330008827990F881F9927820F931FFC01EE0FA2
:10234000FF1FEE0FFF1FEE0FFF1FE058FC4D25890A
:10235000207C09F069C06370613011F018F404C08A
:1023600060EC03C060E801C060E440385105E9F06A
:1023700050F440325105A9F040345105A1F04031EC
:102380005105D9F40CC0411522E0520791F04F3F9E
:1023900023E0520781F04115514079F408C021E053
:1023A0000DC022E00BC023E009C024E007C025E0F7
:1023B00005C026E003C027E001C020E0FC01EE0FCD
:1023C000FF1FEE0FFF1FEE0FFF1FE058FC4D158A99
:1023D00036E0348B262B258BFC01EE0FFF1FEE0F12
:1023E000FF1FEE0FFF1FE058FC4D2589207C203C8D
:1023F00069F4FC01EE0FFF1FEE0FFF1FEE0FFF1F32
:10240000E058FC4D25892770273081F0880F991FEF
:10241000880F991F880F991FFC01E058FC4D858992
:102420008062858B81E0089580E0089581E00895C1
:10243000E82FEF70F0E0EE0FFF1F082E000C990B55
:102440008827990F881F9927E80FF91FEE0FFF1FA4
:10245000EE0FFF1FEE0FFF1FE058FC4D858982FB3A
:10246000882780F908950F93282F2F7030E0A90155
:10247000440F551F282F082E000C330B2227330F33
:10248000221F3327240F351FA901440F551F440F66
:10249000551F440F551FFA01EC56FC4D01E0069301
:1024A000FA01E058FC4D958992FF11C0FA01E058FD
:1024B000FC4D95899B7F958B64DCFC01808180FFBE
:1024C00006C08E7F80830780F085E02D199581E01E
:1024D0000F9108956F927F928F929F92AF92BF92C9
:1024E000CF92DF92EF92FF920F931F93CF93DF93E0
:1024F0001F92CDB7DEB7782E662E4A01590141DC16
:102500006C01272D872D8F70E82EF12CC701880FC5
:10251000991FE72C072C000CFF08EE24FF0CEE1C83
:10252000FF24E80EF91EF701EE0FFF1FEE0FFF1F4D
:10253000EE0FFF1FE058FC4D8589807C09F481C0B7
:10254000F701EE0FFF1FEE0FFF1FEE0FFF1FE0580A
:10255000FC4D8589807C803C61F0F701EE0FFF1F08
:10256000EE0FFF1FEE0FFF1FE058FC4D858982FD27
:102570006AC08FB78983F8948981F601908190FFB2
:1025800003C08FBF80E060C0F601908191609083AE
:102590008FBF81829282A382B482158216820783C2
:1025A0001087611006C091E0A114B10419F090E009
:1025B00001C091E0F601808190FB81F98B7F8083DF
:1025C000222364F4F701EE0FFF1FEE0FFF1FEE0F43
:1025D000FF1FE058FC4D128E138E2FC0F701EE0F37
:1025E000FF1FEE0FFF1FEE0FFF1FE058FC4D858908
:1025F000807C803CA9F4C701880F991F880F991F20
:10260000880F991F8C569C4D94DBBC01C501F0D2FC
:10261000892B31F0F60180818E7F808380E014C0A9
:10262000F701EE0FFF1FEE0FFF1FEE0FFF1FE05829
:10263000FC4D168A178A128E138E872D2EDC81E0B0
:1026400003C080E001C080E00F90DF91CF911F9127
:102650000F91FF90EF90DF90CF90BF90AF909F9041
:102660008F907F906F900895FF920F931F93CF9359
:10267000DF93182FC82FCF70D0E0CE01880F991F9D
:10268000C12F012E000CDD0BCC27DD0FCC1FDD2769
:10269000C80FD91F812F75DBDC01FE01EE0FFF1F74
:1026A000EE0FFF1FEE0FFF1FEC56FC4D02E00593EF
:1026B0008C9180FF22C08E7F8C931796ED91FC91B8
:1026C00018973097D1F011235CF4CC0FDD1FCC0F9D
:1026D000DD1FCC0FDD1FC058DC4D6A8D7B8D0AC01D
:1026E000CC0FDD1FCC0FDD1FCC0FDD1FC058DC4D24
:1026F0006E897F89412F81E01995DF91CF911F91DC
:102700000F91FF900895CF93C82FAEDFEC2FEF709D
:10271000F0E0EE0FFF1F8C2FCC0F990B8827990F3D
:10272000881F9927E80FF91FEE0FFF1FEE0FFF1FFD
:10273000EE0FFF1FE058FC4D158ACF910895E82F4A
:10274000EF70F0E0EE0FFF1F282F082E000C330B68
:102750002227330F221F3327E20FF31FEE0FFF1F35
:10276000EE0FFF1FEE0FFF1FE058FC4D95899460A0
:10277000958B7ADF81E008951F920F920FB60F922A
:1027800011240BB60F920F932F933F934F935F93A8
:102790006F937F938F939F93AF93BF93CF93EF9359
:1027A000FF938091CB0488233CF480E88093CA0493
:1027B0000E94C70AEED189C08091CB0482FF20C05D
:1027C00084E08093CA0480919C2386FF7EC0809120
:1027D000CC0481FD7AC0F0DA811177C080917D232D
:1027E000813011F424DA71C0843009F06EC0EDE953
:1027F000F3E204E00593E5E9F3E204E0059365C044
:102800008091CB0481FF5CC082E08093CA048091F8
:10281000942386FF5AC08091CC0481FD56C0CCDA47
:10282000811153C080917D23823041F484E08093F4
:102830007D23E4E9F3E202E0069347C0833009F028
:1028400044C0EDE9F3E204E00593E5E9F3E204E0D6
:1028500005933BC080E18093CA04C1E08C2F04DF64
:102860008C2F806801DFCF5FC530C1F70E949D0AC1
:102870001092C304E0E8F3E2158A96E0948B80E4BA
:10288000858B158E948F858F81E793E2808F918F52
:102890009BD91BC08091CB0486FF07C080E4809346
:1028A000CA0480E059D973D110C08091CB0485FF50
:1028B0000CC080E28093CA0481E04ED969D105C082
:1028C0008091CB0484FDC6CFE5CFFF91EF91CF91EE
:1028D000BF91AF919F918F917F916F915F914F9138
:1028E0003F912F910F910F900BBE0F900FBE0F9045
:1028F0001F9018951F920F920FB60F9211240BB6CE
:102900000F920F931F932F933F934F935F936F9368
:102910007F938F939F93AF93BF93CF93DF93EF9367
:10292000FF938091CC0481FD03C046DA8111C3C0BE
:1029300082E08093CC048091C5048195880FE4E9FE
:10294000F3E2E81BF10920813181245933423695A5
:1029500027953695279536952795822F869520FDC4
:1029600002C090E001C090E8890FE82FEF70F0E01E
:10297000EE0FFF1F282F082E000C330B2227330FDA
:10298000221F3327E20FF31FDF01AA0FBB1FAA0F7D
:10299000BB1FAA0FBB1FA058BC4D54969C9195FF1E
:1029A0008AC0EE0FFF1FEE0FFF1FEE0FFF1FEC564A
:1029B000FC4D00E20693811179C080917D23843023
:1029C00019F443D901D977C0009196231091972328
:1029D0008091FC239091FD23C0917923D0917A239B
:1029E00098012C0F3D1F8217930718F48C010C1BC4
:1029F0001D0B8091FA239091FB23A80161E773E2FC
:102A00008C0F9D1F11D1C00FD11FC0937923D0937C
:102A10007A230830110569F480917B2390917C23FF
:102A20008C0F9D1F2091F8233091F9238217930773
:102A300080F0E2EFF3E2C287D3870684F785E02DCA
:102A4000309729F01995811102C0E3D834C0EFD82E
:102A500032C08091FC239091FD23C817D907F9F467
:102A6000E0910024F0910124309711F4D2D823C0D2
:102A70001995811102C0CDD81EC020917B233091C1
:102A80007C238091792390917A23820F931F8093E6
:102A90007B2390937C231092792310927A23E4E98C
:102AA000F3E202E0069300E2069305C0803811F4D9
:102AB000D4D801C0F2D9FF91EF91DF91CF91BF91AE
:102AC000AF919F918F917F916F915F914F913F91C6
:102AD0002F911F910F910F900BBE0F900FBE0F9073
:102AE0001F90189587E08093A2007894ECEEF3E2B3
:102AF0001082118212821382148281E085830E94E7
:102B000009070E9453060E949B0A0E94FC0600E2ED
:102B100016E00F2EFCEEEF2EF3E2FF2EF02DC8E4B0
:102B2000D0E003D8882309F1F894F701808181115E
:102B300009C0ADEEB3E2E0E0EF5F8D918823E1F3F1
:102B4000E11102C07894EDCF8881F0E0E85DFF4D9F
:102B5000817F9081892B88838881816088837894A4
:102B6000889588818E7F8883DCCFF801808584FDFD
:102B7000D8CF0E9488060E948B0680E00E94BE0685
:102B800089EF90E00197F1F700C00000CACF0895E7
:102B900008958091EB23882399F00E948806809104
:102BA000EA23882369F00E948B068091E923882319
:102BB00039F00E94550681E00E94BE060C94000781
:102BC00008950895089581E08093EB23089510926D
:102BD000EB23089581E08093EA2308951092EA237D
:102BE000089581E08093E92308951092E9230895E0
:102BF000AA1BBB1B51E107C0AA1FBB1FA617B70723
:102C000010F0A61BB70B881F991F5A95A9F780953E
:102C10009095BC01CD010895EE0FFF1F881F8BBF5B
:102C20000790F691E02D1994FB01DC0102C00190A0
:0E2C30000D9241505040D8F70895F894FFCF10
:102C3E000600FF0901A10195387501190129388196
:102C4E000295107501190129109102C09901B30165
:102C5E00B6015E010000808001000E060C04009C8F
:102C6E002035200000402039200B21C6201C2000DA
:102C7E0009025B00030100A03209040000010300F9
:102C8E000000092111010001223B00070581030804
:102C9E0000020904010001030000000921110100D6
:102CAE00012218000705820308000409040200022D
:102CBE0003000000092111010001221C00070584F8
:102CCE0003080004070503030800040012010002B4
:102CDE0000000008EB033321000101020001050191
:102CEE000904A101050109300931150026FF0075FF
:102CFE000895028102C0060810081308DB070000C1
:102D0E0005010906A101050719E029E715002501AE
:102D1E007501950881028101190029651500256547
:102D2E00750895068100050819012905150025016C
:102D3E0075019505910295039101C0560868086BBF
:102D4E000852080000000003000000000000000010
:102D5E000000000000000000000000000000000065
:102D6E000000000000000000000000000000000055
:102D7E00000000000000000000000000000043758D
:102D8E0073746F6D2048494420436F6D706F736983
:102D9E007465204465766963650041544D454C2049
:102DAE00415346000403090400172E455C748BA2A0
:102DBE00B9D0E7FF0807FFFF0605FFFF04FFFFFF7F
:082DCE00FFFF0002FFFF0103FB
:00000001FF
