:100000000DC100002CC100002AC1000028C1000061
:1000100026C1000024C1000022C1000020C1000050
:100020001EC100001CC100001AC1000018C1000060
:1000300016C1000014C1000012C1000010C1000070
:100040000EC100000CC100000AC1000008C1000080
:1000500006C1000004C1000002C1000000C1000090
:10006000FEC00000FCC00000FAC00000F8C00000A4
:10007000F6C00000F4C00000F2C00000F0C00000B4
:10008000EEC00000ECC00000EAC00000E8C00000C4
:10009000E6C00000E4C00000E2C00000E0C00000D4
:1000A000DEC00000DCC00000DAC00000D8C00000E4
:1000B000D6C00000D4C00000D2C00000D0C00000F4
:1000C000CEC00000CCC00000CAC00000C8C0000004
:1000D000C6C00000C4C00000C2C00000C0C0000014
:1000E000BEC00000BCC00000BAC00000B8C0000024
:1000F000B6C00000B4C00000B2C00000B0C0000034
:10010000AEC00000ACC00000AAC00000A8C0000043
:10011000A6C00000A4C00000A2C00000A0C0000053
:100120009EC000009CC000009AC0000098C0000063
:1001300096C0000094C0000092C0000090C0000073
:100140008EC000008CC000008AC0000088C0000083
:1001500086C0000084C0000082C0000080C0000093
:100160007EC000007CC000007AC0000078C00000A3
:1001700076C0000074C0000072C0000070C00000B3
:100180006EC000006CC000006AC0000068C00000C3
:1001900066C0000064C0000062C0000060C00000D3
:1001A0005EC000005CC000005AC0000058C00000E3
:1001B00056C0000054C0000052C0000050C00000F3
:1001C0004EC000004CC000004AC0000048C0000003
:1001D00046C0000044C0000042C0000040C0000013
:1001E0003EC000003CC000003AC0000038C0000023
:1001F00036C000000C9465110C9420128C03D503BA
:100200008203D7038403860388038A038C03550C77
:10021000580C5B0C5E0C610C640C670C11241FBE47
:10022000CFEFCDBFDFE5DEBF00E00CBF11E2A0E005
:10023000B0E2E8EFF6E200E00BBF02C007900D92DB
:10024000AE34B107D9F722E2AEE4B1E201C01D92AB
:10025000A43BB207E1F70E9418130C947A13D0CE96
:10026000E0E0F6E09FEF91839583E0E2F6E03FE384
:10027000328388E1808B818B828B838B848B858B0F
:1002800020EC218340E4458340E84583E0E4F6E048
:100290004CEF4283828B838B848B858B868B878B01
:1002A00043E041834583E0E6F6E03283808B818B37
:1002B000828B838B848B858B21832683E0E8F6E019
:1002C0009283808B818B828B838B848B858B868BB7
:1002D000878BE0EAF6E090EF9283848B858B868BA8
:1002E000878B8FE0818385830895809148062091D4
:1002F000680690E0922B9695879596958795BC0118
:100300007F7080FF17C021E030E0E1E0F0E0822F55
:10031000AF01022E02C0440F551F0A94E2F7462394
:100320005723452B41F02F5F3F4F2C30310579F794
:100330008FEF089580E00895809188062091280627
:1003400090E0922BBC017F7080FF17C021E030E06D
:10035000E1E0F0E0822FAF01022E02C0440F551FF2
:100360000A94E2F746235723452B41F02F5F3F4F76
:100370002C30310579F78FEF089580E008958823B8
:10038000F4F19BEF980F9230E0F1853034F495E072
:10039000981B923008F042C036C09AEF980F923006
:1003A000B0F531C062E023E030E090E080E0E1E0D1
:1003B000F0E0AF01022E02C0440F551F0A94E2F78D
:1003C000842B9F5F21503109961798F3089581502F
:1003D000482F50E04B5F5F4F24E030E080E0E1E0E9
:1003E000F0E0BF01022E02C0660F771F0A94E2F709
:1003F000862B2F5F3F4F2417350799F7089580E02C
:10040000089588E1089585306CF282E0E0CF855050
:10041000853008F084E08111DACF089566E0681B2A
:10042000653008F064E06111BECF80E00895CF939D
:100430005CDFC82F81DFCC2324F48823C4F090E054
:1004400009C0C6301CF09BEF9C0F02C095E09C1BBE
:10045000882354F086301CF02BEF280F02C025E0D3
:10046000281B921708F4C82F8C2F89DF01C080E069
:10047000CF91089561DF88233CF0E82F880FFF0BB0
:10048000EE5BFE4D808101C080E880934E212DDF20
:1004900088233CF0E82F880FFF0BEE5BFE4D808138
:1004A00001C080E8EEE4F1E2818320819091002098
:1004B000291304C090910120981771F08EE491E205
:1004C00013D3882349F0E0E0F0E2AEE4B1E28C918E
:1004D000808311968C9181830895A9DF80939B225C
:1004E0009091280690939C2290919C2294FD0DC09F
:1004F000882369F064D180919B2265D183EC99E0D7
:100500000197F1F700C00000089559D1B3CF0895C5
:100510001092562110925321109254211092512181
:100520001092592110925521EFE5F1E281E6808386
:1005300080E68183128213828FE584838EE5858332
:10054000168217828DE5808711861286138614869F
:10055000158689E586878BE58787108A118A8AE563
:10056000828B8CE5838BEAE5F1E28EE080838DE07F
:1005700081838BE0828387E083838FEF8483089578
:10058000CF93DF931092572110925021A0EAB6E04A
:10059000C0E2D6E090E862E025E054E041E033E0DC
:1005A00057C0E0915021F0E0E65AFE4D808114964C
:1005B0008C93149780915021843011F49E8301C054
:1005C0009D8318968C911897807F809359218091F4
:1005D0005921803BD1F018F4803701F128C0803DCB
:1005E00059F0803E21F5109258218091502180933E
:1005F0005721209350212CC04093582180915021A5
:10060000809357212093502123C0609358218091DB
:10061000502180935721209350211AC030935821A4
:1006200080915021809357212093502111C05093E5
:1006300058218091502180935721809150218530FD
:1006400010F020935721809150218F5F809350218B
:1006500080915021853008F4A4CF80E8809325064E
:10066000809158218430E0F4809157218530C0F486
:100670008091562181111AC0E0915721F0E08091BC
:100680005821EE0FFF1FEE0FFF1FE15AFE4DE80F3E
:10069000F11D80818093552181E08093562106C011
:1006A00080915621813011F410925621DF91CF9123
:1006B00008958091280680939D22809156218093F1
:1006C0005321809155218093522180919D2284FD58
:1006D00029C080915321813009F057C08091542165
:1006E000811153C0E09152218E2F90E0FC01E95519
:1006F000F109E930F10590F48827E250FF4F8F4F60
:100700000C94691384E009C080E107C080E205C051
:1007100080E403C080E801C081E058D081E080938C
:10072000512133C080915321813081F48091542133
:1007300081110CC0809155218093522160915221EA
:100740008091532170E090E044D013C080915321F8
:1007500081110FC080915421813059F4809155212D
:1007600080935221609152218091532170E090E05A
:1007700030D080915321813041F4809154218111F6
:1007800004C0809155218093522180919D2284FF45
:1007900007C080915121813019F411D0109251215C
:1007A0008091532180935421089582E0B6CF88E050
:1007B000B4CFE0E0F6E08FEF8183858308958FEF7B
:1007C0008093050608958093060608958093070692
:1007D00008958093792160937821089580917621FE
:1007E000909177210196809376219093772180FFD5
:1007F00060C02091792130917521321749F031E0A4
:10080000211101C030E03093752121E02093742143
:100810008639910508F44DC0109276211092772107
:1008200080917421882309F444C02091732130E021
:1008300080917821F901EE0FFF1FE20FF31FEE5FA9
:10084000FF4D8283882349F1F901EE0FFF1FE20F6C
:10085000F31FEE5FFF4D9081992379F0F901EE0FC0
:10086000FF1F2E0F3F1FF901EE5FFF4D918199236E
:1008700011F0FDD110C0E0D10EC0F901EE0FFF1F45
:100880002E0F3F1FF901EE5FFF4D9181992311F06B
:1008900044D201C006D2882361F0809173218F5F1A
:1008A000823018F48093732108951092732110926E
:1008B0007421089580958093040608950ECE0895BE
:1008C0000F931F93CF93DF93CDB7DEB72797CDBF9D
:1008D000DEBF8FEF80937000809371008093720071
:1008E00080937300809374008093750080937600EA
:1008F00065E081E490E0D6D66CE170E082E0C8D695
:100900008A836DE170E082E0C3D6898389819A8110
:10091000019621F480E493E289839A8389819A8104
:100920008B839C83E0E6F0E082838C8183838FB7A6
:100930008E83F8949E81E0E5F0E080818260808380
:100940009FBF818181FFFDCF8FB78F83F8949F81F7
:1009500000E510E0D80116968C911697897F1696BF
:100960008C931697E0E6F0E080E885838BEB868336
:1009700016968C911697846016968C938081816070
:1009800080839FBF61E080E490E08CD68FB78D8339
:10099000F8949D81F80180818E7F80839FBF279688
:1009A000CDBFDEBFDF91CF911F910F910895CF93FF
:1009B000DF931F92CDB7DEB79FB79983F8949981E3
:1009C000E82FF0E0E059FF4F609580816823608355
:1009D0009FBF0F90DF91CF910895CF93DF931F9228
:1009E0001F92CDB7DEB7863011F060E001C068E13C
:1009F0008091510081FD2AC08FB78983F894998135
:100A0000E0E5F0E08081826080839FBF818181FF8B
:100A1000FDCF8FB78A83F8949A81A0E5B0E016964F
:100A20008C911697897F16968C931697E0E6F0E0E6
:100A300080E885838BEB868316968C91169784606D
:100A400016968C938081816080839FBF636084E46D
:100A500090E028D660E480E0AADF0F900F90DF914D
:100A6000CF91089580E008953091A6222091A72289
:100A7000822F90E00397B1F4311116C08091AA2221
:100A80009091AB22892B91F4E4EAF2E28AE791E2B9
:100A90008087918788E595E08487958712861386FD
:100AA00081E0089580E0089580E0089580E0089551
:100AB000089581E080937C21089510928021109206
:100AC0007E2181E080937C210C944E1308950C9438
:100AD0005213089524E335E044E650E26EE771E2F4
:100AE00080E891E24EC10895FF920F931F93CF9338
:100AF000DF931F92CDB7DEB79C0180917C218823C4
:100B000009F1F9018FB78983F894F98010927A215D
:100B100010927B218081918180937A2190937B2117
:100B200009E515E022E030E04AE751E260E082E8C2
:100B30000E94131091E0892780937C21FFBE809151
:100B40007C2189270F90DF91CF911F910F91FF900A
:100B5000089580E008953091A6222091A722822F47
:100B600090E00297B9F4311117C08091AA229091B8
:100B7000AB22019799F4E4EAF2E284E991E28087FA
:100B800091878FEE95E08487958781E090E082875A
:100B90009387089580E0089580E0089580E00895A7
:100BA000109298211092962110928A2188E0EBE809
:100BB000F1E2DF011D928A95E9F7109293210C94DE
:100BC000471308950C944B1308952BEA35E049E838
:100BD00050E266E971E288E991E2D3C0089580911C
:100BE000942168CE08950F931F9380918A218111DB
:100BF00018C088E0EBE8F1E2A2E8B1E201900D92C2
:100C00008A95E1F71092932105E116E028E030E0A3
:100C100042E851E260E081E80E94131080938A214B
:100C200001C080E01F910F91089510928A21809158
:100C300093218111D8CF08951F93CF93DF931F92F3
:100C4000CDB7DEB79FB79983F8941981EBE8F1E24D
:100C5000809590818923808381E080939321C3DFF5
:100C60001FBF81E00F90DF91CF911F9108951F93D7
:100C7000CF93DF931F92CDB7DEB79FB79983F894D8
:100C80001981EBE8F1E29081892B808381E08093E8
:100C90009321A9DF1FBF81E00F90DF91CF911F91BA
:100CA00008951F93CF93DF931F92CDB7DEB79FB701
:100CB0009983F894198190918D21992341F0891796
:100CC000A9F0EEE8F1E293E02191211102C01FBFEB
:100CD0001EC0281721F09F5F9830B1F705C09830EB
:100CE00019F0973020F00CC01FBF11C092E0E92F1F
:100CF000F0E0E557FE4D818180839F5F9730B9F723
:100D00001092922181E0809393216DDF1FBF81E0DB
:100D10000F90DF91CF911F9108951F93CF93DF9391
:100D20001F92CDB7DEB79FB79983F8941981909140
:100D30008D219923B1F0891741F0AEE8B1E2E3E0EB
:100D40009D91992349F0981303C01FBF81E014C0FF
:100D5000EF5FE830A9F702C0E83021F41FBF80E060
:100D60000BC0E2E0F0E0E557FE4D808381E0809328
:100D7000932139DF1FBF81E00F90DF91CF911F9149
:100D80000895CF93DF93DC01EA019091A422992387
:100D90000CF068C0907609F045C08091A52286309D
:100DA00009F040C076D1DC011A962C911A972132B5
:100DB00009F077C02091A72230E021323105B1F44B
:100DC0009C01275F3F4F2093AC223093AD22E4EA91
:100DD000F2E219968C912681378190E02817390725
:100DE00008F4C9018287938781E068C0FC014785C8
:100DF00050E04217530709F056C0C093AC22D0937D
:100E0000AD22E4EAF2E226813781DC0150968D9131
:100E10009C9151972817390708F4C9018287938755
:100E200081E04CC0903209F040C08091A522823010
:100E300039F0833071F08130D1F5F90119953EC058
:100E4000E4EAF2E2A087B18781E090E082879387AD
:100E500035C0E4EAF2E26087718781E090E0828742
:100E600093872CC09076903221F58091A5228A300C
:100E700039F08B3051F08930F1F4F90119951EC029
:100E80008091A7228C9381E019C08091AA22909131
:100E9000AB22892B91F48091A622DB018C9381E017
:100EA0000DC080E00BC080E009C080E007C080E09A
:100EB00005C080E003C080E001C080E0DF91CF91F9
:100EC0000895E0919E21F0919F210190F081E02D05
:100ED000228133812E0F3F1FFC014081E40FF11D61
:100EE000E217F307A0F481818430A1F0861306C0D5
:100EF00014C081818430A1F08617A9F08081E80FA9
:100F0000F11DE217F307A8F380E090E0089580E078
:100F100090E0089580E090E008958E2F9F2F08952F
:100F200080E090E008958E2F9F2F08958091A62253
:100F30008F778DC708959091A021992381F1E09139
:100F40009E21F0919F210190F081E02D94818917DD
:100F500040F5E0939C21F0939D21228133812E0F57
:100F60003F1FE217F307F8F49181943061F4928106
:100F7000891309C09381961306C0E0939C21F093D6
:100F80009D2181E008959081E90FF11DE217F3079B
:100F900058F3E0939C21F0939D2180E0089580E038
:100FA000089580E0089580E00895EF92FF921F93E6
:100FB000CF93DF93C82F60E0BEDF182F882381F125
:100FC000A0919E21B0919F21EC2FF0E0EE0FFF1F2A
:100FD00012968D919C911397E80FF91FE080F18094
:100FE000D7011696ED91FC9117971995682F8C2FC4
:100FF000A2DF182F8823A1F0C0919C21D0919D21C0
:1010000065E0CE015EDFEC01892B21F08A810E9430
:101010002C11F6CFD7011296ED91FC9113971995EB
:10102000812FDF91CF911F91FF90EF9008951F9333
:10103000CF93DF93182F7FDF882339F1C0919C2154
:10104000D0919D2165E0CE013CDFEC01892B41F080
:101050004C815D816B818A810CD78111F3CF15C0E2
:10106000A0919E21B0919F21E12FF0E0EE0FFF1F94
:1010700012968D919C911397E80FF91F0190F081C2
:10108000E02D0190F081E02D1995DF91CF911F9116
:10109000089580919C2190919D21089555C60895B1
:1010A000CF938091A0218823C1F0E0919E21F091FF
:1010B0009F210190F081E02D8481882371F0C0E0B0
:1010C0008C2F73DFCF5FE0919E21F0919F210190E3
:1010D000F081E02D8481C81798F31092A0218091AF
:1010E000A42181FD0E9446131092A4211092A521F3
:1010F000CF910895CF938091A021882349F1A091A9
:101100009E21B0919F21ED91FC91119784818823BC
:10111000F9F0C0E0EC2FF0E0EE0FFF1F12968D917A
:101120009C911397E80FF91F0190F081E02D008446
:10113000F185E02D309709F01995CF5FA0919E21A0
:10114000B0919F21ED91FC9111978481C81710F304
:10115000CF9108950F931F93CF93DF93E4EAF2E2C8
:101160001286138614861586168617868081882334
:101170000CF07EC22091AA223091AB2221153105BC
:1011800009F07BC26DC28F7109F0A0C09091A522B9
:10119000963079F0983009F48FC0911197C02230C1
:1011A000310509F019C262E070E084EA91E25AD692
:1011B00069C28091A6229091A722292F332722303D
:1011C0003105A9F020F42130310541F0C7C12330A9
:1011D0003105D9F12F30310551F1C0C1809108207E
:1011E00090910920DC016C9170E03CD656C0E091F2
:1011F0000820F09109202189821708F0EDC1992774
:10120000880F991F880F991FE0910A20F0910B20F9
:10121000E80FF91F80819181FC016281738122D6E0
:10122000E091AC22F091AD2282E0818336C08091C2
:101230000C2090910D20009709F4CEC1DC0112968C
:101240006D917C9113970ED628C099278130910516
:1012500071F038F0029709F08AC1E2E1F1E231E27F
:1012600009C064E070E08EE391E2FCD516C0E4E3CF
:10127000F1E239E0A0EDB0E220E0819190E08D93C1
:101280009D932F5F2317C8F3632F660F6E5F6093E4
:10129000CE2070E08EEC90E2E5D5E4EAF2E28681C1
:1012A0009781228533858217930708F0EBC18093DD
:1012B000AE229093AF22E6C12130310509F08CC1F6
:1012C00061E070E080EA91E2CDD5DCC18130E1F5EA
:1012D0009091A5229A30C1F52130310509F04CC119
:1012E0008091A021882309F447C1C091A822D09100
:1012F000A92200919E2110919F21D801ED91FC918E
:101300008481C81708F038C160E08C2F14DE882370
:1013100009F42DC1CE019927880F991FD801129683
:10132000ED91FC911397E80FF91F0190F081E02DEA
:1013300086819781FC0119958093A22161E070E07C
:1013400082EA91E28FD59EC1823009F010C180916E
:10135000A522811105C12230310509F03DC18091DE
:10136000A8220FD690E080939A2190939B2162E06F
:1013700070E08AE991E276D585C18F7109F09FC04E
:101380009091A522933091F118F49130A9F097C073
:10139000953021F0993009F443C091C08091AA2280
:1013A0009091AB22892B09F017C186E997E08093D1
:1013B000B0229093B12266C18091AA229091AB2273
:1013C000892B09F009C18091A6229091A72201974B
:1013D00009F002C18091A4219091A5218D7F809375
:1013E000A4219093A5210E9446134CC18091AA226A
:1013F0009091AB22892B09F0EFC08091A6229091A9
:10140000A722019709F0AEC08091A4219091A52157
:1014100082608093A4219093A5210E94451332C13C
:101420008091AA229091AB22892B09F0D5C012D5C8
:10143000882309F49CC02091A6223091A72233274B
:10144000E0910820F0910920818990E082179307AC
:1014500008F48DC025DE8091A6229091A72280936A
:10146000A021882309F40EC199278150904C880F40
:10147000991F880F991FE0910A20F0910B20E80F27
:10148000F91FE0939E21F0939F210190F081E02DC0
:101490008481882309F4F6C0C0E060E08C2FC7DDAA
:1014A000882309F464C0CF5FE0919E21F0919F21D1
:1014B0000190F081E02D8481C81778F3E3C081307A
:1014C000E9F49091A5229B30C9F48091AA229091D1
:1014D000AB22892B09F050C08091A021882309F408
:1014E0004BC0E4EAF2E2C481D2818C2F5EDD882316
:1014F00009F43DC06D2F8C2F9ADD37C08230B9F5CD
:101500008091A522813019F0833099F02DC080910F
:10151000AA229091AB22892B09F05EC08091A6226D
:101520009091A722892B09F057C08091A82244D519
:101530001CC08091AA229091AB22892B09F04CC04B
:101540008091A6229091A722892B09F045C0C4EA78
:10155000D2E28C8132D68C819BD607C080E005C058
:1015600080E003C080E001C080E081118CC08091E8
:10157000A4228F71813081F58091A021882309F404
:1015800071C00091A8221091A922C0919E21D091F2
:101590009F21E881F9818481081708F065C060E027
:1015A000802FC9DC8823C1F0F801FF27CF01880F05
:1015B000991FEA81FB81E80FF91FC081D181EE817B
:1015C000FF811995682F802FB6DC882329F0EC81E4
:1015D000FD811995811157C08091A4228F718230AD
:1015E00009F044C08091A0218823B1F1A0919E21EF
:1015F000B0919F21ED91FC9111978481882371F125
:10160000C0E0EC2FF0E0EE0FFF1F12968D919C9141
:101610001397E80FF91F00811181D8011696ED91FB
:10162000FC9117971995682F8C2F85DC882359F129
:10163000D8011496ED91FC9115971995811123C04D
:10164000CF5FA0919E21B0919F21ED91FC911197C8
:101650009481C917B0F217C080E015C080E013C0B4
:1016600080E011C080E00FC080E00DC080E00BC0C2
:10167000982F907609F07BCF80CE982F907609F046
:1016800076CF81CD81E0DF91CF911F910F910895A9
:101690004091CA01E62FF72F8093CA0184914093AD
:1016A000CA0108951BBEFC0128ED24BF6083089584
:1016B000CF93DF931F921F92CDB7DEB7811126C063
:1016C000909198229923F9F090919F22911101C055
:1016D000FFCF9FB79A83F8942A81EEE9F2E29181D5
:1016E000915091832FBF0FC090919F229F3F09F48B
:1016F000FFCF9FB79983F8942981EEE9F2E29181B7
:101700009F5F91832FBF8093982205C0909198226C
:10171000992351F3F8CF0F900F90DF91CF91089557
:101720000F93E8ECF4E080818F7D808380818F7D52
:101730008083ECE6F2E202E0059310926E221092B2
:101740006F2200E2069300E40693E4E6F2E200E48E
:101750000693E4EAF2E21486158616861786128648
:101760001386109257220F9108950F9385E080936E
:101770005722EDE6F2E204E00593E5E6F2E204E04A
:1017800005930F9108950F9383E080935722109251
:101790006E2210926F22ECE6F2E202E006930F91C5
:1017A0000895E091B022F091B122309709F0199597
:1017B00008950F93CF93DF9380915722833019F4CC
:1017C000F0DFAEDF5EC08091532290915422C09131
:1017D000AE22D091AF22C81BD90B71F520915522B2
:1017E00030915622820F931F809355229093562258
:1017F0002091AA223091AB228217930721F0809189
:10180000A621882341F084E080935722E4E6F2E2A7
:1018100002E0069336C0E091B222F091B3223097F5
:1018200099F01995882381F0109253221092542236
:10183000C091AE22D091AF22C830D10528F01092CD
:10184000A621C8E0D0E003C081E08093A621E8E5AE
:10185000F2E2C68BD78B8091532290915422209133
:10186000AC223091AD22280F391F208F318FC80F45
:10187000D91FC0935322D0935422ECE6F2E202E047
:101880000693DF91CF910F910895FC018181E82F9C
:10189000E7708E2F90E0FC013197E730F105D0F42E
:1018A0008827E95FFE4F8F4F14C780E190E00895CD
:1018B00080E290E0089580E490E0089580E890E070
:1018C000089580E091E0089580E092E008958FEF20
:1018D00093E0089588E090E00895282F2F7030E07D
:1018E000220F331F082E000C990B8827990F881F91
:1018F0009927820F931F02979C01220F331F220FFB
:10190000331F220F331F820F931F895D9D4D089552
:101910000F93CF938091CC0480FF64C081E08093CB
:10192000CC04E4E6F2E200E80693ECE6F2E200E83A
:1019300006938093CA04E4E6F2E200E10693809104
:101940005722882329F08350823008F42ADFE8DE0A
:101950008091662290916722089709F045C088E03F
:10196000EBE4F2E2A4EAB2E201900D928A95E1F78B
:10197000E8ECF4E0808180628083808180628083F3
:10198000E9DBC82F811103C0F0DEC1E02EC08091D9
:10199000A42288236CF410925522109256221092A1
:1019A00053221092542282E08093572202DF1DC0FE
:1019B0008091AA229091AB22892B11F4E4DE15C00C
:1019C00010925522109256221092532210925422B5
:1019D00081E080935722E4E6F2E202E0069300E21F
:1019E000069303C0C0E001C0C1E08C2FCF910F91DE
:1019F00008958F929F92AF92BF92DF92EF92FF92E3
:101A00000F931F93CF93DF93D82E67DF8C01CD2DDB
:101A1000CF70D0E0CE01880F991FCD2D0D2C000C7A
:101A2000DD0BCC27DD0FCC1FDD27C80FD91FCE0162
:101A3000880F991F880F991F880F991F9C012C5997
:101A40003D4D7901C90121DF4C01DD200CF079C049
:101A5000FE01EE0FFF1FEE0FFF1FEE0FFF1FE85AF4
:101A6000FD4D22893389D80115968D919C91169749
:101A7000820F931F15968D939C93169713962D9115
:101A80003C9114978217930709F445C0281B390B22
:101A90002115B4E03B0738F02FEF33E0C901B40162
:101AA00004D6281B390BF801808181FF09C0C901C8
:101AB000B401FBD541E0892B09F040E0842F01C03F
:101AC00080E0D8019C9180FB91F99C93FE01EE0F80
:101AD000FF1FEE0FFF1FEE0FFF1FE85AFD4D128A8A
:101AE000138A2687378711962D913C911297159668
:101AF0008D919C911697820F931FCC0FDD1FCC0FF9
:101B0000DD1FCC0FDD1FC859DD4D88839983F70198
:101B100002E00693E0C0D8018C9181FFC9C08D7F9F
:101B20008C93CC0FDD1FCC0FDD1FCC0FDD1FC85AEF
:101B3000DD4D1A8A1B8A1E861F86F70102E0069376
:101B4000CAC0FE01EE0FFF1FEE0FFF1FEE0FFF1FBB
:101B5000E85AFD4DA684B784D8018C9182FF19C044
:101B60001196ED91FC91129715962D913C91169737
:101B700013968D919C911497B40197D5B0E4DB9E98
:101B8000B001112469597E4DAC01CF01820F931F22
:101B9000A8D5F801258136812A0D3B1D2583368382
:101BA000838194818217930768F485839683CC0F91
:101BB000DD1FCC0FDD1FCC0FDD1FC85ADD4D8A891C
:101BC0009B8976C0FE01EE0FFF1FEE0FFF1FEE0F89
:101BD000FF1FE85AFD4D42895389A416B50609F046
:101BE00067C02817390709F463C0AC01421B530BC7
:101BF0009A01211554E0350740F02FEF33E0C90179
:101C0000B40153D5281B390B05C0C901B4014DD50A
:101C1000281B390BFE01EE0FFF1FEE0FFF1FEE0F0B
:101C2000FF1FE85AFD4D168617862815390500F561
:101C3000D8018C9184608C93B0E4DB9EC0011124A8
:101C400089599E4DFE01EE0FFF1FEE0FFF1FEE0F95
:101C5000FF1FE859FD4D80839183CC0FDD1FCC0F12
:101C6000DD1FCC0FDD1FC85ADD4D8A8A9B8A1CC040
:101C7000F8014181528185819681840F951FFE0173
:101C8000EE0FFF1FEE0FFF1FEE0FFF1FE859FD4D78
:101C900080839183CC0FDD1FCC0FDD1FCC0FDD1FA8
:101CA000C85ADD4D2A8B3B8BF70102E0069313C027
:101CB000D8018C9180FF0FC08E7F8C931796ED9189
:101CC000FC911897309739F015966D917C91169785
:101CD0004D2D80E01995DF91CF911F910F91FF90CD
:101CE000EF90DF90BF90AF909F908F9008951F93DB
:101CF000CF93DF931F92CDB7DEB78FB78983F89468
:101D0000198181E0D5DCEAECF4E080E4808380E2B4
:101D10008083E1ECF4E0808181608083A9ECB4E011
:101D20008C9182608C93E8ECF4E080818064808305
:101D30008C9181608C938081806880831FBF0F901D
:101D4000DF91CF911F9108950F931F93CF93DF934E
:101D50001F921F92CDB7DEB700E610E0F8011082A7
:101D600080E30E94ED04E0ECF4E0808180648083F5
:101D700081E0F80180838FB78A83F8941A81E8E5BF
:101D8000F2E21586158A158E15A215A615AAE7E2A8
:101D9000F2E280818E7F8083E0E3F2E280818E7FB9
:101DA0008083E9E3F2E280818E7F8083E2E4F2E2E5
:101DB00080818E7F80836AE170E082E069DC8F3F02
:101DC00019F08093FA0403C08FE18093FA046BE169
:101DD00070E082E05DDC8F3F19F08093FB0403C06C
:101DE0008FE18093FB04E0ECF4E0808182608083EB
:101DF00080818068808380818061808384E692E234
:101E0000868397838081806280838FEF8093C5046F
:101E1000E8ECF4E0808181608083109298228091C8
:101E2000A3228F3F09F4FFCF8FB78983F89499815C
:101E3000EEE9F2E285818F5F85839FBF58DF1FBF88
:101E40000F900F90DF91CF911F910F910895809384
:101E5000C30408958091C3040895809194229091C1
:101E600095220895E4EAF2E280879187628773877A
:101E70000895282F2F7030E0220F331F082E000CFA
:101E8000990B8827990F881F9927820F931FFC01B0
:101E9000EE0FFF1FEE0FFF1FEE0FFF1FE85AFD4D65
:101EA0002585207C09F069C06370613011F018F459
:101EB00004C060EC03C060E801C060E44038510534
:101EC000E9F050F440325105A9F040345105A1F039
:101ED00040315105D9F40CC0411522E0520791F070
:101EE0004F3F23E0520781F04115514079F408C07B
:101EF00021E00DC022E00BC023E009C024E007C0B0
:101F000025E005C026E003C027E001C020E0FC0179
:101F1000EE0FFF1FEE0FFF1FEE0FFF1FE85AFD4DE4
:101F2000158636E03487262B2587FC01EE0FFF1F30
:101F3000EE0FFF1FEE0FFF1FE85AFD4D2585207C99
:101F4000203C69F4FC01EE0FFF1FEE0FFF1FEE0FA8
:101F5000FF1FE85AFD4D25852770273081F0880F37
:101F6000991F880F991F880F991FFC01E85AFD4D92
:101F700085858062858781E0089580E0089581E00D
:101F80000895E82FEF70F0E0EE0FFF1F082E000C11
:101F9000990B8827990F881F9927E80FF91FEE0FD3
:101FA000FF1FEE0FFF1FEE0FFF1FE85AFD4D858547
:101FB00082FB882780F908950F93282F2F7030E037
:101FC000A901440F551F282F082E000C330B222780
:101FD000330F221F3327240F351FA901440F551F2C
:101FE000440F551F440F551FFA01EC59FD4D01E0F8
:101FF0000693FA01E85AFD4D958592FF11C0FA014A
:10200000E85AFD4D95859B7F958767DCFC018081B3
:1020100080FF06C08E7F80830780F085E02D1995B4
:1020200081E00F9108956F927F928F929F92AF926D
:10203000BF92CF92DF92EF92FF920F931F93CF93B5
:10204000DF931F92CDB7DEB7782E662E4A01590175
:1020500044DC6C01272D872D8F70E82EF12CC701F1
:10206000880F991FE72C072C000CFF08EE24FF0CAB
:10207000EE1CFF24E80EF91EF701EE0FFF1FEE0F16
:10208000FF1FEE0FFF1FE85AFD4D8585807C09F488
:1020900081C0F701EE0FFF1FEE0FFF1FEE0FFF1FB6
:1020A000E85AFD4D8585807C803C61F0F701EE0F9C
:1020B000FF1FEE0FFF1FEE0FFF1FE85AFD4D858536
:1020C00082FD6AC08FB78983F8948981F601908177
:1020D00090FF03C08FBF80E060C0F60190819160E7
:1020E00090838FBF81829282A382B48215821682EE
:1020F00007831087611006C091E0A114B10419F0A4
:1021000090E001C091E0F601808190FB81F98B7F26
:102110008083222364F4F701EE0FFF1FEE0FFF1FF1
:10212000EE0FFF1FE85AFD4D128A138A2FC0F701E8
:10213000EE0FFF1FEE0FFF1FEE0FFF1FE85AFD4DC2
:102140008585807C803CA9F4C701880F991F880F82
:10215000991F880F991F8C599D4D97DBBC01C501B4
:10216000A4D2892B31F0F60180818E7F808380E0BC
:1021700014C0F701EE0FFF1FEE0FFF1FEE0FFF1F42
:10218000E85AFD4D16861786128A138A872D31DC90
:1021900081E003C080E001C080E00F90DF91CF912B
:1021A0001F910F91FF90EF90DF90CF90BF90AF9075
:1021B0009F908F907F906F900895FF920F931F9341
:1021C000CF93DF93182FC82FCF70D0E0CE01880FA8
:1021D000991FC12F012E000CDD0BCC27DD0FCC1F6A
:1021E000DD27C80FD91F812F78DBDC01FE01EE0F40
:1021F000FF1FEE0FFF1FEE0FFF1FEC59FD4D02E01A
:1022000005938C9180FF22C08E7F8C931796ED9161
:10221000FC9118973097D1F011235CF4CC0FDD1F9F
:10222000CC0FDD1FCC0FDD1FC85ADD4D6A897B89BD
:102230000AC0CC0FDD1FCC0FDD1FCC0FDD1FC85A2D
:10224000DD4D6E857F85412F81E01995DF91CF911E
:102250001F910F91FF900895CF93C82FAEDFEC2F01
:10226000EF70F0E0EE0FFF1F8C2FCC0F990B88273B
:10227000990F881F9927E80FF91FEE0FFF1FEE0F28
:10228000FF1FEE0FFF1FE85AFD4D1586CF910895F1
:10229000E82FEF70F0E0EE0FFF1F282F082E000C44
:1022A000330B2227330F221F3327E20FF31FEE0FCA
:1022B000FF1FEE0FFF1FEE0FFF1FE85AFD4D958524
:1022C000946095877ADF81E008951F920F920FB690
:1022D0000F9211240BB60F920F932F933F934F93AE
:1022E0005F936F937F938F939F93AF93BF93EF937E
:1022F000FF938091CB0488233CF480E88093CA0448
:102300000E947A08AFD188C08091CB0482FF20C0A0
:1023100084E08093CA0480916C2286FF7DC0809106
:10232000CC0481FD79C0F4DA811176C08091572206
:10233000813011F428DA70C0843009F06DC0EDE608
:10234000F2E204E00593E5E6F2E204E0059364C0FE
:102350008091CB0481FF5BC082E08093CA048091AE
:10236000642286FF59C08091CC0481FD55C0D0DA2B
:10237000811152C080915722823041F484E08093D1
:102380005722E4E6F2E202E0069346C0833009F009
:1023900043C0EDE6F2E204E00593E5E6F2E204E094
:1023A00005933AC080E18093CA0481E006DF81E8AA
:1023B00004DF82E002DF82E800DF0E945008109212
:1023C000C304E8E5F2E2158696E0948780E4858709
:1023D000158A948B858B8BE492E2808B918BA0D9AC
:1023E0001BC08091CB0486FF07C080E48093CA04A1
:1023F00080E05ED935D110C08091CB0485FF0CC040
:1024000080E28093CA0481E053D92BD105C080912A
:10241000CB0484FDC7CFE5CFFF91EF91BF91AF9182
:102420009F918F917F916F915F914F913F912F91EC
:102430000F910F900BBE0F900FBE0F901F9018952D
:102440001F920F920FB60F9211240BB60F920F939B
:102450001F932F933F934F935F936F937F938F932C
:102460009F93AF93BF93CF93DF93EF93FF938091AD
:10247000CC0481FD03C04CDA8111C3C082E080939B
:10248000CC048091C5048195880FE4E6F2E2E81B54
:10249000F1092081318124563242369527953695AF
:1024A000279536952795822F869520FD02C090E0CE
:1024B00001C090E8890FE82FEF70F0E0EE0FFF1FEA
:1024C000282F082E000C330B2227330F221F33270F
:1024D000E20FF31FDF01AA0FBB1FAA0FBB1FAA0F3A
:1024E000BB1FA85ABD4D1C969C9195FF8AC0EE0F4C
:1024F000FF1FEE0FFF1FEE0FFF1FEC59FD4D00E217
:102500000693811179C080915722843019F449D9FA
:1025100007D977C000916622109167228091AE2280
:102520009091AF22C0915322D091542298012C0F48
:102530003D1F8217930718F48C010C1B1D0B809113
:10254000AC229091AD22A8016BE472E28C0F9D1F2A
:10255000C8D0C00FD11FC0935322D093542208304B
:10256000110569F480915522909156228C0F9D1F80
:102570002091AA223091AB228217930780F0E4EADF
:10258000F2E2C287D3870684F785E02D309729F0E1
:102590001995811102C0E9D834C0F5D832C08091B4
:1025A000AE229091AF22C817D907F9F4E091B22278
:1025B000F091B322309711F4D8D823C01995811126
:1025C00002C0D3D81EC0209155223091562280914E
:1025D000532290915422820F931F809355229093FF
:1025E00056221092532210925422E4E6F2E202E0C4
:1025F000069300E2069305C0803811F4DAD801C0D2
:10260000F8D9FF91EF91DF91CF91BF91AF919F9159
:102610008F917F916F915F914F913F912F911F917A
:102620000F910F900BBE0F900FBE0F901F9018953B
:1026300087E08093A2007894EEE9F2E210821182A2
:1026400012821382148281E085830E9460040E94BA
:1026500030010E94D9030E9488020E944E08FFCFD9
:102660000895089580919A22882371F00E94C002F3
:102670000E945903F2DB0E94EE0380919922882385
:1026800019F0EBDB0C945E0408950895089581E041
:1026900080939A22089510929A22089581E080935F
:1026A00099220895109299220895AA1BBB1B51E10B
:1026B00007C0AA1FBB1FA617B70710F0A61BB70BB2
:1026C000881F991F5A95A9F780959095BC01CD0157
:1026D0000895EE0FFF1F881F8BBF0790F691E02D26
:1026E0001994FB01DC0102C001900D924150504051
:0826F000D8F70895F894FFCF1C
:1026F800808000010000000052200E2000001620FB
:102708001220C4207F2009023B00020100A03209E8
:102718000400000103000000092111010001223B0F
:1027280000070581030800020904010001030000F5
:1027380000092111010001221B000705820308007E
:1027480004001201000200000008EB03332100011D
:102758000102000105010904A101A10005010930D8
:102768000931150026FF00750895028102C0C05D79
:102778000567056A053205000005010906A101057E
:102788000719E029E71500250175019508810281DF
:10279800011900296515002565750895068100054C
:1027A800081901290515002501750195059102955E
:1027B800039101C0D005E205E505A9050000000365
:1027C8000000000000000000000000000000000001
:1027D80000000000000000000000000000000000F1
:1027E80000000000000000000000000000000000E1
:1027F80000000000000000000000000000000000D1
:102808000000436F6D706F736974652048494420F8
:102818004B6579626F617264202B204A6F797374FB
:1028280069636B0041544D454C20415346000403F5
:0E283800090400172E455C748BA2B9D0E7FF8F
:00000001FF
