S01F0000436F6D706F73697465496D706C656D656E746174696F6E2E737265638C
S113000015C1000034C1000032C1000030C100003D
S11300102EC100002CC100002AC1000028C100002C
S113002026C1000024C1000022C1000020C100003C
S11300301EC100001CC100001AC1000018C100004C
S113004016C1000014C1000012C1000010C100005C
S11300500EC100000CC100000AC1000008C100006C
S113006006C1000004C1000002C1000000C100007C
S1130070FEC00000FCC00000FAC00000F8C0000090
S1130080F6C00000F4C00000F2C00000F0C00000A0
S1130090EEC00000ECC00000EAC00000E8C00000B0
S11300A0E6C00000E4C00000E2C00000E0C00000C0
S11300B0DEC00000DCC00000DAC00000D8C00000D0
S11300C0D6C00000D4C00000D2C00000D0C00000E0
S11300D0CEC00000CCC00000CAC00000C8C00000F0
S11300E0C6C00000C4C00000C2C00000C0C0000000
S11300F0BEC00000BCC00000BAC00000B8C0000010
S1130100B6C00000B4C00000B2C00000B0C000001F
S1130110AEC00000ACC00000AAC00000A8C000002F
S1130120A6C00000A4C00000A2C00000A0C000003F
S11301309EC000009CC000009AC0000098C000004F
S113014096C0000094C0000092C0000090C000005F
S11301508EC000008CC000008AC0000088C000006F
S113016086C0000084C0000082C0000080C000007F
S11301707EC000007CC000007AC0000078C000008F
S113018076C0000074C0000072C0000070C000009F
S11301906EC000006CC000006AC0000068C00000AF
S11301A066C0000064C0000062C0000060C00000BF
S11301B05EC000005CC000005AC0000058C00000CF
S11301C056C0000054C0000052C0000050C00000DF
S11301D04EC000004CC000004AC0000048C00000EF
S11301E046C0000044C0000042C0000040C00000FF
S11301F03EC000000C9444160C9402178B04CB04EC
S11302008104CD0483048504870489048B04F205E6
S11302104A069606E2062A07B5059207F007311149
S1130220341137113A113D114011431111241FBEED
S1130230CFEFCDBFDFE5DEBF00E00CBF11E2A0E0F1
S1130240B0E2E0EDF0E300E00BBF02C007900D92D6
S1130250AA39B107D9F723E2AAE9B1E201C01D9294
S1130260A63FB207E1F70E94FA170C946618C8CEAD
S113027080E008953091E8232091E923822F90E0D3
S11302800297C1F4311118C08091EC239091ED23B1
S11302900197A1F4E6EEF3E28AE991E2808791877F
S11302A081E090E08287938783E891E08487958753
S11302B081E0089580E0089580E0089580E0089545
S11302C081E08093A02108950F931F9303E811E028
S11302D021E030E04AE951E260E083E00E94F21458
S11302E01F910F910895CF931092A4211092A221EF
S11302F081E08093A021E8DFC82F81110E943A1881
S11303008C2FCF910895811106C06130710519F4C5
S11303108AE991E2BED7D8CF08950C943E18089587
S11303202AE331E040E050E262EA71E284EA91E2D9
S11303300C949D0B0895FF920F931F93CF93DF931B
S11303401F92CDB7DEB79C018091A021882359F17B
S1130350D9018FB78983F894F98084E02CE931E2DC
S1130360F90111928A95E9F78D919D910D90BC91B7
S1130370A02D80939C2190939D21A0939E21B093C6
S11303809F2100E611E024E030E04CE951E260E016
S113039084E80E94F21491E089278093A021FFBE93
S11303A08091A02189270F90DF91CF911F910F9108
S11303B0FF900895E0E0F6E09FEF91839583E0E2FB
S11303C0F6E03FE3328388E1808B818B828B838BE1
S11303D0848B858B20EC218340E4458340E845836E
S11303E0E0E4F6E04CEF4283828B838B848B858B35
S11303F0868B878B43E041834583E0E6F6E03283D6
S1130400808B818B828B838B848B858B218326834A
S1130410E0E8F6E09283808B818B828B838B848BE4
S1130420858B868B878BE0EAF6E090EF9283848B52
S1130430858B868B878B8FE081838583CAD2F9C0B5
S11304400895809148062091680690E0922B969535
S1130450879596958795BC017F7080FF17C021E032
S113046030E0E1E0F0E0822FAF01022E02C0440F41
S1130470551F0A94E2F746235723452B41F02F5F7B
S11304803F4F2C30310579F78FEF089580E00895C0
S1130490809188062091280690E0922BBC017F7001
S11304A080FF17C021E030E0E1E0F0E0822FAF01EF
S11304B0022E02C0440F551F0A94E2F74623572325
S11304C0452B41F02F5F3F4F2C30310579F78FEFEB
S11304D0089580E008958823F4F19BEF980F9230FB
S11304E0E0F1853034F495E0981B923008F042C076
S11304F036C09AEF980F9230B0F531C062E023E035
S113050030E090E080E0E1E0F0E0AF01022E02C0D4
S1130510440F551F0A94E2F7842B9F5F2150310941
S1130520961798F308958150482F50E04B5F5F4F22
S113053024E030E080E0E1E0F0E0BF01022E02C000
S1130540660F771F0A94E2F7862B2F5F3F4F24171D
S1130550350799F7089580E0089588E10895853076
S11305606CF282E0E0CF8550853008F084E08111A0
S1130570DACF089566E0681B653008F064E0611125
S1130580BECF80E00895CF935CDFC82F81DFCC23FA
S113059024F48823C4F090E009C0C6301CF09BEF1B
S11305A09C0F02C095E09C1B882354F086301CF0FD
S11305B02BEF280F02C025E0281B921708F4C82F40
S11305C08C2F89DF01C080E0CF91089561DF8823FB
S11305D03CF0E82F880FFF0BE658FE4D808101C0E8
S11305E080E88093A6212DDF88233CF0E82F880F34
S11305F0FF0BE658FE4D808101C080E8E6EAF1E297
S11306008183208190912620291304C09091272072
S1130610981771F086EA91E29FD7882349F0E6E2C1
S1130620F0E2A6EAB1E28C91808311968C918183E9
S113063008951092C3211092C0211092C1211092EA
S1130640BD211092C4211092C221EAECF1E281E6AC
S1130650808380E68183128213828FE584838EE512
S11306608583168217828DE580871186128613860C
S11306701486158689E586878BE58787108A118A13
S11306808AE5828B8CE5838BE5ECF1E28EE0808356
S11306908DE081838BE0828387E083838FEF848383
S11306A008954F925F926F927F928F929F92AF9232
S11306B0BF92CF92DF92EF92FF920F931F93CF934B
S11306C0DF93ECEAF1E285EB91E211928E179F073A
S11306D0E1F74090AB2106E811E2C0E0D0E0B12C94
S11306E00F2EF5E06F2EF02D6894772472F80F2EFC
S11306F0F0EAEF2EF6E0FF2EF02D0F2EF0E2CF2ED3
S1130700F6E0DF2EF02D6894882487F899249394DA
S1130710AC2EFE01EB53FE4D8081D70114968C93D1
S1130720B4E0CB1303C0F601868203C0D60115964C
S11307308C92F7018085807F8095F82FF07F5F2E63
S113074084FDB39485FDB39486FDB39455200CF4D5
S1130750B394F80184E090E0252D30E0A901B901BB
S1130760082E02C0759567950A94E2F760FF0AC0E7
S11307706081693038F4062E000C770B64557E4D89
S1130780DB019C92019631968830910539F7CA01B4
S1130790019748235923452B49F0B42DB095B52131
S11307A009F4B52D8B2F8195B82301C0B52DB03236
S11307B079F020F4B03109F448C00EC0B03409F423
S11307C046C0B03849F40F2EF3E07F2EF02D42C01E
S11307D0BB2311F06A2C792C21960C5F1F4F452CFA
S11307E0C530D10509F094CF5092AB2180E88093B5
S11307F02506B3E0B715E0F0E62DF0E0EE0FFF1F9D
S1130800EE0FFF1FE653FE4DE70DF11D8081909121
S1130810C321911106C08093C22181E08093C3213A
S11308200DC09091C221891749F08093C22106C05E
S11308308091C321813011F41092C32181E08B1582
S113084008F080E08093BE2107C0712C03C0689437
S1130850772471F86A2CC0CFDF91CF911F910F914B
S1130860FF90EF90DF90CF90BF90AF909F908F90CC
S11308707F906F905F904F900895ECEAF1E220E052
S113088030E040E050E061E070E09191992349F05C
S1130890CB01022E02C0880F991F0A94E2F7482B5D
S11308A0592B2F5F3F4F2930310579F7CA0108953D
S11308B0809128068093BC218091C3218093C0211C
S11308C08091C2218093BF218091BC2184FD2AC0E4
S11308D08091C021813009F04EC08091C1218111E5
S11308E04AC0E091BF218E2F90E0FC01E955F10947
S11308F0E930F10590F48827E250FF4F8F4F0C94B4
S1130900551884E009C080E107C080E205C080E496
S113091003C080E801C081E07DD003D581E08093ED
S1130920BD2129C08091C3219091AA2191110BC0AE
S1130930813009F58093AA218091BF218093A92158
S11309401092A82118C0813051F58091A8218111FD
S113095012C08091BE21882371F081E08093A82188
S11309600AC08091A921B5D68091A92176D610928A
S1130970AA211092A8218091BC2184FF07C08091F4
S1130980BD21813019F436D01092BD218091C0214F
S11309908093C121089582E0BFCF88E0BDCF8091CC
S11309A0A8218111E4CFDDCFEFEDF1E220E030E0CA
S11309B090E0AC01022E02C0559547950A94E2F7E7
S11309C040FD60832F5F3F4F31962830310589F712
S11309D00895E0E0F6E08FEF81838583E0E2F6E0BE
S11309E080E48183858308958FEF8093060661E018
S11309F0DBCF08958FEF8093050660E0D5CF08958F
S1130A008093060661E0D0CF08958093050660E0E8
S1130A10CBCF089580930706EFEDF1E220E030E0BC
S1130A20682F70E081E0AB01022E02C05595479516
S1130A300A94E2F740FF03C09081982790832F5FC8
S1130A403F4F31962830310571F70895E0E0F6E024
S1130A509FEF95838683EFEDF1E220E030E090E0B4
S1130A60AC01022E02C0559547950A94E2F74170F5
S1130A7041932F5F3F4F2830310591F70895CF936D
S1130A80DF93AFEDB1E26FEE71E2FD0140E050E0C3
S1130A90C1E0D0E09F012A1B3B0B9191992341F0C7
S1130AA0CE0102C0880F991F2A95E2F7482B592BD3
S1130AB0E617F70779F7CA01DF91CF91089580E42B
S1130AC08093260681E08093E721089580E4809353
S1130AD025061092E721089580E480932706EFED20
S1130AE0F1E2908581E08927808708957DDFE7DF43
S1130AF02FEB86EC9DE2215080409040E1F700C04E
S1130B00000078DFE3DF2FE181EA97E021508040A5
S1130B109040E1F700C0000080E008958F929F921A
S1130B20AF92BF92CF92DF92EF92FF920F931F93F7
S1130B30CF93DF93CDB7DEB72897CDBFDEBF98E064
S1130B40E2E7F1E2DE01119601900D929A95E1F748
S1130B5090E0FC013197E830F10508F06CC3882778
S1130B60E95FFE4F8F4F0C9455188091DE21882346
S1130B7009F480C1BAC1F801F1908F018F2D40DFD3
S1130B80FFE028E982E0F15020408040E1F700C016
S1130B9000008F2D3ADFC9D38093DE21A016B10661
S1130BA009F436C28091DE21882329F331C2F80189
S1130BB0F2908F018F2D24DFFFE028E982E0F150CD
S1130BC020408040E1F700C000008F2D1EDFADD330
S1130BD08093DE210C151D0561F08091DE218823B0
S1130BE031F307C05E0199E0A90EB11CFE013196F4
S1130BF06F018091DE21811106C08091DE2188235E
S1130C0009F438C205C2F6DE16C3F801E2908F017A
S1130C108E2DF6DEF401F1904F018F2DF1DEFFE110
S1130C202FEB82E0F15020408040E1F700C000004B
S1130C308E2DEBDE8F2DE9DE78D38093DE21A01696
S1130C40B10609F4EAC18091DE218823F1F2E5C1FD
S1130C50F801E1908F018E2DD3DEF401F2904F0163
S1130C608F2DCEDEFFE12FEB82E0F150204080405B
S1130C70E1F700C000008E2DC8DE8F2DC6DE55D3EF
S1130C808093DE21C016D10661F08091DE21882395
S1130C90F9F207C0FE0131965F016E01F5E0CF0E57
S1130CA0D11C8091DE21811106C08091DE21882330
S1130CB009F413C2B2C19EDEBEC2F80182918F0153
S1130CC09FDEF70181917F019BDEFFE227E585E04E
S1130CD0F15020408040E1F700C0000026D380930B
S1130CE0DE21A016B10609F49EC18091DE2188237D
S1130CF021F399C1F80181918F0187DEF701829177
S1130D007F0183DEFFE227E585E0F150204080404B
S1130D10E1F700C0000009D38093DE21C016D1069C
S1130D2061F08091DE21882329F307C0FE0131960A
S1130D305F016E01F5E0CF0ED11C8091DE2181119F
S1130D4006C08091DE21882309F4FDC16CC152DE06
S1130D5072C2F80182918F0153DEF70181917F0104
S1130D604FDEFFE227E585E0F15020408040E1F7C7
S1130D7000C00000DAD28093DE21C016D10609F447
S1130D8058C18091DE21882321F353C1F801829157
S1130D908F013BDEF70181917F0137DEFFE227E51A
S1130DA085E0F15020408040E1F700C00000BDD252
S1130DB08093DE21C016D10641F08091DE21882384
S1130DC029F303C0FE0131966F018091DE21811168
S1130DD006C08091DE21882309F4E5C12AC10ADE18
S1130DE02AC2F80181918F010BDEF70182917F0104
S1130DF007DEFFE227E585E0F15020408040E1F77F
S1130E0000C0000092D28093DE21C016D10609F4FE
S1130E1016C18091DE21882321F311C1F80181914B
S1130E208F01F3DDF70182917F01EFDDFFE227E51A
S1130E3085E0F15020408040E1F700C0000075D209
S1130E408093DE21C016D10649F08091DE218823EB
S1130E5029F304C06E0195E0C90ED11C8091DE21F6
S1130E60811106C08091DE21882309F4CCC1E7C03A
S1130E70C1DDE1C1B9DDEFE7FAE126E0E150F04080
S1130E802040E1F700C0000050D28093DE21B2DDA3
S1130E908FE79AE1E6E081509040E040E1F700C03E
S1130EA0000043D28093DE2185E5D0DDFFE72AE10F
S1130EB086E0F15020408040E1F700C0000035D2C8
S1130EC08093DE218AEAC2DD9FE7EAE1F6E09150F1
S1130ED0E040F040E1F700C0000027D28093DE211B
S1130EE08091DE21882309F4C5CF84DDA4C18F2D30
S1130EF0012E01C0880F0A94EAF7A8DD2FED83E9DB
S1130F0094E0215080409040E1F700C000000DD2F1
S1130F108093DE21802F100F11F0153049F4082F33
S1130F20019506C001E010E00F2EF7E0FF2EF02D32
S1130F308091DE218823D9F25DDD7DC18F2D002EC5
S1130F4001C0880F0A94EAF781DDC114D10449F085
S1130F50C601E9EFF0E03197F1F700C00000019716
S1130F60C1F7E3D1882319F0B092DE2105C00F5FE9
S1130F701F4F0830110511F7F5EFCF16F1E0DF062A
S1130F8018F02AEFC21AD108EA94EE2021F18091D8
S1130F90DE21811120C000E010E0D0CF00E010E09D
S1130FA08F2D002E01C0880F0A94EAF74FDD8FE9D8
S1130FB096E8E1E081509040E040E1F700C0000095
S1130FC0B4D1882319F0B092DE2105C00F5F1F4F02
S1130FD00830110529F78091DE218823F9F20AC02F
S1130FE00F2EF4ECCF2EF9E0DF2EF02DFF24F39436
S1130FF0BB24B3948091DE21811108C08091DE214D
S11310008111E9CF6894EE24E3F8C5CFF3DC13C172
S11310108091DE218823C9F0ECCD8091DE218823E4
S113102009F43DC03ECE8091DE21882309F473C0CB
S113103084CE8091DE21882309F49DC0C6CE8091A0
S1131040DE21882309F4C7C009CF1885812FD8DC95
S1131050FFE028E982E0F15020408040E1F700C041
S11310600000812FD2DC61D18093DE218E01085FE4
S11310701F4FB3CD1981812FC3DC9FE0E8E9F2E073
S11310809150E040F040E1F700C00000812FBDDC4A
S11310904CD18093DE218E010E5F1F4F83CD0981D9
S11310A0802FAEDC1885812FABDC2FE18FEB92E033
S11310B0215080409040E1F700C00000802FA5DC63
S11310C0812FA3DC32D18093DE218E010E5F1F4F6E
S11310D04E01E8E08E0E911CD8CD0C81802F90DC5F
S11310E01D81812F8DDCFFE12FEB82E0F150204048
S11310F08040E1F700C00000802F87DC812F85DC71
S113110014D18093DE218E010C5F1F4F4E0196E0B7
S1131110890E911C98CD898178DC888576DCEFE294
S1131120F7E525E0E150F0402040E1F700C0000081
S1131130FCD08093DE218E010E5F1F4F7E0188E07C
S1131140E80EF11CEECD8C815BDC8D8159DC9FE2D5
S1131150E7E5F5E09150E040F040E1F700C0000021
S1131160E4D08093DE218E010C5F1F4F7E0126E0C8
S1131170E20EF11CBACD8C8148DC8D8146DC8FE215
S113118097E5E5E081509040E040E1F700C00000C1
S1131190CCD08093DE218E010C5F1F4F7E01F6E0E0
S11311A0EF0EF11C0ACE8C812BDC8D8129DC2FE221
S11311B087E595E0215080409040E1F700C00000B1
S11311C0B4D08093DE218E010C5F1F4F7E01E6E0D8
S11311D0EE0EF11CD6CD898118DC888516DCFFE281
S11311E027E585E0F15020408040E1F700C0000091
S11311F09CD08093DE218E010E5F1F4F7E0198E00C
S1131200E90EF11C22CE8981FBDB8885F9DBEFE254
S1131210F7E525E0E150F0402040E1F700C0000090
S113122084D08093DE218E010E5F1F4F7E0188E003
S1131230E80EF11CEECD2896CDBFDEBFDF91CF9135
S11312401F910F91FF90EF90DF90CF90BF90AF90E0
S11312509F908F900895AEC8089548DC809328200D
S113126008955CCC0895CF938ED9C82F8091280619
S113127084FD09C0CC2341F0BDDB8C2FC1DB81E0B0
S11312808093EF2101C0A2D9CF9108950ADA10CB3F
S11312900895FC018081DACB08950F931F93CF93B7
S11312A0DF9300D01F92CDB7DEB7E9DB082F192FEB
S11312B0E4DA09831A838B839C83CE0101963BD89D
S11312C02496CDBFDEBFDF91CF911F910F9108957A
S11312D08091F0219091F12101968093F0219093D7
S11312E0F1218091280684FD0DC08091F021909118
S11312F0F121843F9140A0F0EFDB1092F021109295
S1131300F121089580912820811106C0DFDB10921D
S1131310F0211092F12108951092F0211092F12100
S1131320089581E08093EF2108958091EF2108953D
S11313300F931F93CF93DF93CDB7DEB72797CDBF1E
S1131340DEBF8FEF809370008093710080937200F2
S1131350809373008093740080937500809376006B
S113136065E081E490E07AD66CE170E082E06CD6CE
S11313708A836DE170E082E067D6898389819A81EE
S1131380019621F480E493E289839A8389819A8186
S11313908B839C83E0E6F0E082838C8183838FB728
S11313A08E83F8949E81E0E5F0E080818260808302
S11313B09FBF818181FFFDCF8FB78F83F8949F8179
S11313C000E510E0D80116968C911697897F169641
S11313D08C931697E0E6F0E080E885838BEB8683B8
S11313E016968C911697846016968C9380818160F2
S11313F080839FBF61E080E490E030D68FB78D8317
S1131400F8949D81F80180818E7F80839FBF279609
S1131410CDBFDEBFDF91CF911F910F910895CF9380
S1131420DF931F92CDB7DEB79FB79983F894998164
S1131430E82FF0E0E059FF4F6095808168236083D6
S11314409FBF0F90DF91CF910895CF93DF931F92A9
S11314501F92CDB7DEB7863011F060E001C068E1BD
S11314608091510081FD2AC08FB78983F8949981B6
S1131470E0E5F0E08081826080839FBF818181FF0D
S1131480FDCF8FB78A83F8949A81A0E5B0E01696D1
S11314908C911697897F16968C931697E0E6F0E068
S11314A080E885838BEB868316968C9116978460EF
S11314B016968C938081816080839FBF636084E4EF
S11314C090E0CCD560E480E0AADF0F900F90DF912C
S11314D0CF91089580E008953091E8232091E92385
S11314E0822F90E00397B1F4311116C08091EC2360
S11314F09091ED23892B91F4E6EEF3E282EF91E2F1
S11315008087918780E99AE084879587128613867D
S113151081E0089580E0089580E0089580E00895D2
S1131520089581E08093F42108951092F821109297
S1131530F62181E08093F4210C94331808950C94DF
S1131540371808952CE63AE048EA50E266EF71E273
S113155088EF91E2F2C00895FF920F931F93CF9307
S1131560DF931F92CDB7DEB79C018091F4218823CD
S113157009F1F9018FB78983F894F9801092F22167
S11315801092F321808191818093F2219093F32131
S113159001E91AE022E030E042EF51E260E082E843
S11315A00E94F21491E089278093F421FFBE809178
S11315B0F42189270F90DF91CF911F910F91FF9014
S11315C0089580E0089580E0089510920E2210920C
S11315D00C221092022288E0E3E0F2E2DF011D9285
S11315E08A95E9F710920B220C942C1808950C9408
S11315F03018089523EE3AE04AEC50E26CE072E2CF
S11316008EE092E29AC008950F931F938091022274
S1131610811118C088E0E3E0F2E2AAEFB1E20190A0
S11316200D928A95E1F710920B2206E21BE028E066
S113163030E04AEF51E260E081E80E94F2148093C6
S1131640022201C080E01F910F910895109202229E
S113165080910B228111D8CF08951F93CF93DF93EC
S11316601F92CDB7DEB79FB79983F89419819091F3
S11316700522992341F08917A9F0E6E0F2E293E00C
S11316802191211102C01FBF1EC0281721F09F5FA6
S11316909830B1F705C0983019F0973020F00CC09D
S11316A01FBF11C092E0E92FF0E0ED5FFD4D818195
S11316B080839F5F9730B9F710920A2281E080936C
S11316C00B22A2DF1FBF81E00F90DF91CF911F910A
S11316D008951F93CF93DF931F92CDB7DEB79FB7C3
S11316E09983F8941981909105229923B1F089176F
S11316F041F0A6E0B2E2E3E09D91992349F098130A
S113170003C01FBF81E014C0EF5FE830A9F702C037
S1131710E83021F41FBF80E00BC0E2E0F0E0ED5FB1
S1131720FD4D808381E080930B226EDF1FBF81E03B
S11317300F90DF91CF911F910895CF93DF93DC0138
S1131740EA019091E62399230CF068C0907609F0A1
S113175045C08091E723863009F040C076D1DC0192
S11317601A962C911A97213209F077C02091E92317
S113177030E021323105B1F49C01275F3F4F2093C3
S1131780EE233093EF23E6EEF3E219968C91268153
S1131790378190E02817390708F4C90182879387B5
S11317A081E068C0FC01478550E04217530709F007
S11317B056C0C093EE23D093EF23E6EEF3E22681E6
S11317C03781DC0150968D919C91519728173907E8
S11317D008F4C9018287938781E04CC0903209F0F4
S11317E040C08091E723823039F0833071F081303A
S11317F0D1F5F90119953EC0E6EEF3E2A087B18771
S113180081E090E08287938735C0E6EEF3E260875B
S1131810718781E090E0828793872CC09076903224
S113182021F58091E7238A3039F08B3051F08930EB
S1131830F1F4F90119951EC08091E9238C9381E09C
S113184019C08091EC239091ED23892B91F4809120
S1131850E823DB018C9381E00DC080E00BC080E0C5
S113186009C080E007C080E005C080E003C080E0DC
S113187001C080E0DF91CF910895E0911422F091AE
S113188015220190F081E02D228133812E0F3F1F1C
S1131890FC014081E40FF11DE217F307A0F48181FC
S11318A08430A1F0861306C014C081818430A1F075
S11318B08617A9F08081E80FF11DE217F307A8F35A
S11318C080E090E0089580E090E0089580E090E06A
S11318D008958E2F9F2F089580E090E008958E2F15
S11318E09F2F08958091E8238F7795C7089590914D
S11318F01622992381F1E0911422F091152201908E
S1131900F081E02D9481891740F5E0931222F09341
S11319101322228133812E0F3F1FE217F307F8F4BD
S11319209181943061F49281891309C09381961353
S113193006C0E0931222F093132281E0089590816F
S1131940E90FF11DE217F30758F3E0931222F09325
S1131950132280E0089580E0089580E0089580E0F7
S11319600895EF92FF921F93CF93DF93C82F60E007
S1131970BEDF182F882381F1A0911422B091152283
S1131980EC2FF0E0EE0FFF1F12968D919C911397B0
S1131990E80FF91FE080F180D7011696ED91FC91D4
S11319A017971995682F8C2FA2DF182F8823A1F081
S11319B0C0911222D091132265E0CE015EDFEC01CA
S11319C0892B21F08A810E940B16F6CFD70112963B
S11319D0ED91FC9113971995812FDF91CF911F9170
S11319E0FF90EF9008951F93CF93DF93182F7FDF1D
S11319F0882339F1C0911222D091132265E0CE01DF
S1131A003CDFEC01892B41F04C815D816B818A8143
S1131A100FD78111F3CF15C0A0911422B0911522D4
S1131A20E12FF0E0EE0FFF1F12968D919C9113971A
S1131A30E80FF91F0190F081E02D0190F081E02D75
S1131A401995DF91CF911F91089580911222909161
S1131A501322089555C60895CF93809116228823A2
S1131A60C1F0E0911422F09115220190F081E02D53
S1131A708481882371F0C0E08C2F73DFCF5FE09105
S1131A801422F09115220190F081E02D8481C81771
S1131A9098F31092162280911A2281FD0E942B182D
S1131AA010921A2210921B22CF910895CF93809105
S1131AB01622882349F1A0911422B0911522ED91A8
S1131AC0FC91119784818823F9F0C0E0EC2FF0E0B9
S1131AD0EE0FFF1F12968D919C911397E80FF91F3B
S1131AE00190F081E02D0084F185E02D309709F01C
S1131AF01995CF5FA0911422B0911522ED91FC911C
S1131B0011978481C81710F3CF9108950F931F93F1
S1131B10CF93DF93E6EEF3E21286138614861586DE
S1131B2016861786808188230CF07EC22091EC23D0
S1131B303091ED232115310509F07BC26DC28F71FF
S1131B4009F0A0C09091E723963079F0983009F419
S1131B508FC0911197C02230310509F019C262E09B
S1131B6070E08AE192E25DD669C28091E8239091A7
S1131B70E923292F332722303105A9F020F421301D
S1131B80310541F0C7C123303105D9F12F3031057A
S1131B9051F1C0C18091292090912A20DC016C91DF
S1131BA070E03FD656C0E0912920F0912A20218987
S1131BB0821708F0EDC19927880F991F880F991F84
S1131BC0E0912B20F0912C20E80FF91F8081918166
S1131BD0FC016281738125D6E091EE23F091EF231D
S1131BE082E0818336C080912D2090912E20009731
S1131BF009F4CEC1DC0112966D917C91139711D634
S1131C0028C099278130910571F038F0029709F0C6
S1131C108AC1E8E4F1E23BE109C064E070E08EE6E9
S1131C2091E2FFD516C0E4E6F1E239E0A2E1B1E2C7
S1131C3020E0819190E08D939D932F5F2317C8F34B
S1131C40632F660F6E5F6093102170E080E191E274
S1131C50E8D5E6EEF3E28681978122853385821703
S1131C60930708F0EBC18093F0239093F123E6C12E
S1131C702130310509F08CC161E070E086E192E227
S1131C80D0D5DCC18130E1F59091E7239A30C1F5DC
S1131C902130310509F04CC180911622882309F4C2
S1131CA047C1C091EA23D091EB23009114221091F3
S1131CB01522D801ED91FC918481C81708F038C130
S1131CC060E08C2F14DE882309F42DC1CE019927FE
S1131CD0880F991FD8011296ED91FC911397E80F84
S1131CE0F91F0190F081E02D86819781FC011995FF
S1131CF08093182261E070E088E192E292D59EC15F
S1131D00823009F010C18091E723811105C122308E
S1131D10310509F03DC18091EA2312D690E0809309
S1131D2010229093112262E070E080E192E279D572
S1131D3085C18F7109F09FC09091E723933091F191
S1131D4018F49130A9F097C0953021F0993009F436
S1131D5043C091C08091EC239091ED23892B09F02D
S1131D6017C182E79CE08093F2239093F32366C12A
S1131D708091EC239091ED23892B09F009C1809186
S1131D80E8239091E923019709F002C180911A2276
S1131D9090911B228D7F80931A2290931B220E9484
S1131DA02B184CC18091EC239091ED23892B09F0E1
S1131DB0EFC08091E8239091E923019709F0AEC028
S1131DC080911A2290911B22826080931A22909310
S1131DD01B220E942A1832C18091EC239091ED239A
S1131DE0892B09F0D5C01AD5882309F49CC0209109
S1131DF0E8233091E9233327E0912920F0912A2028
S1131E00818990E08217930708F48DC025DE8091C4
S1131E10E8239091E92380931622882309F40EC1C4
S1131E2099278150904C880F991F880F991FE09132
S1131E302B20F0912C20E80FF91FE0931422F0934B
S1131E4015220190F081E02D8481882309F4F6C0E5
S1131E50C0E060E08C2FC7DD882309F464C0CF5F45
S1131E60E0911422F09115220190F081E02D8481FB
S1131E70C81778F3E3C08130E9F49091E7239B30ED
S1131E80C9F48091EC239091ED23892B09F050C083
S1131E9080911622882309F44BC0E6EEF3E2C48154
S1131EA0D2818C2F5EDD882309F43DC06D2F8C2FE9
S1131EB09ADD37C08230B9F58091E723813019F07B
S1131EC0833099F02DC08091EC239091ED23892BE0
S1131ED009F05EC08091E8239091E923892B09F0F1
S1131EE057C08091EA2347D51CC08091EC23909180
S1131EF0ED23892B09F04CC08091E8239091E923CC
S1131F00892B09F045C0C6EED3E28C8135D68C818D
S1131F109ED607C080E005C080E003C080E001C019
S1131F2080E081118CC08091E6238F71813081F52E
S1131F3080911622882309F471C00091EA2310913C
S1131F40EB23C0911422D0911522E881F981848178
S1131F50081708F065C060E0802FC9DC8823C1F051
S1131F60F801FF27CF01880F991FEA81FB81E80F51
S1131F70F91FC081D181EE81FF811995682F802FCF
S1131F80B6DC882329F0EC81FD811995811157C0B5
S1131F908091E6238F71823009F044C0809116222B
S1131FA08823B1F1A0911422B0911522ED91FC91F6
S1131FB011978481882371F1C0E0EC2FF0E0EE0FDB
S1131FC0FF1F12968D919C911397E80FF91F0081C2
S1131FD01181D8011696ED91FC9117971995682FE8
S1131FE08C2F85DC882359F1D8011496ED91FC914E
S1131FF015971995811123C0CF5FA0911422B09138
S11320001522ED91FC9111979481C917B0F217C074
S113201080E015C080E013C080E011C080E00FC0F4
S113202080E00DC080E00BC0982F907609F07BCF44
S113203080CE982F907609F076CF81CD81E0DF9124
S1132040CF911F910F9108954091CA01E62FF72F68
S11320508093CA0184914093CA0108951BBEFC0178
S113206028ED24BF60830895CF93DF931F921F92BE
S1132070CDB7DEB7811126C09091DC239923F9F006
S11320809091E123911101C0FFCF9FB79A83F894F7
S11320902A81E0EEF3E29181915091832FBF0FC02A
S11320A09091E1239F3F09F4FFCF9FB79983F89460
S11320B02981E0EEF3E291819F5F91832FBF8093AA
S11320C0DC2305C09091DC23992351F3F8CF0F90C2
S11320D00F90DF91CF9108950F93E8ECF4E08081A5
S11320E08F7D808380818F7D8083E0E9F3E202E04D
S11320F00593109292231092932300E2069300E436
S11321000693E8E8F3E200E40693E6EEF3E21486CD
S113211015861686178612861386109271230F91E0
S113212008950F9385E080937123E1E9F3E204E0DD
S11321300593E9E8F3E204E005930F9108950F9302
S113214083E0809371231092922310929323E0E909
S1132150F3E202E006930F910895E091F223F091E7
S1132160F323309709F0199508950F93CF93DF93D4
S113217080917123833019F4F0DFAEDF5EC080916B
S11321806D2390916E23C091F023D091F123C81B4D
S1132190D90B71F520916F2330917023820F931F17
S11321A080936F23909370232091EC233091ED233F
S11321B08217930721F080911C22882341F084E048
S11321C080937123E8E8F3E202E0069336C0E091DD
S11321D0F423F091F523309799F01995882381F031
S11321E010926D2310926E23C091F023D091F123AD
S11321F0C830D10528F010921C22C8E0D0E003C0FA
S113220081E080931C22E4E7F3E2C68FD78F8091AC
S11322106D2390916E232091EE233091EF23280FAC
S1132220391F20A331A3C80FD91FC0936D23D093A6
S11322306E23E0E9F3E202E00693DF91CF910F9180
S11322400895FC018181E82FE7708E2F90E0FC0156
S11322503197E730F105D0F48827E15FFE4F8F4FC7
S113226024C780E190E0089580E290E0089580E43E
S113227090E0089580E890E0089580E091E008956A
S113228080E092E008958FEF93E0089588E090E075
S11322900895282F2F7030E0220F331F082E000CD2
S11322A0990B8827990F881F9927820F931F0297EC
S11322B09C01220F331F220F331F220F331F820F63
S11322C0931F835E9C4D08950F93CF938091CC040C
S11322D080FF64C081E08093CC04E8E8F3E200E886
S11322E00693E0E9F3E200E806938093CA04E8E881
S11322F0F3E200E1069380917123882329F083504F
S1132300823008F42ADFE8DE80918A2390918B23BF
S1132310089709F045C088E0E5E6F3E2A6EEB3E2EB
S113232001900D928A95E1F7E8ECF4E080818062F7
S11323308083808180628083E9DBC82F811103C0A0
S1132340F0DEC1E02EC08091E62388236CF4109265
S11323506F231092702310926D2310926E2382E0EB
S11323608093712302DF1DC08091EC239091ED23B3
S1132370892B11F4E4DE15C010926F2310927023A0
S113238010926D2310926E2381E080937123E8E80C
S1132390F3E202E0069300E2069303C0C0E001C04A
S11323A0C1E08C2FCF910F9108958F929F92AF929D
S11323B0BF92DF92EF92FF920F931F93CF93DF931D
S11323C0D82E67DF8C01CD2DCF70D0E0CE01880FE1
S11323D0991FCD2D0D2C000CDD0BCC27DD0FCC1F50
S11323E0DD27C80FD91FCE01880F991F880F991FA9
S11323F0880F991F9C0128573C4D7901C90121DFA1
S11324004C01DD200CF079C0FE01EE0FFF1FEE0F32
S1132410FF1FEE0FFF1FEC58FC4D228D338DD801AA
S113242015968D919C911697820F931F15968D93F7
S11324309C93169713962D913C91149782179307AA
S113244009F445C0281B390B2115B4E03B0738F0CB
S11324502FEF33E0C901B40114D6281B390BF8015E
S1132460808181FF09C0C901B4010BD641E0892BE9
S113247009F040E0842F01C080E0D8019C9180FBEA
S113248091F99C93FE01EE0FFF1FEE0FFF1FEE0F5D
S1132490FF1FEC58FC4D128E138E268B378B119632
S11324A02D913C91129715968D919C911697820FC0
S11324B0931FCC0FDD1FCC0FDD1FCC0FDD1FC457C6
S11324C0DC4D88839983F70102E00693E0C0D801CC
S11324D08C9181FFC9C08D7F8C93CC0FDD1FCC0FF5
S11324E0DD1FCC0FDD1FCC58DC4D1A8E1B8E1E8ACF
S11324F01F8AF70102E00693CAC0FE01EE0FFF1F18
S1132500EE0FFF1FEE0FFF1FEC58FC4DA688B78897
S1132510D8018C9182FF19C01196ED91FC9112970C
S113252015962D913C91169713968D919C91149725
S1132530B401A7D5B0E4DB9EB001112463527E4DF3
S1132540AC01CF01820F931FB8D5F80125813681E4
S11325502A0D3B1D2583368383819481821793073B
S113256068F485839683CC0FDD1FCC0FDD1FCC0F61
S1132570DD1FCC58DC4D8A8D9B8D76C0FE01EE0F9D
S1132580FF1FEE0FFF1FEE0FFF1FEC58FC4D428D97
S1132590538DA416B50609F067C02817390709F446
S11325A063C0AC01421B530B9A01211554E035075B
S11325B040F02FEF33E0C901B40163D5281B390B78
S11325C005C0C901B4015DD5281B390BFE01EE0F0E
S11325D0FF1FEE0FFF1FEE0FFF1FEC58FC4D168A76
S11325E0178A2815390500F5D8018C9184608C93DD
S11325F0B0E4DB9EC001112483529E4DFE01EE0F18
S1132600FF1FEE0FFF1FEE0FFF1FE457FC4D8083EB
S11326109183CC0FDD1FCC0FDD1FCC0FDD1FCC58F9
S1132620DC4D8A8E9B8E1CC0F801418152818581CC
S11326309681840F951FFE01EE0FFF1FEE0FFF1F03
S1132640EE0FFF1FE457FC4D80839183CC0FDD1FF9
S1132650CC0FDD1FCC0FDD1FCC58DC4D2A8F3B8FF8
S1132660F70102E0069313C0D8018C9180FF0FC0DC
S11326708E7F8C931796ED91FC911897309739F0D3
S113268015966D917C9116974D2D80E01995DF91EB
S1132690CF911F910F91FF90EF90DF90BF90AF907B
S11326A09F908F9008951F93CF93DF931F92CDB780
S11326B0DEB78FB78983F894198181E0D5DCEAEC21
S11326C0F4E080E4808380E28083E1ECF4E08081C4
S11326D081608083A9ECB4E08C9182608C93E8ECF7
S11326E0F4E08081806480838C9181608C9380810C
S11326F0806880831FBF0F90DF91CF911F91089551
S11327000F931F93CF93DF931F921F92CDB7DEB722
S113271000E610E0F801108280E30E94250AE0EC54
S1132720F4E080818064808381E0F80180838FB746
S11327308A83F8941A8180E090E0FC01EE0FFF1F79
S1132740EE0FFF1FEE0FFF1FEC58FC4D158A01968C
S11327508A30910591F780E090E0FC01EE0FFF1FB5
S1132760EE0FFF1FEE0FFF1FE80FF91FE35EFC4D96
S113277020812E7F208301968830910571F76AE1CC
S113278070E082E061DC8F3F19F08093FA0403C0AB
S11327908FE18093FA046BE170E082E055DC8F3FB7
S11327A019F08093FB0403C08FE18093FB04E0ECF9
S11327B0F4E080818460808380818068808380816C
S11327C08061808388E893E2868397838081806236
S11327D080838FEF8093C504E8ECF4E0808181600E
S11327E080831092DC238091E5238F3F09F4FFCF8F
S11327F08FB78983F8949981E0EEF3E285818F5F46
S113280085839FBF50DF1FBF0F900F90DF91CF9143
S11328101F910F9108958093C30408958091C30478
S11328200895E6EEF3E280879187628773870895BF
S1132830282F2F7030E0220F331F082E000C990B25
S11328408827990F881F9927820F931FFC01EE0F89
S1132850FF1FEE0FFF1FEE0FFF1FEC58FC4D2589E5
S1132860207C09F069C06370613011F018F404C071
S113287060EC03C060E801C060E440385105E9F051
S113288050F440325105A9F040345105A1F04031D3
S11328905105D9F40CC0411522E0520791F04F3F85
S11328A023E0520781F04115514079F408C021E03A
S11328B00DC022E00BC023E009C024E007C025E0DE
S11328C005C026E003C027E001C020E0FC01EE0FB4
S11328D0FF1FEE0FFF1FEE0FFF1FEC58FC4D158A74
S11328E036E0348B262B258BFC01EE0FFF1FEE0FF9
S11328F0FF1FEE0FFF1FEC58FC4D2589207C203C68
S113290069F4FC01EE0FFF1FEE0FFF1FEE0FFF1F18
S1132910EC58FC4D25892770273081F0880F991FCA
S1132920880F991F880F991FFC01EC58FC4D85896D
S11329308062858B81E0089580E0089581E00895A8
S1132940E82FEF70F0E0EE0FFF1F082E000C990B3C
S11329508827990F881F9927E80FF91FEE0FFF1F8B
S1132960EE0FFF1FEE0FFF1FEC58FC4D858982FB15
S1132970882780F908950F93282F2F7030E0A9013C
S1132980440F551F282F082E000C330B2227330F1A
S1132990221F3327240F351FA901440F551F440F4D
S11329A0551F440F551FFA01E857FC4D01E00693EB
S11329B0FA01EC58FC4D958992FF11C0FA01EC58CC
S11329C0FC4D95899B7F958B64DCFC01808180FFA5
S11329D006C08E7F80830780F085E02D199581E005
S11329E00F9108956F927F928F929F92AF92BF92B0
S11329F0CF92DF92EF92FF920F931F93CF93DF93C7
S1132A001F92CDB7DEB7782E662E4A01590141DCFC
S1132A106C01272D872D8F70E82EF12CC701880FAC
S1132A20991FE72C072C000CFF08EE24FF0CEE1C6A
S1132A30FF24E80EF91EF701EE0FFF1FEE0FFF1F34
S1132A40EE0FFF1FEC58FC4D8589807C09F481C092
S1132A50F701EE0FFF1FEE0FFF1FEE0FFF1FEC58E5
S1132A60FC4D8589807C803C61F0F701EE0FFF1FEF
S1132A70EE0FFF1FEE0FFF1FEC58FC4D858982FD02
S1132A806AC08FB78983F8948981F601908190FF99
S1132A9003C08FBF80E060C0F60190819160908395
S1132AA08FBF81829282A382B482158216820783A9
S1132AB01087611006C091E0A114B10419F090E0F0
S1132AC001C091E0F601808190FB81F98B7F8083C6
S1132AD0222364F4F701EE0FFF1FEE0FFF1FEE0F2A
S1132AE0FF1FEC58FC4D128E138E2FC0F701EE0F12
S1132AF0FF1FEE0FFF1FEE0FFF1FEC58FC4D8589E3
S1132B00807C803CA9F4C701880F991F880F991F06
S1132B10880F991F88579C4D94DBBC01C501B1D225
S1132B20892B31F0F60180818E7F808380E014C090
S1132B30F701EE0FFF1FEE0FFF1FEE0FFF1FEC5804
S1132B40FC4D168A178A128E138E872D2EDC81E097
S1132B5003C080E001C080E00F90DF91CF911F910E
S1132B600F91FF90EF90DF90CF90BF90AF909F9028
S1132B708F907F906F900895FF920F931F93CF9340
S1132B80DF93182FC82FCF70D0E0CE01880F991F84
S1132B90C12F012E000CDD0BCC27DD0FCC1FDD2750
S1132BA0C80FD91F812F75DBDC01FE01EE0FFF1F5B
S1132BB0EE0FFF1FEE0FFF1FE857FC4D02E00593D9
S1132BC08C9180FF22C08E7F8C931796ED91FC919F
S1132BD018973097D1F011235CF4CC0FDD1FCC0F84
S1132BE0DD1FCC0FDD1FCC58DC4D6A8D7B8D0AC0F8
S1132BF0CC0FDD1FCC0FDD1FCC0FDD1FCC58DC4DFF
S1132C006E897F89412F81E01995DF91CF911F91C2
S1132C100F91FF900895CF93C82FAEDFEC2FEF7084
S1132C20F0E0EE0FFF1F8C2FCC0F990B8827990F24
S1132C30881F9927E80FF91FEE0FFF1FEE0FFF1FE4
S1132C40EE0FFF1FEC58FC4D158ACF910895E82F25
S1132C50EF70F0E0EE0FFF1F282F082E000C330B4F
S1132C602227330F221F3327E20FF31FEE0FFF1F1C
S1132C70EE0FFF1FEE0FFF1FEC58FC4D958994607B
S1132C80958B7ADF81E008951F920F920FB60F9211
S1132C9011240BB60F920F932F933F934F935F938F
S1132CA06F937F938F939F93AF93BF93CF93EF9340
S1132CB0FF938091CB0488233CF480E88093CA047A
S1132CC00E94560DB2D189C08091CB0482FF20C0EE
S1132CD084E08093CA048091902386FF7EC0809113
S1132CE0CC0481FD7AC0F0DA811177C08091712320
S1132CF0813011F424DA71C0843009F06EC0E1E946
S1132D00F3E204E00593E9E8F3E204E0059365C027
S1132D108091CB0481FF5CC082E08093CA048091DF
S1132D20882386FF5AC08091CC0481FD56C0CCDA3A
S1132D30811153C080917123823041F484E08093E7
S1132D407123E8E8F3E202E0069347C0833009F018
S1132D5044C0E1E9F3E204E00593E9E8F3E204E0C6
S1132D6005933BC080E18093CA04C1E08C2F04DF4B
S1132D708C2F806801DFCF5FC530C1F70E942C0D16
S1132D801092C304E4E7F3E2158A96E0948B80E49E
S1132D90858B158E948F858F85E693E2808F918F36
S1132DA09BD91BC08091CB0486FF07C080E480932D
S1132DB0CA0480E059D937D110C08091CB0485FF73
S1132DC00CC080E28093CA0481E04ED92DD105C0A5
S1132DD08091CB0484FDC6CFE5CFFF91EF91CF91D5
S1132DE0BF91AF919F918F917F916F915F914F911F
S1132DF03F912F910F910F900BBE0F900FBE0F902C
S1132E001F9018951F920F920FB60F9211240BB6B4
S1132E100F920F931F932F933F934F935F936F934F
S1132E207F938F939F93AF93BF93CF93DF93EF934E
S1132E30FF938091CC0481FD03C046DA8111C3C0A5
S1132E4082E08093CC048091C5048195880FE8E8E2
S1132E50F3E2E81BF1092081318128583342369589
S1132E6027953695279536952795822F869520FDAB
S1132E7002C090E001C090E8890FE82FEF70F0E005
S1132E80EE0FFF1F282F082E000C330B2227330FC1
S1132E90221F3327E20FF31FDF01AA0FBB1FAA0F64
S1132EA0BB1FAA0FBB1FAC58BC4D54969C9195FFF9
S1132EB08AC0EE0FFF1FEE0FFF1FEE0FFF1FE85734
S1132EC0FC4D00E20693811179C080917123843016
S1132ED019F443D901D977C000918A2310918B2327
S1132EE08091F0239091F123C0916D23D0916E23B2
S1132EF098012C0F3D1F8217930718F48C010C1BAB
S1132F001D0B8091EE239091EF23A80165E673E2F7
S1132F108C0F9D1FD2D0C00FD11FC0936D23D093AF
S1132F206E230830110569F480916F23909170230A
S1132F308C0F9D1F2091EC233091ED238217930772
S1132F4080F0E6EEF3E2C287D3870684F785E02DAE
S1132F50309729F01995811102C0E3D834C0EFD815
S1132F6032C08091F0239091F123C817D907F9F466
S1132F70E091F423F091F523309711F4D2D823C0D3
S1132F801995811102C0CDD81EC020916F233091B4
S1132F90702380916D2390916E23820F931F8093F1
S1132FA06F239093702310926D2310926E23E8E8A0
S1132FB0F3E202E0069300E2069305C0803811F4C0
S1132FC0D4D801C0F2D9FF91EF91DF91CF91BF9195
S1132FD0AF919F918F917F916F915F914F913F91AD
S1132FE02F911F910F910F900BBE0F900FBE0F905A
S1132FF01F90189587E08093A2007894E0EEF3E2A6
S11330001082118212821382148281E085830E94CD
S113301098090E942B090E942A0D0E942D0988E01C
S11330200E943109FFCF089508958091DF238823FA
S113303081F00E9446098091DE23882351F00E948A
S113304033098091DD23882321F00E944D090C94DB
S1133050680908950895089581E08093DF23089511
S11330601092DF23089581E08093DE230895109267
S1133070DE23089581E08093DD2308951092DD23FB
S11330800895AA1BBB1B51E107C0AA1FBB1FA617AB
S1133090B70710F0A61BB70B881F991F5A95A9F7FD
S11330A080959095BC01CD010895EE0FFF1F881FF8
S11330B08BBF0790F691E02D1994FB01DC0102C04F
S11330C001900D9241505040D8F70895F894FFCFE5
S11330D00600FF0901A1019520750119012910813C
S11330E00295087501190129089102C073018D0127
S11330F090013801000080800196202F2000003AC2
S11331002033200521C0201C200009025B0003019C
S113311000A032090400000103000000092111018C
S11331200001223B00070581030800020904010095
S11331300103000000092111010001221800070504
S113314082030800040904020002030000000921AC
S113315011010001221C000705840308000407056F
S11331600303080004001201000200000008EB033E
S1133170332100010102000105010904A101050137
S113318009300931150026FF00750895028102C037
S1133190950A9F0AA20A6A0A000005010906A1010C
S11331A0050719E029E71500250175019508810235
S11331B081011900296515002565750895068100AA
S11331C005081901290515002501750195059102C8
S11331D095039101C0E50AF70AFA0AE10A00000022
S11331E000030000000000000000000000000000D8
S11331F000000000000000000000000000000000CB
S113320000000000000000000000000000000000BA
S11332100000000000000000437573746F6D2048C7
S1133220494420436F6D706F7369746520446576FB
S11332306963650041544D454C20415346000403E5
S11332400904010204081020408000172E455C7414
S11332508BA2B9D0E7FF0807FFFF0605FFFF04FFB5
S10D3260FFFFFFFF0002FFFF010360
S9030000FC
