S01F0000436F6D706F73697465496D706C656D656E746174696F6E2E737265638C
S11300000DC100002CC100002AC1000028C100005D
S113001026C1000024C1000022C1000020C100004C
S11300201EC100001CC100001AC1000018C100005C
S113003016C1000014C1000012C1000010C100006C
S11300400EC100000CC100000AC1000008C100007C
S113005006C1000004C1000002C1000000C100008C
S1130060FEC00000FCC00000FAC00000F8C00000A0
S1130070F6C00000F4C00000F2C00000F0C00000B0
S1130080EEC00000ECC00000EAC00000E8C00000C0
S1130090E6C00000E4C00000E2C00000E0C00000D0
S11300A0DEC00000DCC00000DAC00000D8C00000E0
S11300B0D6C00000D4C00000D2C00000D0C00000F0
S11300C0CEC00000CCC00000CAC00000C8C0000000
S11300D0C6C00000C4C00000C2C00000C0C0000010
S11300E0BEC00000BCC00000BAC00000B8C0000020
S11300F0B6C00000B4C00000B2C00000B0C0000030
S1130100AEC00000ACC00000AAC00000A8C000003F
S1130110A6C00000A4C00000A2C00000A0C000004F
S11301209EC000009CC000009AC0000098C000005F
S113013096C0000094C0000092C0000090C000006F
S11301408EC000008CC000008AC0000088C000007F
S113015086C0000084C0000082C0000080C000008F
S11301607EC000007CC000007AC0000078C000009F
S113017076C0000074C0000072C0000070C00000AF
S11301806EC000006CC000006AC0000068C00000BF
S113019066C0000064C0000062C0000060C00000CF
S11301A05EC000005CC000005AC0000058C00000DF
S11301B056C0000054C0000052C0000050C00000EF
S11301C04EC000004CC000004AC0000048C00000FF
S11301D046C0000044C0000042C0000040C000000F
S11301E03EC000003CC000003AC0000038C000001F
S11301F036C000000C9436130C94F413C9030F0496
S1130200BF031104C103C303C503C703C903230EFA
S1130210260E290E2C0E2F0E320E350E11241FBE63
S1130220CFEFCDBFDFE5DEBF00E00CBF11E2A0E001
S1130230B0E2EAEAFAE200E00BBF02C007900D92D6
S1130240A839B107D9F723E2A8E9B1E201C01D92A8
S1130250A93CB207E1F70E94EC140C945315D0CEDC
S113026080E008953091BB232091BC23822F90E03D
S11302700297C1F4311118C08091BF239091C0231B
S11302800197A1F4E9EBF3E288E991E28087918791
S113029081E090E08287938784E791E08487958763
S11302A081E0089580E0089580E0089580E0089555
S11302B00F931F9304E711E021E030E048E951E295
S11302C060E083E00E94E4111F910F910895CF93A1
S11302D010929A2110929821EBDFC82F81110E946D
S11302E022158C2FCF910895811107C061307105BB
S11302F021F488E991E20E942915DACF08950C943B
S11303002615089522E331E040E050E268E971E205
S11303108AE991E204C70895E0E0F6E09FEF918353
S11303209583E0E2F6E03FE3328388E1808B818BC2
S1130330828B838B848B858B20EC218340E44583E3
S113034040E84583E0E4F6E04CEF4283828B838B04
S1130350848B858B868B878B43E041834583E0E6E2
S1130360F6E03283808B818B828B838B848B858BAD
S113037021832683E0E8F6E09283808B818B828B55
S1130380838B848B858B868B878BE0EAF6E090EFFA
S11303909283848B858B868B878B8FE08183858387
S11303A06FD20DC10895809148062091680690E0AF
S11303B0922B9695879596958795BC017F7080FFC3
S11303C017C021E030E0E1E0F0E0822FAF01022E1F
S11303D002C0440F551F0A94E2F746235723452BC6
S11303E041F02F5F3F4F2C30310579F78FEF08959F
S11303F080E00895809188062091280690E0922B51
S1130400BC017F7080FF17C021E030E0E1E0F0E044
S1130410822FAF01022E02C0440F551F0A94E2F747
S113042046235723452B41F02F5F3F4F2C30310596
S113043079F78FEF089580E008958823F4F19BEF16
S1130440980F9230E0F1853034F495E0981B9230A7
S113045008F042C036C09AEF980F9230B0F531C020
S113046062E023E030E090E080E0E1E0F0E0AF0122
S1130470022E02C0440F551F0A94E2F7842B9F5F9B
S113048021503109961798F308958150482F50E070
S11304904B5F5F4F24E030E080E0E1E0F0E0BF013B
S11304A0022E02C0660F771F0A94E2F7862B2F5F95
S11304B03F4F2417350799F7089580E0089588E1A0
S11304C0089585306CF282E0E0CF8550853008F0E5
S11304D084E08111DACF089566E0681B653008F086
S11304E064E06111BECF80E00895CF935CDFC82F34
S11304F081DFCC2324F48823C4F090E009C0C63003
S11305001CF09BEF9C0F02C095E09C1B882354F0C9
S113051086301CF02BEF280F02C025E0281B921711
S113052008F4C82F8C2F89DF01C080E0CF91089593
S113053061DF88233CF0E82F880FFF0BE457FE4D62
S1130540808101C080E880939C212DDF88233CF0CA
S1130550E82F880FFF0BE457FE4D808101C080E82F
S1130560ECE9F1E28183208190912620291304C0D3
S113057090912720981771F08CE991E2DFD48823B9
S113058049F0E6E2F0E2ACE9B1E28C9180831196A5
S11305908C9181830895A9DF8093B02390912806DC
S11305A09093B1239091B12394FD07C0882331F037
S11305B06DD18091B0236EC10895BACF0895109281
S11305C0A9211092A6211092A7211092A421109281
S11305D0AA211092A821E0EBF1E281E6808380E673
S11305E08183128213828FE584838EE5858316824C
S11305F017828DE5808711861286138614861586E8
S113060089E586878BE58787108A118A8AE5828B3C
S11306108CE5838BEBEAF1E28EE080838DE08183CD
S11306208BE0828387E083838FEF848308950F9325
S11306301F93CF93DF939091A12120E030E015E048
S113064074E0E0EAF6E0A0E2B6E000E8622FE90137
S1130650C555DE4D88818483243021F416960C938D
S1130660169703C015960C93159780858095807F07
S1130670482F50E0EA0121974C235D23452B41F09C
S11306809095982309F4982F492F4195942301C0FC
S1130690982F903251F018F49031D9F10AC0903467
S11306A0D1F1903831F473E037C0992311F0162F4B
S11306B071E02F5F3F4F982F2530310539F6809335
S11306C0A12180E8809325067430E0F4E12FF0E066
S11306D0EE0FFF1FEE0FFF1FE055FE4DE70FF11D5C
S11306E080819091A921911106C08093A82181E075
S11306F08093A92113C09091A821891779F0809340
S1130700A8210CC08091A921813041F41092A92123
S113071005C070E001C072E0162FCBCFDF91CF91FE
S11307201F910F9108958091A92108958091280621
S11307308093B2238091A9218093A6218091A8213E
S11307408093A5218091B22384FD29C08091A621A4
S1130750813009F054C08091A721811150C0E091EB
S1130760A5218E2F90E0FC01E955F109E930F1054E
S113077090F48827E250FF4F8F4F0C94421584E089
S113078009C080E107C080E205C080E403C080E8BE
S113079001C081E085D081E08093A42130C0909194
S11307A0A8218091A621813061F48091A721811133
S11307B008C09093A02181E08093A3219093A2216B
S11307C01EC08091A621813061F48091A0219817E8
S11307D041F09093A02181E08093A3219093A221E2
S11307E00EC08091A62181110AC08091A721813079
S11307F031F41092A3218091A0218093A2218091B1
S1130800B22384FF07C08091A421813019F43ED023
S11308101092A4218091A6218093A721089582E0BB
S1130820B9CF88E0B7CFCF9302DF80DF8091A321D7
S1130830C1E0811101C0C0E0882381F08091A22130
S113084090919F21911103C080939E2115C0909196
S11308509E21891789F080939E210EC080919F214B
S1130860882351F080919E21882321F024D4809103
S11308709E21E5D310929E21C0939F21CF9108958C
S1130880E0E0F6E08FEF8183858308958FEF809316
S11308900506089580930606089580930506089535
S11308A0809307060895E0E0F6E09FEF9583868342
S11308B008956F927F928F929F92AF92BF92CF9240
S11308C0DF92EF92FF920F931F93CF93DF93CDB7F5
S11308D0DEB72997CDBFDEBF28E0E4E8F1E2DE0110
S11308E0119601900D922A95E1F7198683309105AE
S11308F009F409C144F48130910509F44BC002970D
S113090009F4AAC0EFC18430910509F454C10597D4
S113091009F4A5C1E7C1F801F1908F018F2DBADF69
S1130920FFE028E982E0F15020408040E1F700C078
S113093000008F2DB2DF7BDEF6DE813009F4E9861C
S1130940D4DD8111E986A016B10609F49DC189851B
S1130950882309F399C1F801F2908F018F2D9ADF52
S1130960FFE028E982E0F15020408040E1F700C038
S113097000008F2D92DF5BDED6DE813009F4E9863C
S1130980B4DD8111E9860C151D0569F0898588237C
S113099011F309C05E0199E0A90EB11CEE24E394A1
S11309A0FE0131966F018985811107C08985811106
S11309B06BC18E010F5F1F4FAECF68DF93C1F8018B
S11309C072908F01872D66DFF601F1906F018F2DF4
S11309D061DFFFE12FEB82E0F15020408040E1F73E
S11309E000C00000872D59DF8F2D57DF20DE9BDEEE
S11309F0813009F4E98679DD8111E9868016910652
S1130A0009F449C189858823D1F245C1F301D19004
S1130A103F018D2D3FDFF801F2908F018F2D3ADFDA
S1130A20FFE12FEB82E0F15020408040E1F700C06D
S1130A3000008D2D32DF8F2D30DFF9DD74DE813043
S1130A4009F4E98652DD8111E9860A151B0569F06E
S1130A5089858823D9F209C0FE0131964F01EE241D
S1130A60E3945E01F5E0AF0EB11C8985811108C0E5
S1130A708985811110C18E010B5F1F4F68019FCFC3
S1130A8005DF30C1F80182918F0104DFF701819104
S1130A907F0100DFFFE227E585E0F1502040804040
S1130AA0E1F700C00000C3DD3EDE813009F4998621
S1130AB01CDD81119986A016B10609F4F6C089855A
S1130AC0882301F3F2C0F70181917F01E6DEF8018A
S1130AD082918F01E2DEFFE227E585E0F1502040BC
S1130AE08040E1F700C00000A2DD1DDE813009F482
S1130AF09986FBDC811199860C151D0569F08985A1
S1130B00882309F309C0FE0131965F019924939467
S1130B106E01F5E0CF0ED11C8985811109C089854C
S1130B208111C3C07E0125E0E20EF11C8701AACF2A
S1130B30ADDED8C0F80182918F01ACDEF70181915E
S1130B407F01A8DEFFE227E585E0F15020408040E8
S1130B50E1F700C000006BDDE6DD813009F4B98601
S1130B60C4DC8111B986C016D10609F4A8C08985F0
S1130B70882301F3A4C0F80182918F018EDEF7016E
S1130B8081917F018ADEFFE227E585E0F150204074
S1130B908040E1F700C000004ADDC5DD813009F482
S1130BA0B986A3DC8111B986C016D10649F08985BE
S1130BB0882309F305C0FE0131966F01BB24B39469
S1130BC08985811109C08985811179C07E01F5E08B
S1130BD0EF0EF11C8701AECF59DE84C0F70181917D
S1130BE07F0158DEF80182918F0154DEFFE227E590
S1130BF085E0F15020408040E1F700C0000017DD9F
S1130C0092DD813009F4B98670DC8111B9860C1546
S1130C101D0509F45DC08985882301F359C0F701D6
S1130C2081917F013ADEF80182918F0136DEFFE285
S1130C3027E585E0F15020408040E1F700C0000046
S1130C40F6DC71DD813009F4B9864FDC8111B98697
S1130C500C151D0551F08985882309F306C06E0122
S1130C6095E0C90ED11CBB24B394898581110AC0B7
S1130C70898581112DC0FE0131967F018E01075FA8
S1130C801F4FACCF03DE2EC0898581118CCE8E011F
S1130C90075F1F4F60CE89858111E7CECE01019693
S1130CA03C018E01075F1F4FB1CE8985811134CF7E
S1130CB0FE0131967F018E01075F1F4F04CF8985A6
S1130CC081117ECF7E01F5E0EF0EF11C870153CF39
S1130CD089858111CACFCE0101967C018E01075FFF
S1130CE01F4F9DCF2996CDBFDEBFDF91CF911F91BE
S1130CF00F91FF90EF90DF90CF90BF90AF909F90B7
S1130D008F907F906F90089546CC08958CCD089570
S1130D10CACD08950F931F93CF93DF93CDB7DEB75A
S1130D202797CDBFDEBF8FEF809370008093710053
S1130D308093720080937300809374008093750095
S1130D408093760065E081E490E07AD66CE170E00F
S1130D5082E06CD68A836DE170E082E067D6898395
S1130D6089819A81019621F480E493E289839A83AC
S1130D7089819A818B839C83E0E6F0E082838C8175
S1130D8083838FB78E83F8949E81E0E5F0E08081C1
S1130D90826080839FBF818181FFFDCF8FB78F8366
S1130DA0F8949F8100E510E0D80116968C9116976F
S1130DB0897F16968C931697E0E6F0E080E88583A9
S1130DC08BEB868316968C911697846016968C937B
S1130DD08081816080839FBF61E080E490E030D6B1
S1130DE08FB78D83F8949D81F80180818E7F8083F5
S1130DF09FBF2796CDBFDEBFDF91CF911F910F918B
S1130E000895CF93DF931F92CDB7DEB79FB7998331
S1130E10F8949981E82FF0E0E059FF4F60958081C4
S1130E20682360839FBF0F90DF91CF910895CF9384
S1130E30DF931F921F92CDB7DEB7863011F060E0CA
S1130E4001C068E18091510081FD2AC08FB7898378
S1130E50F8949981E0E5F0E08081826080839FBF0F
S1130E60818181FFFDCF8FB78A83F8949A81A0E5B1
S1130E70B0E016968C911697897F16968C931697E8
S1130E80E0E6F0E080E885838BEB868316968C9110
S1130E901697846016968C938081816080839FBFAF
S1130EA0636084E490E0CCD560E480E0AADF0F9036
S1130EB00F90DF91CF91089580E008953091BB2386
S1130EC02091BC23822F90E00397B1F4311116C016
S1130ED08091BF239091C023892B91F4E9EBF3E235
S1130EE084EC91E28087918782E897E084879587F4
S1130EF01286138681E0089580E0089580E00895C5
S1130F0080E00895089581E08093C62108951092A9
S1130F10CA211092C82181E08093C6210C941B152C
S1130F2008950C941F1508952EE537E046EA50E223
S1130F3068EC71E28AEC91E2F2C00895FF920F939B
S1130F401F93CF93DF931F92CDB7DEB79C0180919F
S1130F50C621882309F1F9018FB78983F894F980B0
S1130F601092C4211092C521808191818093C42163
S1130F709093C52103E817E022E030E044EC51E20D
S1130F8060E082E80E94E41191E089278093C62101
S1130F90FFBE8091C62189270F90DF91CF911F91C9
S1130FA00F91FF90089580E0089580E008951092D5
S1130FB0E0211092DE211092D42188E0E5EDF1E2E7
S1130FC0DF011D928A95E9F71092DD210C94141526
S1130FD008950C941815089525ED37E04BEC50E274
S1130FE06EED71E280EE91E29AC008950F931F9323
S1130FF08091D421811118C088E0E5EDF1E2ACECD8
S1131000B1E201900D928A95E1F71092DD2108E199
S113101018E028E030E04CEC51E260E081E80E9406
S1131020E4118093D42101C080E01F910F910895B1
S11310301092D4218091DD218111D8CF08951F937E
S1131040CF93DF931F92CDB7DEB79FB79983F89400
S113105019819091D721992341F08917A9F0E8EDDE
S1131060F1E293E02191211102C01FBF1EC0281795
S113107021F09F5F9830B1F705C0983019F0973090
S113108020F00CC01FBF11C092E0E92FF0E0EB523A
S1131090FE4D818180839F5F9730B9F71092DC21E8
S11310A081E08093DD21A2DF1FBF81E00F90DF91FB
S11310B0CF911F9108951F93CF93DF931F92CDB7C4
S11310C0DEB79FB79983F89419819091D72199231A
S11310D0B1F0891741F0A8EDB1E2E3E09D919923C5
S11310E049F0981303C01FBF81E014C0EF5FE830DC
S11310F0A9F702C0E83021F41FBF80E00BC0E2E092
S1131100F0E0EB52FE4D808381E08093DD216EDFC1
S11311101FBF81E00F90DF91CF911F910895CF936E
S1131120DF93DC01EA019091B92399230CF068C0A4
S1131130907609F045C08091BA23863009F040C00A
S113114076D1DC011A962C911A97213209F077C0D6
S11311502091BC2330E021323105B1F49C01275F9A
S11311603F4F2093C1233093C223E9EBF3E2199656
S11311708C912681378190E02817390708F4C9013A
S11311808287938781E068C0FC01478550E042175D
S1131190530709F056C0C093C123D093C223E9EB8F
S11311A0F3E226813781DC0150968D919C91519711
S11311B02817390708F4C9018287938781E04CC056
S11311C0903209F040C08091BA23823039F08330E4
S11311D071F08130D1F5F90119953EC0E9EBF3E2E4
S11311E0A087B18781E090E08287938735C0E9EBDF
S11311F0F3E26087718781E090E0828793872CC057
S11312009076903221F58091BA238A3039F08B3070
S113121051F08930F1F4F90119951EC08091BC2375
S11312208C9381E019C08091BF239091C023892BB6
S113123091F48091BB23DB018C9381E00DC080E0AD
S11312400BC080E009C080E007C080E005C080E0FA
S113125003C080E001C080E0DF91CF910895E09168
S1131260E621F091E7210190F081E02D2281338184
S11312702E0F3F1FFC014081E40FF11DE217F3071D
S1131280A0F481818430A1F0861306C014C081814A
S11312908430A1F08617A9F08081E80FF11DE217D0
S11312A0F307A8F380E090E0089580E090E00895CB
S11312B080E090E008958E2F9F2F089580E090E0C5
S11312C008958E2F9F2F08958091BB238F7795C704
S11312D008959091E821992381F1E091E621F0911C
S11312E0E7210190F081E02D9481891740F5E09386
S11312F0E421F093E521228133812E0F3F1FE21771
S1131300F307F8F49181943061F49281891309C050
S11313109381961306C0E093E421F093E52181E0E4
S113132008959081E90FF11DE217F30758F3E09354
S1131330E421F093E52180E0089580E0089580E0C1
S1131340089580E00895EF92FF921F93CF93DF9367
S1131350C82F60E0BEDF182F882381F1A091E62119
S1131360B091E721EC2FF0E0EE0FFF1F12968D9164
S11313709C911397E80FF91FE080F180D70116962E
S1131380ED91FC9117971995682F8C2FA2DF182FD8
S11313908823A1F0C091E421D091E52165E0CE013C
S11313A05EDFEC01892B21F08A810E94FD12F6CFC9
S11313B0D7011296ED91FC9113971995812FDF9126
S11313C0CF911F91FF90EF9008951F93CF93DF93D8
S11313D0182F7FDF882339F1C091E421D091E521D2
S11313E065E0CE013CDFEC01892B41F04C815D814D
S11313F06B818A810FD78111F3CF15C0A091E621AB
S1131400B091E721E12FF0E0EE0FFF1F12968D91CE
S11314109C911397E80FF91F0190F081E02D019042
S1131420F081E02D1995DF91CF911F91089580915E
S1131430E4219091E521089555C60895CF938091B4
S1131440E8218823C1F0E091E621F091E7210190A1
S1131450F081E02D8481882371F0C0E08C2F73DF4C
S1131460CF5FE091E621F091E7210190F081E02D3A
S11314708481C81798F31092E8218091EC2181FDB2
S11314800E9413151092EC211092ED21CF91089532
S1131490CF938091E821882349F1A091E621B0916E
S11314A0E721ED91FC91119784818823F9F0C0E044
S11314B0EC2FF0E0EE0FFF1F12968D919C91139785
S11314C0E80FF91F0190F081E02D0084F185E02DF3
S11314D0309709F01995CF5FA091E621B091E721EB
S11314E0ED91FC9111978481C81710F3CF91089561
S11314F00F931F93CF93DF93E9EBF3E212861386E6
S11315001486158616861786808188230CF07EC281
S11315102091BF233091C0232115310509F07BC2EE
S11315206DC28F7109F0A0C09091BA23963079F002
S1131530983009F48FC0911197C02230310509F019
S113154019C262E070E08CEE91E25DD669C28091CE
S1131550BB239091BC23292F332722303105A9F0D6
S113156020F42130310541F0C7C123303105D9F1D0
S11315702F30310551F1C0C180912820909129204C
S1131580DC016C9170E03FD656C0E0912820F091C8
S113159029202189821708F0EDC19927880F991F06
S11315A0880F991FE0912A20F0912B20E80FF91F52
S11315B080819181FC016281738125D6E091C123F0
S11315C0F091C22382E0818336C080912C209091D7
S11315D02D20009709F4CEC1DC0112966D917C9107
S11315E0139711D628C099278130910571F038F0EE
S11315F0029709F08AC1E4E5F1E231E209C064E04E
S113160070E080E891E2FFD516C0E6E7F1E239E048
S1131610A2E1B1E220E0819190E08D939D932F5F50
S11316202317C8F3632F660F6E5F6093102170E079
S113163080E191E2E8D5E9EBF3E2868197812285A6
S113164033858217930708F0EBC18093C3239093EB
S1131650C423E6C12130310509F08CC161E070E09A
S113166088EE91E2D0D5DCC18130E1F59091BA23C6
S11316709A30C1F52130310509F04CC18091E8213F
S1131680882309F447C1C091BD23D091BE230091A2
S1131690E6211091E721D801ED91FC918481C817CE
S11316A008F038C160E08C2F14DE882309F42DC1C2
S11316B0CE019927880F991FD8011296ED91FC91BC
S11316C01397E80FF91F0190F081E02D868197812F
S11316D0FC0119958093EA2161E070E08AEE91E2C1
S11316E092D59EC1823009F010C18091BA23811134
S11316F005C12230310509F03DC18091BD2312D6C8
S113170090E08093E2219093E32162E070E082EE26
S113171091E279D585C18F7109F09FC09091BA2368
S1131720933091F118F49130A9F097C0953021F0DD
S1131730993009F443C091C08091BF239091C02394
S1131740892B09F017C184E699E08093C52390930F
S1131750C62366C18091BF239091C023892B09F0D1
S113176009C18091BB239091BC23019709F002C168
S11317708091EC219091ED218D7F8093EC219093C9
S1131780ED210E9413154CC18091BF239091C02379
S1131790892B09F0EFC08091BB239091BC23019762
S11317A009F0AEC08091EC219091ED21826080938C
S11317B0EC219093ED210E94121532C18091BF2338
S11317C09091C023892B09F0D5C01AD5882309F438
S11317D09CC02091BB233091BC233327E091282067
S11317E0F0912920818990E08217930708F48DC035
S11317F025DE8091BB239091BC238093E82188232C
S113180009F40EC199278150904C880F991F880FB5
S1131810991FE0912A20F0912B20E80FF91FE09303
S1131820E621F093E7210190F081E02D8481882363
S113183009F4F6C0C0E060E08C2FC7DD882309F40A
S113184064C0CF5FE091E621F091E7210190F0813F
S1131850E02D8481C81778F3E3C08130E9F49091D6
S1131860BA239B30C9F48091BF239091C023892B64
S113187009F050C08091E821882309F44BC0E9EBBA
S1131880F3E2C481D2818C2F5EDD882309F43DC04C
S11318906D2F8C2F9ADD37C08230B9F58091BA2331
S11318A0813019F0833099F02DC08091BF2390913D
S11318B0C023892B09F05EC08091BB239091BC2387
S11318C0892B09F057C08091BD2347D51CC0809156
S11318D0BF239091C023892B09F04CC08091BB2376
S11318E09091BC23892B09F045C0C9EBD3E28C81CC
S11318F035D68C819ED607C080E005C080E003C049
S113190080E001C080E081118CC08091B9238F7187
S1131910813081F58091E821882309F471C0009118
S1131920BD231091BE23C091E621D091E721E88127
S1131930F9818481081708F065C060E0802FC9DC54
S11319408823C1F0F801FF27CF01880F991FEA818E
S1131950FB81E80FF91FC081D181EE81FF811995C8
S1131960682F802FB6DC882329F0EC81FD8119953E
S1131970811157C08091B9238F71823009F044C01E
S11319808091E8218823B1F1A091E621B091E7216B
S1131990ED91FC9111978481882371F1C0E0EC2FC3
S11319A0F0E0EE0FFF1F12968D919C911397E80FB4
S11319B0F91F00811181D8011696ED91FC911797BA
S11319C01995682F8C2F85DC882359F1D80114963A
S11319D0ED91FC9115971995811123C0CF5FA091CA
S11319E0E621B091E721ED91FC9111979481C917FB
S11319F0B0F217C080E015C080E013C080E011C0D1
S1131A0080E00FC080E00DC080E00BC0982F90767E
S1131A1009F07BCF80CE982F907609F076CF81CDD8
S1131A2081E0DF91CF911F910F9108954091CA01F8
S1131A30E62FF72F8093CA0184914093CA01089539
S1131A401BBEFC0128ED24BF60830895CF93DF9370
S1131A501F921F92CDB7DEB7811126C09091AC239F
S1131A609923F9F09091B423911101C0FFCF9FB74E
S1131A709A83F8942A81E3EBF3E291819150918364
S1131A802FBF0FC09091B4239F3F09F4FFCF9FB79E
S1131A909983F8942981E3EBF3E291819F5F918329
S1131AA02FBF8093AC2305C09091AC23992351F3AD
S1131AB0F8CF0F900F90DF91CF9108950F93E8EC3A
S1131AC0F4E080818F7D808380818F7D8083E0E658
S1131AD0F3E202E00593109262231092632300E282
S1131AE0069300E40693E8E5F3E200E40693E9EBE9
S1131AF0F3E21486158616861786128613861092CC
S1131B0043230F9108950F9385E080934323E1E6E7
S1131B10F3E204E00593E9E5F3E204E005930F91B1
S1131B2008950F9383E080934323109262231092CD
S1131B306323E0E6F3E202E006930F910895E09157
S1131B40C523F091C623309709F0199508950F9392
S1131B50CF93DF9380914323833019F4F0DFAEDF1A
S1131B605EC080913F2390914023C091C323D091C4
S1131B70C423C81BD90B71F5209141233091422312
S1131B80820F931F80934123909342232091BF237C
S1131B903091C0238217930721F08091EE2188238E
S1131BA041F084E080934323E8E5F3E202E0069306
S1131BB036C0E091C723F091C823309799F0199566
S1131BC0882381F010923F2310924023C091C323B5
S1131BD0D091C423C830D10528F01092EE21C8E07A
S1131BE0D0E003C081E08093EE21E4E4F3E2C68F09
S1131BF0D78F80913F23909140232091C12330912E
S1131C00C223280F391F20A331A3C80FD91FC093A3
S1131C103F23D0934023E0E6F3E202E00693DF9112
S1131C20CF910F910895FC018181E82FE7708E2FE9
S1131C3090E0FC013197E730F105D0F48827E95FA3
S1131C40FE4F8F4F1FC780E190E0089580E290E03F
S1131C50089580E490E0089580E890E0089580E09D
S1131C6091E0089580E092E008958FEF93E0089565
S1131C7088E090E00895282F2F7030E0220F331F62
S1131C80082E000C990B8827990F881F9927820F1B
S1131C90931F02979C01220F331F220F331F220F21
S1131CA0331F820F931F81519D4D08950F93CF933E
S1131CB08091CC0480FF64C081E08093CC04E8E58B
S1131CC0F3E200E80693E0E6F3E200E8069380938B
S1131CD0CA04E8E5F3E200E10693809143238823F4
S1131CE029F08350823008F42ADFE8DE80915A23F9
S1131CF090915B23089709F045C088E0E7E3F3E29D
S1131D00A9EBB3E201900D928A95E1F7E8ECF4E0D7
S1131D10808180628083808180628083E9DBC82F38
S1131D20811103C0F0DEC1E02EC08091B923882365
S1131D306CF4109241231092422310923F2310928C
S1131D40402382E08093432302DF1DC08091BF23A0
S1131D509091C023892B11F4E4DE15C01092412325
S1131D601092422310923F231092402381E08093EB
S1131D704323E8E5F3E202E0069300E2069303C09E
S1131D80C0E001C0C1E08C2FCF910F9108958F92D4
S1131D909F92AF92BF92DF92EF92FF920F931F93A5
S1131DA0CF93DF93D82E67DF8C01CD2DCF70D0E099
S1131DB0CE01880F991FCD2D0D2C000CDD0BCC27E7
S1131DC0DD0FCC1FDD27C80FD91FCE01880F991F47
S1131DD0880F991F880F991F9C01285A3C4D79013F
S1131DE0C90121DF4C01DD200CF079C0FE01EE0FAA
S1131DF0FF1FEE0FFF1FEE0FFF1FEC5BFC4D228D4C
S1131E00338DD80115968D919C911697820F931F4F
S1131E1015968D939C93169713962D913C91149738
S1131E208217930709F445C0281B390B2115B4E028
S1131E303B0738F02FEF33E0C901B4010FD6281B5C
S1131E40390BF801808181FF09C0C901B40106D6AC
S1131E5041E0892B09F040E0842F01C080E0D801E3
S1131E609C9180FB91F99C93FE01EE0FFF1FEE0FF6
S1131E70FF1FEE0FFF1FEC5BFC4D128E138E268BA3
S1131E80378B11962D913C91129715968D919C91BB
S1131E901697820F931FCC0FDD1FCC0FDD1FCC0FC5
S1131EA0DD1FC45ADC4D88839983F70102E0069351
S1131EB0E0C0D8018C9181FFC9C08D7F8C93CC0F79
S1131EC0DD1FCC0FDD1FCC0FDD1FCC5BDC4D1A8E6C
S1131ED01B8E1E8A1F8AF70102E00693CAC0FE0108
S1131EE0EE0FFF1FEE0FFF1FEE0FFF1FEC5BFC4D0D
S1131EF0A688B788D8018C9182FF19C01196ED91FC
S1131F00FC91129715962D913C91169713968D91ED
S1131F109C911497B401A2D5B0E4DB9EB0011124C6
S1131F2061557E4DAC01CF01820F931FB3D5F801EB
S1131F30258136812A0D3B1D258336838381948137
S1131F408217930768F485839683CC0FDD1FCC0F2B
S1131F50DD1FCC0FDD1FCC5BDC4D8A8D9B8D76C0E5
S1131F60FE01EE0FFF1FEE0FFF1FEE0FFF1FEC5BD6
S1131F70FC4D428D538DA416B50609F067C0281791
S1131F80390709F463C0AC01421B530B9A012115B4
S1131F9054E0350740F02FEF33E0C901B4015ED5BA
S1131FA0281B390B05C0C901B40158D5281B390BAE
S1131FB0FE01EE0FFF1FEE0FFF1FEE0FFF1FEC5B86
S1131FC0FC4D168A178A2815390500F5D8018C911D
S1131FD084608C93B0E4DB9EC001112481559E4D36
S1131FE0FE01EE0FFF1FEE0FFF1FEE0FFF1FE45A5F
S1131FF0FC4D80839183CC0FDD1FCC0FDD1FCC0FF4
S1132000DD1FCC5BDC4D8A8E9B8E1CC0F8014181A8
S1132010528185819681840F951FFE01EE0FFF1F6B
S1132020EE0FFF1FEE0FFF1FE45AFC4D80839183D8
S1132030CC0FDD1FCC0FDD1FCC0FDD1FCC5BDC4DC7
S11320402A8F3B8FF70102E0069313C0D8018C91CD
S113205080FF0FC08E7F8C931796ED91FC9118979B
S1132060309739F015966D917C9116974D2D80E03F
S11320701995DF91CF911F910F91FF90EF90DF9011
S1132080BF90AF909F908F9008951F93CF93DF934D
S11320901F92CDB7DEB78FB78983F894198181E099
S11320A0D5DCEAECF4E080E4808380E28083E1EC38
S11320B0F4E0808181608083A9ECB4E08C9182603B
S11320C08C93E8ECF4E08081806480838C9181605F
S11320D08C938081806880831FBF0F90DF91CF91A4
S11320E01F9108950F931F93CF93DF931F921F9215
S11320F0CDB7DEB700E610E0F801108280E30E945D
S11321001707E0ECF4E080818064808381E0F801CB
S113211080838FB78A83F8941A8180E090E0FC0171
S1132120EE0FFF1FEE0FFF1FEE0FFF1FEC5BFC4DCA
S1132130158A01968A30910591F780E090E0FC01C0
S1132140EE0FFF1FEE0FFF1FEE0FFF1FE80FF91F2B
S1132150E151FD4D20812E7F208301968830910529
S113216071F76AE170E082E061DC8F3F19F08093DF
S1132170FA0403C08FE18093FA046BE170E082E01B
S113218055DC8F3F19F08093FB0403C08FE18093EB
S1132190FB04E0ECF4E080818460808380818068CB
S11321A0808380818061808388E593E2868397833E
S11321B08081806280838FEF8093C504E8ECF4E033
S11321C08081816080831092AC238091B8238F3FFB
S11321D009F4FFCF8FB78983F8949981E3EBF3E295
S11321E085818F5F85839FBF50DF1FBF0F900F9046
S11321F0DF91CF911F910F9108958093C3040895A7
S11322008091C3040895E9EBF3E2808791876287A4
S113221073870895282F2F7030E0220F331F082E64
S1132220000C990B8827990F881F9927820F931FF9
S1132230FC01EE0FFF1FEE0FFF1FEE0FFF1FEC5B05
S1132240FC4D2589207C09F069C06370613011F070
S113225018F404C060EC03C060E801C060E44038D6
S11322605105E9F050F440325105A9F040345105CC
S1132270A1F040315105D9F40CC0411522E05207B8
S113228091F04F3F23E0520781F04115514079F41A
S113229008C021E00DC022E00BC023E009C024E007
S11322A007C025E005C026E003C027E001C020E008
S11322B0FC01EE0FFF1FEE0FFF1FEE0FFF1FEC5B85
S11322C0FC4D158A36E0348B262B258BFC01EE0F52
S11322D0FF1FEE0FFF1FEE0FFF1FEC5BFC4D258968
S11322E0207C203C69F4FC01EE0FFF1FEE0FFF1F62
S11322F0EE0FFF1FEC5BFC4D25892770273081F022
S1132300880F991F880F991F880F991FFC01EC5B98
S1132310FC4D85898062858B81E0089580E0089575
S113232081E00895E82FEF70F0E0EE0FFF1F082E14
S1132330000C990B8827990F881F9927E80FF91F1C
S1132340EE0FFF1FEE0FFF1FEE0FFF1FEC5BFC4DA8
S1132350858982FB882780F908950F93282F2F7091
S113236030E0A901440F551F282F082E000C330B11
S11323702227330F221F3327240F351FA901440FAF
S1132380551F440F551F440F551FFA01E85AFC4DC1
S113239001E00693FA01EC5BFC4D958992FF11C0B4
S11323A0FA01EC5BFC4D95899B7F958B64DCFC0109
S11323B0808180FF06C08E7F80830780F085E02DBA
S11323C0199581E00F9108956F927F928F929F9259
S11323D0AF92BF92CF92DF92EF92FF920F931F932F
S11323E0CF93DF931F92CDB7DEB7782E662E4A01C6
S11323F0590141DC6C01272D872D8F70E82EF12CBB
S1132400C701880F991FE72C072C000CFF08EE2446
S1132410FF0CEE1CFF24E80EF91EF701EE0FFF1F60
S1132420EE0FFF1FEE0FFF1FEC5BFC4D8589807CD8
S113243009F481C0F701EE0FFF1FEE0FFF1FEE0F2F
S1132440FF1FEC5BFC4D8589807C803C61F0F701CB
S1132450EE0FFF1FEE0FFF1FEE0FFF1FEC5BFC4D97
S1132460858982FD6AC08FB78983F8948981F601D2
S1132470908190FF03C08FBF80E060C0F60190811F
S1132480916090838FBF81829282A382B4821582ED
S1132490168207831087611006C091E0A114B1046D
S11324A019F090E001C091E0F601808190FB81F980
S11324B08B7F8083222364F4F701EE0FFF1FEE0F5E
S11324C0FF1FEE0FFF1FEC5BFC4D128E138E2FC00F
S11324D0F701EE0FFF1FEE0FFF1FEE0FFF1FEC5B68
S11324E0FC4D8589807C803CA9F4C701880F991F25
S11324F0880F991F880F991F885A9C4D94DBBC0143
S1132500C501ACD2892B31F0F60180818E7F8083A6
S113251080E014C0F701EE0FFF1FEE0FFF1FEE0F58
S1132520FF1FEC5BFC4D168A178A128E138E872DC3
S11325302EDC81E003C080E001C080E00F90DF91D9
S1132540CF911F910F91FF90EF90DF90CF90BF90AC
S1132550AF909F908F907F906F900895FF920F930C
S11325601F93CF93DF93182FC82FCF70D0E0CE01E5
S1132570880F991FC12F012E000CDD0BCC27DD0F16
S1132580CC1FDD27C80FD91F812F75DBDC01FE01AD
S1132590EE0FFF1FEE0FFF1FEE0FFF1FE85AFC4D5B
S11325A002E005938C9180FF22C08E7F8C93179656
S11325B0ED91FC9118973097D1F011235CF4CC0F76
S11325C0DD1FCC0FDD1FCC0FDD1FCC5BDC4D6A8D16
S11325D07B8D0AC0CC0FDD1FCC0FDD1FCC0FDD1FA0
S11325E0CC5BDC4D6E897F89412F81E01995DF91A9
S11325F0CF911F910F91FF900895CF93C82FAEDF15
S1132600EC2FEF70F0E0EE0FFF1F8C2FCC0F990B27
S11326108827990F881F9927E80FF91FEE0FFF1FCE
S1132620EE0FFF1FEE0FFF1FEC5BFC4D158ACF91E1
S11326300895E82FEF70F0E0EE0FFF1F282F082E0B
S1132640000C330B2227330F221F3327E20FF31F13
S1132650EE0FFF1FEE0FFF1FEE0FFF1FEC5BFC4D95
S113266095899460958B7ADF81E008951F920F928B
S11326700FB60F9211240BB60F920F932F933F9323
S11326804F935F936F937F938F939F93AF93BF9376
S1132690CF93EF93FF938091CB0488233CF480E89D
S11326A08093CA040E94480AB1D189C08091CB04A6
S11326B082FF20C084E08093CA048091602386FF57
S11326C07EC08091CC0481FD7AC0F0DA811177C09C
S11326D080914323813011F424DA71C0843009F0ED
S11326E06EC0E1E6F3E204E00593E9E5F3E204E019
S11326F0059365C08091CB0481FF5CC082E0809328
S1132700CA048091582386FF5AC08091CC0481FD6D
S113271056C0CCDA811153C080914323823041F4F6
S113272084E080934323E8E5F3E202E0069347C0A4
S1132730833009F044C0E1E6F3E204E00593E9E5FF
S1132740F3E204E005933BC080E18093CA04C1E056
S11327508C2F04DF8C2F806801DFCF5FC530C1F779
S11327600E941E0A1092C304E4E4F3E2158A96E080
S1132770948B80E4858B158E948F858F87E393E209
S1132780808F918F9BD91BC08091CB0486FF07C09B
S113279080E48093CA0480E059D936D110C0809176
S11327A0CB0485FF0CC080E28093CA0481E04ED93B
S11327B02CD105C08091CB0484FDC6CFE5CFFF9119
S11327C0EF91CF91BF91AF919F918F917F916F9135
S11327D05F914F913F912F910F910F900BBE0F90EE
S11327E00FBE0F901F9018951F920F920FB60F9265
S11327F011240BB60F920F931F932F933F934F9374
S11328005F936F937F938F939F93AF93BF93CF9374
S1132810DF93EF93FF938091CC0481FD03C046DAEC
S11328208111C3C082E08093CC048091C50481955A
S1132830880FE8E5F3E2E81BF1092081318128558E
S11328403342369527953695279536952795822FC9
S1132850869520FD02C090E001C090E8890FE82F22
S1132860EF70F0E0EE0FFF1F282F082E000C330B43
S11328702227330F221F3327E20FF31FDF01AA0F92
S1132880BB1FAA0FBB1FAA0FBB1FAC5BBC4D54964A
S11328909C9195FF8AC0EE0FFF1FEE0FFF1FEE0FF6
S11328A0FF1FE85AFC4D00E20693811179C0809124
S11328B04323843019F443D901D977C000915A23B2
S11328C010915B238091C3239091C423C0913F2333
S11328D0D091402398012C0F3D1F8217930718F4C1
S11328E08C010C1B1D0B8091C1239091C223A80164
S11328F067E373E28C0F9D1FCDD0C00FD11FC0932F
S11329003F23D09340230830110569F4809141237B
S1132910909142238C0F9D1F2091BF233091C0239F
S11329208217930780F0E9EBF3E2C287D38706842A
S1132930F785E02D309729F01995811102C0E3D86D
S113294034C0EFD832C08091C3239091C423C817F8
S1132950D907F9F4E091C723F091C823309711F413
S1132960D2D823C01995811102C0CDD81EC02091A0
S113297041233091422380913F2390914023820F41
S1132980931F809341239093422310923F231092EC
S11329904023E8E5F3E202E0069300E2069305C073
S11329A0803811F4D4D801C0F2D9FF91EF91DF91AE
S11329B0CF91BF91AF919F918F917F916F915F91D3
S11329C04F913F912F911F910F910F900BBE0F903C
S11329D00FBE0F901F90189587E08093A200789403
S11329E0E3EBF3E21082118212821382148281E0FB
S11329F085830E948A060E948C010E941C0A84E03E
S1132A0090E00E945904FFCF089508958091AF2368
S1132A10882339F00E9486068091AE2381110C949C
S1132A20840608950895089581E08093AF2308955E
S1132A301092AF23089581E08093AE2308951092FD
S1132A40AE23089581E08093AD2308951092AD23C1
S1132A500895FC0180810C9488060895AA1BBB1B71
S1132A6051E107C0AA1FBB1FA617B70710F0A61B8A
S1132A70B70B881F991F5A95A9F780959095BC01AB
S1132A80CD010895EE0FFF1F881F8BBF0790F691AD
S1132A90E02D1994FB01DC0102C001900D9241501C
S10D2AA05040D8F70895F894FFCFD2
S1132AAA0600FF0901A10195087501190129088188
S1132ABA0295087501190129089102C067017F016D
S1132ACA820130010000808094202E2000003820EA
S1132ADA32200621C1201C2009025B00030100A048
S1132AEA3209040000010300000009211101000158
S1132AFA223B0007058103080002090401000103BF
S1132B0A000000092111010001221B0007058203AC
S1132B1A080004090402000203000000092111014B
S1132B2A0001221C000705840308000407050303A7
S1132B3A080004001201000200000008EB0333211C
S1132B4A00010102000105010904A101A100050116
S1132B5A09300931150026FF00750895028102C063
S1132B6AC08707910794075C07000005010906A1BD
S1132B7A01050719E029E715002501750195088162
S1132B8A02810119002965150025657508950681D4
S1132B9A00050819012905150025017501950591F6
S1132BAA0295039101C0D707E907EC07D307000090
S1132BBA0003000000000000000000000000000004
S1132BCA00000000000000000000000000000000F7
S1132BDA00000000000000000000000000000000E7
S1132BEA00000000000000000000000000000000D7
S1132BFA00000000436F6D706F7369746520484963
S1132C0A44204B6579626F617264202B204A6F7984
S1132C1A737469636B0041544D454C20415346001B
S1132C2A04030904010204081020408000172E45F9
S10B2C3A5C748BA2B9D0E7FF22
S9030000FC
