:100000000DC100002CC100002AC1000028C1000061
:1000100026C1000024C1000022C1000020C1000050
:100020001EC100001CC100001AC1000018C1000060
:1000300016C1000014C1000012C1000010C1000070
:100040000EC100000CC100000AC1000008C1000080
:1000500006C1000004C1000002C1000000C1000090
:10006000FEC00000FCC00000FAC00000F8C00000A4
:10007000F6C00000F4C00000F2C00000F0C00000B4
:10008000EEC00000ECC00000EAC00000E8C00000C4
:10009000E6C00000E4C00000E2C00000E0C00000D4
:1000A000DEC00000DCC00000DAC00000D8C00000E4
:1000B000D6C00000D4C00000D2C00000D0C00000F4
:1000C000CEC00000CCC00000CAC00000C8C0000004
:1000D000C6C00000C4C00000C2C00000C0C0000014
:1000E000BEC00000BCC00000BAC00000B8C0000024
:1000F000B6C00000B4C00000B2C00000B0C0000034
:10010000AEC00000ACC00000AAC00000A8C0000043
:10011000A6C00000A4C00000A2C00000A0C0000053
:100120009EC000009CC000009AC0000098C0000063
:1001300096C0000094C0000092C0000090C0000073
:100140008EC000008CC000008AC0000088C0000083
:1001500086C0000084C0000082C0000080C0000093
:100160007EC000007CC000007AC0000078C00000A3
:1001700076C0000074C0000072C0000070C00000B3
:100180006EC000006CC000006AC0000068C00000C3
:1001900066C0000064C0000062C0000060C00000D3
:1001A0005EC000005CC000005AC0000058C00000E3
:1001B00056C0000054C0000052C0000050C00000F3
:1001C0004EC000004CC000004AC0000048C0000003
:1001D00046C0000044C0000042C0000040C0000013
:1001E0003EC000003CC000003AC0000038C0000023
:1001F00036C000000C9435130C94F3138304C2042E
:100200007904C4047B047D047F0481048304220EEA
:10021000250E280E2B0E2E0E310E340E11241FBE6D
:10022000CFEFCDBFDFE5DEBF00E00CBF11E2A0E005
:10023000B0E2E0EBFAE200E00BBF02C007900D92E3
:10024000A239B107D9F723E2A2E9B1E201C01D92B8
:10025000A63FB207E1F70E94EB140C945615D0CEDE
:1002600080E008953091E8232091E923822F90E0E7
:100270000297C1F4311118C08091EC239091ED23C5
:100280000197A1F4E6EEF3E282E991E2808791879B
:1002900081E090E0828793878BE791E08487958760
:1002A00081E0089580E0089580E0089580E0089559
:1002B00081E08093982108950F931F930BE711E03D
:1002C00021E030E042E951E260E083E00E94E31186
:1002D0001F910F910895CF9310929C2110929A2113
:1002E00081E080939821E8DFC82F81110E942A15B0
:1002F0008C2FCF910895811106C06130710519F4DA
:1003000082E991E2C0D4D8CF08950C942E150895B7
:1003100022E331E040E050E26AE971E28CE991E2E7
:10032000FDC60895FF920F931F93CF93DF931F9203
:10033000CDB7DEB79C0180919821882359F1D9016E
:100340008FB78983F894F98084E024E931E2F901D8
:1003500011928A95E9F78D919D910D90BC91A02DF8
:100360008093942190939521A0939621B093972107
:1003700008E511E024E030E044E951E260E084E87F
:100380000E94E31191E0892780939821FFBE80911C
:10039000982189270F90DF91CF911F910F91FF90A6
:1003A0000895E0E0F6E09FEF91839583E0E2F6E0C8
:1003B0003FE3328388E1808B818B828B838B848BBC
:1003C000858B20EC218340E4458340E84583E0E4CD
:1003D000F6E04CEF4283828B838B848B858B868BFC
:1003E000878B43E041834583E0E6F6E03283808BF0
:1003F000818B828B838B848B858B21832683E0E8A2
:10040000F6E09283808B818B828B838B848B858BB0
:10041000868B878BE0EAF6E090EF9283848B858B66
:10042000868B878B8FE081838583CAD2FAD070C395
:100430000895809148062091680690E0922B969549
:10044000879596958795BC017F7080FF17C021E046
:1004500030E0E1E0F0E0822FAF01022E02C0440F55
:10046000551F0A94E2F746235723452B41F02F5F8F
:100470003F4F2C30310579F78FEF089580E00895D4
:10048000809188062091280690E0922BBC017F7015
:1004900080FF17C021E030E0E1E0F0E0822FAF0103
:1004A000022E02C0440F551F0A94E2F74623572339
:1004B000452B41F02F5F3F4F2C30310579F78FEFFF
:1004C000089580E008958823F4F19BEF980F92300F
:1004D000E0F1853034F495E0981B923008F042C08A
:1004E00036C09AEF980F9230B0F531C062E023E049
:1004F00030E090E080E0E1E0F0E0AF01022E02C0E9
:10050000440F551F0A94E2F7842B9F5F2150310955
:10051000961798F308958150482F50E04B5F5F4F36
:1005200024E030E080E0E1E0F0E0BF01022E02C014
:10053000660F771F0A94E2F7862B2F5F3F4F241731
:10054000350799F7089580E0089588E1089585308A
:100550006CF282E0E0CF8550853008F084E08111B4
:10056000DACF089566E0681B653008F064E0611139
:10057000BECF80E00895CF935CDFC82F81DFCC230E
:1005800024F48823C4F090E009C0C6301CF09BEF2F
:100590009C0F02C095E09C1B882354F086301CF011
:1005A0002BEF280F02C025E0281B921708F4C82F54
:1005B0008C2F89DF01C080E0CF91089561DF88230F
:1005C0003CF0E82F880FFF0BEE58FE4D808101C0F4
:1005D00080E880939E212DDF88233CF0E82F880F50
:1005E000FF0BEE58FE4D808101C080E8EEE9F1E29C
:1005F0008183208190912620291304C09091272087
:10060000981771F08EE991E298D4882349F0E6E2D8
:10061000F0E2AEE9B1E28C91808311968C918183F6
:1006200008951092BB211092B8211092B921109216
:10063000B5211092BC211092BA21E2ECF1E281E6E0
:10064000808380E68183128213828FE584838EE526
:100650008583168217828DE5808711861286138620
:100660001486158689E586878BE58787108A118A27
:100670008AE5828B8CE5838BEDEBF1E28EE0808363
:100680008DE081838BE0828387E083838FEF848397
:1006900008954F925F926F927F928F929F92AF9246
:1006A000BF92CF92DF92EF92FF920F931F93CF935F
:1006B000DF93E4EAF1E28DEA91E211928E179F074F
:1006C000E1F74090A3210EE711E2C0E0D0E0B12CA9
:1006D0000F2EF5E06F2EF02D6894772472F80F2E10
:1006E000F0EAEF2EF6E0FF2EF02D0F2EF0E2CF2EE7
:1006F000F6E0DF2EF02D6894882487F899249394EF
:10070000AC2EFE01E354FE4D8081D70114968C93EC
:10071000B4E0CB1303C0F601868203C0D601159660
:100720008C92F7018085807F8095F82FF07F5F2E77
:1007300084FDB39485FDB39486FDB39455200CF4E9
:10074000B394F80184E090E0252D30E0A901B901CF
:10075000082E02C0759567950A94E2F760FF0AC0FB
:100760006081693038F4062E000C770B6C557E4D95
:10077000DB019C92019631968830910539F7CA01C8
:10078000019748235923452B49F0B42DB095B52145
:1007900009F4B52D8B2F8195B82301C0B52DB0324A
:1007A00079F020F4B03109F448C00EC0B03409F437
:1007B00046C0B03849F40F2EF3E07F2EF02D42C032
:1007C000BB2311F06A2C792C21960C5F1F4F452C0E
:1007D000C530D10509F094CF5092A32180E88093D1
:1007E0002506B3E0B715E0F0E62DF0E0EE0FFF1FB1
:1007F000EE0FFF1FEE53FE4DE70DF11D808190912E
:10080000BB21911106C08093BA2181E08093BB2166
:100810000DC09091BA21891749F08093BA2106C082
:100820008091BB21813011F41092BB2181E08B15A6
:1008300008F080E08093B62107C0712C03C0689453
:10084000772471F86A2CC0CFDF91CF911F910F915F
:10085000FF90EF90DF90CF90BF90AF909F908F90E0
:100860007F906F905F904F900895E4EAF1E220E06E
:1008700030E040E050E061E070E09191992349F070
:10088000CB01022E02C0880F991F0A94E2F7482B71
:10089000592B2F5F3F4F2930310579F7CA01089551
:1008A000809128068093B4218091BB218093B82148
:1008B0008091BA218093B7218091B42184FD29C011
:1008C0008091B821813009F04DC08091B92181110A
:1008D00049C0E091B7218E2F90E0FC01E955F10964
:1008E000E930F10590F48827E250FF4F8F4F0C94C8
:1008F000451584E009C080E107C080E205C080E4BE
:1009000003C080E801C081E073D081E08093B5210D
:1009100029C08091BB219091A22191110BC08130FF
:1009200009F58093A2218091B7218093A121109293
:10093000A02118C0813051F58091A021811112C0F1
:100940008091B621882371F081E08093A0210AC0B4
:100950008091A121AFD38091A12170D31092A221C7
:100960001092A0218091B42184FF07C08091B5210D
:10097000813019F474D01092B5218091B821809300
:10098000B921089582E0C0CF88E0BECF8091A02138
:100990008111E4CFDDCFE6EDF1E220E030E090E040
:1009A000AC01022E02C0559547950A94E2F740FD2E
:1009B00060832F5F3F4F31962830310589F70895C6
:1009C000E0E0F6E08FEF81838583E0E2F6E080E40B
:1009D0008183858308958FEF8093050660E0DBDFD8
:1009E00091C108958093060661E0D5DF8BC108951B
:1009F00080930706E6EDF1E220E030E0682F70E03A
:100A000081E0AB01022E02C0559547950A94E2F7AA
:100A100040FF03C09081982790832F5F3F4F31960E
:100A20002830310571F76EC10895E0E0F6E09FEFE0
:100A300095838683E6EDF1E220E030E090E0AC01C2
:100A4000022E02C0559547950A94E2F741704193F2
:100A50002F5F3F4F2830310591F754C108958FEF34
:100A60008093050660E097CF0895CF93DF93A6EDBE
:100A7000B1E266EE71E2FD0140E050E0C1E0D0E09D
:100A80009F012A1B3B0B9191992341F0CE0102C09B
:100A9000880F991F2A95E2F7482B592BE617F7077D
:100AA00079F7CA01DF91CF91089580E480932606FB
:100AB00081E08093DE21089580E4809325061092E2
:100AC000DE21089580E480932706E6EDF1E290852B
:100AD00081E08927808708958FEF8093060661E083
:100AE0005ADFE3DF2FEB86EC9DE2215080409040FF
:100AF000E1F700C00000B3DFDFDF2FE181EA97E01C
:100B0000215080409040E1F700C0000080E008954F
:100B1000E6EEF1E281E08083118212821382148278
:100B200015828AEF90E08683978308951092E621DC
:100B300096CF08958091E621882309F45CC0E6D021
:100B4000882311F0F3CF0895E6EEF1E284819581D8
:100B5000019684839583268137818217930708F451
:100B60004AC0148215828381883008F11382818102
:100B700081111DC082818F5F82832536310538F057
:100B80002B5431092093EC213093ED2106C022E350
:100B900030E02093EC213093ED21843040F0E6EEFC
:100BA000F1E281E0818382E390E086839783609124
:100BB000E92141E050E0062E02C0440F551F0A947F
:100BC000E2F7E0E0F6E08FEF85834683E6EDF1E2C1
:100BD00080E090E055279A01082E02C035952795B0
:100BE0000A94E2F72170219301968830910599F7D4
:100BF0006F5F6093E92108958091E6210895D1CB3C
:100C00000895EF92FF920F931F93CF93DF9300D03D
:100C10001F92CDB7DEB729DFE82E192F26DEF82E7A
:100C2000092FE982E9DF811182E0182B1A83FB8208
:100C30000C83CE01019676DB2496CDBFDEBFDF911B
:100C4000CF911F910F91FF90EF90089522DD28CE54
:100C50000895CF9390DCC82F8091280684FD09C0A9
:100C6000CC2379F0B8DE8C2FBDDE81E08093EE21BD
:100C700008C0A4DC8091EE21813019F4F0DE1092DE
:100C8000EE21CF910895FC018081803821F481E02C
:100C90008093EF210895813821F41092EF2138CF0D
:100CA0000895C3CE08958091F0219091F12101968D
:100CB0008093F0219093F1218091280684FD0DC04E
:100CC0008091F0219091F121843F9140A0F0FADED3
:100CD0001092F0211092F121089580912820811125
:100CE00006C0EADE1092F0211092F12108951092D0
:100CF000F0211092F1210895EFDE809328200895CD
:100D000019CF089581E08093EF2108958091EF211C
:100D100008950F931F93CF93DF93CDB7DEB7279737
:100D2000CDBFDEBF8FEF8093700080937100809302
:100D30007200809373008093740080937500809399
:100D4000760065E081E490E07AD66CE170E082E0C4
:100D50006CD68A836DE170E082E067D689838981F1
:100D60009A81019621F480E493E289839A838981B0
:100D70009A818B839C83E0E6F0E082838C8183837D
:100D80008FB78E83F8949E81E0E5F0E080818260E9
:100D900080839FBF818181FFFDCF8FB78F83F894C0
:100DA0009F8100E510E0D80116968C911697897FF7
:100DB00016968C931697E0E6F0E080E885838BEB3F
:100DC000868316968C911697846016968C938081F4
:100DD000816080839FBF61E080E490E030D68FB770
:100DE0008D83F8949D81F80180818E7F80839FBFE1
:100DF0002796CDBFDEBFDF91CF911F910F91089550
:100E0000CF93DF931F92CDB7DEB79FB79983F89446
:100E10009981E82FF0E0E059FF4F609580816823C9
:100E200060839FBF0F90DF91CF910895CF93DF93A1
:100E30001F921F92CDB7DEB7863011F060E001C07F
:100E400068E18091510081FD2AC08FB78983F894B1
:100E50009981E0E5F0E08081826080839FBF81819D
:100E600081FFFDCF8FB78A83F8949A81A0E5B0E027
:100E700016968C911697897F16968C931697E0E6B6
:100E8000F0E080E885838BEB868316968C9116972D
:100E9000846016968C938081816080839FBF63609D
:100EA00084E490E0CCD560E480E0AADF0F900F905E
:100EB000DF91CF91089580E008953091E82320914B
:100EC000E923822F90E00397B1F4311116C080918D
:100ED000EC239091ED23892B91F4E6EEF3E282EF7F
:100EE00091E28087918781E897E0848795871286D1
:100EF000138681E0089580E0089580E0089580E001
:100F00000895089581E08093F42108951092F821C6
:100F10001092F62181E08093F4210C94231508951A
:100F20000C94271508952DE537E048EA50E266EF66
:100F300071E288EF91E2F2C00895FF920F931F9340
:100F4000CF93DF931F92CDB7DEB79C018091F42140
:100F5000882309F1F9018FB78983F894F9801092F9
:100F6000F2211092F321808191818093F22190935C
:100F7000F32102E817E022E030E042EF51E260E0C6
:100F800082E80E94E31191E089278093F421FFBE5B
:100F90008091F42189270F90DF91CF911F910F91BC
:100FA000FF90089580E0089580E0089510920E2249
:100FB00010920C221092022288E0E3E0F2E2DF01BC
:100FC0001D928A95E9F710920B220C941C15089536
:100FD0000C942015089524ED37E04AEC50E26CE0C3
:100FE00072E28EE092E29AC008950F931F9380916F
:100FF0000222811118C088E0E3E0F2E2AAEFB1E238
:1010000001900D928A95E1F710920B2207E118E00A
:1010100028E030E04AEF51E260E081E80E94E3110D
:101020008093022201C080E01F910F9108951092D9
:10103000022280910B228111D8CF08951F93CF9364
:10104000DF931F92CDB7DEB79FB79983F8941981CC
:1010500090910522992341F08917A9F0E6E0F2E288
:1010600093E02191211102C01FBF1EC0281721F05B
:101070009F5F9830B1F705C0983019F0973020F095
:101080000CC01FBF11C092E0E92FF0E0ED5FFD4DF5
:10109000818180839F5F9730B9F710920A2281E0A7
:1010A00080930B22A2DF1FBF81E00F90DF91CF91D1
:1010B0001F9108951F93CF93DF931F92CDB7DEB793
:1010C0009FB79983F8941981909105229923B1F0E3
:1010D000891741F0A6E0B2E2E3E09D91992349F03F
:1010E000981303C01FBF81E014C0EF5FE830A9F779
:1010F00002C0E83021F41FBF80E00BC0E2E0F0E066
:10110000ED5FFD4D808381E080930B226EDF1FBF7A
:1011100081E00F90DF91CF911F910895CF93DF93DE
:10112000DC01EA019091E62399230CF068C09076E7
:1011300009F045C08091E723863009F040C076D1A0
:10114000DC011A962C911A97213209F077C0209170
:10115000E92330E021323105B1F49C01275F3F4F94
:101160002093EE233093EF23E6EEF3E219968C9171
:101170002681378190E02817390708F4C901828752
:10118000938781E068C0FC01478550E04217530710
:1011900009F056C0C093EE23D093EF23E6EEF3E2BE
:1011A00026813781DC0150968D919C9151972817AB
:1011B000390708F4C9018287938781E04CC09032D7
:1011C00009F040C08091E723823039F0833071F01C
:1011D0008130D1F5F90119953EC0E6EEF3E2A08722
:1011E000B18781E090E08287938735C0E6EEF3E235
:1011F0006087718781E090E0828793872CC090762A
:10120000903221F58091E7238A3039F08B3051F00C
:101210008930F1F4F90119951EC08091E9238C936E
:1012200081E019C08091EC239091ED23892B91F4FA
:101230008091E823DB018C9381E00DC080E00BC03E
:1012400080E009C080E007C080E005C080E003C006
:1012500080E001C080E0DF91CF910895E0911422F9
:10126000F09115220190F081E02D228133812E0F23
:101270003F1FFC014081E40FF11DE217F307A0F4CA
:1012800081818430A1F0861306C014C0818184302E
:10129000A1F08617A9F08081E80FF11DE217F3078E
:1012A000A8F380E090E0089580E090E0089580E069
:1012B00090E008958E2F9F2F089580E090E008958C
:1012C0008E2F9F2F08958091E8238F7795C70895DB
:1012D00090911622992381F1E0911422F091152228
:1012E0000190F081E02D9481891740F5E09312225E
:1012F000F0931322228133812E0F3F1FE217F30751
:10130000F8F49181943061F49281891309C093813A
:10131000961306C0E0931222F093132281E0089501
:101320009081E90FF11DE217F30758F3E0931222C1
:10133000F093132280E0089580E0089580E00895FE
:1013400080E00895EF92FF921F93CF93DF93C82F11
:1013500060E0BEDF182F882381F1A0911422B091A4
:101360001522EC2FF0E0EE0FFF1F12968D919C914D
:101370001397E80FF91FE080F180D7011696ED91E1
:10138000FC9117971995682F8C2FA2DF182F8823AF
:10139000A1F0C0911222D091132265E0CE015EDF50
:1013A000EC01892B21F08A810E94FC12F6CFD70133
:1013B0001296ED91FC9113971995812FDF91CF91A2
:1013C0001F91FF90EF9008951F93CF93DF93182FF5
:1013D0007FDF882339F1C0911222D091132265E07A
:1013E000CE013CDFEC01892B41F04C815D816B81AA
:1013F0008A810FD78111F3CF15C0A0911422B0912B
:101400001522E12FF0E0EE0FFF1F12968D919C91B7
:101410001397E80FF91F0190F081E02D0190F08102
:10142000E02D1995DF91CF911F910895809112229F
:1014300090911322089555C60895CF938091162256
:101440008823C1F0E0911422F09115220190F081DF
:10145000E02D8481882371F0C0E08C2F73DFCF5F93
:10146000E0911422F09115220190F081E02D848109
:10147000C81798F31092162280911A2281FD0E94BB
:101480001B1510921A2210921B22CF910895CF9310
:1014900080911622882349F1A0911422B09115223F
:1014A000ED91FC91119784818823F9F0C0E0EC2F35
:1014B000F0E0EE0FFF1F12968D919C911397E80FAD
:1014C000F91F0190F081E02D0084F185E02D309727
:1014D00009F01995CF5FA0911422B0911522ED91DA
:1014E000FC9111978481C81710F3CF9108950F9341
:1014F0001F93CF93DF93E6EEF3E2128613861486F2
:10150000158616861786808188230CF07EC220916E
:10151000EC233091ED232115310509F07BC26DC21A
:101520008F7109F0A0C09091E723963079F0983040
:1015300009F48FC0911197C02230310509F019C20A
:1015400062E070E08AE192E25DD669C28091E823B0
:101550009091E923292F332722303105A9F020F477
:101560002130310541F0C7C123303105D9F12F3089
:10157000310551F1C0C18091292090912A20DC01D0
:101580006C9170E03FD656C0E0912920F0912A205E
:101590002189821708F0EDC19927880F991F880FBC
:1015A000991FE0912B20F0912C20E80FF91F8081EA
:1015B0009181FC016281738125D6E091EE23F09147
:1015C000EF2382E0818336C080912D2090912E20E0
:1015D000009709F4CEC1DC0112966D917C911397AE
:1015E00011D628C099278130910571F038F0029703
:1015F00009F08AC1E8E4F1E23BE109C064E070E08F
:101600008EE691E2FFD516C0E4E6F1E239E0A2E110
:10161000B1E220E0819190E08D939D932F5F23179D
:10162000C8F3632F660F6E5F6093102170E080E156
:1016300091E2E8D5E6EEF3E2868197812285338553
:101640008217930708F0EBC18093F0239093F12366
:10165000E6C12130310509F08CC161E070E086E11E
:1016600092E2D0D5DCC18130E1F59091E7239A3048
:10167000C1F52130310509F04CC180911622882333
:1016800009F447C1C091EA23D091EB2300911422C1
:1016900010911522D801ED91FC918481C81708F0B2
:1016A00038C160E08C2F14DE882309F42DC1CE01EF
:1016B0009927880F991FD8011296ED91FC911397E5
:1016C000E80FF91F0190F081E02D86819781FC01E0
:1016D00019958093182261E070E088E192E292D53A
:1016E0009EC1823009F010C18091E723811105C1AC
:1016F0002230310509F03DC18091EA2312D690E0F5
:10170000809310229093112262E070E080E192E2D7
:1017100079D585C18F7109F09FC09091E7239330EF
:1017200091F118F49130A9F097C0953021F09930DB
:1017300009F443C091C08091EC239091ED23892B53
:1017400009F017C183E699E08093F2239093F32385
:1017500066C18091EC239091ED23892B09F009C19A
:101760008091E8239091E923019709F002C18091CB
:101770001A2290911B228D7F80931A2290931B2214
:101780000E941B154CC18091EC239091ED23892B75
:1017900009F0EFC08091E8239091E923019709F0C7
:1017A000AEC080911A2290911B22826080931A22EF
:1017B00090931B220E941A1532C18091EC239091C4
:1017C000ED23892B09F0D5C01AD5882309F49CC0D4
:1017D0002091E8233091E9233327E0912920F091EB
:1017E0002A20818990E08217930708F48DC025DEB6
:1017F0008091E8239091E92380931622882309F4AD
:101800000EC199278150904C880F991F880F991FFE
:10181000E0912B20F0912C20E80FF91FE093142287
:10182000F09315220190F081E02D8481882309F442
:10183000F6C0C0E060E08C2FC7DD882309F464C0E7
:10184000CF5FE0911422F09115220190F081E02DFC
:101850008481C81778F3E3C08130E9F49091E723DD
:101860009B30C9F48091EC239091ED23892B09F0F2
:1018700050C080911622882309F44BC0E6EEF3E2B3
:10188000C481D2818C2F5EDD882309F43DC06D2F89
:101890008C2F9ADD37C08230B9F58091E7238130F3
:1018A00019F0833099F02DC08091EC239091ED23B5
:1018B000892B09F05EC08091E8239091E923892B60
:1018C00009F057C08091EA2347D51CC08091EC23D2
:1018D0009091ED23892B09F04CC08091E8239091E1
:1018E000E923892B09F045C0C6EED3E28C8135D6B9
:1018F0008C819ED607C080E005C080E003C080E0F8
:1019000001C080E081118CC08091E6238F7181300D
:1019100081F580911622882309F471C00091EA2391
:101920001091EB23C0911422D0911522E881F98106
:101930008481081708F065C060E0802FC9DC882327
:10194000C1F0F801FF27CF01880F991FEA81FB81C1
:10195000E80FF91FC081D181EE81FF811995682FB1
:10196000802FB6DC882329F0EC81FD811995811147
:1019700057C08091E6238F71823009F044C0809176
:1019800016228823B1F1A0911422B0911522ED9175
:10199000FC9111978481882371F1C0E0EC2FF0E075
:1019A000EE0FFF1F12968D919C911397E80FF91F70
:1019B00000811181D8011696ED91FC911797199528
:1019C000682F8C2F85DC882359F1D8011496ED916E
:1019D000FC9115971995811123C0CF5FA091142216
:1019E000B0911522ED91FC9111979481C917B0F235
:1019F00017C080E015C080E013C080E011C080E017
:101A00000FC080E00DC080E00BC0982F907609F0E9
:101A10007BCF80CE982F907609F076CF81CD81E074
:101A2000DF91CF911F910F9108954091CA01E62F48
:101A3000F72F8093CA0184914093CA0108951BBE79
:101A4000FC0128ED24BF60830895CF93DF931F929C
:101A50001F92CDB7DEB7811126C09091DC23992368
:101A6000F9F09091E123911101C0FFCF9FB79A83C4
:101A7000F8942A81E0EEF3E29181915091832FBF97
:101A80000FC09091E1239F3F09F4FFCF9FB7998347
:101A9000F8942981E0EEF3E291819F5F91832FBF5B
:101AA0008093DC2305C09091DC23992351F3F8CF78
:101AB0000F900F90DF91CF9108950F93E8ECF4E031
:101AC00080818F7D808380818F7D8083E0E9F3E258
:101AD00002E00593109292231092932300E2069362
:101AE00000E40693E8E8F3E200E40693E6EEF3E2AE
:101AF0001486158616861786128613861092712311
:101B00000F9108950F9385E080937123E1E9F3E24B
:101B100004E00593E9E8F3E204E005930F910895EA
:101B20000F9383E08093712310929223109293235A
:101B3000E0E9F3E202E006930F910895E091F223C9
:101B4000F091F323309709F0199508950F93CF93EF
:101B5000DF9380917123833019F4F0DFAEDF5EC034
:101B600080916D2390916E23C091F023D091F12349
:101B7000C81BD90B71F520916F2330917023820F10
:101B8000931F80936F23909370232091EC233091C7
:101B9000ED238217930721F080911C22882341F0C6
:101BA00084E080937123E8E8F3E202E0069336C014
:101BB000E091F423F091F523309799F0199588235B
:101BC00081F010926D2310926E23C091F023D0917A
:101BD000F123C830D10528F010921C22C8E0D0E0D3
:101BE00003C081E080931C22E4E7F3E2C68FD78F25
:101BF00080916D2390916E232091EE233091EF23FD
:101C0000280F391F20A331A3C80FD91FC0936D23FC
:101C1000D0936E23E0E9F3E202E00693DF91CF91E7
:101C20000F910895FC018181E82FE7708E2F90E0DD
:101C3000FC013197E730F105D0F48827E95FFE4FCA
:101C40008F4F23C780E190E0089580E290E00895EF
:101C500080E490E0089580E890E0089580E091E0CD
:101C6000089580E092E008958FEF93E0089588E072
:101C700090E00895282F2F7030E0220F331F082E98
:101C8000000C990B8827990F881F9927820F931FA3
:101C900002979C01220F331F220F331F220F331F85
:101CA000820F931F835E9C4D08950F93CF93809175
:101CB000CC0480FF64C081E08093CC04E8E8F3E2C8
:101CC00000E80693E0E9F3E200E806938093CA0493
:101CD000E8E8F3E200E1069380917123882329F07C
:101CE0008350823008F42ADFE8DE80918A239091C5
:101CF0008B23089709F045C088E0E5E6F3E2A6EEFD
:101D0000B3E201900D928A95E1F7E8ECF4E080816E
:101D100080628083808180628083E9DBC82F8111AB
:101D200003C0F0DEC1E02EC08091E62388236CF46E
:101D300010926F231092702310926D2310926E23D5
:101D400082E08093712302DF1DC08091EC2390918B
:101D5000ED23892B11F4E4DE15C010926F2310924D
:101D6000702310926D2310926E2381E08093712373
:101D7000E8E8F3E202E0069300E2069303C0C0E065
:101D800001C0C1E08C2FCF910F9108958F929F9247
:101D9000AF92BF92DF92EF92FF920F931F93CF9378
:101DA000DF93D82E67DF8C01CD2DCF70D0E0CE0130
:101DB000880F991FCD2D0D2C000CDD0BCC27DD0FCE
:101DC000CC1FDD27C80FD91FCE01880F991F880FA0
:101DD000991F880F991F9C0128573C4D7901C90113
:101DE00021DF4C01DD200CF079C0FE01EE0FFF1F5A
:101DF000EE0FFF1FEE0FFF1FEC58FC4D228D338DB1
:101E0000D80115968D919C911697820F931F159668
:101E10008D939C93169713962D913C91149782174E
:101E2000930709F445C0281B390B2115B4E03B0783
:101E300038F02FEF33E0C901B40113D6281B390B5A
:101E4000F801808181FF09C0C901B4010AD641E0CF
:101E5000892B09F040E0842F01C080E0D8019C91DB
:101E600080FB91F99C93FE01EE0FFF1FEE0FFF1F09
:101E7000EE0FFF1FEC58FC4D128E138E268B378B06
:101E800011962D913C91129715968D919C911697D4
:101E9000820F931FCC0FDD1FCC0FDD1FCC0FDD1F7A
:101EA000C457DC4D88839983F70102E00693E0C0B4
:101EB000D8018C9181FFC9C08D7F8C93CC0FDD1F21
:101EC000CC0FDD1FCC0FDD1FCC58DC4D1A8E1B8EC6
:101ED0001E8A1F8AF70102E00693CAC0FE01EE0FB8
:101EE000FF1FEE0FFF1FEE0FFF1FEC58FC4DA688E3
:101EF000B788D8018C9182FF19C01196ED91FC91A1
:101F0000129715962D913C91169713968D919C9151
:101F10001497B401A6D5B0E4DB9EB001112463523E
:101F20007E4DAC01CF01820F931FB7D5F8012581FB
:101F300036812A0D3B1D2583368383819481821748
:101F4000930768F485839683CC0FDD1FCC0FDD1FCC
:101F5000CC0FDD1FCC58DC4D8A8D9B8D76C0FE01E9
:101F6000EE0FFF1FEE0FFF1FEE0FFF1FEC58FC4D93
:101F7000428D538DA416B50609F067C0281739079E
:101F800009F463C0AC01421B530B9A01211554E0C4
:101F9000350740F02FEF33E0C901B40162D5281BAB
:101FA000390B05C0C901B4015CD5281B390BFE01F2
:101FB000EE0FFF1FEE0FFF1FEE0FFF1FEC58FC4D43
:101FC000168A178A2815390500F5D8018C91846086
:101FD0008C93B0E4DB9EC001112483529E4DFE0120
:101FE000EE0FFF1FEE0FFF1FEE0FFF1FE457FC4D1C
:101FF00080839183CC0FDD1FCC0FDD1FCC0FDD1F45
:10200000CC58DC4D8A8E9B8E1CC0F80141815281D8
:1020100085819681840F951FFE01EE0FFF1FEE0F45
:10202000FF1FEE0FFF1FE457FC4D80839183CC0F01
:10203000DD1FCC0FDD1FCC0FDD1FCC58DC4D2A8FF0
:102040003B8FF70102E0069313C0D8018C9180FF0B
:102050000FC08E7F8C931796ED91FC911897309757
:1020600039F015966D917C9116974D2D80E019955C
:10207000DF91CF911F910F91FF90EF90DF90BF9074
:10208000AF909F908F9008951F93CF93DF931F92EF
:10209000CDB7DEB78FB78983F894198181E0D5DC9D
:1020A000EAECF4E080E4808380E28083E1ECF4E019
:1020B000808181608083A9ECB4E08C9182608C93F4
:1020C000E8ECF4E08081806480838C9181608C9363
:1020D0008081806880831FBF0F90DF91CF911F9117
:1020E00008950F931F93CF93DF931F921F92CDB745
:1020F000DEB700E610E0F801108280E30E941607C8
:10210000E0ECF4E080818064808381E0F8018083EA
:102110008FB78A83F8941A8180E090E0FC01EE0F7B
:10212000FF1FEE0FFF1FEE0FFF1FEC58FC4D158A2F
:1021300001968A30910591F780E090E0FC01EE0F66
:10214000FF1FEE0FFF1FEE0FFF1FE80FF91FE35EEB
:10215000FC4D20812E7F208301968830910571F7F8
:102160006AE170E082E061DC8F3F19F08093FA044D
:1021700003C08FE18093FA046BE170E082E055DCEC
:102180008F3F19F08093FB0403C08FE18093FB0421
:10219000E0ECF4E0808184608083808180688083CB
:1021A00080818061808388E893E286839783808141
:1021B000806280838FEF8093C504E8ECF4E0808137
:1021C000816080831092DC238091E5238F3F09F4A6
:1021D000FFCF8FB78983F8949981E0EEF3E2858190
:1021E0008F5F85839FBF50DF1FBF0F900F90DF91E0
:1021F000CF911F910F9108958093C304089580910A
:10220000C3040895E6EEF3E28087918762877387BF
:102210000895282F2F7030E0220F331F082E000C56
:10222000990B8827990F881F9927820F931FFC010C
:10223000EE0FFF1FEE0FFF1FEE0FFF1FEC58FC4DC0
:102240002589207C09F069C06370613011F018F4B1
:1022500004C060EC03C060E801C060E44038510590
:10226000E9F050F440325105A9F040345105A1F095
:1022700040315105D9F40CC0411522E0520791F0CC
:102280004F3F23E0520781F04115514079F408C0D7
:1022900021E00DC022E00BC023E009C024E007C00C
:1022A00025E005C026E003C027E001C020E0FC01D6
:1022B000EE0FFF1FEE0FFF1FEE0FFF1FEC58FC4D40
:1022C000158A36E0348B262B258BFC01EE0FFF1F81
:1022D000EE0FFF1FEE0FFF1FEC58FC4D2589207CF1
:1022E000203C69F4FC01EE0FFF1FEE0FFF1FEE0F05
:1022F000FF1FEC58FC4D25892770273081F0880F8F
:10230000991F880F991F880F991FFC01EC58FC4DED
:1023100085898062858B81E0089580E0089581E061
:102320000895E82FEF70F0E0EE0FFF1F082E000C6D
:10233000990B8827990F881F9927E80FF91FEE0F2F
:10234000FF1FEE0FFF1FEE0FFF1FEC58FC4D85899E
:1023500082FB882780F908950F93282F2F7030E093
:10236000A901440F551F282F082E000C330B2227DC
:10237000330F221F3327240F351FA901440F551F88
:10238000440F551F440F551FFA01E857FC4D01E05B
:102390000693FA01EC58FC4D958992FF11C0FA01A1
:1023A000EC58FC4D95899B7F958B64DCFC0180810A
:1023B00080FF06C08E7F80830780F085E02D199511
:1023C00081E00F9108956F927F928F929F92AF92CA
:1023D000BF92CF92DF92EF92FF920F931F93CF9312
:1023E000DF931F92CDB7DEB7782E662E4A015901D2
:1023F00041DC6C01272D872D8F70E82EF12CC70151
:10240000880F991FE72C072C000CFF08EE24FF0C07
:10241000EE1CFF24E80EF91EF701EE0FFF1FEE0F72
:10242000FF1FEE0FFF1FEC58FC4D8589807C09F4DF
:1024300081C0F701EE0FFF1FEE0FFF1FEE0FFF1F12
:10244000EC58FC4D8589807C803C61F0F701EE0FF3
:10245000FF1FEE0FFF1FEE0FFF1FEC58FC4D85898D
:1024600082FD6AC08FB78983F8948981F6019081D3
:1024700090FF03C08FBF80E060C0F6019081916043
:1024800090838FBF81829282A382B482158216824A
:1024900007831087611006C091E0A114B10419F000
:1024A00090E001C091E0F601808190FB81F98B7F83
:1024B0008083222364F4F701EE0FFF1FEE0FFF1F4E
:1024C000EE0FFF1FEC58FC4D128E138E2FC0F7013C
:1024D000EE0FFF1FEE0FFF1FEE0FFF1FEC58FC4D1E
:1024E0008589807C803CA9F4C701880F991F880FDB
:1024F000991F880F991F88579C4D94DBBC01C5011B
:10250000B0D2892B31F0F60180818E7F808380E00C
:1025100014C0F701EE0FFF1FEE0FFF1FEE0FFF1F9E
:10252000EC58FC4D168A178A128E138E872D2EDCDE
:1025300081E003C080E001C080E00F90DF91CF9187
:102540001F910F91FF90EF90DF90CF90BF90AF90D1
:102550009F908F907F906F900895FF920F931F939D
:10256000CF93DF93182FC82FCF70D0E0CE01880F04
:10257000991FC12F012E000CDD0BCC27DD0FCC1FC6
:10258000DD27C80FD91F812F75DBDC01FE01EE0F9F
:10259000FF1FEE0FFF1FEE0FFF1FE857FC4D02E07D
:1025A00005938C9180FF22C08E7F8C931796ED91BE
:1025B000FC9118973097D1F011235CF4CC0FDD1FFC
:1025C000CC0FDD1FCC0FDD1FCC58DC4D6A8D7B8D11
:1025D0000AC0CC0FDD1FCC0FDD1FCC0FDD1FCC5888
:1025E000DC4D6E897F89412F81E01995DF91CF9174
:1025F0001F910F91FF900895CF93C82FAEDFEC2F5E
:10260000EF70F0E0EE0FFF1F8C2FCC0F990B882797
:10261000990F881F9927E80FF91FEE0FFF1FEE0F84
:10262000FF1FEE0FFF1FEC58FC4D158ACF91089548
:10263000E82FEF70F0E0EE0FFF1F282F082E000CA0
:10264000330B2227330F221F3327E20FF31FEE0F26
:10265000FF1FEE0FFF1FEE0FFF1FEC58FC4D95897B
:102660009460958B7ADF81E008951F920F920FB6E8
:102670000F9211240BB60F920F932F933F934F930A
:102680005F936F937F938F939F93AF93BF93CF93FA
:10269000EF93FF938091CB0488233CF480E88093F0
:1026A000CA040E94470AAFD189C08091CB0482FF3F
:1026B00020C084E08093CA048091902386FF7EC06E
:1026C0008091CC0481FD7AC0F0DA811177C08091CD
:1026D0007123813011F424DA71C0843009F06EC0A6
:1026E000E1E9F3E204E00593E9E8F3E204E00593AD
:1026F00065C08091CB0481FF5CC082E08093CA04F6
:102700008091882386FF5AC08091CC0481FD56C0F9
:10271000CCDA811153C080917123823041F484E07E
:1027200080937123E8E8F3E202E0069347C0833028
:1027300009F044C0E1E9F3E204E00593E9E8F3E2DB
:1027400004E005933BC080E18093CA04C1E08C2F74
:1027500004DF8C2F806801DFCF5FC530C1F70E9496
:102760001D0A1092C304E4E7F3E2158A96E0948B05
:1027700080E4858B158E948F858F85E693E2808F1C
:10278000918F9BD91BC08091CB0486FF07C080E44A
:102790008093CA0480E059D934D110C08091CB0411
:1027A00085FF0CC080E28093CA0481E04ED92AD113
:1027B00005C08091CB0484FDC6CFE5CFFF91EF919A
:1027C000CF91BF91AF919F918F917F916F915F91C9
:1027D0004F913F912F910F910F900BBE0F900FBE15
:1027E0000F901F9018951F920F920FB60F92112401
:1027F0000BB60F920F931F932F933F934F935F93BB
:102800006F937F938F939F93AF93BF93CF93DF93F8
:10281000EF93FF938091CC0481FD03C046DA8111D0
:10282000C3C082E08093CC048091C5048195880F59
:10283000E8E8F3E2E81BF1092081318128583342AE
:10284000369527953695279536952795822F869527
:1028500020FD02C090E001C090E8890FE82FEF70E2
:10286000F0E0EE0FFF1F282F082E000C330B22275D
:10287000330F221F3327E20FF31FDF01AA0FBB1F05
:10288000AA0FBB1FAA0FBB1FAC58BC4D54969C91FE
:1028900095FF8AC0EE0FFF1FEE0FFF1FEE0FFF1F09
:1028A000E857FC4D00E20693811179C080917123B5
:1028B000843019F443D901D977C000918A2310914B
:1028C0008B238091F0239091F123C0916D23D091BF
:1028D0006E2398012C0F3D1F8217930718F48C016B
:1028E0000C1B1D0B8091EE239091EF23A80165E650
:1028F00073E28C0F9D1FD1D0C00FD11FC0936D23E9
:10290000D0936E230830110569F480916F23909164
:1029100070238C0F9D1F2091EC233091ED238217A3
:10292000930780F0E6EEF3E2C287D3870684F7854B
:10293000E02D309729F01995811102C0E3D834C0F9
:10294000EFD832C08091F0239091F123C817D907B6
:10295000F9F4E091F423F091F523309711F4D2D8F3
:1029600023C01995811102C0CDD81EC020916F23BC
:102970003091702380916D2390916E23820F931F6D
:1029800080936F239093702310926D2310926E2387
:10299000E8E8F3E202E0069300E2069305C080381F
:1029A00011F4D4D801C0F2D9FF91EF91DF91CF910A
:1029B000BF91AF919F918F917F916F915F914F9157
:1029C0003F912F911F910F910F900BBE0F900FBE53
:1029D0000F901F90189587E08093A2007894E0EE06
:1029E000F3E21082118212821382148281E08583C5
:1029F0000E9489060E94FF050E941B0A0E947C0615
:102A0000FFCF089508958091DF23882391F00E94DD
:102A100026068091DE23882361F00E94290680919A
:102A2000DD23882331F00E9401060E9453060C9496
:102A3000800608950895089581E08093DF23089526
:102A40001092DF23089581E08093DE230895109291
:102A5000DE23089581E08093DD2308951092DD2325
:102A60000895AA1BBB1B51E107C0AA1FBB1FA617D5
:102A7000B70710F0A61BB70B881F991F5A95A9F727
:102A800080959095BC01CD010895EE0FFF1F881F22
:102A90008BBF0790F691E02D1994FB01DC0102C079
:102AA00001900D9241505040D8F70895F894FFCF0F
:102AB0000600FF0901A10195207501190129108166
:102AC0000295087501190129089102C06B01850161
:102AD00088013001000080800196202F2000003AFC
:102AE0002033200521C0201C200009025B000301C7
:102AF00000A03209040000010300000009211101B7
:102B00000001223B000705810308000209040100BF
:102B1000010300000009211101000122180007052E
:102B200082030800040904020002030000000921D6
:102B300011010001221C0007058403080004070599
:102B40000303080004001201000200000008EB0368
:102B5000332100010102000105010904A101050161
:102B600009300931150026FF00750895028102C061
:102B70008607900793075B07000005010906A1017E
:102B8000050719E029E7150025017501950881025F
:102B900081011900296515002565750895068100D4
:102BA00005081901290515002501750195059102F2
:102BB00095039101C0D607E807EB07D20700000094
:102BC0000003000000000000000000000000000002
:102BD00000000000000000000000000000000000F5
:102BE00000000000000000000000000000000000E5
:102BF0000000000000000000437573746F6D2048F2
:102C0000494420436F6D706F736974652044657625
:102C10006963650041544D454C204153460004030F
:102C2000090400172E455C748BA2B9D0E7FF080792
:102C3000FFFF0605FFFF04FFFFFFFFFF0002FFFF8E
:022C400001038E
:00000001FF
