S01F0000436F6D706F73697465496D706C656D656E746174696F6E2E737265638C
S113000015C1000034C1000032C1000030C100003D
S11300102EC100002CC100002AC1000028C100002C
S113002026C1000024C1000022C1000020C100003C
S11300301EC100001CC100001AC1000018C100004C
S113004016C1000014C1000012C1000010C100005C
S11300500EC100000CC100000AC1000008C100006C
S113006006C1000004C1000002C1000000C100007C
S1130070FEC00000FCC00000FAC00000F8C0000090
S1130080F6C00000F4C00000F2C00000F0C00000A0
S1130090EEC00000ECC00000EAC00000E8C00000B0
S11300A0E6C00000E4C00000E2C00000E0C00000C0
S11300B0DEC00000DCC00000DAC00000D8C00000D0
S11300C0D6C00000D4C00000D2C00000D0C00000E0
S11300D0CEC00000CCC00000CAC00000C8C00000F0
S11300E0C6C00000C4C00000C2C00000C0C0000000
S11300F0BEC00000BCC00000BAC00000B8C0000010
S1130100B6C00000B4C00000B2C00000B0C000001F
S1130110AEC00000ACC00000AAC00000A8C000002F
S1130120A6C00000A4C00000A2C00000A0C000003F
S11301309EC000009CC000009AC0000098C000004F
S113014096C0000094C0000092C0000090C000005F
S11301508EC000008CC000008AC0000088C000006F
S113016086C0000084C0000082C0000080C000007F
S11301707EC000007CC000007AC0000078C000008F
S113018076C0000074C0000072C0000070C000009F
S11301906EC000006CC000006AC0000068C00000AF
S11301A066C0000064C0000062C0000060C00000BF
S11301B05EC000005CC000005AC0000058C00000CF
S11301C056C0000054C0000052C0000050C00000DF
S11301D04EC000004CC000004AC0000048C00000EF
S11301E046C0000044C0000042C0000040C00000FF
S11301F03EC000000C943C150C94FA1530046F04B6
S11302002604710428042A042C042E043004AD05A9
S113021013067306D3062F0770059E07F2072910ED
S11302202C102F103210351038103B1011241FBE23
S1130230CFEFCDBFDFE5DEBF00E00CBF11E2A0E0F1
S1130240B0E2ECEBFEE200E00BBF02C007900D92BF
S1130250A438B107D9F723E2A4E8B1E201C01D92A2
S1130260A93CB207E1F70E94F2160C945C17C8CEC1
S113027080E008953091BB232091BC23822F90E02D
S11302800297C1F4311118C08091BF239091C0230B
S11302900197A1F4E9EBF3E284E891E28087918786
S11302A081E090E08287938783E891E08487958753
S11302B081E0089580E0089580E0089580E0089545
S11302C081E08093882108950F931F9303E811E040
S11302D021E030E044E851E260E083E00E94EA1368
S11302E01F910F910895CF9310928C2110928A211F
S11302F081E080938821E8DFC82F81110E943017A4
S11303008C2FCF910895811106C06130710519F4C5
S113031084E891E2F2D6D8CF08950C943417089566
S11303202AE331E040E050E26AE871E28CE891E2CD
S11303300C94950A0895FF920F931F93CF93DF9324
S11303401F92CDB7DEB79C01809188218823D9F014
S1130350D9018FB78983F894F980E6E8F1E2108235
S11303608C91808300E611E021E030E0AF0160E091
S113037084E80E94EA1391E0892780938821FFBED4
S11303808091882189270F90DF91CF911F910F9140
S1130390FF900895E0E0F6E09FEF91839583E0E21B
S11303A0F6E03FE3328388E1808B818B828B838B01
S11303B0848B858B20EC218340E4458340E845838E
S11303C0E0E4F6E04CEF4283828B838B848B858B55
S11303D0868B878B43E041834583E0E6F6E03283F6
S11303E0808B818B828B838B848B858B218326836B
S11303F0E0E8F6E09283808B818B828B838B848B05
S1130400858B868B878BE0EAF6E090EF9283848B72
S1130410858B868B878B8FE08183858399D20DC1F1
S11304200895809148062091680690E0922B969555
S1130430879596958795BC017F7080FF17C021E052
S113044030E0E1E0F0E0822FAF01022E02C0440F61
S1130450551F0A94E2F746235723452B41F02F5F9B
S11304603F4F2C30310579F78FEF089580E00895E0
S1130470809188062091280690E0922BBC017F7021
S113048080FF17C021E030E0E1E0F0E0822FAF010F
S1130490022E02C0440F551F0A94E2F74623572345
S11304A0452B41F02F5F3F4F2C30310579F78FEF0B
S11304B0089580E008958823F4F19BEF980F92301B
S11304C0E0F1853034F495E0981B923008F042C096
S11304D036C09AEF980F9230B0F531C062E023E055
S11304E030E090E080E0E1E0F0E0AF01022E02C0F5
S11304F0440F551F0A94E2F7842B9F5F2150310962
S1130500961798F308958150482F50E04B5F5F4F42
S113051024E030E080E0E1E0F0E0BF01022E02C020
S1130520660F771F0A94E2F7862B2F5F3F4F24173D
S1130530350799F7089580E0089588E10895853096
S11305406CF282E0E0CF8550853008F084E08111C0
S1130550DACF089566E0681B653008F064E0611145
S1130560BECF80E00895CF935CDFC82F81DFCC231A
S113057024F48823C4F090E009C0C6301CF09BEF3B
S11305809C0F02C095E09C1B882354F086301CF01D
S11305902BEF280F02C025E0281B921708F4C82F60
S11305A08C2F89DF01C080E0CF91089561DF88231B
S11305B03CF0E82F880FFF0BE858FE4D808101C006
S11305C080E880938E212DDF88233CF0E82F880F6C
S11305D0FF0BE858FE4D808101C080E8EEE8F1E2AF
S11305E08183208190912620291304C09091272093
S11305F0981771F08EE891E2A7D6882349F0E6E2D5
S1130600F0E2AEE8B1E28C91808311968C91818303
S11306100895A9DF8093B023909128069093B12385
S11306209091B12394FD07C0882331F0A2D1809129
S1130630B023A5C10895BACF089510929A211092BB
S11306409721109298211092952110929B2110923B
S11306509921E1EAF1E281E6808380E681831282D6
S113066013828FE584838EE58583168217828DE558
S113067080871186128613861486158689E58687F7
S11306808BE58787108A118A8AE5828B8CE5838BB8
S1130690ECE9F1E28EE080838DE081838BE082835C
S11306A087E083838FEF84830895CF92DF92EF9264
S11306B0FF920F931F93CF93DF936091932120E0D8
S11306C030E070E00F2EF5E0FF2EF02DD4E0E0EAEC
S11306D0F6E00F2EF0E2CF2EF6E0DF2EF02D689438
S11306E0EE24E7F8C22FC90184569E4DDC018C919B
S11306F08483243021F4D6011696EC9203C0D601EB
S11307001596EC928085807F8095982F907F84FD4C
S11307107F5F85FD7F5F86FD7F5F99230CF47F5F9C
S1130720492F50E08A010150110940235123452BE0
S113073049F0862F8095892309F4892F482F419504
S1130740842301C0892F803261F020F4803109F4C0
S113075043C00BC0803409F441C0803831F4D3E085
S11307603EC0882311F0FC2ED1E02F5F3F4F692F4C
S11307702530310509F0B6CF9093932180E880931A
S11307802506D430E0F4EF2DF0E0EE0FFF1FEE0F5E
S1130790FF1FEF55FE4DED0FF11D808190919A21C1
S11307A0911106C08093992181E080939A210DC014
S11307B090919921891749F08093992106C08091DD
S11307C09A21813011F410929A2181E0723008F458
S11307D080E08093942105C0D0E001C0D2E0FC2EDB
S11307E0C4CFDF91CF911F910F91FF90EF90DF90D5
S11307F0CF90089580919A2108958091280680933E
S1130800B22380919A21809397218091992180939A
S113081096218091B22384FD29C080919721813053
S113082009F04DC080919821811149C0E091962131
S11308308E2F90E0FC01E955F109E930F10590F4BF
S11308408827E250FF4F8F4F0C944B1784E009C068
S113085080E107C080E205C080E403C080E801C0F5
S113086081E097D081E08093952129C080919A21DD
S11308709091922191110BC0813009F580939221BE
S113088080919621809391211092902118C08130FB
S113089051F580919021811112C080919421882377
S11308A071F081E0809390210AC08091912109D652
S11308B080919121CAD51092922110929021809119
S11308C0B22384FF07C080919521813019F451D05F
S11308D0109295218091972180939821089582E028
S11308E0C0CF88E0BECF809190218111E4CFDDCFCD
S11308F0DCDE83CF0895E6EBF1E220E030E090E027
S1130900AC01022E02C0559547950A94E2F740FDCA
S113091060832F5F3F4F31962830310589F7089562
S1130920809128068093BE21C0DE8091BE2184FF81
S11309300AC060DF813049F016DE91E0811101C008
S113094090E0892F03C081E001C081E081700895A7
S1130950E0E0F6E08FEF81838583E0E2F6E080E477
S11309608183868308958FEF8093060661E0C3CF69
S113097008958FEF8093050660E0BDCF08958093BE
S1130980060661E0B8CF08958093050660E0B3CF12
S1130990089580930706E6EBF1E220E030E0682F4B
S11309A070E081E0AB01022E02C0559547950A9490
S11309B0E2F740FF03C09081982790832F5F3F4F59
S11309C031962830310571F70895E0E0F6E09FEFA5
S11309D095838683E6EBF1E220E030E090E0AC0121
S11309E0022E02C0559547950A94E2F7417041934F
S11309F02F5F3F4F2830310591F70895E6EBF1E280
S1130A0020E030E080E061E070E09191992341F0D2
S1130A10AB01022E02C0440F551F0A94E2F7842B47
S1130A202F5F3F4F2830310581F70895CF93DF932F
S1130A301F92CDB7DEB7E2DF8983CE0101967BDC5E
S1130A400F90DF91CF9108958091BF219091C021A3
S1130A5001968093BF219093C0218091280684FD44
S1130A600FC08091BF219091C021843F914078F0C4
S1130A7080E4809327061092BF211092C02108952C
S1130A8080E4809326061092BF211092C02108951D
S1130A907F928F929F92AF92BF92CF92DF92EF920A
S1130AA0FF920F931F93CF93DF93CDB7DEB72897B1
S1130AB0CDBFDEBF98E0E0E7F1E2DE0111960190E0
S1130AC00D929A95E1F790E0FC013197E830F10539
S1130AD008F0FAC28827E95FFE4F8F4F0C944B173A
S1130AE08091B521882309F4D1C10BC2F801F1909A
S1130AF08F018F2D44DFFFE028E982E0F150204090
S1130B008040E1F700C000008F2D3EDF09DF8093B5
S1130B10B521A016B10609F47DC28091B5218823C0
S1130B2029F378C2F801F2908F018F2D28DFFFE0BE
S1130B3028E982E0F15020408040E1F700C0000045
S1130B408F2D22DFEDDE8093B521C016D10661F032
S1130B508091B521882331F307C05E0199E0A90E85
S1130B60B11CFE0131966F018091B521811106C03F
S1130B708091B521882309F492C24CC2FADEA4C242
S1130B80F801E2908F018E2DFADEF401F1904F010D
S1130B908F2DF5DEFFE12FEB82E0F1502040804005
S1130BA0E1F700C000008E2DEFDE8F2DEDDE7DDD40
S1130BB021DE813011F47092B521D5DC811170925F
S1130BC0B5210A151B0509F42AC28091B521882391
S1130BD0B9F225C2F401E1904F018E2DD0DEF80167
S1130BE0F2908F018F2DCBDEFFE12FEB82E0F150ED
S1130BF020408040E1F700C000008E2DC5DE8F2D1F
S1130C00C3DE53DDF7DD813011F47092B521ABDC26
S1130C1081117092B521C016D10671F08091B52171
S1130C208823C1F209C0FE0131965F0177247394D1
S1130C306E01F5E0CF0ED11C8091B52181110AC05F
S1130C408091B5218111EBC14E0125E0820E911CEA
S1130C50840196CF8EDE38C2F80182918F018FDE37
S1130C60F70181917F018BDEFFE227E585E0F150FA
S1130C7020408040E1F700C0000017DDBBDD81307B
S1130C8011F49092B5216FDC81119092B521A016D8
S1130C90B10609F4CFC18091B5218823E9F2CAC114
S1130CA0F70181917F0170DEF80182918F016CDE82
S1130CB0FFE227E585E0F15020408040E1F700C0E5
S1130CC00000F3DC97DD813011F49092B5214BDC08
S1130CD081119092B521C016D10671F08091B52191
S1130CE08823F1F209C0FE0131965F01992493949F
S1130CF06E01F5E0CF0ED11C8091B52181110AC09F
S1130D008091B521811196C17E0125E0E20EF11C8E
S1130D108701A2CF2EDED8C1F80182918F012FDE88
S1130D20F70181917F012BDEFFE227E585E0F15099
S1130D3020408040E1F700C00000B7DC5BDD81307B
S1130D4011F4B092B5210FDC8111B092B521C01617
S1130D50D10609F47AC18091B5218823E9F275C1DD
S1130D60F80182918F0110DEF70181917F010CDE81
S1130D70FFE227E585E0F15020408040E1F700C024
S1130D80000093DC37DD813011F4B092B521EBDB48
S1130D908111B092B5210C151D0551F08091B5213A
S1130DA08823F1F205C0FE0131966F01BB24B39490
S1130DB08091B52181110AC08091B521811145C16D
S1130DC07E01F5E0EF0EF11C8701A6CFD2DD7CC1D8
S1130DD0F70181917F01D3DDF80182918F01CFDD8D
S1130DE0FFE227E585E0F15020408040E1F700C0B4
S1130DF000005BDCFFDC813011F4B092B521B3DB81
S1130E008111B092B5210C151D0509F428C18091FA
S1130E10B5218823E9F223C1F70181917F01B4DD73
S1130E20F80182918F01B0DDFFE227E585E0F15002
S1130E3020408040E1F700C0000037DCDBDC81307B
S1130E4011F4B092B5218FDB8111B092B5210C154C
S1130E501D0559F08091B5218823F1F206C06E0179
S1130E6095E0C90ED11CBB24B3948091B5218111A6
S1130E700BC08091B5218111F2C0FE0131967F0132
S1130E808E01075F1F4FA4CF74DD1EC16CDDFFE729
S1130E902AE186E0F15020408040E1F700C00000E4
S1130EA03FDD8093B52165DD9FE7EAE1F6E09150EF
S1130EB0E040F040E1F700C0000032DD8093B5214E
S1130EC085E583DD2FE78AE196E02150804090405C
S1130ED0E1F700C0000024DD8093B5218AEA75DDC6
S1130EE0EFE7FAE126E0E150F0402040E1F700C0EE
S1130EF0000016DD8093B5218091B521882309F483
S1130F00C5CF37DDE1C08F2D012E01C0880F0A94B3
S1130F10EAF75BDD8FED93E9E4E081509040E04037
S1130F20E1F700C00000FCDC8093B521802F100F96
S1130F3011F0153049F4082F019506C001E010E0C6
S1130F400F2EF7E0FF2EF02D8091B5218823D9F2E2
S1130F5010DDBAC08F2D002E01C0880F0A94EAF765
S1130F6034DDC601D2D0DCDC882319F0B092B5217F
S1130F7005C00F5F1F4F0830110561F7F5EFCF165D
S1130F80F1E0DF0618F02AEFC21AD108EA94EE2045
S1130F9021F18091B521811120C000E010E0DACF69
S1130FA000E010E08F2D002E01C0880F0A94EAF7AC
S1130FB00CDD8FE996E8E1E081509040E040E1F7F4
S1130FC000C00000ADDC882319F0B092B52105C043
S1130FD00F5F1F4F0830110529F78091B521882331
S1130FE0F9F20AC00F2EF4ECCF2EF9E0DF2EF02D2B
S1130FF0FF24F394BB24B3948091B521811108C0DC
S11310008091B5218111E9CF6894EE24E3F8C5CF2E
S1131010B0DC5AC08091B521882361F1A5CD8091BF
S1131020B521811109CECE0101964C018E01075FD5
S11310301F4FD0CD8091B52181115ECEFE01319636
S11310407F018E01075F1F4F2BCE8091B521811147
S1131050AFCE7E01F5E0EF0EF11C870181CE8091C9
S1131060B521811102CFCE0101967C018E01075F6B
S11310701F4FD2CE1885812F82DC9FE0E8E9F2E091
S11310809150E040F040E1F700C00000812F7CDC8B
S113109047DC8093B5218E01085F1F4F59CD19811C
S11310A0812F6DDC2FE088E992E021508040904050
S11310B0E1F700C00000812F67DC32DC8093B521AA
S11310C08E010E5F1F4F29CD2896CDBFDEBFDF9165
S11310D0CF911F910F91FF90EF90DF90CF90BF9031
S11310E0AF909F908F907F90089554C90895D0CC6D
S11310F008958FCA0895FCCB0895FC01808165CCC6
S1131100089594CC0895A0CC0895009741F0E9EF98
S1131110F0E03197F1F700C000000197C1F708959E
S11311200F931F93CF93DF93CDB7DEB72797CDBF30
S1131130DEBF8FEF80937000809371008093720004
S1131140809373008093740080937500809376007D
S113115065E081E490E07AD66CE170E082E06CD6E0
S11311608A836DE170E082E067D6898389819A8100
S1131170019621F480E493E289839A8389819A8198
S11311808B839C83E0E6F0E082838C8183838FB73A
S11311908E83F8949E81E0E5F0E080818260808314
S11311A09FBF818181FFFDCF8FB78F83F8949F818B
S11311B000E510E0D80116968C911697897F169653
S11311C08C931697E0E6F0E080E885838BEB8683CA
S11311D016968C911697846016968C938081816004
S11311E080839FBF61E080E490E030D68FB78D8329
S11311F0F8949D81F80180818E7F80839FBF27961C
S1131200CDBFDEBFDF91CF911F910F910895CF9392
S1131210DF931F92CDB7DEB79FB79983F894998176
S1131220E82FF0E0E059FF4F6095808168236083E8
S11312309FBF0F90DF91CF910895CF93DF931F92BB
S11312401F92CDB7DEB7863011F060E001C068E1CF
S11312508091510081FD2AC08FB78983F8949981C8
S1131260E0E5F0E08081826080839FBF818181FF1F
S1131270FDCF8FB78A83F8949A81A0E5B0E01696E3
S11312808C911697897F16968C931697E0E6F0E07A
S113129080E885838BEB868316968C911697846001
S11312A016968C938081816080839FBF636084E401
S11312B090E0CCD560E480E0AADF0F900F90DF913E
S11312C0CF91089580E008953091BB232091BC23F1
S11312D0822F90E00397B1F4311116C08091BF239F
S11312E09091C023892B91F4E9EBF3E282EC91E233
S11312F08087918788E899E084879587128613868A
S113130081E0089580E0089580E0089580E00895E4
S1131310089581E08093C42108951092C821109209
S1131320C62181E08093C4210C94291708950C945C
S11313302D17089524E639E046EA50E266EC71E29E
S113134088EC91E2F2C00895FF920F931F93CF931C
S1131350DF931F92CDB7DEB79C018091C42188230F
S113136009F1F9018FB78983F894F9801092C221A9
S11313701092C321808191818093C2219093C321D3
S113138009E819E022E030E042EC51E260E082E852
S11313900E94EA1391E089278093C421FFBE8091C3
S11313A0C42189270F90DF91CF911F910F91FF9056
S11313B0089580E0089580E008951092DE2110924F
S11313C0DC211092D22188E0E3EDF1E2DF011D92ED
S11313D08A95E9F71092DB210C94221708950C9456
S11313E0261708952BED39E048EC50E26CED71E2DC
S11313F08EED91E29AC008950F931F938091D221AC
S1131400811118C088E0E3EDF1E2AAECB1E20190A9
S11314100D928A95E1F71092DB210EE11AE028E0A3
S113142030E04AEC51E260E081E80E94EA138093E4
S1131430D22101C080E01F910F9108951092D22112
S11314408091DB218111D8CF08951F93CF93DF932F
S11314501F92CDB7DEB79FB79983F8941981909105
S1131460D521992341F08917A9F0E6EDF1E293E043
S11314702191211102C01FBF1EC0281721F09F5FB8
S11314809830B1F705C0983019F0973020F00CC0AF
S11314901FBF11C092E0E92FF0E0ED52FE4D8181B3
S11314A080839F5F9730B9F71092DA2181E08093AF
S11314B0DB21A2DF1FBF81E00F90DF91CF911F914D
S11314C008951F93CF93DF931F92CDB7DEB79FB7D5
S11314D09983F89419819091D5219923B1F08917B2
S11314E041F0A6EDB1E2E3E09D91992349F0981310
S11314F003C01FBF81E014C0EF5FE830A9F702C04A
S1131500E83021F41FBF80E00BC0E2E0F0E0ED52D0
S1131510FE4D808381E08093DB216EDF1FBF81E07D
S11315200F90DF91CF911F910895CF93DF93DC014A
S1131530EA019091B92399230CF068C0907609F0E0
S113154045C08091BA23863009F040C076D1DC01D1
S11315501A962C911A97213209F077C02091BC2356
S113156030E021323105B1F49C01275F3F4F2093D5
S1131570C1233093C223E9EBF3E219968C912681BF
S1131580378190E02817390708F4C90182879387C7
S113159081E068C0FC01478550E04217530709F019
S11315A056C0C093C123D093C223E9EBF3E2268152
S11315B03781DC0150968D919C91519728173907FA
S11315C008F4C9018287938781E04CC0903209F006
S11315D040C08091BA23823039F0833071F0813079
S11315E0D1F5F90119953EC0E9EBF3E2A087B18783
S11315F081E090E08287938735C0E9EBF3E260876E
S1131600718781E090E0828793872CC09076903236
S113161021F58091BA238A3039F08B3051F089302A
S1131620F1F4F90119951EC08091BC238C9381E0DB
S113163019C08091BF239091C023892B91F480918C
S1131640BB23DB018C9381E00DC080E00BC080E004
S113165009C080E007C080E005C080E003C080E0EE
S113166001C080E0DF91CF910895E091E421F091F1
S1131670E5210190F081E02D228133812E0F3F1F5F
S1131680FC014081E40FF11DE217F307A0F481810E
S11316908430A1F0861306C014C081818430A1F087
S11316A08617A9F08081E80FF11DE217F307A8F36C
S11316B080E090E0089580E090E0089580E090E07C
S11316C008958E2F9F2F089580E090E008958E2F27
S11316D09F2F08958091BB238F7795C7089590918C
S11316E0E621992381F1E091E421F091E521019033
S11316F0F081E02D9481891740F5E093E221F09385
S1131700E321228133812E0F3F1FE217F307F8F400
S11317109181943061F49281891309C09381961365
S113172006C0E093E221F093E32181E008959081E3
S1131730E90FF11DE217F30758F3E093E221F09368
S1131740E32180E0089580E0089580E0089580E03A
S11317500895EF92FF921F93CF93DF93C82F60E019
S1131760BEDF182F882381F1A091E421B091E521F7
S1131770EC2FF0E0EE0FFF1F12968D919C911397C2
S1131780E80FF91FE080F180D7011696ED91FC91E6
S113179017971995682F8C2FA2DF182F8823A1F093
S11317A0C091E221D091E32165E0CE015EDFEC013E
S11317B0892B21F08A810E940315F6CFD701129656
S11317C0ED91FC9113971995812FDF91CF911F9182
S11317D0FF90EF9008951F93CF93DF93182F7FDF2F
S11317E0882339F1C091E221D091E32165E0CE0153
S11317F03CDFEC01892B41F04C815D816B818A8156
S11318000FD78111F3CF15C0A091E421B091E52148
S1131810E12FF0E0EE0FFF1F12968D919C9113972C
S1131820E80FF91F0190F081E02D0190F081E02D87
S11318301995DF91CF911F9108958091E2219091A4
S1131840E321089555C60895CF938091E621882316
S1131850C1F0E091E421F091E5210190F081E02DC7
S11318608481882371F0C0E08C2F73DFCF5FE09117
S1131870E421F091E5210190F081E02D8481C817E5
S113188098F31092E6218091EA2181FD0E942117AC
S11318901092EA211092EB21CF910895CF93809179
S11318A0E621882349F1A091E421B091E521ED914D
S11318B0FC91119784818823F9F0C0E0EC2FF0E0CB
S11318C0EE0FFF1F12968D919C911397E80FF91F4D
S11318D00190F081E02D0084F185E02D309709F02E
S11318E01995CF5FA091E421B091E521ED91FC9190
S11318F011978481C81710F3CF9108950F931F9304
S1131900CF93DF93E9EBF3E21286138614861586F0
S113191016861786808188230CF07EC22091BF230F
S11319203091C0232115310509F07BC26DC28F713E
S113193009F0A0C09091BA23963079F0983009F458
S11319408FC0911197C02230310509F019C262E0AD
S113195070E08AEE91E25DD669C28091BB239091DA
S1131960BC23292F332722303105A9F020F421305C
S1131970310541F0C7C123303105D9F12F3031058C
S113198051F1C0C18091282090912920DC016C91F3
S113199070E03FD656C0E0912820F091292021899B
S11319A0821708F0EDC19927880F991F880F991F96
S11319B0E0912A20F0912B20E80FF91F808191817A
S11319C0FC016281738125D6E091C123F091C22389
S11319D082E0818336C080912C2090912D20009745
S11319E009F4CEC1DC0112966D917C91139711D646
S11319F028C099278130910571F038F0029709F0D9
S1131A008AC1E6E4F1E23BE109C064E070E08CE6FF
S1131A1091E2FFD516C0E2E6F1E239E0A0E1B1E2DD
S1131A2020E0819190E08D939D932F5F2317C8F35D
S1131A30632F660F6E5F60930E2170E08EE091E27B
S1131A40E8D5E9EBF3E28681978122853385821715
S1131A50930708F0EBC18093C3239093C423E6C19A
S1131A602130310509F08CC161E070E086EE91E22D
S1131A70D0D5DCC18130E1F59091BA239A30C1F51B
S1131A802130310509F04CC18091E621882309F405
S1131A9047C1C091BD23D091BE230091E421109190
S1131AA0E521D801ED91FC918481C81708F038C173
S1131AB060E08C2F14DE882309F42DC1CE01992710
S1131AC0880F991FD8011296ED91FC911397E80F96
S1131AD0F91F0190F081E02D86819781FC01199511
S1131AE08093E82161E070E088EE91E292D59EC196
S1131AF0823009F010C18091BA23811105C12230CE
S1131B00310509F03DC18091BD2312D690E0809348
S1131B10E0219093E12162E070E080EE91E279D5DA
S1131B2085C18F7109F09FC09091BA23933091F1D0
S1131B3018F49130A9F097C0953021F0993009F448
S1131B4043C091C08091BF239091C023892B09F099
S1131B5017C18AE69BE08093C5239093C62366C190
S1131B608091BF239091C023892B09F009C18091F2
S1131B70BB239091BC23019709F002C18091EA2113
S1131B809091EB218D7F8093EA219093EB210E9429
S1131B9021174CC18091BF239091C023892B09F058
S1131BA0EFC08091BB239091BC23019709F0AEC094
S1131BB08091EA219091EB2182608093EA219093B5
S1131BC0EB210E94201732C18091BF239091C02342
S1131BD0892B09F0D5C01AD5882309F49CC020911B
S1131BE0BB233091BC233327E0912820F091292096
S1131BF0818990E08217930708F48DC025DE8091D7
S1131C00BB239091BC238093E621882309F40EC161
S1131C1099278150904C880F991F880F991FE09144
S1131C202A20F0912B20E80FF91FE093E421F09390
S1131C30E5210190F081E02D8481882309F4F6C028
S1131C40C0E060E08C2FC7DD882309F464C0CF5F57
S1131C50E091E421F091E5210190F081E02D84816F
S1131C60C81778F3E3C08130E9F49091BA239B302C
S1131C70C9F48091BF239091C023892B09F050C0EF
S1131C808091E621882309F44BC0E9EBF3E2C48197
S1131C90D2818C2F5EDD882309F43DC06D2F8C2FFB
S1131CA09ADD37C08230B9F58091BA23813019F0BA
S1131CB0833099F02DC08091BF239091C023892B4C
S1131CC009F05EC08091BB239091BC23892B09F05D
S1131CD057C08091BD2347D51CC08091BF239091EC
S1131CE0C023892B09F04CC08091BB239091BC2365
S1131CF0892B09F045C0C9EBD3E28C8135D68C81A0
S1131D009ED607C080E005C080E003C080E001C02B
S1131D1080E081118CC08091B9238F71813081F56D
S1131D208091E621882309F471C00091BD231091AC
S1131D30BE23C091E421D091E521E881F981848119
S1131D40081708F065C060E0802FC9DC8823C1F063
S1131D50F801FF27CF01880F991FEA81FB81E80F63
S1131D60F91FC081D181EE81FF811995682F802FE1
S1131D70B6DC882329F0EC81FD811995811157C0C7
S1131D808091B9238F71823009F044C08091E6219B
S1131D908823B1F1A091E421B091E521ED91FC916A
S1131DA011978481882371F1C0E0EC2FF0E0EE0FED
S1131DB0FF1F12968D919C911397E80FF91F0081D4
S1131DC01181D8011696ED91FC9117971995682FFA
S1131DD08C2F85DC882359F1D8011496ED91FC9160
S1131DE015971995811123C0CF5FA091E421B0917B
S1131DF0E521ED91FC9111979481C917B0F217C0B8
S1131E0080E015C080E013C080E011C080E00FC006
S1131E1080E00DC080E00BC0982F907609F07BCF56
S1131E2080CE982F907609F076CF81CD81E0DF9136
S1131E30CF911F910F9108954091CA01E62FF72F7A
S1131E408093CA0184914093CA0108951BBEFC018A
S1131E5028ED24BF60830895CF93DF931F921F92D0
S1131E60CDB7DEB7811126C09091AC239923F9F048
S1131E709091B423911101C0FFCF9FB79A83F89436
S1131E802A81E3EBF3E29181915091832FBF0FC03C
S1131E909091B4239F3F09F4FFCF9FB79983F8949F
S1131EA02981E3EBF3E291819F5F91832FBF8093BC
S1131EB0AC2305C09091AC23992351F3F8CF0F9034
S1131EC00F90DF91CF9108950F93E8ECF4E08081B7
S1131ED08F7D808380818F7D8083E0E6F3E202E062
S1131EE00593109262231092632300E2069300E4A8
S1131EF00693E8E5F3E200E40693E9EBF3E21486E3
S1131F0015861686178612861386109241230F9122
S1131F1008950F9385E080934123E1E6F3E204E022
S1131F200593E9E5F3E204E005930F9108950F9317
S1131F3083E0809341231092622310926323E0E6AE
S1131F40F3E202E006930F910895E091C523F09126
S1131F50C623309709F0199508950F93CF93DF9313
S1131F6080914123833019F4F0DFAEDF5EC08091AD
S1131F703D2390913E23C091C323D091C423C81B19
S1131F80D90B71F520913F2330914023820F931F89
S1131F9080933F23909340232091BF233091C0230B
S1131FA08217930721F08091EC21882341F084E08B
S1131FB080934123E8E5F3E202E0069336C0E09122
S1131FC0C723F091C823309799F01995882381F09D
S1131FD010923D2310923E23C091C323D091C42379
S1131FE0C830D10528F01092EC21C8E0D0E003C03D
S1131FF081E08093EC21E4E4F3E2C68FD78F8091F3
S11320003D2390913E232091C1233091C223280F78
S1132010391F20A331A3C80FD91FC0933D23D093E8
S11320203E23E0E6F3E202E00693DF91CF910F91C5
S11320300895FC018181E82FE7708E2F90E0FC0168
S11320403197E730F105D0F48827E15FFE4F8F4FD9
S113205022C780E190E0089580E290E0089580E452
S113206090E0089580E890E0089580E091E008957C
S113207080E092E008958FEF93E0089588E090E087
S11320800895282F2F7030E0220F331F082E000CE4
S1132090990B8827990F881F9927820F931F0297FE
S11320A09C01220F331F220F331F220F331F820F75
S11320B0931F83519D4D08950F93CF938091CC042A
S11320C080FF64C081E08093CC04E8E5F3E200E89B
S11320D00693E0E6F3E200E806938093CA04E8E599
S11320E0F3E200E1069380914123882329F0835091
S11320F0823008F42ADFE8DE80915A2390915B2332
S1132100089709F045C088E0E5E3F3E2A9EBB3E200
S113211001900D928A95E1F7E8ECF4E08081806209
S11321208083808180628083E9DBC82F811103C0B2
S1132130F0DEC1E02EC08091B92388236CF41092A4
S11321403F231092402310923D2310923E2382E0BD
S11321508093412302DF1DC08091BF239091C0234F
S1132160892B11F4E4DE15C010923F231092402312
S113217010923D2310923E2381E080934123E8E5B1
S1132180F3E202E0069300E2069303C0C0E001C05C
S1132190C1E08C2FCF910F9108958F929F92AF92AF
S11321A0BF92DF92EF92FF920F931F93CF93DF932F
S11321B0D82E67DF8C01CD2DCF70D0E0CE01880FF3
S11321C0991FCD2D0D2C000CDD0BCC27DD0FCC1F62
S11321D0DD27C80FD91FCE01880F991F880F991FBB
S11321E0880F991F9C01285A3C4D7901C90121DFB0
S11321F04C01DD200CF079C0FE01EE0FFF1FEE0F45
S1132200FF1FEE0FFF1FEC5BFC4D228D338DD801B9
S113221015968D919C911697820F931F15968D9309
S11322209C93169713962D913C91149782179307BC
S113223009F445C0281B390B2115B4E03B0738F0DD
S11322402FEF33E0C901B40112D6281B390BF80172
S1132250808181FF09C0C901B40109D641E0892BFD
S113226009F040E0842F01C080E0D8019C9180FBFC
S113227091F99C93FE01EE0FFF1FEE0FFF1FEE0F6F
S1132280FF1FEC5BFC4D128E138E268B378B119641
S11322902D913C91129715968D919C911697820FD2
S11322A0931FCC0FDD1FCC0FDD1FCC0FDD1FC45AD5
S11322B0DC4D88839983F70102E00693E0C0D801DE
S11322C08C9181FFC9C08D7F8C93CC0FDD1FCC0F07
S11322D0DD1FCC0FDD1FCC5BDC4D1A8E1B8E1E8ADE
S11322E01F8AF70102E00693CAC0FE01EE0FFF1F2A
S11322F0EE0FFF1FEE0FFF1FEC5BFC4DA688B788A7
S1132300D8018C9182FF19C01196ED91FC9112971E
S113231015962D913C91169713968D919C91149737
S1132320B401A5D5B0E4DB9EB001112463557E4D04
S1132330AC01CF01820F931FB6D5F80125813681F8
S11323402A0D3B1D2583368383819481821793074D
S113235068F485839683CC0FDD1FCC0FDD1FCC0F73
S1132360DD1FCC5BDC4D8A8D9B8D76C0FE01EE0FAC
S1132370FF1FEE0FFF1FEE0FFF1FEC5BFC4D428DA6
S1132380538DA416B50609F067C02817390709F458
S113239063C0AC01421B530B9A01211554E035076D
S11323A040F02FEF33E0C901B40161D5281B390B8C
S11323B005C0C901B4015BD5281B390BFE01EE0F22
S11323C0FF1FEE0FFF1FEE0FFF1FEC5BFC4D168A85
S11323D0178A2815390500F5D8018C9184608C93EF
S11323E0B0E4DB9EC001112483559E4DFE01EE0F27
S11323F0FF1FEE0FFF1FEE0FFF1FE45AFC4D8083FB
S11324009183CC0FDD1FCC0FDD1FCC0FDD1FCC5B08
S1132410DC4D8A8E9B8E1CC0F801418152818581DE
S11324209681840F951FFE01EE0FFF1FEE0FFF1F15
S1132430EE0FFF1FE45AFC4D80839183CC0FDD1F08
S1132440CC0FDD1FCC0FDD1FCC5BDC4D2A8F3B8F07
S1132450F70102E0069313C0D8018C9180FF0FC0EE
S11324608E7F8C931796ED91FC911897309739F0E5
S113247015966D917C9116974D2D80E01995DF91FD
S1132480CF911F910F91FF90EF90DF90BF90AF908D
S11324909F908F9008951F93CF93DF931F92CDB792
S11324A0DEB78FB78983F894198181E0D5DCEAEC33
S11324B0F4E080E4808380E28083E1ECF4E08081D6
S11324C081608083A9ECB4E08C9182608C93E8EC09
S11324D0F4E08081806480838C9181608C9380811E
S11324E0806880831FBF0F90DF91CF911F91089563
S11324F00F931F93CF93DF931F921F92CDB7DEB735
S113250000E610E0F801108280E30E941D09E0EC6F
S1132510F4E080818064808381E0F80180838FB758
S11325208A83F8941A8180E090E0FC01EE0FFF1F8B
S1132530EE0FFF1FEE0FFF1FEC5BFC4D158A01969B
S11325408A30910591F780E090E0FC01EE0FFF1FC7
S1132550EE0FFF1FEE0FFF1FE80FF91FE351FD4DB4
S113256020812E7F208301968830910571F76AE1DE
S113257070E082E061DC8F3F19F08093FA0403C0BD
S11325808FE18093FA046BE170E082E055DC8F3FC9
S113259019F08093FB0403C08FE18093FB04E0EC0B
S11325A0F4E080818460808380818068808380817E
S11325B08061808388E593E286839783808180624B
S11325C080838FEF8093C504E8ECF4E08081816020
S11325D080831092AC238091B8238F3F09F4FFCFFE
S11325E08FB78983F8949981E3EBF3E285818F5F58
S11325F085839FBF50DF1FBF0F900F90DF91CF9156
S11326001F910F9108958093C30408958091C3048A
S11326100895E9EBF3E280879187628773870895D1
S1132620282F2F7030E0220F331F082E000C990B37
S11326308827990F881F9927820F931FFC01EE0F9B
S1132640FF1FEE0FFF1FEE0FFF1FEC5BFC4D2589F4
S1132650207C09F069C06370613011F018F404C083
S113266060EC03C060E801C060E440385105E9F063
S113267050F440325105A9F040345105A1F04031E5
S11326805105D9F40CC0411522E0520791F04F3F97
S113269023E0520781F04115514079F408C021E04C
S11326A00DC022E00BC023E009C024E007C025E0F0
S11326B005C026E003C027E001C020E0FC01EE0FC6
S11326C0FF1FEE0FFF1FEE0FFF1FEC5BFC4D158A83
S11326D036E0348B262B258BFC01EE0FFF1FEE0F0B
S11326E0FF1FEE0FFF1FEC5BFC4D2589207C203C77
S11326F069F4FC01EE0FFF1FEE0FFF1FEE0FFF1F2B
S1132700EC5BFC4D25892770273081F0880F991FD9
S1132710880F991F880F991FFC01EC5BFC4D85897C
S11327208062858B81E0089580E0089581E00895BA
S1132730E82FEF70F0E0EE0FFF1F082E000C990B4E
S11327408827990F881F9927E80FF91FEE0FFF1F9D
S1132750EE0FFF1FEE0FFF1FEC5BFC4D858982FB24
S1132760882780F908950F93282F2F7030E0A9014E
S1132770440F551F282F082E000C330B2227330F2C
S1132780221F3327240F351FA901440F551F440F5F
S1132790551F440F551FFA01E85AFC4D01E00693FA
S11327A0FA01EC5BFC4D958992FF11C0FA01EC5BD8
S11327B0FC4D95899B7F958B64DCFC01808180FFB7
S11327C006C08E7F80830780F085E02D199581E017
S11327D00F9108956F927F928F929F92AF92BF92C2
S11327E0CF92DF92EF92FF920F931F93CF93DF93D9
S11327F01F92CDB7DEB7782E662E4A01590141DC0F
S11328006C01272D872D8F70E82EF12CC701880FBE
S1132810991FE72C072C000CFF08EE24FF0CEE1C7C
S1132820FF24E80EF91EF701EE0FFF1FEE0FFF1F46
S1132830EE0FFF1FEC5BFC4D8589807C09F481C0A1
S1132840F701EE0FFF1FEE0FFF1FEE0FFF1FEC5BF4
S1132850FC4D8589807C803C61F0F701EE0FFF1F01
S1132860EE0FFF1FEE0FFF1FEC5BFC4D858982FD11
S11328706AC08FB78983F8948981F601908190FFAB
S113288003C08FBF80E060C0F601908191609083A7
S11328908FBF81829282A382B482158216820783BB
S11328A01087611006C091E0A114B10419F090E002
S11328B001C091E0F601808190FB81F98B7F8083D8
S11328C0222364F4F701EE0FFF1FEE0FFF1FEE0F3C
S11328D0FF1FEC5BFC4D128E138E2FC0F701EE0F21
S11328E0FF1FEE0FFF1FEE0FFF1FEC5BFC4D8589F2
S11328F0807C803CA9F4C701880F991F880F991F19
S1132900880F991F885A9C4D94DBBC01C501AFD236
S1132910892B31F0F60180818E7F808380E014C0A2
S1132920F701EE0FFF1FEE0FFF1FEE0FFF1FEC5B13
S1132930FC4D168A178A128E138E872D2EDC81E0A9
S113294003C080E001C080E00F90DF91CF911F9120
S11329500F91FF90EF90DF90CF90BF90AF909F903A
S11329608F907F906F900895FF920F931F93CF9352
S1132970DF93182FC82FCF70D0E0CE01880F991F96
S1132980C12F012E000CDD0BCC27DD0FCC1FDD2762
S1132990C80FD91F812F75DBDC01FE01EE0FFF1F6D
S11329A0EE0FFF1FEE0FFF1FE85AFC4D02E00593E8
S11329B08C9180FF22C08E7F8C931796ED91FC91B1
S11329C018973097D1F011235CF4CC0FDD1FCC0F96
S11329D0DD1FCC0FDD1FCC5BDC4D6A8D7B8D0AC007
S11329E0CC0FDD1FCC0FDD1FCC0FDD1FCC5BDC4D0E
S11329F06E897F89412F81E01995DF91CF911F91D5
S1132A000F91FF900895CF93C82FAEDFEC2FEF7096
S1132A10F0E0EE0FFF1F8C2FCC0F990B8827990F36
S1132A20881F9927E80FF91FEE0FFF1FEE0FFF1FF6
S1132A30EE0FFF1FEC5BFC4D158ACF910895E82F34
S1132A40EF70F0E0EE0FFF1F282F082E000C330B61
S1132A502227330F221F3327E20FF31FEE0FFF1F2E
S1132A60EE0FFF1FEE0FFF1FEC5BFC4D958994608A
S1132A70958B7ADF81E008951F920F920FB60F9223
S1132A8011240BB60F920F932F933F934F935F93A1
S1132A906F937F938F939F93AF93BF93CF93EF9352
S1132AA0FF938091CB0488233CF480E88093CA048C
S1132AB00E944E0CB0D189C08091CB0482FF20C00B
S1132AC084E08093CA048091602386FF7EC0809155
S1132AD0CC0481FD7AC0F0DA811177C08091412362
S1132AE0813011F424DA71C0843009F06EC0E1E65B
S1132AF0F3E204E00593E9E5F3E204E0059365C03D
S1132B008091CB0481FF5CC082E08093CA048091F1
S1132B10582386FF5AC08091CC0481FD56C0CCDA7C
S1132B20811153C080914123823041F484E0809329
S1132B304123E8E5F3E202E0069347C0833009F05D
S1132B4044C0E1E6F3E204E00593E9E5F3E204E0DE
S1132B5005933BC080E18093CA04C1E08C2F04DF5D
S1132B608C2F806801DFCF5FC530C1F70E94240C31
S1132B701092C304E4E4F3E2158A96E0948B80E4B3
S1132B80858B158E948F858F85E393E2808F918F4B
S1132B909BD91BC08091CB0486FF07C080E480933F
S1132BA0CA0480E059D935D110C08091CB0485FF87
S1132BB00CC080E28093CA0481E04ED92BD105C0B9
S1132BC08091CB0484FDC6CFE5CFFF91EF91CF91E7
S1132BD0BF91AF919F918F917F916F915F914F9131
S1132BE03F912F910F910F900BBE0F900FBE0F903E
S1132BF01F9018951F920F920FB60F9211240BB6C7
S1132C000F920F931F932F933F934F935F936F9361
S1132C107F938F939F93AF93BF93CF93DF93EF9360
S1132C20FF938091CC0481FD03C046DA8111C3C0B7
S1132C3082E08093CC048091C5048195880FE8E5F7
S1132C40F3E2E81BF109208131812855334236959E
S1132C5027953695279536952795822F869520FDBD
S1132C6002C090E001C090E8890FE82FEF70F0E017
S1132C70EE0FFF1F282F082E000C330B2227330FD3
S1132C80221F3327E20FF31FDF01AA0FBB1FAA0F76
S1132C90BB1FAA0FBB1FAC5BBC4D54969C9195FF08
S1132CA08AC0EE0FFF1FEE0FFF1FEE0FFF1FE85A43
S1132CB0FC4D00E20693811179C080914123843058
S1132CC019F443D901D977C000915A2310915B2399
S1132CD08091C3239091C423C0913D23D0913E237E
S1132CE098012C0F3D1F8217930718F48C010C1BBD
S1132CF01D0B8091C1239091C223A80165E373E267
S1132D008C0F9D1FD0D0C00FD11FC0933D23D093F3
S1132D103E230830110569F480913F2390914023AC
S1132D208C0F9D1F2091BF233091C02382179307DE
S1132D3080F0E9EBF3E2C287D3870684F785E02DC0
S1132D40309729F01995811102C0E3D834C0EFD827
S1132D5032C08091C3239091C423C817D907F9F4D2
S1132D60E091C723F091C823309711F4D2D823C03F
S1132D701995811102C0CDD81EC020913F233091F6
S1132D80402380913D2390913E23820F931F809393
S1132D903F239093402310923D2310923E23E8E575
S1132DA0F3E202E0069300E2069305C0803811F4D2
S1132DB0D4D801C0F2D9FF91EF91DF91CF91BF91A7
S1132DC0AF919F918F917F916F915F914F913F91BF
S1132DD02F911F910F910F900BBE0F900FBE0F906C
S1132DE01F90189587E08093A2007894E3EBF3E2B8
S1132DF01082118212821382148281E085830E94E0
S1132E0090080E9475080E94220C88E00E947708AE
S1132E10FFCF089508958091AF23882381F00E9405
S1132E207B088091AE23882351F00E947908809119
S1132E30AD23882321F00E9481080C94830808950F
S1132E400895089581E08093AF2308951092AF23ED
S1132E50089581E08093AE2308951092AE230895DF
S1132E6081E08093AD2308951092AD230895AA1BA9
S1132E70BB1B51E107C0AA1FBB1FA617B70710F061
S1132E80A61BB70B881F991F5A95A9F78095909593
S1132E90BC01CD010895EE0FFF1F881F8BBF079063
S1132EA0F691E02D1994FB01DC0102C001900D9212
S10F2EB041505040D8F70895F894FFCF2B
S1132EBC0600FF0901A10195087501190129088172
S1132ECC0295087501190129089102C073018D013D
S1132EDC900138010000808094202E2000003820BE
S1132EEC32200321BE201C2009025B00030100A038
S1132EFC3209040000010300000009211101000142
S1132F0C223B0007058103080002090401000103A8
S1132F1C0000000921110100012218000705820399
S1132F2C0800040904020002030000000921110135
S1132F3C0001221C00070584030800040705030391
S1132F4C080004001201000200000008EB03332106
S1132F5C00010102000105010904A1010501093068
S1132F6C0931150026FF00750895028102C08D09F0
S1132F7C97099A096209000005010906A1010507D0
S1132F8C19E029E7150025017501950881028101D5
S1132F9C1900296515002565750895068100050835
S1132FAC1901290515002501750195059102950353
S1132FBC9101C0DD09EF09F209D9090000000003F1
S1132FCC00000000000000000000000000000000F1
S1132FDC00000000000000000000000000000000E1
S1132FEC00000000000000000000000000000000D1
S1132FFC000000000000437573746F6D2048494451
S113300C20436F6D706F73697465204465766963D2
S113301C650041544D454C204153460004030904BA
S113302C010204081020408000172E455C748BA20A
S107303CB9D0E7FF1D
S9030000FC
