S01F0000436F6D706F73697465496D706C656D656E746174696F6E2E737265638C
S11300000DC100002CC100002AC1000028C100005D
S113001026C1000024C1000022C1000020C100004C
S11300201EC100001CC100001AC1000018C100005C
S113003016C1000014C1000012C1000010C100006C
S11300400EC100000CC100000AC1000008C100007C
S113005006C1000004C1000002C1000000C100008C
S1130060FEC00000FCC00000FAC00000F8C00000A0
S1130070F6C00000F4C00000F2C00000F0C00000B0
S1130080EEC00000ECC00000EAC00000E8C00000C0
S1130090E6C00000E4C00000E2C00000E0C00000D0
S11300A0DEC00000DCC00000DAC00000D8C00000E0
S11300B0D6C00000D4C00000D2C00000D0C00000F0
S11300C0CEC00000CCC00000CAC00000C8C0000000
S11300D0C6C00000C4C00000C2C00000C0C0000010
S11300E0BEC00000BCC00000BAC00000B8C0000020
S11300F0B6C00000B4C00000B2C00000B0C0000030
S1130100AEC00000ACC00000AAC00000A8C000003F
S1130110A6C00000A4C00000A2C00000A0C000004F
S11301209EC000009CC000009AC0000098C000005F
S113013096C0000094C0000092C0000090C000006F
S11301408EC000008CC000008AC0000088C000007F
S113015086C0000084C0000082C0000080C000008F
S11301607EC000007CC000007AC0000078C000009F
S113017076C0000074C0000072C0000070C00000AF
S11301806EC000006CC000006AC0000068C00000BF
S113019066C0000064C0000062C0000060C00000CF
S11301A05EC000005CC000005AC0000058C00000DF
S11301B056C0000054C0000052C0000050C00000EF
S11301C04EC000004CC000004AC0000048C00000FF
S11301D046C0000044C0000042C0000040C000000F
S11301E03EC000003CC000003AC0000038C000001F
S11301F036C000000C94C6110C948512E2032B0443
S1130200D8032D04DA03DC03DE03E003E203B30CBA
S1130210B60CB90CBC0CBF0CC20CC50C11241FBE0F
S1130220CFEFCDBFDFE5DEBF00E00CBF11E2A0E001
S1130230B0E2E0EBF7E200E00BBF02C007900D92E2
S1130240A438B107D9F723E2A4E8B1E201C01D92B2
S1130250A535B207E1F70E9475130C94D613D0CEDE
S113026080E008953091472320914823822F90E025
S11302700297C1F4311118C080914B2390914C2303
S11302800197A1F4E5E4F3E284E891E280879187A1
S113029081E090E08287938784E791E08487958763
S11302A081E0089580E0089580E0089580E0089555
S11302B00F931F9304E711E021E030E044E851E29A
S11302C060E083E00E9474101F910F910895CF9312
S11302D01092862110928421EBDFC82F81110E9495
S11302E0A9138C2FCF910895811107C06130710536
S11302F021F484E891E20E94B013DACF08950C94BB
S1130300AD13089522E331E040E050E264E871E285
S113031086E891E294C50895E0E0F6E09FEF9183CA
S11303209583E0E2F6E03FE3328388E1808B818BC2
S1130330828B838B848B858B20EC218340E44583E3
S113034040E84583E0E4F6E04CEF4283828B838B04
S1130350848B858B868B878B43E041834583E0E6E2
S1130360F6E03283808B818B828B838B848B858BAD
S113037021832683E0E8F6E09283808B818B828B55
S1130380838B848B858B868B878BE0EAF6E090EFFA
S11303909283848B858B868B878B8FE08183858387
S11303A064C20895809148062091680690E0922BDB
S11303B09695879596958795BC017F7080FF17C0A9
S11303C021E030E0E1E0F0E0822FAF01022E02C034
S11303D0440F551F0A94E2F746235723452B41F057
S11303E02F5F3F4F2C30310579F78FEF089580E070
S11303F00895809188062091280690E0922BBC01F4
S11304007F7080FF17C021E030E0E1E0F0E0822F50
S1130410AF01022E02C0440F551F0A94E2F746238F
S11304205723452B41F02F5F3F4F2C30310579F78F
S11304308FEF089580E008958823F4F19BEF980FDF
S11304409230E0F1853034F495E0981B923008F056
S113045042C036C09AEF980F9230B0F531C062E0D6
S113046023E030E090E080E0E1E0F0E0AF01022E34
S113047002C0440F551F0A94E2F7842B9F5F21505A
S11304803109961798F308958150482F50E04B5F37
S11304905F4F24E030E080E0E1E0F0E0BF01022EB5
S11304A002C0660F771F0A94E2F7862B2F5F3F4F37
S11304B02417350799F7089580E0089588E1089591
S11304C085306CF282E0E0CF8550853008F084E01E
S11304D08111DACF089566E0681B653008F064E0A6
S11304E06111BECF80E00895CF935CDFC82F81DF18
S11304F0CC2324F48823C4F090E009C0C6301CF057
S11305009BEF9C0F02C095E09C1B882354F086301F
S11305101CF02BEF280F02C025E0281B921708F4CB
S1130520C82F8C2F89DF01C080E0CF91089561DF4F
S113053088233CF0E82F880FFF0BE858FE4D80819C
S113054001C080E8809388212DDF88233CF0E82FC8
S1130550880FFF0BE858FE4D808101C080E8E8E871
S1130560F1E28183208190911C20291304C0909191
S11305701D20981771F088E891E214D3882349F07C
S1130580ECE1F0E2A8E8B1E28C91808311968C91C1
S113059081830895A9DF80933C239091280690934A
S11305A03D2390913D2394FD07C0882331F063D10E
S11305B080913C2364C10895BACF0895109290218C
S11305C010928D2110928E2110928B2110929321E2
S11305D010928F21E9E9F1E281E6808380E681834C
S11305E0128213828FE584838EE5858316821782B7
S11305F08DE580871186128613861486158689E513
S113060086878BE58787108A118A8AE5828B8CE539
S1130610838BE4E9F1E28EE080838DE081838BE0DB
S1130620828387E083838FEF84830895CF93DF935E
S11306301092912110928A21A0EAB6E0C0E2D6E09D
S113064090E862E025E054E041E033E057C0E091F7
S11306508A21F0E0EC56FE4D808114968C93149719
S113066080918A21843011F49E8301C09D83189661
S11306708C911897807F8093932180919321803B64
S1130680D1F018F4803701F128C0803D59F0803E44
S113069021F51092922180918A21809391212093B7
S11306A08A212CC04093922180918A2180939121A8
S11306B020938A2123C06093922180918A21809380
S11306C0912120938A211AC03093922180918A210A
S11306D08093912120938A2111C05093922180917B
S11306E08A218093912180918A21853010F0209372
S11306F0912180918A218F5F80938A2180918A2120
S1130700853008F4A4CF80E8809325068091922157
S11307108430E0F4809191218530C0F4809190215F
S113072081111AC0E0919121F0E080919221EE0FA5
S1130730FF1FEE0FFF1FE756FE4DE80FF11D8081EE
S113074080938F2181E08093902106C08091902135
S1130750813011F410929021DF91CF91089580910E
S1130760280680933E238091902180938D2180914F
S11307708F2180938C2180913E2384FD29C0809118
S11307808D21813009F057C080918E21811153C091
S1130790E0918C218E2F90E0FC01E955F109E930BC
S11307A0F10590F48827E250FF4F8F4F0C94C51346
S11307B084E009C080E107C080E205C080E403C092
S11307C080E801C081E05ED081E080938B2133C05A
S11307D080918D21813081F480918E2181110CC012
S11307E080918F2180938C2160918C2180918D2127
S11307F070E090E04AD013C080918D2181110FC028
S113080080918E21813059F480918F2180938C21A5
S113081060918C2180918D2170E090E036D08091A0
S11308208D21813041F480918E21811104C0809109
S11308308F2180938C2180913E2384FF07C0809177
S11308408B21813019F417D010928B2180918D2146
S113085080938E21089582E0B6CF88E0B4CFE6DE9F
S11308607EDF0E947A0F16C00895E0E0F6E08FEF75
S11308708183858308958FEF80930506089580937F
S1130880060608958093070608958093B321609324
S1130890B22108958091B0219091B1210196809365
S11308A0B0219093B12180FF60C02091B321309199
S11308B0AF21321749F031E0211101C030E030930B
S11308C0AF2121E02093AE218639910508F44DC073
S11308D01092B0211092B1218091AE21882309F4A5
S11308E044C02091AD2130E08091B221F901EE0F96
S11308F0FF1FE20FF31FE25EFF4D8283882349F15D
S1130900F901EE0FFF1FE20FF31FE25EFF4D90812E
S1130910992379F0F901EE0FFF1F2E0F3F1FF90104
S1130920E25EFF4D9181992311F0FFD110C0E2D115
S11309300EC0F901EE0FFF1F2E0F3F1FF901E25EFB
S1130940FF4D9181992311F046D201C008D288232A
S113095061F08091AD218F5F823018F48093AD21D6
S113096008951092AD211092AE2108958095809340
S1130970040608950FCE089572CF08950F931F9320
S1130980CF93DF93CDB7DEB72797CDBFDEBF8FEF11
S11309908093700080937100809372008093730041
S11309A080937400809375008093760065E081E401
S11309B090E0D6D66CE170E082E0C8D68A836DE11F
S11309C070E082E0C3D6898389819A81019621F4FB
S11309D080E493E289839A8389819A818B839C83BF
S11309E0E0E6F0E082838C8183838FB78E83F89472
S11309F09E81E0E5F0E08081826080839FBF8181F9
S1130A0081FFFDCF8FB78F83F8949F8100E510E0BD
S1130A10D80116968C911697897F16968C93169703
S1130A20E0E6F0E080E885838BEB868316968C9174
S1130A301697846016968C938081816080839FBF13
S1130A4061E080E490E08CD68FB78D83F8949D812B
S1130A50F80180818E7F80839FBF2796CDBFDEBF44
S1130A60DF91CF911F910F910895CF93DF931F9240
S1130A70CDB7DEB79FB79983F8949981E82FF0E05A
S1130A80E059FF4F60958081682360839FBF0F907A
S1130A90DF91CF910895CF93DF931F921F92CDB72B
S1130AA0DEB7863011F060E001C068E1809151004A
S1130AB081FD2AC08FB78983F8949981E0E5F0E03D
S1130AC08081826080839FBF818181FFFDCF8FB74A
S1130AD08A83F8949A81A0E5B0E016968C911697D3
S1130AE0897F16968C931697E0E6F0E080E885837C
S1130AF08BEB868316968C911697846016968C934E
S1130B008081816080839FBF636084E490E028D605
S1130B1060E480E0AADF0F900F90DF91CF910895F9
S1130B2080E008953091472320914823822F90E05C
S1130B300397B1F4311116C080914B2390914C234B
S1130B40892B91F4E5E4F3E284EB91E280879187C9
S1130B5086EB95E0848795871286138681E0089555
S1130B6080E0089580E0089580E00895089581E08C
S1130B708093B62108951092BA211092B82181E091
S1130B808093B6210C94A21308950C94A61308958F
S1130B9022E935E04AE950E268EB71E28AEB91E23E
S1130BA04EC10895FF920F931F93CF93DF931F922B
S1130BB0CDB7DEB79C018091B621882309F1F901F4
S1130BC08FB78983F894F9801092B4211092B521DB
S1130BD0808191818093B4219093B52107EB15E036
S1130BE022E030E044EB51E260E082E80E947410BD
S1130BF091E089278093B621FFBE8091B621892791
S1130C000F90DF91CF911F910F91FF90089580E095
S1130C1008953091472320914823822F90E0029732
S1130C20B9F4311117C080914B2390914C23019753
S1130C3099F4E5E4F3E28EEC91E2808791878DE408
S1130C4096E08487958781E090E082879387089572
S1130C5080E0089580E0089580E008951092D22104
S1130C601092D0211092C42188E0E5ECF1E2DF017A
S1130C701D928A95E9F71092CD210C949B13089547
S1130C800C949F13089529E036E04FEB50E260ED99
S1130C9071E282ED91E2D3C008958091CE2166CEB7
S1130CA008950F931F938091C421811118C088E087
S1130CB0E5ECF1E2ACEBB1E201900D928A95E1F73B
S1130CC01092CD2103E716E028E030E04CEB51E22E
S1130CD060E081E80E9474108093C42101C080E028
S1130CE01F910F9108951092C4218091CD218111FB
S1130CF0D8CF08951F93CF93DF931F92CDB7DEB75C
S1130D009FB79983F8941981E5ECF1E2809590817D
S1130D108923808381E08093CD21C3DF1FBF81E0DD
S1130D200F90DF91CF911F9108951F93CF93DF937D
S1130D301F92CDB7DEB79FB79983F8941981E5EC7C
S1130D40F1E29081892B808381E08093CD21A9DF1A
S1130D501FBF81E00F90DF91CF911F9108951F93E2
S1130D60CF93DF931F92CDB7DEB79FB79983F894E3
S1130D7019819091C721992341F08917A9F0E8ECD2
S1130D80F1E293E02191211102C01FBF1EC0281778
S1130D9021F09F5F9830B1F705C0983019F0973073
S1130DA020F00CC01FBF11C092E0E92FF0E0EB531C
S1130DB0FE4D818180839F5F9730B9F71092CC21DB
S1130DC081E08093CD216DDF1FBF81E00F90DF9123
S1130DD0CF911F9108951F93CF93DF931F92CDB7A7
S1130DE0DEB79FB79983F89419819091C72199230D
S1130DF0B1F0891741F0A8ECB1E2E3E09D919923A9
S1130E0049F0981303C01FBF81E014C0EF5FE830BE
S1130E10A9F702C0E83021F41FBF80E00BC0E2E074
S1130E20F0E0EB53FE4D808381E08093CD2139DFE8
S1130E301FBF81E00F90DF91CF911F910895CF9351
S1130E40DF93DC01EA019091452399230CF068C0FB
S1130E50907609F045C080914623863009F040C061
S1130E6076D1DC011A962C911A97213209F077C0B9
S1130E702091482330E021323105B1F49C01275FF1
S1130E803F4F20934D2330934E23E5E4F3E219962C
S1130E908C912681378190E02817390708F4C9011D
S1130EA08287938781E068C0FC01478550E0421740
S1130EB0530709F056C0C0934D23D0934E23E5E465
S1130EC0F3E226813781DC0150968D919C915197F4
S1130ED02817390708F4C9018287938781E04CC039
S1130EE0903209F040C080914623823039F083303B
S1130EF071F08130D1F5F90119953EC0E5E4F3E2D2
S1130F00A087B18781E090E08287938735C0E5E4CC
S1130F10F3E26087718781E090E0828793872CC039
S1130F209076903221F5809146238A3039F08B30C7
S1130F3051F08930F1F4F90119951EC080914823CC
S1130F408C9381E019C080914B2390914C23892B81
S1130F5091F480914723DB018C9381E00DC080E004
S1130F600BC080E009C080E007C080E005C080E0DD
S1130F7003C080E001C080E0DF91CF910895E0914B
S1130F80D821F091D9210190F081E02D2281338183
S1130F902E0F3F1FFC014081E40FF11DE217F30700
S1130FA0A0F481818430A1F0861306C014C081812D
S1130FB08430A1F08617A9F08081E80FF11DE217B3
S1130FC0F307A8F380E090E0089580E090E00895AE
S1130FD080E090E008958E2F9F2F089580E090E0A8
S1130FE008958E2F9F2F0895809147238F777CC774
S1130FF008959091DA21992381F1E091D821F0911B
S1131000D9210190F081E02D9481891740F5E09376
S1131010D621F093D721228133812E0F3F1FE2176F
S1131020F307F8F49181943061F49281891309C033
S11310309381961306C0E093D621F093D72181E0E3
S113104008959081E90FF11DE217F30758F3E09337
S1131050D621F093D72180E0089580E0089580E0C0
S1131060089580E00895EF92FF921F93CF93DF934A
S1131070C82F60E0BEDF182F882381F1A091D8210A
S1131080B091D921EC2FF0E0EE0FFF1F12968D9155
S11310909C911397E80FF91FE080F180D701169611
S11310A0ED91FC9117971995682F8C2FA2DF182FBB
S11310B08823A1F0C091D621D091D72165E0CE013B
S11310C05EDFEC01892B21F08A810E948D11F6CF1D
S11310D0D7011296ED91FC9113971995812FDF9109
S11310E0CF911F91FF90EF9008951F93CF93DF93BB
S11310F0182F7FDF882339F1C091D621D091D721D1
S113110065E0CE013CDFEC01892B41F04C815D812F
S11311106B818A81FBD68111F3CF15C0A091D821B0
S1131120B091D921E12FF0E0EE0FFF1F12968D91BF
S11311309C911397E80FF91F0190F081E02D019025
S1131140F081E02D1995DF91CF911F910895809141
S1131150D6219091D721089532C60895CF938091D6
S1131160DA218823C1F0E091D821F091D9210190AE
S1131170F081E02D8481882371F0C0E08C2F73DF2F
S1131180CF5FE091D821F091D9210190F081E02D39
S11311908481C81798F31092DA218091DE2181FDB1
S11311A00E949A131092DE211092DF21CF910895AC
S11311B0CF938091DA21882349F1A091D821B0916D
S11311C0D921ED91FC91119784818823F9F0C0E035
S11311D0EC2FF0E0EE0FFF1F12968D919C91139768
S11311E0E80FF91F0190F081E02D0084F185E02DD6
S11311F0309709F01995CF5FA091D821B091D921EA
S1131200ED91FC9111978481C81710F3CF91089543
S11312100F931F93CF93DF93E5E4F3E212861386D3
S11312201486158616861786808188230CF07EC264
S113123020914B2330914C232115310509F07BC2B9
S11312406DC28F7109F0A0C090914623963079F059
S1131250983009F48FC0911197C02230310509F0FC
S113126019C262E070E08EED91E249D669C28091C4
S1131270472390914823292F332722303105A9F0A1
S113128020F42130310541F0C7C123303105D9F1B3
S11312902F30310551F1C0C1809124209091252037
S11312A0DC016C9170E02BD656C0E0912420F091C3
S11312B025202189821708F0EDC19927880F991FED
S11312C0880F991FE0912620F0912720E80FF91F3D
S11312D080819181FC016281738111D6E0914D235B
S11312E0F0914E2382E0818336C080912820909132
S11312F02920009709F4CEC1DC0112966D917C91EE
S11313001397FDD528C099278130910571F038F0E5
S1131310029709F08AC1E8E4F1E231E209C064E02D
S113132070E084E791E2EBD516C0EAE6F1E239E039
S1131330A6E0B1E220E0819190E08D939D932F5F30
S11313402317C8F3632F660F6E5F6093042170E068
S113135084E091E2D4D5E5E4F3E2868197812285A5
S113136033858217930708F0EBC180934F23909342
S11313705023E6C12130310509F08CC161E070E0F1
S11313808AED91E2BCD5DCC18130E1F59091462330
S11313909A30C1F52130310509F04CC18091DA2130
S11313A0882309F447C1C0914923D0914A2300916D
S11313B0D8211091D921D801ED91FC918481C817CD
S11313C008F038C160E08C2F14DE882309F42DC1A5
S11313D0CE019927880F991FD8011296ED91FC919F
S11313E01397E80FF91F0190F081E02D8681978112
S11313F0FC0119958093DC2161E070E08CED91E2B1
S11314007ED59EC1823009F010C18091462381119E
S113141005C12230310509F03DC18091492307D629
S113142090E08093D4219093D52162E070E084ED24
S113143091E265D585C18F7109F09FC090914623D3
S1131440933091F118F49130A9F097C0953021F0C0
S1131450993009F443C091C080914B2390914C235F
S1131460892B09F017C184EF97E08093512390935F
S1131470522366C180914B2390914C23892B09F010
S113148009C18091472390914823019709F002C133
S11314908091DE219091DF218D7F8093DE219093D6
S11314A0DF210E949A134CC180914B2390914C23CD
S11314B0892B09F0EFC0809147239091482301972D
S11314C009F0AEC08091DE219091DF21826080938B
S11314D0DE219093DF210E94991332C180914B2326
S11314E090914C23892B09F0D5C001D5882309F4A8
S11314F09CC020914723309148233327E091242036
S1131500F0912520818990E08217930708F48DC01B
S113151025DE80914723909148238093DA21882304
S113152009F40EC199278150904C880F991F880F98
S1131530991FE0912620F0912720E80FF91FE093EE
S1131540D821F093D9210190F081E02D8481882362
S113155009F4F6C0C0E060E08C2FC7DD882309F4ED
S113156064C0CF5FE091D821F091D9210190F0813E
S1131570E02D8481C81778F3E3C08130E9F49091B9
S113158046239B30C9F480914B2390914C23892BA3
S113159009F050C08091DA21882309F44BC0E5E4B6
S11315A0F3E2C481D2818C2F5EDD882309F43DC02F
S11315B06D2F8C2F9ADD37C08230B9F58091462388
S11315C0813019F0833099F02DC080914B23909194
S11315D04C23892B09F05EC08091472390914823C6
S11315E0892B09F057C0809149233CD51CC08091B8
S11315F04B2390914C23892B09F04CC080914723B5
S113160090914823892B09F045C0C5E4D3E28C812D
S113161035D68C819ED607C080E005C080E003C02B
S113162080E001C080E081118CC0809145238F71DE
S1131630813081F58091DA21882309F471C0009109
S1131640492310914A23C091D821D091D921E8810E
S1131650F9818481081708F065C060E0802FC9DC37
S11316608823C1F0F801FF27CF01880F991FEA8171
S1131670FB81E80FF91FC081D181EE81FF811995AB
S1131680682F802FB6DC882329F0EC81FD81199521
S1131690811157C0809145238F71823009F044C075
S11316A08091DA218823B1F1A091D821B091D92178
S11316B0ED91FC9111978481882371F1C0E0EC2FA6
S11316C0F0E0EE0FFF1F12968D919C911397E80F97
S11316D0F91F00811181D8011696ED91FC9117979D
S11316E01995682F8C2F85DC882359F1D80114961D
S11316F0ED91FC9115971995811123C0CF5FA091AD
S1131700D821B091D921ED91FC9111979481C917F9
S1131710B0F217C080E015C080E013C080E011C0B3
S113172080E00FC080E00DC080E00BC0982F907661
S113173009F07BCF80CE982F907609F076CF81CDBB
S113174081E0DF91CF911F910F9108954091CA01DB
S1131750E62FF72F8093CA0184914093CA0108951C
S11317601BBEFC0128ED24BF60830895CF93DF9353
S11317701F921F92CDB7DEB7811126C090913823F6
S11317809923F9F090914023911101C0FFCF9FB7A5
S11317909A83F8942A81EFE3F3E291819150918343
S11317A02FBF0FC0909140239F3F09F4FFCF9FB7F5
S11317B09983F8942981EFE3F3E291819F5F918308
S11317C02FBF8093382305C090913823992351F378
S11317D0F8CF0F900F90DF91CF9108950F93E8EC1D
S11317E0F4E080818F7D808380818F7D8083ECEF26
S11317F0F2E202E005931092FE221092FF2200E230
S1131800069300E40693E4EFF2E200E40693E5E4D1
S1131810F3E21486158616861786128613861092AE
S1131820E3220F9108950F9385E08093E322EDEF77
S1131830F2E204E00593E5EFF2E204E005930F9190
S113184008950F9383E08093E3221092FE22109276
S1131850FF22ECEFF2E202E006930F910895E0918B
S11318605123F0915223309709F0199508950F935D
S1131870CF93DF938091E322833019F4F0DFAEDF5E
S11318805EC08091DF229091E022C0914F23D091DD
S11318905023C81BD90B71F52091E1223091E2222B
S11318A0820F931F8093E1229093E22220914B2395
S11318B030914C238217930721F08091E0218823F3
S11318C041F084E08093E322E4EFF2E202E0069345
S11318D036C0E0915323F0915423309799F0199531
S11318E0882381F01092DF221092E022C0914F23CE
S11318F0D0915023C830D10528F01092E021C8E0DF
S1131900D0E003C081E08093E021E4EEF2E2C28FF4
S1131910D38F8091DF229091E02220914D2330914A
S11319204E23280F391F248F358FC80FD91FC0931A
S1131930DF22D093E022ECEFF2E202E00693DF91A3
S1131940CF910F910895FC018181E82FE7708E2FCC
S113195090E0FC013197E730F105D0F48827E95F86
S1131960FE4F8F4F12C780E190E0089580E290E02F
S1131970089580E490E0089580E890E0089580E080
S113198091E0089580E092E008958FEF93E0089548
S113199088E090E00895282F2F7030E0220F331F45
S11319A0082E000C990B8827990F881F9927820FFE
S11319B0931F02979C01220F331F220F331F220F04
S11319C0331F820F931F8F559D4D08950F93CF930F
S11319D08091CC0480FF64C081E08093CC04E4EF68
S11319E0F2E200E80693ECEFF2E200E8069380935B
S11319F0CA04E4EFF2E200E106938091E322882333
S1131A0029F08350823008F42ADFE8DE8091F62240
S1131A109091F722089709F045C088E0E7EDF2E2DB
S1131A20A5E4B3E201900D928A95E1F7E8ECF4E0C5
S1131A30808180628083808180628083E9DBC82F1B
S1131A40811103C0F0DEC1E02EC0809145238823BC
S1131A506CF41092E1221092E2221092DF22109292
S1131A60E02282E08093E32202DF1DC080914B23B9
S1131A7090914C23892B11F4E4DE15C01092E122DD
S1131A801092E2221092DF221092E02281E08093F1
S1131A90E322E4EFF2E202E0069300E2069303C0DD
S1131AA0C0E001C0C1E08C2FCF910F9108958F92B7
S1131AB09F92AF92BF92DF92EF92FF920F931F9388
S1131AC0CF93DF93D82E67DF8C01CD2DCF70D0E07C
S1131AD0CE01880F991FCD2D0D2C000CDD0BCC27CA
S1131AE0DD0FCC1FDD27C80FD91FCE01880F991F2A
S1131AF0880F991F880F991F9C012C503D4D790127
S1131B00C90121DF4C01DD200CF070C0FE01EE0F95
S1131B10FF1FEE0FFF1FEE0FFF1FEC51FD4D268937
S1131B203789D80115968D919C911697820F931F32
S1131B3015968D939C93169713962D913C9114971B
S1131B408217930709F43CC0281B390B2115B4E014
S1131B503B0738F02FEF33E0C901B40102D6281B4C
S1131B60390BF801808181FF09C0C901B401F9D59D
S1131B7041E0892B09F040E0842F01C080E0D801C6
S1131B809C9180FB91F99C93CC0FDD1FCC0FDD1F42
S1131B90CC0FDD1FCC51DD4D1E8A1F8A2A8B3B8B57
S1131BA011962D913C91129715968D919C911697B3
S1131BB0820F931F8C8B9D8BF70102E00693C6C0A6
S1131BC0D8018C9181FFAFC08D7F8C93CC0FDD1F2A
S1131BD0CC0FDD1FCC0FDD1FCC51DD4D1E8A1F8ABB
S1131BE01A8A1B8AF70102E00693B0C0FE01EE0FC9
S1131BF0FF1FEE0FFF1FEE0FFF1FEC51FD4DA288DC
S1131C00B388D8018C9182FF19C01196ED91FC9193
S1131C10129715962D913C91169713968D919C9140
S1131C201497B4019ED5B0E4DB9EB00111246F5526
S1131C307E4DAC01CF01820F931FAFD5F8012581F2
S1131C4036812A0D3B1D2583368383819481821737
S1131C50930768F485839683CC0FDD1FCC0FDD1FBB
S1131C60CC0FDD1FCC51DD4D8E899F895CC0FE01F8
S1131C70EE0FFF1FEE0FFF1FEE0FFF1FEC51FD4D88
S1131C8046895789A416B50609F04DC028173907A7
S1131C9009F449C0AC01421B530B9A01211554E0CD
S1131CA0350740F02FEF33E0C901B4015AD5281BA2
S1131CB0390B05C0C901B40154D5281B390BFE01E9
S1131CC0EE0FFF1FEE0FFF1FEE0FFF1FEC51FD4D38
S1131CD0128A138A2815390578F4D8018C91846006
S1131CE08C93B0E4DB9EC00111248F559E4D848BF0
S1131CF0958B868A978A13C0F80141815281858128
S1131D009681840F951FCC0FDD1FCC0FDD1FCC0FE8
S1131D10DD1FCC51DD4D8C8B9D8B2E8B3F8BF701C2
S1131D2002E0069313C0D8018C9180FF0FC08E7F10
S1131D308C931796ED91FC911897309739F015967E
S1131D406D917C9116974D2D80E01995DF91CF917F
S1131D501F910F91FF90EF90DF90BF90AF909F90F5
S1131D608F9008951F93CF93DF931F92CDB7DEB763
S1131D708FB78983F894198181E0F8DCEAECF4E008
S1131D8080E4808380E28083E1ECF4E08081816000
S1131D908083A9ECB4E08C9182608C93E8ECF4E04D
S1131DA08081806480838C9181608C938081806841
S1131DB080831FBF0F90DF91CF911F9108950F93E0
S1131DC01F93CF93DF931F921F92CDB7DEB700E628
S1131DD010E0F801108280E30E944B05E0ECF4E08F
S1131DE080818064808381E0F80180838FB78A8357
S1131DF0F8941A8180E090E0FC01EE0FFF1FEE0FD3
S1131E00FF1FEE0FFF1FEC51FD4D118A0196883024
S1131E10910591F7E1EAF2E280818E7F8083EAEA1C
S1131E20F2E280818E7F8083E3EBF2E280818E7F19
S1131E308083ECEBF2E280818E7F8083E5ECF2E23A
S1131E4080818E7F8083EEECF2E280818E7F8083BE
S1131E506AE170E082E07ADC8F3F19F08093FA0443
S1131E6003C08FE18093FA046BE170E082E06EDCE2
S1131E708F3F19F08093FB0403C08FE18093FB0430
S1131E80E0ECF4E0808183608083808180688083DB
S1131E9080818061808384EF92E28683978380814E
S1131EA0806280838FEF8093C504E8ECF4E0808146
S1131EB08160808310923823809144238F3F09F4FA
S1131EC0FFCF8FB78983F8949981EFE3F3E285819B
S1131ED08F5F85839FBF46DF1FBF0F900F90DF91F9
S1131EE0CF911F910F9108958093C3040895809119
S1131EF0C304089580913423909135230895E5E433
S1131F00F3E280879187628773870895282F2F7063
S1131F1030E0220F331F082E000C990B8827990FED
S1131F20881F9927820F931FFC01EE0FFF1FEE0FEE
S1131F30FF1FEE0FFF1FEC51FD4D2189207C09F09E
S1131F4072C06370613011F018F404C060EC03C017
S1131F5060E801C060E440385105E9F050F44032D3
S1131F605105A9F040345105A1F040315105D9F48F
S1131F700CC0411522E0520791F04F3F23E0520775
S1131F8081F04115514079F408C021E00DC022E0F0
S1131F900BC023E009C024E007C025E005C026E00B
S1131FA003C027E001C020E0FC01EE0FFF1FEE0F8D
S1131FB0FF1FEE0FFF1FEC51FD4D118ADC01AA0F2C
S1131FC0BB1FAA0FBB1FAA0FBB1FAC50BD4D36E0F1
S1131FD03C93262B218BFC01EE0FFF1FEE0FFF1FFE
S1131FE0EE0FFF1FEC51FD4D2189207C203C69F44C
S1131FF0FC01EE0FFF1FEE0FFF1FEE0FFF1FEC5152
S1132000FD4D21892770273081F0880F991F880F93
S1132010991F880F991FFC01EC51FD4D8189806245
S1132020818B81E0089580E0089581E00895E82F90
S1132030EF70F0E0EE0FFF1F082E000C990B8827BD
S1132040990F881F9927E80FF91FEE0FFF1FEE0F56
S1132050FF1FEE0FFF1FEC51FD4D818982FB882786
S113206080F908950F93282F2F7030E0A901440FB1
S1132070551F282F082E000C330B2227330F221F45
S11320803327240F351FF901EE0FFF1FEE0FFF1F3B
S1132090EE0FFF1FEC50FD4D01E00693F901EE0F2A
S11320A0FF1FEE0FFF1FEE0FFF1FEC51FD4D918937
S11320B092FF17C0220F331F220F331F220F331F2B
S11320C0F901EC51FD4D91899B7F918B64DCFC01FE
S11320D0808180FF06C08E7F80830780F085E02D9D
S11320E0199581E00F9108956F927F928F929F923C
S11320F0AF92BF92CF92DF92EF92FF920F931F9312
S1132100CF93DF931F92CDB7DEB7782E662E4A01A8
S1132110590141DC6C01272D872D8F70E82EF12C9D
S1132120C701880F991FE72C072C000CFF08EE2429
S1132130FF0CEE1CFF24E80EF91EF701EE0FFF1F43
S1132140EE0FFF1FEE0FFF1FEC51FD4D8189807CC8
S113215009F481C0F701EE0FFF1FEE0FFF1FEE0F12
S1132160FF1FEC51FD4D8189807C803C61F0F701BB
S1132170EE0FFF1FEE0FFF1FEE0FFF1FEC51FD4D83
S1132180818982FD6AC08FB78983F8948981F601B9
S1132190908190FF03C08FBF80E060C0F601908102
S11321A0916090838FBF81829282A382B4821582D0
S11321B0168207831087611006C091E0A114B10450
S11321C019F090E001C091E0F601808190FB81F963
S11321D08B7F8083222364F4F701EE0FFF1FEE0F41
S11321E0FF1FEE0FFF1FEC51FD4D168A178A2FC0FB
S11321F0F701EE0FFF1FEE0FFF1FEE0FFF1FEC5155
S1132200FD4D8189807C803CA9F4C701880F991F0A
S1132210880F991F880F991F8C509D4D94DBBC012A
S1132220C5019FD2892B31F0F60180818E7F808396
S113223080E014C0F701EE0FFF1FEE0FFF1FEE0F3B
S1132240FF1FEC51FD4D128A138A168A178A872DB7
S11322502EDC81E003C080E001C080E00F90DF91BC
S1132260CF911F910F91FF90EF90DF90CF90BF908F
S1132270AF909F908F907F906F900895FF920F93EF
S11322801F93CF93DF93182FC82FCF70D0E0CE01C8
S1132290880F991FC12F012E000CDD0BCC27DD0FF9
S11322A0CC1FDD27C80FD91F812F75DBDC01FE0190
S11322B0EE0FFF1FEE0FFF1FEE0FFF1FEC50FD4D43
S11322C002E005938C9180FF22C08E7F8C93179639
S11322D0ED91FC9118973097D1F011235CF4CC0F59
S11322E0DD1FCC0FDD1FCC0FDD1FCC51DD4D6E8902
S11322F07F890AC0CC0FDD1FCC0FDD1FCC0FDD1F83
S1132300CC51DD4D6A897B89412F81E01995DF919C
S1132310CF911F910F91FF900895CF93C82FAEDFF7
S1132320EC2FEF70F0E0EE0FFF1F8C2FCC0F990B0A
S11323308827990F881F9927E80FF91FEE0FFF1FB1
S1132340EE0FFF1FEE0FFF1FEC51FD4D118ACF91D1
S11323500895E82FEF70F0E0EE0FFF1F282F082EEE
S1132360000C330B2227330F221F3327E20FF31FF6
S1132370EE0FFF1FEE0FFF1FEE0FFF1FEC51FD4D81
S113238091899460918B7ADF81E008951F920F9276
S11323900FB60F9211240BB60F920F932F933F9306
S11323A04F935F936F937F938F939F93AF93BF9359
S11323B0EF93FF938091CB0488233CF480E88093CF
S11323C0CA040E94D808A9D18CC08091CB0482FF92
S11323D020C084E08093CA048091FC2286FF81C0DF
S11323E08091CC0481FD7DC0F1DA81117AC08091A5
S11323F0E322813011F425DA74C0843009F071C00D
S1132400EDEFF2E204E00593E5EFF2E204E0059378
S113241068C08091CB0481FF5FC082E08093CA04CE
S11324208091F42286FF5DC08091CC0481FD59C067
S1132430CDDA811156C08091E322823041F484E0E8
S11324408093E322E4EFF2E202E006934AC0833091
S113245009F047C0EDEFF2E204E00593E5EFF2E2A4
S113246004E005933EC080E18093CA0481E006DF66
S113247081E804DF82E002DF82E800DF83E0FEDE41
S113248083E8FCDE0E94AE081092C304E4EEF2E29C
S1132490118A96E0908B80E4818B118E908F818FCE
S11324A087ED92E2848B958B99D91BC08091CB04E4
S11324B086FF07C080E48093CA0480E057D92BD1FB
S11324C010C08091CB0485FF0CC080E28093CA04C5
S11324D081E04CD921D105C08091CB0484FDC3CFC8
S11324E0E5CFFF91EF91BF91AF919F918F917F9134
S11324F06F915F914F913F912F910F910F900BBE70
S11325000F900FBE0F901F9018951F920F920FB649
S11325100F9211240BB60F920F931F932F933F9397
S11325204F935F936F937F938F939F93AF93BF93D7
S1132530CF93DF93EF93FF938091CC0481FD03C08D
S113254045DA8111BBC082E08093CC048091C5043C
S11325508195880FE4EFF2E2E81BF10920813181D3
S1132560245F3242369527953695279536952795DB
S1132570822F869520FD02C090E001C090E8890F6B
S1132580E82FEF70F0E0EE0FFF1F282F082E000C4D
S1132590330B2227330F221F3327E20FF31FDF01F0
S11325A0AA0FBB1FAA0FBB1FAA0FBB1FAC50BD4D68
S11325B09C9195FF83C0FD0100E20693811179C0CF
S11325C08091E322843019F44AD908D977C0009164
S11325D0F6221091F72280914F2390915023C091BD
S11325E0DF22D091E02298012C0F3D1F8217930720
S11325F018F48C010C1B1D0B80914D2390914E23DC
S1132600A80167ED72E28C0F9D1FC7D0C00FD11FC8
S1132610C093DF22D093E0220830110569F4809141
S1132620E1229091E2228C0F9D1F20914B23309147
S11326304C238217930780F0E5E4F3E2C287D38743
S11326400684F785E02D309729F01995811102C091
S1132650EAD834C0F6D832C080914F2390915023E9
S1132660C817D907F9F4E0915323F0915423309714
S113267011F4D9D823C01995811102C0D4D81EC031
S11326802091E1223091E2228091DF229091E02298
S1132690820F931F8093E1229093E2221092DF2213
S11326A01092E022E4EFF2E202E0069300E20693E5
S11326B005C0803811F4DBD801C0F9D9FF91EF913E
S11326C0DF91CF91BF91AF919F918F917F916F9146
S11326D05F914F913F912F911F910F910F900BBEDE
S11326E00F900FBE0F901F90189587E08093A20063
S11326F07894EFE3F3E2108211821282138214823F
S113270081E085830E94BE040E948C010E94DE0247
S11327100E94AC08FFCF0895089580913B2388233D
S113272039F00E94BC0480913A2381110C94BA04BC
S113273008950895089581E080933B2308951092AD
S11327403B23089581E080933A23089510923A231D
S1132750089581E0809339230895109239230895D0
S11327600895AA1BBB1B51E107C0AA1FBB1FA617D4
S1132770B70710F0A61BB70B881F991F5A95A9F726
S113278080959095BC01CD010895EE0FFF1F881F21
S11327908BBF0790F691E02D1994FB01DC0102C078
S11327A001900D9241505040D8F70895F894FFCF0E
S11327B005080900A101950875011901290891026C
S11327C0C00067017F0182013001000080800001A8
S11327D00000000088202A20000034202E20FA2047
S11327E0B520122009025400030100A0320904009C
S11327F0000103000000092111010001223B000730
S11328000581030800020904010001030000000916
S11328102111010001221B0007058203080004099D
S11328200402000103000000092111010001221229
S11328300007050303080004120100020000000859
S1132840EB03332100010102000105010904A10188
S1132850A100050109300931150026FF007508950E
S1132860028102C0C0BB05C505C80590050000056E
S1132870010906A101050719E029E71500250175DD
S113288001950881028101190029651500256575E6
S1132890089506810005081901290515002501750B
S11328A0019505910295039101C02E064006430649
S11328B00706000000030000000000000000000004
S11328C00000000000000000000000000000000004
S11328D000000000000000000000000000000000F4
S11328E000000000000000000000000000000000E4
S11328F00000000000000000436F6D706F73697486
S11329006520484944204B6579626F617264202BCD
S1132910204A6F79737469636B0041544D454C20B0
S1132920415346000403090400172E455C748BA22E
S1072930B9D0E7FF30
S9030000FC
