:100000000DC100002CC100002AC1000028C1000061
:1000100026C1000024C1000022C1000020C1000050
:100020001EC100001CC100001AC1000018C1000060
:1000300016C1000014C1000012C1000010C1000070
:100040000EC100000CC100000AC1000008C1000080
:1000500006C1000004C1000002C1000000C1000090
:10006000FEC00000FCC00000FAC00000F8C00000A4
:10007000F6C00000F4C00000F2C00000F0C00000B4
:10008000EEC00000ECC00000EAC00000E8C00000C4
:10009000E6C00000E4C00000E2C00000E0C00000D4
:1000A000DEC00000DCC00000DAC00000D8C00000E4
:1000B000D6C00000D4C00000D2C00000D0C00000F4
:1000C000CEC00000CCC00000CAC00000C8C0000004
:1000D000C6C00000C4C00000C2C00000C0C0000014
:1000E000BEC00000BCC00000BAC00000B8C0000024
:1000F000B6C00000B4C00000B2C00000B0C0000034
:10010000AEC00000ACC00000AAC00000A8C0000043
:10011000A6C00000A4C00000A2C00000A0C0000053
:100120009EC000009CC000009AC0000098C0000063
:1001300096C0000094C0000092C0000090C0000073
:100140008EC000008CC000008AC0000088C0000083
:1001500086C0000084C0000082C0000080C0000093
:100160007EC000007CC000007AC0000078C00000A3
:1001700076C0000074C0000072C0000070C00000B3
:100180006EC000006CC000006AC0000068C00000C3
:1001900066C0000064C0000062C0000060C00000D3
:1001A0005EC000005CC000005AC0000058C00000E3
:1001B00056C0000054C0000052C0000050C00000F3
:1001C0004EC000004CC000004AC0000048C0000003
:1001D00046C0000044C0000042C0000040C0000013
:1001E0003EC000003CC000003AC0000038C0000023
:1001F00036C000000C9403140C94C114C9030F04FE
:10020000BF031104C103C303C503C703C903F00E31
:10021000F30EF60EF90EFC0EFF0E020F11241FBE98
:10022000CFEFCDBFDFE5DEBF00E00CBF11E2A0E005
:10023000B0E2E8E4FCE200E00BBF02C007900D92E0
:10024000A639B107D9F723E2A6E9B1E201C01D92B0
:10025000A53DB207E1F70E94B9150C942216D0CE45
:1002600080E008953091C7232091C823822F90E029
:100270000297C1F4311118C08091CB239091CC2307
:100280000197A1F4E5ECF3E286E991E2808791879A
:1002900081E090E08287938784E791E08487958767
:1002A00081E0089580E0089580E0089580E0089559
:1002B0000F931F9304E711E021E030E046E951E29B
:1002C00060E083E00E94B1121F910F910895CF93D7
:1002D0001092982110929621EBDFC82F81110E9475
:1002E000F1158C2FCF910895811107C061307105F0
:1002F00021F486E991E20E94F815DACF08950C9472
:10030000F515089522E331E040E050E266E971E23C
:1003100088E991E2D1C70895E0E0F6E09FEF91838C
:100320009583E0E2F6E03FE3328388E1808B818BC6
:10033000828B838B848B858B20EC218340E44583E7
:1003400040E84583E0E4F6E04CEF4283828B838B08
:10035000848B858B868B878B43E041834583E0E6E6
:10036000F6E03283808B818B828B838B848B858BB1
:1003700021832683E0E8F6E09283808B818B828B59
:10038000838B848B858B868B878BE0EAF6E090EFFE
:100390009283848B858B868B878B8FE0818385838B
:1003A0009CD20DC10895809148062091680690E086
:1003B000922B9695879596958795BC017F7080FFC7
:1003C00017C021E030E0E1E0F0E0822FAF01022E23
:1003D00002C0440F551F0A94E2F746235723452BCA
:1003E00041F02F5F3F4F2C30310579F78FEF0895A3
:1003F00080E00895809188062091280690E0922B55
:10040000BC017F7080FF17C021E030E0E1E0F0E048
:10041000822FAF01022E02C0440F551F0A94E2F74B
:1004200046235723452B41F02F5F3F4F2C3031059A
:1004300079F78FEF089580E008958823F4F19BEF1A
:10044000980F9230E0F1853034F495E0981B9230AB
:1004500008F042C036C09AEF980F9230B0F531C024
:1004600062E023E030E090E080E0E1E0F0E0AF0126
:10047000022E02C0440F551F0A94E2F7842B9F5F9F
:1004800021503109961798F308958150482F50E074
:100490004B5F5F4F24E030E080E0E1E0F0E0BF013F
:1004A000022E02C0660F771F0A94E2F7862B2F5F99
:1004B0003F4F2417350799F7089580E0089588E1A4
:1004C000089585306CF282E0E0CF8550853008F0E9
:1004D00084E08111DACF089566E0681B653008F08A
:1004E00064E06111BECF80E00895CF935CDFC82F38
:1004F00081DFCC2324F48823C4F090E009C0C63007
:100500001CF09BEF9C0F02C095E09C1B882354F0CD
:1005100086301CF02BEF280F02C025E0281B921715
:1005200008F4C82F8C2F89DF01C080E0CF91089597
:1005300061DF88233CF0E82F880FFF0BE657FE4D64
:10054000808101C080E880939A212DDF88233CF0D0
:10055000E82F880FFF0BE657FE4D808101C080E831
:10056000EAE9F1E28183208190912620291304C0D9
:1005700090912720981771F08AE991E2ACD58823F1
:1005800049F0E6E2F0E2AAE9B1E28C9180831196AB
:100590008C9181830895A9DF8093BC2390912806D4
:1005A0009093BD239091BD2394FD07C0882331F023
:1005B0009FD18091BC23A2C10895BACF0895109213
:1005C000A7211092A4211092A5211092A22110928D
:1005D000A8211092A621EEEAF1E281E6808380E66E
:1005E0008183128213828FE584838EE58583168250
:1005F00017828DE5808711861286138614861586EC
:1006000089E586878BE58787108A118A8AE5828B40
:100610008CE5838BE9EAF1E28EE080838DE08183D3
:100620008BE0828387E083838FEF848308950F9329
:100630001F93CF93DF9390919F2120E030E015E04E
:1006400074E0E0EAF6E0A0E2B6E000E8622FE9013B
:10065000C755DE4D88818483243021F416960C938F
:10066000169703C015960C93159780858095807F0B
:10067000482F50E0EA0121974C235D23452B41F0A0
:100680009095982309F4982F492F4195942301C000
:10069000982F903251F018F49031D9F10AC090346B
:1006A000D1F1903831F473E037C0992311F0162F4F
:1006B00071E02F5F3F4F982F2530310539F6809339
:1006C0009F2180E8809325067430E0F4E12FF0E06C
:1006D000EE0FFF1FEE0FFF1FE255FE4DE70FF11D5E
:1006E00080819091A721911106C08093A62181E07D
:1006F0008093A72113C09091A621891779F0809348
:10070000A6210CC08091A721813041F41092A7212D
:1007100005C070E001C072E0162FCBCFDF91CF9102
:100720001F910F9108958091A72108958091280627
:100730008093BE238091A7218093A4218091A6213C
:100740008093A3218091BE2384FD29C08091A421A0
:10075000813009F054C08091A521811150C0E091F1
:10076000A3218E2F90E0FC01E955F109E930F10554
:1007700090F48827E250FF4F8F4F0C94111684E0BD
:1007800009C080E107C080E205C080E403C080E8C2
:1007900001C081E0BDD081E08093A22130C0909162
:1007A000A6218091A421813061F48091A52181113D
:1007B00008C090939E2181E08093A1219093A02175
:1007C0001EC08091A421813061F480919E219817F0
:1007D00041F090939E2181E08093A1219093A021EC
:1007E0000EC08091A42181110AC08091A521813081
:1007F00031F41092A12180919E218093A0218091BB
:10080000BE2384FF07C08091A221813019F470D0EB
:100810001092A2218091A4218093A521089582E0C5
:10082000B9CF88E0B7CFCF9302DF80DF8091A121DD
:10083000C1E0811101C0C0E0882381F08091A02136
:1008400090919D21911103C080939C2115C090919E
:100850009C21891789F080939C210EC080919D2155
:10086000882351F080919C21882321F0F1D480913C
:100870009C21B2D410929C21C0939D21CF910895C8
:10088000E3ECF1E220E030E090E0AC01022E02C0A7
:10089000559547950A94E2F740FD60832F5F3F4FDF
:1008A00031962830310589F7089580912806809384
:1008B000CB21BDDE8091CB2184FF0AC034DF8130A3
:1008C00049F013DE91E0811101C090E0892F03C04F
:1008D00081E001C081E081700895E0E0F6E08FEFF3
:1008E00081838583E0E2F6E080E481838683089556
:1008F0008FEF8093050660E0C3CF089580930606CE
:1009000061E0BECF08958093050660E0B9CF0895F9
:1009100080930706E3ECF1E220E030E0682F70E01E
:1009200081E0AB01022E02C0559547950A94E2F78B
:1009300040FF03C09081982790832F5F3F4F3196EF
:100940002830310571F70895E0E0F6E09FEF9583D8
:100950008683E3ECF1E220E030E090E0AC01022E8F
:1009600002C0559547950A94E2F7417041932F5F75
:100970003F4F2830310591F708958091CC21909117
:10098000CD2101968093CC219093CD218091280692
:1009900084FD0FC08091CC219091CD21843F914066
:1009A00078F080E4809327061092CC211092CD211C
:1009B000089580E4809326061092CC211092CD21D8
:1009C00008956F927F928F929F92AF92BF92CF9233
:1009D000DF92EF92FF920F931F93CF93DF93CDB7E8
:1009E000DEB72897CDBFDEBF98E0E2E8F1E2DE0196
:1009F000119601900D929A95E1F7833009F40CC19C
:100A000038F4813009F442C0823009F4A5C031C203
:100A1000843009F461C1853009F4BAC12AC2F801F1
:100A2000F1908F018F2D6ADFFFE028E982E0F1501D
:100A300020408040E1F700C000008F2D64DF35DFEB
:100A40008093C221A016B10609F4B9C18091C221D8
:100A5000882329F3B4C1F801F2908F018F2D4EDF66
:100A6000FFE028E982E0F15020408040E1F700C03B
:100A700000008F2D48DF19DF8093C2210C151D0562
:100A800061F08091C221882331F307C05E0199E0B3
:100A9000A90EB11CFE0131966F018091C221811116
:100AA00006C08091C221882309F4CEC188C120DF0D
:100AB000E0C1F80172908F01872D20DFF601F190DF
:100AC0006F018F2D1BDFFFE12FEB82E0F150204003
:100AD0008040E1F700C00000872D15DF8F2D13DF68
:100AE000A6DD21DE813011F4E092C221FEDC81110D
:100AF000E092C2210815190509F466C18091C2214E
:100B00008823B9F261C1F301D1903F018D2DF6DE4A
:100B1000F801F2908F018F2DF1DEFFE12FEB82E0E3
:100B2000F15020408040E1F700C000008D2DEBDE49
:100B30008F2DE9DE7CDDF7DD813011F4E092C221FA
:100B4000D4DC8111E092C2210A151B0571F080915D
:100B5000C2218823C1F209C0FE0131964F01EE2463
:100B6000E3945E01F5E0AF0EB11C8091C2218111CA
:100B70000AC08091C221811127C16E0125E0C20EF9
:100B8000D11C860196CFB4DE74C1F80182918F0129
:100B9000B5DEF70181917F01B1DEFFE227E585E057
:100BA000F15020408040E1F700C0000040DDBBDD97
:100BB000813011F49092C22198DC81119092C2216F
:100BC000A016B10609F40BC18091C2218823E9F275
:100BD00006C1F70181917F0196DEF80182918F01B4
:100BE00092DEFFE227E585E0F15020408040E1F70A
:100BF00000C000001CDD97DD813011F49092C2210D
:100C000074DC81119092C221C016D10671F08091DE
:100C1000C2218823F1F209C0FE0131965F019924B7
:100C200093946E01F5E0CF0ED11C8091C221811109
:100C30000AC08091C2218111D2C07E0125E0E20E5E
:100C4000F11C8701A2CF54DE14C1F80182918F01FB
:100C500055DEF70181917F0151DEFFE227E585E056
:100C6000F15020408040E1F700C00000E0DC5BDD97
:100C7000813011F4B092C22138DC8111B092C221CE
:100C80000C151D0509F4B6C08091C2218823E9F234
:100C9000B1C0F80182918F0136DEF70181917F01A9
:100CA00032DEFFE227E585E0F15020408040E1F7A9
:100CB00000C00000BCDC37DD813011F4B092C221ED
:100CC00014DC8111B092C221C016D10651F080917E
:100CD000C2218823F1F205C0FE0131966F01BB24C9
:100CE000B3948091C22181110AC08091C2218111E7
:100CF00081C07E01F5E0EF0EF11C8701A6CFF8DD83
:100D0000B8C0F70181917F01F9DDF80182918F016F
:100D1000F5DDFFE227E585E0F15020408040E1F776
:100D200000C0000084DCFFDC813011F4B092C221ED
:100D3000DCDB8111B092C2210C151D0509F464C0E1
:100D40008091C2218823E9F25FC0F70181917F0180
:100D5000DADDF80182918F01D6DDFFE227E585E03B
:100D6000F15020408040E1F700C0000060DCDBDC97
:100D7000813011F4B092C221B8DB8111B092C2214E
:100D80000C151D0559F08091C2218823F1F206C08F
:100D90006E0195E0C90ED11CBB24B3948091C22191
:100DA00081110BC08091C22181112EC0FE013196AC
:100DB0007F018E01075F1F4FA4CF9ADD5AC080913B
:100DC000C221882361F169CE8091C2218111CDCEEB
:100DD000CE0101963C018E01075F1F4F94CE80919A
:100DE000C221811122CFFE0131967F018E01075F62
:100DF0001F4FEFCE8091C221811173CF7E01F5E0AC
:100E0000EF0EF11C870145CF8091C2218111C6CF21
:100E1000CE0101967C018E01075F1F4F96CF18858A
:100E2000812F6CDD9FE0E8E9F2E09150E040F04076
:100E3000E1F700C00000812F66DD37DD8093C2211D
:100E40008E01085F1F4F1DCE1981812F57DD2FE0C6
:100E500088E992E0215080409040E1F700C0000016
:100E6000812F51DD22DD8093C2218E010E5F1F4F45
:100E7000EDCD2896CDBFDEBFDF91CF911F910F91B1
:100E8000FF90EF90DF90CF90BF90AF909F908F90AA
:100E90007F906F90089540CA089593CD08957BCBBD
:100EA0000895C1CC089550CD089567CD08950F934E
:100EB0001F93CF93DF93CDB7DEB72797CDBFDEBFAC
:100EC0008FEF809370008093710080937200809305
:100ED000730080937400809375008093760065E0C2
:100EE00081E490E07AD66CE170E082E06CD68A838F
:100EF0006DE170E082E067D6898389819A810196ED
:100F000021F480E493E289839A8389819A818B8397
:100F10009C83E0E6F0E082838C8183838FB78E83AD
:100F2000F8949E81E0E5F0E08081826080839FBF3D
:100F3000818181FFFDCF8FB78F83F8949F8100E57A
:100F400010E0D80116968C911697897F16968C938F
:100F50001697E0E6F0E080E885838BEB86831696B3
:100F60008C911697846016968C9380818160808323
:100F70009FBF61E080E490E030D68FB78D83F89416
:100F80009D81F80180818E7F80839FBF2796CDBF92
:100F9000DEBFDF91CF911F910F910895CF93DF9323
:100FA0001F92CDB7DEB79FB79983F8949981E82F48
:100FB000F0E0E059FF4F60958081682360839FBF18
:100FC0000F90DF91CF910895CF93DF931F921F92DF
:100FD000CDB7DEB7863011F060E001C068E18091E6
:100FE000510081FD2AC08FB78983F8949981E0E58B
:100FF000F0E08081826080839FBF818181FFFDCF8F
:101000008FB78A83F8949A81A0E5B0E016968C9108
:101010001697897F16968C931697E0E6F0E080E8A5
:1010200085838BEB868316968C9116978460169633
:101030008C938081816080839FBF636084E490E0B3
:10104000CCD560E480E0AADF0F900F90DF91CF91C4
:10105000089580E008953091C7232091C823822FFE
:1010600090E00397B1F4311116C08091CB23909199
:10107000CC23892B91F4E5ECF3E28EEC91E28087AE
:1010800091878FE498E0848795871286138681E0A4
:10109000089580E0089580E0089580E0089508951F
:1010A00081E08093D02108951092D4211092D22112
:1010B00081E08093D0210C94EA1508950C94EE15EC
:1010C00008952BE238E046EA50E262ED71E284EDE9
:1010D00091E2F2C00895FF920F931F93CF93DF9395
:1010E0001F92CDB7DEB79C018091D021882309F1F2
:1010F000F9018FB78983F894F9801092CE2110926C
:10110000CF21808191818093CE219093CF2100E5E2
:1011100018E022E030E04EEC51E260E082E80E940C
:10112000B11291E089278093D021FFBE8091D02118
:1011300089270F90DF91CF911F910F91FF90089514
:1011400080E0089580E008951092EA211092E8214D
:101150001092DE2188E0EFEDF1E2DF011D928A9529
:10116000E9F71092E7210C94E31508950C94E71524
:10117000089522EA38E048EC50E268EE71E28AEE27
:1011800091E29AC008950F931F938091DE218111FF
:1011900018C088E0EFEDF1E2A6EDB1E201900D920A
:1011A0008A95E1F71092E72105EE18E028E030E09B
:1011B00046ED51E260E081E80E94B1128093DE21A9
:1011C00001C080E01F910F9108951092DE2180915F
:1011D000E7218111D8CF08951F93CF93DF931F92FA
:1011E000CDB7DEB79FB79983F89419819091E1212B
:1011F000992341F08917A9F0E2EEF1E293E0219101
:10120000211102C01FBF1EC0281721F09F5F983018
:10121000B1F705C0983019F0973020F00CC01FBF0F
:1012200011C092E0E92FF0E0E152FE4D8181808310
:101230009F5F9730B9F71092E62181E08093E72114
:10124000A2DF1FBF81E00F90DF91CF911F91089522
:101250001F93CF93DF931F92CDB7DEB79FB79983CC
:10126000F89419819091E1219923B1F0891741F007
:10127000A2EEB1E2E3E09D91992349F0981303C0F7
:101280001FBF81E014C0EF5FE830A9F702C0E8306B
:1012900021F41FBF80E00BC0E2E0F0E0E152FE4D20
:1012A000808381E08093E7216EDF1FBF81E00F9094
:1012B000DF91CF911F910895CF93DF93DC01EA0175
:1012C0009091C52399230CF068C0907609F045C031
:1012D0008091C623863009F040C076D1DC011A9691
:1012E0002C911A97213209F077C02091C82330E061
:1012F00021323105B1F49C01275F3F4F2093CD236C
:101300003093CE23E5ECF3E219968C912681378158
:1013100090E02817390708F4C9018287938781E094
:1013200068C0FC01478550E04217530709F056C0DA
:10133000C093CD23D093CE23E5ECF3E22681378111
:10134000DC0150968D919C9151972817390708F42C
:10135000C9018287938781E04CC0903209F040C078
:101360008091C623823039F0833071F08130D1F51D
:10137000F90119953EC0E5ECF3E2A087B18781E061
:1013800090E08287938735C0E5ECF3E26087718750
:1013900081E090E0828793872CC09076903221F58F
:1013A0008091C6238A3039F08B3051F08930F1F4C6
:1013B000F90119951EC08091C8238C9381E019C052
:1013C0008091CB239091CC23892B91F48091C723DA
:1013D000DB018C9381E00DC080E00BC080E009C090
:1013E00080E007C080E005C080E003C080E001C06D
:1013F00080E0DF91CF910895E091F021F091F1210B
:101400000190F081E02D228133812E0F3F1FFC01DE
:101410004081E40FF11DE217F307A0F481818430CD
:10142000A1F0861306C014C081818430A1F0861714
:10143000A9F08081E80FF11DE217F307A8F380E01F
:1014400090E0089580E090E0089580E090E00895B5
:101450008E2F9F2F089580E090E008958E2F9F2F6C
:1014600008958091C7238F7795C708959091F221B1
:10147000992381F1E091F021F091F1210190F08127
:10148000E02D9481891740F5E093EE21F093EF2150
:10149000228133812E0F3F1FE217F307F8F4918169
:1014A000943061F49281891309C09381961306C028
:1014B000E093EE21F093EF2181E008959081E90F10
:1014C000F11DE217F30758F3E093EE21F093EF21BB
:1014D00080E0089580E0089580E0089580E0089518
:1014E000EF92FF921F93CF93DF93C82F60E0BEDF90
:1014F000182F882381F1A091F021B091F121EC2FD8
:10150000F0E0EE0FFF1F12968D919C911397E80F5C
:10151000F91FE080F180D7011696ED91FC911797A5
:101520001995682F8C2FA2DF182F8823A1F0C09166
:10153000EE21D091EF2165E0CE015EDFEC01892B39
:1015400021F08A810E94CA13F6CFD7011296ED913D
:10155000FC9113971995812FDF91CF911F91FF90E7
:10156000EF9008951F93CF93DF93182F7FDF882389
:1015700039F1C091EE21D091EF2165E0CE013CDF41
:10158000EC01892B41F04C815D816B818A810FD701
:101590008111F3CF15C0A091F021B091F121E12F7D
:1015A000F0E0EE0FFF1F12968D919C911397E80FBC
:1015B000F91F0190F081E02D0190F081E02D199547
:1015C000DF91CF911F9108958091EE219091EF21AD
:1015D000089555C60895CF938091F2218823C1F0D4
:1015E000E091F021F091F1210190F081E02D8481D2
:1015F000882371F0C0E08C2F73DFCF5FE091F02182
:10160000F091F1210190F081E02D8481C81798F3C9
:101610001092F2218091F62181FD0E94E215109234
:10162000F6211092F721CF910895CF938091F22166
:10163000882349F1A091F021B091F121ED91FC9125
:10164000119784818823F9F0C0E0EC2FF0E0EE0FD1
:10165000FF1F12968D919C911397E80FF91F01902F
:10166000F081E02D0084F185E02D309709F0199587
:10167000CF5FA091F021B091F121ED91FC911197F4
:101680008481C81710F3CF9108950F931F93CF93C0
:10169000DF93E5ECF3E21286138614861586168630
:1016A0001786808188230CF07EC22091CB23309155
:1016B000CC232115310509F07BC26DC28F7109F071
:1016C000A0C09091C623963079F0983009F48FC06D
:1016D000911197C02230310509F019C262E070E023
:1016E00086EF91E25DD669C28091C7239091C823AD
:1016F000292F332722303105A9F020F4213031057C
:1017000041F0C7C123303105D9F12F30310551F1F6
:10171000C0C18091282090912920DC016C9170E05B
:101720003FD656C0E0912820F091292021898217C8
:1017300008F0EDC19927880F991F880F991FE09134
:101740002A20F0912B20E80FF91F80819181FC0164
:101750006281738125D6E091CD23F091CE2382E082
:10176000818336C080912C2090912D20009709F420
:10177000CEC1DC0112966D917C91139711D628C0D1
:1017800099278130910571F038F0029709F08AC1EC
:10179000E2E5F1E231E209C064E070E08EE791E257
:1017A000FFD516C0E4E7F1E239E0A0E1B1E220E0C4
:1017B000819190E08D939D932F5F2317C8F3632F42
:1017C000660F6E5F60930E2170E08EE091E2E8D5C7
:1017D000E5ECF3E2868197812285338582179307B2
:1017E00008F0EBC18093CF239093D023E6C1213042
:1017F000310509F08CC161E070E082EF91E2D0D553
:10180000DCC18130E1F59091C6239A30C1F52130D9
:10181000310509F04CC18091F221882309F447C1B8
:10182000C091C923D091CA230091F0211091F121D8
:10183000D801ED91FC918481C81708F038C160E0AF
:101840008C2F14DE882309F42DC1CE019927880F2F
:10185000991FD8011296ED91FC911397E80FF91F8B
:101860000190F081E02D86819781FC01199580938C
:10187000F42161E070E084EF91E292D59EC1823064
:1018800009F010C18091C623811105C122303105B4
:1018900009F03DC18091C92312D690E08093EC21DC
:1018A0009093ED2162E070E08CEE91E279D585C1F4
:1018B0008F7109F09FC09091C623933091F118F475
:1018C0009130A9F097C0953021F0993009F443C0C8
:1018D00091C08091CB239091CC23892B09F017C123
:1018E00081E39AE08093D1239093D22366C18091C3
:1018F000CB239091CC23892B09F009C18091C72378
:101900009091C823019709F002C18091F62190912E
:10191000F7218D7F8093F6219093F7210E94E215A5
:101920004CC18091CB239091CC23892B09F0EFC03F
:101930008091C7239091C823019709F0AEC0809190
:10194000F6219091F72182608093F6219093F72100
:101950000E94E11532C18091CB239091CC23892B39
:1019600009F0D5C01AD5882309F49CC02091C7235B
:101970003091C8233327E0912820F09129208189D4
:1019800090E08217930708F48DC025DE8091C7236D
:101990009091C8238093F221882309F40EC19927DE
:1019A0008150904C880F991F880F991FE0912A2031
:1019B000F0912B20E80FF91FE093F021F093F12133
:1019C0000190F081E02D8481882309F4F6C0C0E005
:1019D00060E08C2FC7DD882309F464C0CF5FE091FD
:1019E000F021F091F1210190F081E02D8481C81760
:1019F00078F3E3C08130E9F49091C6239B30C9F4B9
:101A00008091CB239091CC23892B09F050C08091F9
:101A1000F221882309F44BC0E5ECF3E2C481D281C2
:101A20008C2F5EDD882309F43DC06D2F8C2F9ADD4D
:101A300037C08230B9F58091C623813019F08330E8
:101A400099F02DC08091CB239091CC23892B09F064
:101A50005EC08091C7239091C823892B09F057C09D
:101A60008091C92347D51CC08091CB239091CC2372
:101A7000892B09F04CC08091C7239091C823892BF2
:101A800009F045C0C5ECD3E28C8135D68C819ED659
:101A900007C080E005C080E003C080E001C080E0B6
:101AA00081118CC08091C5238F71813081F5809127
:101AB000F221882309F471C00091C9231091CA232F
:101AC000C091F021D091F121E881F981848108173A
:101AD00008F065C060E0802FC9DC8823C1F0F80100
:101AE000FF27CF01880F991FEA81FB81E80FF91FBB
:101AF000C081D181EE81FF811995682F802FB6DCDE
:101B0000882329F0EC81FD811995811157C08091BE
:101B1000C5238F71823009F044C08091F22188235F
:101B2000B1F1A091F021B091F121ED91FC911197CB
:101B30008481882371F1C0E0EC2FF0E0EE0FFF1FED
:101B400012968D919C911397E80FF91F00811181D6
:101B5000D8011696ED91FC9117971995682F8C2F47
:101B600085DC882359F1D8011496ED91FC911597E5
:101B70001995811123C0CF5FA091F021B091F1217F
:101B8000ED91FC9111979481C917B0F217C080E0D4
:101B900015C080E013C080E011C080E00FC080E07D
:101BA0000DC080E00BC0982F907609F07BCF80CEDF
:101BB000982F907609F076CF81CD81E0DF91CF919B
:101BC0001F910F9108954091CA01E62FF72F80933E
:101BD000CA0184914093CA0108951BBEFC0128EDFF
:101BE00024BF60830895CF93DF931F921F92CDB7D8
:101BF000DEB7811126C09091B8239923F9F0909116
:101C0000C023911101C0FFCF9FB79A83F8942A8116
:101C1000EFEBF3E29181915091832FBF0FC0909130
:101C2000C0239F3F09F4FFCF9FB79983F894298180
:101C3000EFEBF3E291819F5F91832FBF8093B823F5
:101C400005C09091B823992351F3F8CF0F900F90CE
:101C5000DF91CF9108950F93E8ECF4E080818F7DC0
:101C6000808380818F7D8083ECE6F3E202E0059340
:101C700010926E2310926F2300E2069300E4069305
:101C8000E4E6F3E200E40693E5ECF3E2148615865D
:101C9000168617861286138610924D230F9108958B
:101CA0000F9385E080934D23EDE6F3E204E0059386
:101CB000E5E6F3E204E005930F9108950F9383E0C6
:101CC00080934D2310926E2310926F23ECE6F3E283
:101CD00002E006930F910895E091D123F091D22371
:101CE000309709F0199508950F93CF93DF93809162
:101CF0004D23833019F4F0DFAEDF5EC080914923BD
:101D000090914A23C091CF23D091D023C81BD90BE7
:101D100071F520914B2330914C23820F931F8093B8
:101D20004B2390934C232091CB233091CC238217CB
:101D3000930721F08091F821882341F084E080937B
:101D40004D23E4E6F3E202E0069336C0E091D323AC
:101D5000F091D423309799F01995882381F010924F
:101D6000492310924A23C091CF23D091D023C83069
:101D7000D10528F01092F821C8E0D0E003C081E03E
:101D80008093F821E0E5F3E2C68FD78F8091492355
:101D900090914A232091CD233091CE23280F391FD3
:101DA00020A331A3C80FD91FC0934923D0934A233E
:101DB000ECE6F3E202E00693DF91CF910F910895F4
:101DC000FC018181E82FE7708E2F90E0FC013197B4
:101DD000E730F105D0F48827E95FFE4F8F4F21C728
:101DE00080E190E0089580E290E0089580E490E042
:101DF000089580E890E0089580E091E0089580E003
:101E000092E008958FEF93E0089588E090E00895C0
:101E1000282F2F7030E0220F331F082E000C990B53
:101E20008827990F881F9927820F931F02979C017B
:101E3000220F331F220F331F220F331F820F931FD6
:101E400087509D4D08950F93CF938091CC0480FFD0
:101E500064C081E08093CC04E4E6F3E200E80693FA
:101E6000ECE6F3E200E806938093CA04E4E6F3E2CA
:101E700000E1069380914D23882329F0835082301E
:101E800008F42ADFE8DE80916623909167230897A3
:101E900009F045C088E0E1E4F3E2A5ECB3E201908B
:101EA0000D928A95E1F7E8ECF4E08081806280830E
:101EB000808180628083E9DBC82F811103C0F0DE5E
:101EC000C1E02EC08091C52388236CF410924B236F
:101ED00010924C231092492310924A2382E080935F
:101EE0004D2302DF1DC08091CB239091CC23892B01
:101EF00011F4E4DE15C010924B2310924C23109283
:101F0000492310924A2381E080934D23E4E6F3E2D3
:101F100002E0069300E2069303C0C0E001C0C1E006
:101F20008C2FCF910F9108958F929F92AF92BF9275
:101F3000DF92EF92FF920F931F93CF93DF93D82EF0
:101F400067DF8C01CD2DCF70D0E0CE01880F991FB7
:101F5000CD2D0D2C000CDD0BCC27DD0FCC1FDD278C
:101F6000C80FD91FCE01880F991F880F991F880F9E
:101F7000991F9C012C593C4D7901C90121DF4C016D
:101F8000DD200CF079C0FE01EE0FFF1FEE0FFF1FEA
:101F9000EE0FFF1FE05BFC4D228D338DD8011596AF
:101FA0008D919C911697820F931F15968D939C93FC
:101FB000169713962D913C9114978217930709F465
:101FC00045C0281B390B2115B4E03B0738F02FEF33
:101FD00033E0C901B40111D6281B390BF801808107
:101FE00081FF09C0C901B40108D641E0892B09F07D
:101FF00040E0842F01C080E0D8019C9180FB91F9E2
:102000009C93FE01EE0FFF1FEE0FFF1FEE0FFF1F51
:10201000E05BFC4D128E138E268B378B11962D9123
:102020003C91129715968D919C911697820F931F54
:10203000CC0FDD1FCC0FDD1FCC0FDD1FC859DC4DD1
:1020400088839983F70102E00693E0C0D8018C9160
:1020500081FFC9C08D7F8C93CC0FDD1FCC0FDD1F9E
:10206000CC0FDD1FC05BDC4D1A8E1B8E1E8A1F8AB3
:10207000F70102E00693CAC0FE01EE0FFF1FEE0F4C
:10208000FF1FEE0FFF1FE05BFC4DA688B788D8014D
:102090008C9182FF19C01196ED91FC9112971596C3
:1020A0002D913C91169713968D919C911497B401A4
:1020B000A4D5B0E4DB9EB001112467547E4DAC0181
:1020C000CF01820F931FB5D5F801258136812A0DE6
:1020D0003B1D25833683838194818217930768F49F
:1020E00085839683CC0FDD1FCC0FDD1FCC0FDD1F4A
:1020F000C05BDC4D8A8D9B8D76C0FE01EE0FFF1F0D
:10210000EE0FFF1FEE0FFF1FE05BFC4D428D538D66
:10211000A416B50609F067C02817390709F463C08B
:10212000AC01421B530B9A01211554E0350740F0D6
:102130002FEF33E0C901B40160D5281B390B05C06E
:10214000C901B4015AD5281B390BFE01EE0FFF1F40
:10215000EE0FFF1FEE0FFF1FE05BFC4D168A178A84
:102160002815390500F5D8018C9184608C93B0E472
:10217000DB9EC001112487549E4DFE01EE0FFF1F10
:10218000EE0FFF1FEE0FFF1FE859FC4D8083918378
:10219000CC0FDD1FCC0FDD1FCC0FDD1FC05BDC4D76
:1021A0008A8E9B8E1CC0F801418152818581968167
:1021B000840F951FFE01EE0FFF1FEE0FFF1FEE0FA6
:1021C000FF1FE859FC4D80839183CC0FDD1FCC0F9E
:1021D000DD1FCC0FDD1FC05BDC4D2A8F3B8FF7016D
:1021E00002E0069313C0D8018C9180FF0FC08E7F50
:1021F0008C931796ED91FC911897309739F01596BE
:102200006D917C9116974D2D80E01995DF91CF91BE
:102210001F910F91FF90EF90DF90BF90AF909F9034
:102220008F9008951F93CF93DF931F92CDB7DEB7A2
:102230008FB78983F894198181E0D5DCEAECF4E06A
:1022400080E4808380E28083E1ECF4E0808181603F
:102250008083A9ECB4E08C9182608C93E8ECF4E08C
:102260008081806480838C9181608C938081806880
:1022700080831FBF0F90DF91CF911F9108950F931F
:102280001F93CF93DF931F921F92CDB7DEB700E667
:1022900010E0F801108280E30E94E407E0ECF4E033
:1022A00080818064808381E0F80180838FB78A8396
:1022B000F8941A8180E090E0FC01EE0FFF1FEE0F12
:1022C000FF1FEE0FFF1FE05BFC4D158A01968A3061
:1022D000910591F780E090E0FC01EE0FFF1FEE0FFB
:1022E000FF1FEE0FFF1FE80FF91FE750FD4D208184
:1022F0002E7F208301968830910571F76AE170E0A6
:1023000082E061DC8F3F19F08093FA0403C08FE113
:102310008093FA046BE170E082E055DC8F3F19F0A6
:102320008093FB0403C08FE18093FB04E0ECF4E0B6
:1023300080818460808380818068808380818061E7
:10234000808384E693E286839783808180628083A2
:102350008FEF8093C504E8ECF4E080818160808396
:102360001092B8238091C4238F3F09F4FFCF8FB719
:102370008983F8949981EFEBF3E285818F5F858300
:102380009FBF50DF1FBF0F900F90DF91CF911F9124
:102390000F9108958093C30408958091C304089514
:1023A000E5ECF3E280879187628773870895282F91
:1023B0002F7030E0220F331F082E000C990B882756
:1023C000990F881F9927820F931FFC01EE0FFF1FA3
:1023D000EE0FFF1FEE0FFF1FE05BFC4D2589207CF9
:1023E00009F069C06370613011F018F404C060EC4A
:1023F00003C060E801C060E440385105E9F050F4E2
:1024000040325105A9F040345105A1F04031510549
:10241000D9F40CC0411522E0520791F04F3F23E060
:10242000520781F04115514079F408C021E00DC0F8
:1024300022E00BC023E009C024E007C025E005C06E
:1024400026E003C027E001C020E0FC01EE0FFF1FE3
:10245000EE0FFF1FEE0FFF1FE05BFC4D158A36E00D
:10246000348B262B258BFC01EE0FFF1FEE0FFF1F79
:10247000EE0FFF1FE05BFC4D2589207C203C69F4BA
:10248000FC01EE0FFF1FEE0FFF1FEE0FFF1FE05BC3
:10249000FC4D25892770273081F0880F991F880F00
:1024A000991F880F991FFC01E05BFC4D85898062B4
:1024B000858B81E0089580E0089581E00895E82FFC
:1024C000EF70F0E0EE0FFF1F082E000C990B88272D
:1024D000990F881F9927E80FF91FEE0FFF1FEE0FC6
:1024E000FF1FEE0FFF1FE05BFC4D858982FB8827F5
:1024F00080F908950F93282F2F7030E0A901440F21
:10250000551F282F082E000C330B2227330F221FB4
:102510003327240F351FA901440F551F440F551FA2
:10252000440F551FFA01EC59FC4D01E00693FA01E6
:10253000E05BFC4D958992FF11C0FA01E05BFC4D18
:1025400095899B7F958B64DCFC01808180FF06C0B0
:102550008E7F80830780F085E02D199581E00F91B3
:1025600008956F927F928F929F92AF92BF92CF9277
:10257000DF92EF92FF920F931F93CF93DF931F92FF
:10258000CDB7DEB7782E662E4A01590141DC6C01C9
:10259000272D872D8F70E82EF12CC701880F991FEA
:1025A000E72C072C000CFF08EE24FF0CEE1CFF2488
:1025B000E80EF91EF701EE0FFF1FEE0FFF1FEE0FE3
:1025C000FF1FE05BFC4D8589807C09F481C0F70129
:1025D000EE0FFF1FEE0FFF1FEE0FFF1FE05BFC4D26
:1025E0008589807C803C61F0F701EE0FFF1FEE0FC4
:1025F000FF1FEE0FFF1FE05BFC4D858982FD6AC067
:102600008FB78983F8948981F601908190FF03C088
:102610008FBF80E060C0F6019081916090838FBF92
:1026200081829282A382B4821582168207831087E8
:10263000611006C091E0A114B10419F090E001C04E
:1026400091E0F601808190FB81F98B7F80832223CA
:1026500064F4F701EE0FFF1FEE0FFF1FEE0FFF1FD9
:10266000E05BFC4D128E138E2FC0F701EE0FFF1FA3
:10267000EE0FFF1FEE0FFF1FE05BFC4D8589807C96
:10268000803CA9F4C701880F991F880F991F880FF4
:10269000991F8C599C4D94DBBC01C501AED2892B8E
:1026A00031F0F60180818E7F808380E014C0F701D5
:1026B000EE0FFF1FEE0FFF1FEE0FFF1FE05BFC4D45
:1026C000168A178A128E138E872D2EDC81E003C0A6
:1026D00080E001C080E00F90DF91CF911F910F91BA
:1026E000FF90EF90DF90CF90BF90AF909F908F9032
:1026F0007F906F900895FF920F931F93CF93DF9376
:10270000182FC82FCF70D0E0CE01880F991FC12F8E
:10271000012E000CDD0BCC27DD0FCC1FDD27C80FF1
:10272000D91F812F75DBDC01FE01EE0FFF1FEE0FBD
:10273000FF1FEE0FFF1FEC59FC4D02E005938C913B
:1027400080FF22C08E7F8C931796ED91FC91189795
:102750003097D1F011235CF4CC0FDD1FCC0FDD1FBF
:10276000CC0FDD1FC05BDC4D6A8D7B8D0AC0CC0FAA
:10277000DD1FCC0FDD1FCC0FDD1FC05BDC4D6E8974
:102780007F89412F81E01995DF91CF911F910F91A2
:10279000FF900895CF93C82FAEDFEC2FEF70F0E0DD
:1027A000EE0FFF1F8C2FCC0F990B8827990F881FD6
:1027B0009927E80FF91FEE0FFF1FEE0FFF1FEE0F17
:1027C000FF1FE05BFC4D158ACF910895E82FEF7055
:1027D000F0E0EE0FFF1F282F082E000C330B2227EE
:1027E000330F221F3327E20FF31FEE0FFF1FEE0FF1
:1027F000FF1FEE0FFF1FE05BFC4D95899460958BEA
:102800007ADF81E008951F920F920FB60F92112484
:102810000BB60F920F932F933F934F935F936F934A
:102820007F938F939F93AF93BF93CF93EF93FF9338
:102830008091CB0488233CF480E88093CA040E94F2
:10284000150BB0D189C08091CB0482FF20C084E0F9
:102850008093CA0480916C2386FF7EC08091CC0453
:1028600081FD7AC0F0DA811177C080914D238130EB
:1028700011F424DA71C0843009F06EC0EDE6F3E2A1
:1028800004E00593E5E6F3E204E0059365C080917A
:10289000CB0481FF5CC082E08093CA0480916423F2
:1028A00086FF5AC08091CC0481FD56C0CCDA8111DC
:1028B00053C080914D23823041F484E080934D23B6
:1028C000E4E6F3E202E0069347C0833009F044C037
:1028D000EDE6F3E204E00593E5E6F3E204E00593B8
:1028E0003BC080E18093CA04C1E08C2F04DF8C2FB1
:1028F000806801DFCF5FC530C1F70E94EB0A1092FC
:10290000C304E0E5F3E2158A96E0948B80E4858BBE
:10291000158E948F858F81E493E2808F918F9BD960
:102920001BC08091CB0486FF07C080E48093CA045B
:1029300080E059D935D110C08091CB0485FF0CC0FF
:1029400080E28093CA0481E04ED92BD105C08091EA
:10295000CB0484FDC6CFE5CFFF91EF91CF91BF911E
:10296000AF919F918F917F916F915F914F913F9127
:102970002F910F910F900BBE0F900FBE0F901F90D5
:1029800018951F920F920FB60F9211240BB60F924B
:102990000F931F932F933F934F935F936F937F9367
:1029A0008F939F93AF93BF93CF93DF93EF93FF9357
:1029B0008091CC0481FD03C046DA8111C3C082E05E
:1029C0008093CC048091C5048195880FE4E6F3E2FE
:1029D000E81BF10920813181245633423695279531
:1029E0003695279536952795822F869520FD02C02E
:1029F00090E001C090E8890FE82FEF70F0E0EE0F53
:102A0000FF1F282F082E000C330B2227330F221F05
:102A10003327E20FF31FDF01AA0FBB1FAA0FBB1F53
:102A2000AA0FBB1FA05BBC4D54969C9195FF8AC01A
:102A3000EE0FFF1FEE0FFF1FEE0FFF1FEC59FC4DB7
:102A400000E20693811179C080914D23843019F4FE
:102A500043D901D977C000916623109167238091F3
:102A6000CF239091D023C0914923D0914A2398013C
:102A70002C0F3D1F8217930718F48C010C1B1D0BA4
:102A80008091CD239091CE23A80161E473E28C0F55
:102A90009D1FCFD0C00FD11FC0934923D0934A238D
:102AA0000830110569F480914B2390914C238C0FD1
:102AB0009D1F2091CB233091CC238217930780F068
:102AC000E5ECF3E2C287D3870684F785E02D3097E3
:102AD00029F01995811102C0E3D834C0EFD832C073
:102AE0008091CF239091D023C817D907F9F4E091B2
:102AF000D323F091D423309711F4D2D823C0199561
:102B0000811102C0CDD81EC020914B2330914C239F
:102B10008091492390914A23820F931F80934B23E6
:102B200090934C231092492310924A23E4E6F3E257
:102B300002E0069300E2069305C0803811F4D4D871
:102B400001C0F2D9FF91EF91DF91CF91BF91AF9189
:102B50009F918F917F916F915F914F913F912F91B5
:102B60001F910F910F900BBE0F900FBE0F901F90F3
:102B7000189587E08093A2007894EFEBF3E210823F
:102B8000118212821382148281E085830E9457078A
:102B90000E944B070E94E90A81E00E944D07FFCF87
:102BA000089508958091BB23882351F00E94510716
:102BB0008091BA23882321F00E944F070C94550777
:102BC00008950895089581E08093BB23089510929D
:102BD000BB23089581E08093BA2308951092BA230D
:102BE000089581E08093B92308951092B923089540
:102BF000FC0180810C9453070895AA1BBB1B51E173
:102C000007C0AA1FBB1FA617B70710F0A61BB70B5C
:102C1000881F991F5A95A9F780959095BC01CD0101
:102C20000895EE0FFF1F881F8BBF0790F691E02DD0
:102C30001994FB01DC0102C001900D9241505040FB
:082C4000D8F70895F894FFCFC6
:102C48000600FF0901A101950875011901290881EC
:102C58000295087501190129089102C067017F01D1
:102C6800820130010000808094202E20000038204E
:102C780032200321BE201C2009025B00030100A0B2
:102C880032090400000103000000092111010001BC
:102C9800223B000705810308000209040100010323
:102CA8000000000921110100012218000705820314
:102CB80008000409040200020300000009211101B0
:102CC8000001221C0007058403080004070503030C
:102CD800080004001201000200000008EB03332181
:102CE80000010102000105010904A10105010930E3
:102CF8000931150026FF00750895028102C05408A5
:102D08005E0861082908000005010906A1010507F8
:102D180019E029E71500250175019508810281014F
:102D280019002965150025657508950681000508AF
:102D380019012905150025017501950591029503CD
:102D48009101C0A408B608B908A008000000000353
:102D5800000000000000000000000000000000006B
:102D6800000000000000000000000000000000005B
:102D7800000000000000000000000000000000004B
:102D8800000000000000000000000000000000003B
:102D98000000436F6D706F73697465204849442063
:102DA8004B6579626F617264202B204A6F79737466
:102DB80069636B0041544D454C2041534600040360
:102DC8000904010204081020408000172E455C7495
:062DD8008BA2B9D0E7FF59
:00000001FF
