:100000000DC100002CC100002AC1000028C1000061
:1000100026C1000024C1000022C1000020C1000050
:100020001EC100001CC100001AC1000018C1000060
:1000300016C1000014C1000012C1000010C1000070
:100040000EC100000CC100000AC1000008C1000080
:1000500006C1000004C1000002C1000000C1000090
:10006000FEC00000FCC00000FAC00000F8C00000A4
:10007000F6C00000F4C00000F2C00000F0C00000B4
:10008000EEC00000ECC00000EAC00000E8C00000C4
:10009000E6C00000E4C00000E2C00000E0C00000D4
:1000A000DEC00000DCC00000DAC00000D8C00000E4
:1000B000D6C00000D4C00000D2C00000D0C00000F4
:1000C000CEC00000CCC00000CAC00000C8C0000004
:1000D000C6C00000C4C00000C2C00000C0C0000014
:1000E000BEC00000BCC00000BAC00000B8C0000024
:1000F000B6C00000B4C00000B2C00000B0C0000034
:10010000AEC00000ACC00000AAC00000A8C0000043
:10011000A6C00000A4C00000A2C00000A0C0000053
:100120009EC000009CC000009AC0000098C0000063
:1001300096C0000094C0000092C0000090C0000073
:100140008EC000008CC000008AC0000088C0000083
:1001500086C0000084C0000082C0000080C0000093
:100160007EC000007CC000007AC0000078C00000A3
:1001700076C0000074C0000072C0000070C00000B3
:100180006EC000006CC000006AC0000068C00000C3
:1001900066C0000064C0000062C0000060C00000D3
:1001A0005EC000005CC000005AC0000058C00000E3
:1001B00056C0000054C0000052C0000050C00000F3
:1001C0004EC000004CC000004AC0000048C0000003
:1001D00046C0000044C0000042C0000040C0000013
:1001E0003EC000003CC000003AC0000038C0000023
:1001F00036C000000C9485130C944314C9030F04FB
:10020000BF031104C103C303C503C703C903720EAF
:10021000750E780E7B0E7E0E810E840E11241FBE8D
:10022000CFEFCDBFDFE5DEBF00E00CBF11E2A0E005
:10023000B0E2ECE4FBE200E00BBF02C007900D92DD
:10024000A839B107D9F723E2A8E9B1E201C01D92AC
:10025000AD3CB207E1F70E943B150C94A415D0CE3B
:1002600080E008953091BF232091C023822F90E039
:100270000297C1F4311118C08091C3239091C42317
:100280000197A1F4EDEBF3E288E991E28087918791
:1002900081E090E08287938784E791E08487958767
:1002A00081E0089580E0089580E0089580E0089559
:1002B0000F931F9304E711E021E030E048E951E299
:1002C00060E083E00E9433121F910F910895CF9355
:1002D00010929A2110929821EBDFC82F81110E9471
:1002E00073158C2FCF910895811107C0613071056E
:1002F00021F488E991E20E947A15DACF08950C94EE
:100300007715089522E331E040E050E268E971E2B8
:100310008AE991E253C70895E0E0F6E09FEF918308
:100320009583E0E2F6E03FE3328388E1808B818BC6
:10033000828B838B848B858B20EC218340E44583E7
:1003400040E84583E0E4F6E04CEF4283828B838B08
:10035000848B858B868B878B43E041834583E0E6E6
:10036000F6E03283808B818B828B838B848B858BB1
:1003700021832683E0E8F6E09283808B818B828B59
:10038000838B848B858B868B878BE0EAF6E090EFFE
:100390009283848B858B868B878B8FE0818385838B
:1003A0006FD20DC10895809148062091680690E0B3
:1003B000922B9695879596958795BC017F7080FFC7
:1003C00017C021E030E0E1E0F0E0822FAF01022E23
:1003D00002C0440F551F0A94E2F746235723452BCA
:1003E00041F02F5F3F4F2C30310579F78FEF0895A3
:1003F00080E00895809188062091280690E0922B55
:10040000BC017F7080FF17C021E030E0E1E0F0E048
:10041000822FAF01022E02C0440F551F0A94E2F74B
:1004200046235723452B41F02F5F3F4F2C3031059A
:1004300079F78FEF089580E008958823F4F19BEF1A
:10044000980F9230E0F1853034F495E0981B9230AB
:1004500008F042C036C09AEF980F9230B0F531C024
:1004600062E023E030E090E080E0E1E0F0E0AF0126
:10047000022E02C0440F551F0A94E2F7842B9F5F9F
:1004800021503109961798F308958150482F50E074
:100490004B5F5F4F24E030E080E0E1E0F0E0BF013F
:1004A000022E02C0660F771F0A94E2F7862B2F5F99
:1004B0003F4F2417350799F7089580E0089588E1A4
:1004C000089585306CF282E0E0CF8550853008F0E9
:1004D00084E08111DACF089566E0681B653008F08A
:1004E00064E06111BECF80E00895CF935CDFC82F38
:1004F00081DFCC2324F48823C4F090E009C0C63007
:100500001CF09BEF9C0F02C095E09C1B882354F0CD
:1005100086301CF02BEF280F02C025E0281B921715
:1005200008F4C82F8C2F89DF01C080E0CF91089597
:1005300061DF88233CF0E82F880FFF0BE457FE4D66
:10054000808101C080E880939C212DDF88233CF0CE
:10055000E82F880FFF0BE457FE4D808101C080E833
:10056000ECE9F1E28183208190912620291304C0D7
:1005700090912720981771F08CE991E22ED588236D
:1005800049F0E6E2F0E2ACE9B1E28C9180831196A9
:100590008C9181830895A9DF8093B42390912806DC
:1005A0009093B5239091B52394FD07C0882331F033
:1005B00072D18091B42373C10895BACF0895109277
:1005C000A9211092A6211092A7211092A421109285
:1005D000AA211092A821E0EBF1E281E6808380E677
:1005E0008183128213828FE584838EE58583168250
:1005F00017828DE5808711861286138614861586EC
:1006000089E586878BE58787108A118A8AE5828B40
:100610008CE5838BEBEAF1E28EE080838DE08183D1
:100620008BE0828387E083838FEF848308950F9329
:100630001F93CF93DF939091A12120E030E015E04C
:1006400074E0E0EAF6E0A0E2B6E000E8622FE9013B
:10065000C555DE4D88818483243021F416960C9391
:10066000169703C015960C93159780858095807F0B
:10067000482F50E0EA0121974C235D23452B41F0A0
:100680009095982309F4982F492F4195942301C000
:10069000982F903251F018F49031D9F10AC090346B
:1006A000D1F1903831F473E037C0992311F0162F4F
:1006B00071E02F5F3F4F982F2530310539F6809339
:1006C000A12180E8809325067430E0F4E12FF0E06A
:1006D000EE0FFF1FEE0FFF1FE055FE4DE70FF11D60
:1006E00080819091A921911106C08093A82181E079
:1006F0008093A92113C09091A821891779F0809344
:10070000A8210CC08091A921813041F41092A92127
:1007100005C070E001C072E0162FCBCFDF91CF9102
:100720001F910F9108958091A92108958091280625
:100730008093B6238091A9218093A6218091A8213E
:100740008093A5218091B62384FD29C08091A621A4
:10075000813009F054C08091A721811150C0E091EF
:10076000A5218E2F90E0FC01E955F109E930F10552
:1007700090F48827E250FF4F8F4F0C94931584E03C
:1007800009C080E107C080E205C080E403C080E8C2
:1007900001C081E087D081E08093A42130C0909196
:1007A000A8218091A621813061F48091A721811137
:1007B00008C09093A02181E08093A3219093A2216F
:1007C0001EC08091A621813061F48091A0219817EC
:1007D00041F09093A02181E08093A3219093A221E6
:1007E0000EC08091A62181110AC08091A72181307D
:1007F00031F41092A3218091A0218093A2218091B5
:10080000B62384FF07C08091A421813019F443D01E
:100810001092A4218091A6218093A721089582E0BF
:10082000B9CF88E0B7CFCF9302DF80DF8091A321DB
:10083000C1E0811101C0C0E0882381F08091A22134
:1008400090919F21911103C080939E2115C090919A
:100850009E21891789F080939E210EC080919F214F
:10086000882351F080919E21882321F073D48091B8
:100870009E2134D410929E21C0939F21CF91089540
:10088000E0E0F6E08FEF81838583E0E2F6E080E44C
:100890008183868308958FEF809305060895809362
:1008A00006060895809307060895E0E0F6E09FEFBE
:1008B0009583868308958091C4219091C5210196E6
:1008C0008093C4219093C5218091280684FD0FC098
:1008D0008091C4219091C521843F914078F080E4BB
:1008E000809327061092C4211092C521089580E4B8
:1008F000809326061092C4211092C52108957F92FC
:100900008F929F92AF92BF92CF92DF92EF92FF921F
:100910000F931F93CF93DF93CDB7DEB72997CDBF4A
:10092000DEBF98E0E4E8F1E2DE01119601900D925D
:100930009A95E1F71986833009F414C138F48130AF
:1009400009F44AC0823009F4ACC016C2843009F4FC
:1009500069C1853009F4C2C10FC2F70181917F01DD
:10096000F8018683FFE028E932E0F1502040304072
:10097000E1F700C00000F801858359DED4DE813044
:1009800009F49986B2DD81119986AE14BF0409F489
:10099000BFC18985882309F3BBC1F70182917F011B
:1009A000F8018683FFE028E932E0F1502040304032
:1009B000E1F700C00000F801858339DEB4DE813044
:1009C00009F4998692DD81119986EC14FD0481F079
:1009D0008985882311F30CC05E01F9E0AF0EB11CCC
:1009E00000E016E0992493949E012F5F3F4F690128
:1009F0008985811107C0898581118AC1CE0101963F
:100A00007C01ABCF8FEF80930506B6C1F7019291C1
:100A10007F01F8019683F40181914F01F8018683EB
:100A2000FFE12FEB32E0F15020403040E1F700C011
:100A30000000F80195838583FADD75DE813009F4C5
:100A4000798653DD81117986AE14BF0409F468C13B
:100A500089858823D9F264C1F40191914F01F8018D
:100A60009683F70182917F01F8018683FFE12FEBE6
:100A700032E0F15020403040E1F700C00000F801C2
:100A800095838583D4DD4FDE813009F479862DDDB1
:100A900081117986EC14FD0481F089858823E1F2C7
:100AA0000CC09E012F5F3F4F590100E016E07724F4
:100AB00073946E0135E0C30ED11C8985811109C084
:100AC000898581112DC17E0145E0E40EF11C4701AD
:100AD0009DCF8FEF809305064FC1F70182917F0173
:100AE000F8018683F40181914F01F8018683FFE2CA
:100AF00027E535E0F15020403040E1F700C000002C
:100B000096DD11DE813009F47986EFDC811179867A
:100B1000AE14BF0409F410C189858823F1F20CC119
:100B2000F40181914F01F8018583F70182917F01E2
:100B3000F8018583FFE227E535E0F15020403040A1
:100B4000E1F700C0000073DDEEDD813009F4798645
:100B5000CCDC81117986EC14FD0479F08985882339
:100B6000F9F20BC0CE0101965C0100E016E077249B
:100B700073946E0195E0C90ED11C8985811109C05D
:100B800089858111D9C04E01E5E08E0E911C74015A
:100B9000A4CF8FEF80930506EFC0F70182917F010C
:100BA000F8018683F60181916F01F8018683FFE2E7
:100BB00027E535E0F15020403040E1F700C000006B
:100BC00036DDB1DD813009F499868FDC811199869B
:100BD000AE14BF0409F4BBC089858823F1F2B7C005
:100BE000F70182917F01F8018583F60181916F0100
:100BF000F8018583FFE227E535E0F15020403040E1
:100C0000E1F700C0000013DD8EDD813009F4998624
:100C10006CDC81119986AE14BF0459F08985882354
:100C2000F9F207C0CE0101965C0100E016E09924BC
:100C300093948985811109C08985811188C06E01CD
:100C400095E0C90ED11C7601A8CF8FEF80930506E1
:100C500093C0F60181916F01F8018683F7018291BB
:100C60007F01F8018683FFE227E535E0F15020405F
:100C70003040E1F700C00000DADC55DD813009F4D6
:100C8000998633DC81119986EA14FB0409F468C063
:100C900089858823F1F264C0F60181916F01F80122
:100CA0008583F70182917F01F8018583FFE227E5C3
:100CB00035E0F15020403040E1F700C00000B7DCE3
:100CC00032DD813009F4998610DC81119986EA14AD
:100CD000FB0461F089858823F9F208C05E0145E0D4
:100CE000A40EB11C00E016E099249394898581112B
:100CF0000BC08985811134C0CE0101966C017E0143
:100D000099E0E90EF11CA5CF8FEF8093050634C062
:100D1000898581116DCE7E01E9E0EE0EF11C3DCE9C
:100D200089858111CACE9E012F5F3F4F49017E0107
:100D300039E0E30EF11C90CE898581111ECFCE01E2
:100D400001964C017E0199E0E90EF11CE9CE8985FE
:100D500081116FCF6E01E5E0CE0ED11C760140CF40
:100D600089858111C3CF9E012F5F3F4F69017E01AD
:100D700039E0E30EF11C90CF2996CDBFDEBFDF91A5
:100D8000CF911F910F91FF90EF90DF90CF90BF9088
:100D9000AF909F908F907F900895BECA0895AFCD79
:100DA0000895F9CB08953FCD08957FCD089583CD63
:100DB00008950F931F93CF93DF93CDB7DEB7279797
:100DC000CDBFDEBF8FEF8093700080937100809362
:100DD00072008093730080937400809375008093F9
:100DE000760065E081E490E07AD66CE170E082E024
:100DF0006CD68A836DE170E082E067D68983898151
:100E00009A81019621F480E493E289839A8389810F
:100E10009A818B839C83E0E6F0E082838C818383DC
:100E20008FB78E83F8949E81E0E5F0E08081826048
:100E300080839FBF818181FFFDCF8FB78F83F8941F
:100E40009F8100E510E0D80116968C911697897F56
:100E500016968C931697E0E6F0E080E885838BEB9E
:100E6000868316968C911697846016968C93808153
:100E7000816080839FBF61E080E490E030D68FB7CF
:100E80008D83F8949D81F80180818E7F80839FBF40
:100E90002796CDBFDEBFDF91CF911F910F910895AF
:100EA000CF93DF931F92CDB7DEB79FB79983F894A6
:100EB0009981E82FF0E0E059FF4F60958081682329
:100EC00060839FBF0F90DF91CF910895CF93DF9301
:100ED0001F921F92CDB7DEB7863011F060E001C0DF
:100EE00068E18091510081FD2AC08FB78983F89411
:100EF0009981E0E5F0E08081826080839FBF8181FD
:100F000081FFFDCF8FB78A83F8949A81A0E5B0E086
:100F100016968C911697897F16968C931697E0E615
:100F2000F0E080E885838BEB868316968C9116978C
:100F3000846016968C938081816080839FBF6360FC
:100F400084E490E0CCD560E480E0AADF0F900F90BD
:100F5000DF91CF91089580E008953091BF232091D3
:100F6000C023822F90E00397B1F4311116C0809115
:100F7000C3239091C423892B91F4EDEBF3E286EC2B
:100F800091E28087918781ED97E08487958712862B
:100F9000138681E0089580E0089580E0089580E060
:100FA0000895089581E08093C82108951092CC217E
:100FB0001092CA2181E08093C8210C946C15089589
:100FC0000C94701508952DEA37E046EA50E26AEC79
:100FD00071E28CEC91E2F2C00895FF920F931F939F
:100FE000CF93DF931F92CDB7DEB79C018091C821CC
:100FF000882309F1F9018FB78983F894F980109259
:10100000C6211092C721808191818093C62190933F
:10101000C72102ED17E022E030E046EC51E260E04B
:1010200082E80E94331291E089278093C821FFBE95
:101030008091C82189270F90DF91CF911F910F9147
:10104000FF90089580E0089580E008951092E221D5
:101050001092E0211092D62188E0E7EDF1E2DF0165
:101060001D928A95E9F71092DF210C946515089579
:101070000C946915089524E238E04BEC50E260EEE0
:1010800071E282EE91E29AC008950F931F938091CE
:10109000D621811118C088E0E7EDF1E2AEECB1E2B3
:1010A00001900D928A95E1F71092DF2107E618E092
:1010B00028E030E04EEC51E260E081E80E9433121B
:1010C0008093D62101C080E01F910F910895109266
:1010D000D6218091DF218111D8CF08951F93CF931E
:1010E000DF931F92CDB7DEB79FB79983F89419812C
:1010F0009091D921992341F08917A9F0EAEDF1E205
:1011000093E02191211102C01FBF1EC0281721F0BA
:101110009F5F9830B1F705C0983019F0973020F0F4
:101120000CC01FBF11C092E0E92FF0E0E952FE4D64
:10113000818180839F5F9730B9F71092DE2181E033
:101140008093DF21A2DF1FBF81E00F90DF91CF915D
:101150001F9108951F93CF93DF931F92CDB7DEB7F2
:101160009FB79983F89419819091D9219923B1F06F
:10117000891741F0AAEDB1E2E3E09D91992349F08E
:10118000981303C01FBF81E014C0EF5FE830A9F7D8
:1011900002C0E83021F41FBF80E00BC0E2E0F0E0C5
:1011A000E952FE4D808381E08093DF216EDF1FBF17
:1011B00081E00F90DF91CF911F910895CF93DF933E
:1011C000DC01EA019091BD2399230CF068C0907670
:1011D00009F045C08091BE23863009F040C076D129
:1011E000DC011A962C911A97213209F077C02091D0
:1011F000C02330E021323105B1F49C01275F3F4F1D
:101200002093C5233093C623EDEBF3E219968C911E
:101210002681378190E02817390708F4C9018287B1
:10122000938781E068C0FC01478550E0421753076F
:1012300009F056C0C093C523D093C623EDEBF3E26B
:1012400026813781DC0150968D919C91519728170A
:10125000390708F4C9018287938781E04CC0903236
:1012600009F040C08091BE23823039F0833071F0A4
:101270008130D1F5F90119953EC0EDEBF3E2A0877D
:10128000B18781E090E08287938735C0EDEBF3E290
:101290006087718781E090E0828793872CC0907689
:1012A000903221F58091BE238A3039F08B3051F095
:1012B0008930F1F4F90119951EC08091C0238C93F7
:1012C00081E019C08091C3239091C423892B91F4AC
:1012D0008091BF23DB018C9381E00DC080E00BC0C7
:1012E00080E009C080E007C080E005C080E003C066
:1012F00080E001C080E0DF91CF910895E091E82186
:10130000F091E9210190F081E02D228133812E0FAF
:101310003F1FFC014081E40FF11DE217F307A0F429
:1013200081818430A1F0861306C014C0818184308D
:10133000A1F08617A9F08081E80FF11DE217F307ED
:10134000A8F380E090E0089580E090E0089580E0C8
:1013500090E008958E2F9F2F089580E090E00895EB
:101360008E2F9F2F08958091BF238F7795C7089563
:101370009091EA21992381F1E091E821F091E9210E
:101380000190F081E02D9481891740F5E093E621EA
:10139000F093E721228133812E0F3F1FE217F307DD
:1013A000F8F49181943061F49281891309C093819A
:1013B000961306C0E093E621F093E72181E00895BB
:1013C0009081E90FF11DE217F30758F3E093E6214E
:1013D000F093E72180E0089580E0089580E008958B
:1013E00080E00895EF92FF921F93CF93DF93C82F71
:1013F00060E0BEDF182F882381F1A091E821B09131
:10140000E921EC2FF0E0EE0FFF1F12968D919C91D9
:101410001397E80FF91FE080F180D7011696ED9140
:10142000FC9117971995682F8C2FA2DF182F88230E
:10143000A1F0C091E621D091E72165E0CE015EDF09
:10144000EC01892B21F08A810E944C13F6CFD70141
:101450001296ED91FC9113971995812FDF91CF9101
:101460001F91FF90EF9008951F93CF93DF93182F54
:101470007FDF882339F1C091E621D091E72165E033
:10148000CE013CDFEC01892B41F04C815D816B8109
:101490008A810FD78111F3CF15C0A091E821B091B7
:1014A000E921E12FF0E0EE0FFF1F12968D919C9144
:1014B0001397E80FF91F0190F081E02D0190F08162
:1014C000E02D1995DF91CF911F9108958091E6212C
:1014D0009091E721089555C60895CF938091EA2110
:1014E0008823C1F0E091E821F091E9210190F08199
:1014F000E02D8481882371F0C0E08C2F73DFCF5FF3
:10150000E091E821F091E9210190F081E02D8481C2
:10151000C81798F31092EA218091EE2181FD0E9474
:1015200064151092EE211092EF21CF910895CF9380
:101530008091EA21882349F1A091E821B091E92125
:10154000ED91FC91119784818823F9F0C0E0EC2F94
:10155000F0E0EE0FFF1F12968D919C911397E80F0C
:10156000F91F0190F081E02D0084F185E02D309786
:1015700009F01995CF5FA091E821B091E921ED9193
:10158000FC9111978481C81710F3CF9108950F93A0
:101590001F93CF93DF93EDEBF3E21286138614864D
:1015A000158616861786808188230CF07EC22091CE
:1015B000C3233091C4232115310509F07BC26DC2CC
:1015C0008F7109F0A0C09091BE23963079F09830C9
:1015D00009F48FC0911197C02230310509F019C26A
:1015E00062E070E08EEE91E25DD669C28091BF2329
:1015F0009091C023292F332722303105A9F020F400
:101600002130310541F0C7C123303105D9F12F30E8
:10161000310551F1C0C18091282090912920DC0131
:101620006C9170E03FD656C0E0912820F0912920BF
:101630002189821708F0EDC19927880F991F880F1B
:10164000991FE0912A20F0912B20E80FF91F80814B
:101650009181FC016281738125D6E091C523F091CF
:10166000C62382E0818336C080912C2090912D206A
:10167000009709F4CEC1DC0112966D917C9113970D
:1016800011D628C099278130910571F038F0029762
:1016900009F08AC1E4E5F1E231E209C064E070E0FA
:1016A00080E891E2FFD516C0E6E7F1E239E0A2E179
:1016B000B1E220E0819190E08D939D932F5F2317FD
:1016C000C8F3632F660F6E5F6093102170E080E1B6
:1016D00091E2E8D5EDEBF3E28681978122853385AF
:1016E0008217930708F0EBC18093C7239093C82318
:1016F000E6C12130310509F08CC161E070E08AEE6D
:1017000091E2D0D5DCC18130E1F59091BE239A30D1
:10171000C1F52130310509F04CC18091EA218823BF
:1017200009F447C1C091C123D091C2230091E8219F
:101730001091E921D801ED91FC918481C81708F03E
:1017400038C160E08C2F14DE882309F42DC1CE014E
:101750009927880F991FD8011296ED91FC91139744
:10176000E80FF91F0190F081E02D86819781FC013F
:1017700019958093EC2161E070E08CEE91E292D5B6
:101780009EC1823009F010C18091BE23811105C134
:101790002230310509F03DC18091C12312D690E07D
:1017A0008093E4219093E52162E070E084EE91E281
:1017B00079D585C18F7109F09FC09091BE23933078
:1017C00091F118F49130A9F097C0953021F099303B
:1017D00009F443C091C08091C3239091C423892B05
:1017E00009F017C183EB99E08093C9239093CA2332
:1017F00066C18091C3239091C423892B09F009C14C
:101800008091BF239091C023019709F002C180917C
:10181000EE219091EF218D7F8093EE219093EF2127
:101820000E9464154CC18091C3239091C423892BDD
:1018300009F0EFC08091BF239091C023019709F078
:10184000AEC08091EE219091EF2182608093EE21D5
:101850009093EF210E94631532C18091C323909130
:10186000C423892B09F0D5C01AD5882309F49CC05C
:101870002091BF233091C0233327E0912820F0919D
:101880002920818990E08217930708F48DC025DE16
:101890008091BF239091C0238093EA21882309F48B
:1018A0000EC199278150904C880F991F880F991F5E
:1018B000E0912A20F0912B20E80FF91FE093E82116
:1018C000F093E9210190F081E02D8481882309F4CF
:1018D000F6C0C0E060E08C2FC7DD882309F464C047
:1018E000CF5FE091E821F091E9210190F081E02DB6
:1018F0008481C81778F3E3C08130E9F49091BE2366
:101900009B30C9F48091C3239091C423892B09F0A3
:1019100050C08091EA21882309F44BC0EDEBF3E23B
:10192000C481D2818C2F5EDD882309F43DC06D2FE8
:101930008C2F9ADD37C08230B9F58091BE2381307B
:1019400019F0833099F02DC08091C3239091C42366
:10195000892B09F05EC08091BF239091C023892B11
:1019600009F057C08091C12347D51CC08091C32383
:101970009091C423892B09F04CC08091BF23909192
:10198000C023892B09F045C0CDEBD3E28C8135D63D
:101990008C819ED607C080E005C080E003C080E057
:1019A00001C080E081118CC08091BD238F71813096
:1019B00081F58091EA21882309F471C00091C12347
:1019C0001091C223C091E821D091E921E881F981E9
:1019D0008481081708F065C060E0802FC9DC882387
:1019E000C1F0F801FF27CF01880F991FEA81FB8121
:1019F000E80FF91FC081D181EE81FF811995682F11
:101A0000802FB6DC882329F0EC81FD8119958111A6
:101A100057C08091BD238F71823009F044C08091FE
:101A2000EA218823B1F1A091E821B091E921ED915B
:101A3000FC9111978481882371F1C0E0EC2FF0E0D4
:101A4000EE0FFF1F12968D919C911397E80FF91FCF
:101A500000811181D8011696ED91FC911797199587
:101A6000682F8C2F85DC882359F1D8011496ED91CD
:101A7000FC9115971995811123C0CF5FA091E821A2
:101A8000B091E921ED91FC9111979481C917B0F2C1
:101A900017C080E015C080E013C080E011C080E076
:101AA0000FC080E00DC080E00BC0982F907609F049
:101AB0007BCF80CE982F907609F076CF81CD81E0D4
:101AC000DF91CF911F910F9108954091CA01E62FA8
:101AD000F72F8093CA0184914093CA0108951BBED9
:101AE000FC0128ED24BF60830895CF93DF931F92FC
:101AF0001F92CDB7DEB7811126C09091B0239923F4
:101B0000F9F09091B823911101C0FFCF9FB79A834C
:101B1000F8942A81E7EBF3E29181915091832FBFF2
:101B20000FC09091B8239F3F09F4FFCF9FB79983CF
:101B3000F8942981E7EBF3E291819F5F91832FBFB6
:101B40008093B02305C09091B023992351F3F8CF2F
:101B50000F900F90DF91CF9108950F93E8ECF4E090
:101B600080818F7D808380818F7D8083E4E6F3E2B6
:101B700002E00593109266231092672300E2069319
:101B800000E40693ECE5F3E200E40693EDEBF3E208
:101B9000148615861686178612861386109245239C
:101BA0000F9108950F9385E080934523E5E6F3E2D6
:101BB00004E00593EDE5F3E204E005930F91089549
:101BC0000F9383E08093452310926623109267233E
:101BD000E4E6F3E202E006930F910895E091C92351
:101BE000F091CA23309709F0199508950F93CF9378
:101BF000DF9380914523833019F4F0DFAEDF5EC0C0
:101C00008091412390914223C091C723D091C82352
:101C1000C81BD90B71F52091432330914423820FC7
:101C2000931F80934323909344232091C3233091A7
:101C3000C4238217930721F08091F021882341F07B
:101C400084E080934523ECE5F3E202E0069336C09E
:101C5000E091CB23F091CC23309799F0199588230C
:101C600081F01092412310924223C091C723D0915A
:101C7000C823C830D10528F01092F021C8E0D0E088
:101C800003C081E08093F021E8E4F3E2C68FD78FB0
:101C900080914123909142232091C5233091C62306
:101CA000280F391F20A331A3C80FD91FC093412388
:101CB000D0934223E4E6F3E202E00693DF91CF9172
:101CC0000F910895FC018181E82FE7708E2F90E03D
:101CD000FC013197E730F105D0F48827E95FFE4F2A
:101CE0008F4F21C780E190E0089580E290E0089551
:101CF00080E490E0089580E890E0089580E091E02D
:101D0000089580E092E008958FEF93E0089588E0D1
:101D100090E00895282F2F7030E0220F331F082EF7
:101D2000000C990B8827990F881F9927820F931F02
:101D300002979C01220F331F220F331F220F331FE4
:101D4000820F931F8F509D4D08950F93CF938091D5
:101D5000CC0480FF64C081E08093CC04ECE5F3E226
:101D600000E80693E4E6F3E200E806938093CA04F1
:101D7000ECE5F3E200E1069380914523882329F006
:101D80008350823008F42ADFE8DE80915E23909150
:101D90005F23089709F045C088E0E9E3F3E2ADEB83
:101DA000B3E201900D928A95E1F7E8ECF4E08081CE
:101DB00080628083808180628083E9DBC82F81110B
:101DC00003C0F0DEC1E02EC08091BD2388236CF4F7
:101DD00010924323109244231092412310924223E5
:101DE00082E08093452302DF1DC08091C323909140
:101DF000C423892B11F4E4DE15C010924323109202
:101E00004423109241231092422381E08093452382
:101E1000ECE5F3E202E0069300E2069303C0C0E0C3
:101E200001C0C1E08C2FCF910F9108958F929F92A6
:101E3000AF92BF92DF92EF92FF920F931F93CF93D7
:101E4000DF93D82E67DF8C01CD2DCF70D0E0CE018F
:101E5000880F991FCD2D0D2C000CDD0BCC27DD0F2D
:101E6000CC1FDD27C80FD91FCE01880F991F880FFF
:101E7000991F880F991F9C01245A3C4D7901C90173
:101E800021DF4C01DD200CF079C0FE01EE0FFF1FB9
:101E9000EE0FFF1FEE0FFF1FE85BFC4D228D338D11
:101EA000D80115968D919C911697820F931F1596C8
:101EB0008D939C93169713962D913C9114978217AE
:101EC000930709F445C0281B390B2115B4E03B07E3
:101ED00038F02FEF33E0C901B40111D6281B390BBC
:101EE000F801808181FF09C0C901B40108D641E031
:101EF000892B09F040E0842F01C080E0D8019C913B
:101F000080FB91F99C93FE01EE0FFF1FEE0FFF1F68
:101F1000EE0FFF1FE85BFC4D128E138E268B378B66
:101F200011962D913C91129715968D919C91169733
:101F3000820F931FCC0FDD1FCC0FDD1FCC0FDD1FD9
:101F4000C05ADC4D88839983F70102E00693E0C014
:101F5000D8018C9181FFC9C08D7F8C93CC0FDD1F80
:101F6000CC0FDD1FCC0FDD1FC85BDC4D1A8E1B8E26
:101F70001E8A1F8AF70102E00693CAC0FE01EE0F17
:101F8000FF1FEE0FFF1FEE0FFF1FE85BFC4DA68843
:101F9000B788D8018C9182FF19C01196ED91FC9100
:101FA000129715962D913C91169713968D919C91B1
:101FB0001497B401A4D5B0E4DB9EB00111246F5492
:101FC0007E4DAC01CF01820F931FB5D5F80125815D
:101FD00036812A0D3B1D25833683838194818217A8
:101FE000930768F485839683CC0FDD1FCC0FDD1F2C
:101FF000CC0FDD1FC85BDC4D8A8D9B8D76C0FE014A
:10200000EE0FFF1FEE0FFF1FEE0FFF1FE85BFC4DF3
:10201000428D538DA416B50609F067C028173907FD
:1020200009F463C0AC01421B530B9A01211554E023
:10203000350740F02FEF33E0C901B40160D5281B0C
:10204000390B05C0C901B4015AD5281B390BFE0153
:10205000EE0FFF1FEE0FFF1FEE0FFF1FE85BFC4DA3
:10206000168A178A2815390500F5D8018C918460E5
:102070008C93B0E4DB9EC00111248F549E4DFE0171
:10208000EE0FFF1FEE0FFF1FEE0FFF1FE05AFC4D7C
:1020900080839183CC0FDD1FCC0FDD1FCC0FDD1FA4
:1020A000C85BDC4D8A8E9B8E1CC0F8014181528139
:1020B00085819681840F951FFE01EE0FFF1FEE0FA5
:1020C000FF1FEE0FFF1FE05AFC4D80839183CC0F62
:1020D000DD1FCC0FDD1FCC0FDD1FC85BDC4D2A8F51
:1020E0003B8FF70102E0069313C0D8018C9180FF6B
:1020F0000FC08E7F8C931796ED91FC9118973097B7
:1021000039F015966D917C9116974D2D80E01995BB
:10211000DF91CF911F910F91FF90EF90DF90BF90D3
:10212000AF909F908F9008951F93CF93DF931F924E
:10213000CDB7DEB78FB78983F894198181E0D5DCFC
:10214000EAECF4E080E4808380E28083E1ECF4E078
:10215000808181608083A9ECB4E08C9182608C9353
:10216000E8ECF4E08081806480838C9181608C93C2
:102170008081806880831FBF0F90DF91CF911F9176
:1021800008950F931F93CF93DF931F921F92CDB7A4
:10219000DEB700E610E0F801108280E30E946607D7
:1021A000E0ECF4E080818064808381E0F80180834A
:1021B0008FB78A83F8941A8180E090E0FC01EE0FDB
:1021C000FF1FEE0FFF1FEE0FFF1FE85BFC4D158A90
:1021D00001968A30910591F780E090E0FC01EE0FC6
:1021E000FF1FEE0FFF1FEE0FFF1FE80FF91FEF504D
:1021F000FD4D20812E7F208301968830910571F757
:102200006AE170E082E061DC8F3F19F08093FA04AC
:1022100003C08FE18093FA046BE170E082E055DC4B
:102220008F3F19F08093FB0403C08FE18093FB0480
:10223000E0ECF4E08081846080838081806880832A
:102240008081806180838CE593E28683978380819F
:10225000806280838FEF8093C504E8ECF4E0808196
:10226000816080831092B0238091BC238F3F09F45A
:10227000FFCF8FB78983F8949981E7EBF3E28581EB
:102280008F5F85839FBF50DF1FBF0F900F90DF913F
:10229000CF911F910F9108958093C3040895809169
:1022A000C3040895EDEBF3E280879187628773871B
:1022B0000895282F2F7030E0220F331F082E000CB6
:1022C000990B8827990F881F9927820F931FFC016C
:1022D000EE0FFF1FEE0FFF1FEE0FFF1FE85BFC4D21
:1022E0002589207C09F069C06370613011F018F411
:1022F00004C060EC03C060E801C060E440385105F0
:10230000E9F050F440325105A9F040345105A1F0F4
:1023100040315105D9F40CC0411522E0520791F02B
:102320004F3F23E0520781F04115514079F408C036
:1023300021E00DC022E00BC023E009C024E007C06B
:1023400025E005C026E003C027E001C020E0FC0135
:10235000EE0FFF1FEE0FFF1FEE0FFF1FE85BFC4DA0
:10236000158A36E0348B262B258BFC01EE0FFF1FE0
:10237000EE0FFF1FEE0FFF1FE85BFC4D2589207C51
:10238000203C69F4FC01EE0FFF1FEE0FFF1FEE0F64
:10239000FF1FE85BFC4D25892770273081F0880FEF
:1023A000991F880F991F880F991FFC01E85BFC4D4E
:1023B00085898062858B81E0089580E0089581E0C1
:1023C0000895E82FEF70F0E0EE0FFF1F082E000CCD
:1023D000990B8827990F881F9927E80FF91FEE0F8F
:1023E000FF1FEE0FFF1FEE0FFF1FE85BFC4D8589FF
:1023F00082FB882780F908950F93282F2F7030E0F3
:10240000A901440F551F282F082E000C330B22273B
:10241000330F221F3327240F351FA901440F551FE7
:10242000440F551F440F551FFA01E45AFC4D01E0BB
:102430000693FA01E85BFC4D958992FF11C0FA0101
:10244000E85BFC4D95899B7F958B64DCFC0180816A
:1024500080FF06C08E7F80830780F085E02D199570
:1024600081E00F9108956F927F928F929F92AF9229
:10247000BF92CF92DF92EF92FF920F931F93CF9371
:10248000DF931F92CDB7DEB7782E662E4A01590131
:1024900041DC6C01272D872D8F70E82EF12CC701B0
:1024A000880F991FE72C072C000CFF08EE24FF0C67
:1024B000EE1CFF24E80EF91EF701EE0FFF1FEE0FD2
:1024C000FF1FEE0FFF1FE85BFC4D8589807C09F440
:1024D00081C0F701EE0FFF1FEE0FFF1FEE0FFF1F72
:1024E000E85BFC4D8589807C803C61F0F701EE0F54
:1024F000FF1FEE0FFF1FEE0FFF1FE85BFC4D8589EE
:1025000082FD6AC08FB78983F8948981F601908132
:1025100090FF03C08FBF80E060C0F60190819160A2
:1025200090838FBF81829282A382B48215821682A9
:1025300007831087611006C091E0A114B10419F05F
:1025400090E001C091E0F601808190FB81F98B7FE2
:102550008083222364F4F701EE0FFF1FEE0FFF1FAD
:10256000EE0FFF1FE85BFC4D128E138E2FC0F7019C
:10257000EE0FFF1FEE0FFF1FEE0FFF1FE85BFC4D7E
:102580008589807C803CA9F4C701880F991F880F3A
:10259000991F880F991F845A9C4D94DBBC01C5017B
:1025A000AED2892B31F0F60180818E7F808380E06E
:1025B00014C0F701EE0FFF1FEE0FFF1FEE0FFF1FFE
:1025C000E85BFC4D168A178A128E138E872D2EDC3F
:1025D00081E003C080E001C080E00F90DF91CF91E7
:1025E0001F910F91FF90EF90DF90CF90BF90AF9031
:1025F0009F908F907F906F900895FF920F931F93FD
:10260000CF93DF93182FC82FCF70D0E0CE01880F63
:10261000991FC12F012E000CDD0BCC27DD0FCC1F25
:10262000DD27C80FD91F812F75DBDC01FE01EE0FFE
:10263000FF1FEE0FFF1FEE0FFF1FE45AFC4D02E0DD
:1026400005938C9180FF22C08E7F8C931796ED911D
:10265000FC9118973097D1F011235CF4CC0FDD1F5B
:10266000CC0FDD1FCC0FDD1FC85BDC4D6A8D7B8D71
:102670000AC0CC0FDD1FCC0FDD1FCC0FDD1FC85BE8
:10268000DC4D6E897F89412F81E01995DF91CF91D3
:102690001F910F91FF900895CF93C82FAEDFEC2FBD
:1026A000EF70F0E0EE0FFF1F8C2FCC0F990B8827F7
:1026B000990F881F9927E80FF91FEE0FFF1FEE0FE4
:1026C000FF1FEE0FFF1FE85BFC4D158ACF910895A9
:1026D000E82FEF70F0E0EE0FFF1F282F082E000C00
:1026E000330B2227330F221F3327E20FF31FEE0F86
:1026F000FF1FEE0FFF1FEE0FFF1FE85BFC4D9589DC
:102700009460958B7ADF81E008951F920F920FB647
:102710000F9211240BB60F920F932F933F934F9369
:102720005F936F937F938F939F93AF93BF93CF9359
:10273000EF93FF938091CB0488233CF480E880934F
:10274000CA040E94970AB0D189C08091CB0482FF4D
:1027500020C084E08093CA048091642386FF7EC0F9
:102760008091CC0481FD7AC0F0DA811177C080912C
:102770004523813011F424DA71C0843009F06EC031
:10278000E5E6F3E204E00593EDE5F3E204E005930A
:1027900065C08091CB0481FF5CC082E08093CA0455
:1027A00080915C2386FF5AC08091CC0481FD56C085
:1027B000CCDA811153C080914523823041F484E00A
:1027C00080934523ECE5F3E202E0069347C08330B3
:1027D00009F044C0E5E6F3E204E00593EDE5F3E239
:1027E00004E005933BC080E18093CA04C1E08C2FD4
:1027F00004DF8C2F806801DFCF5FC530C1F70E94F6
:102800006D0A1092C304E8E4F3E2158A96E0948B13
:1028100080E4858B158E948F858F89E393E2808F7A
:10282000918F9BD91BC08091CB0486FF07C080E4A9
:102830008093CA0480E059D935D110C08091CB046F
:1028400085FF0CC080E28093CA0481E04ED92BD171
:1028500005C08091CB0484FDC6CFE5CFFF91EF91F9
:10286000CF91BF91AF919F918F917F916F915F9128
:102870004F913F912F910F910F900BBE0F900FBE74
:102880000F901F9018951F920F920FB60F92112460
:102890000BB60F920F931F932F933F934F935F931A
:1028A0006F937F938F939F93AF93BF93CF93DF9358
:1028B000EF93FF938091CC0481FD03C046DA811130
:1028C000C3C082E08093CC048091C5048195880FB9
:1028D000ECE5F3E2E81BF109208131812C5533420C
:1028E000369527953695279536952795822F869587
:1028F00020FD02C090E001C090E8890FE82FEF7042
:10290000F0E0EE0FFF1F282F082E000C330B2227BC
:10291000330F221F3327E20FF31FDF01AA0FBB1F64
:10292000AA0FBB1FAA0FBB1FA85BBC4D54969C915E
:1029300095FF8AC0EE0FFF1FEE0FFF1FEE0FFF1F68
:10294000E45AFC4D00E20693811179C08091452341
:10295000843019F443D901D977C000915E231091D6
:102960005F238091C7239091C823C0914123D091C8
:10297000422398012C0F3D1F8217930718F48C01F6
:102980000C1B1D0B8091C5239091C623A80169E300
:1029900073E28C0F9D1FCFD0C00FD11FC093412376
:1029A000D09342230830110569F48091432390911C
:1029B00044238C0F9D1F2091C3233091C423821781
:1029C000930780F0EDEBF3E2C287D3870684F785A7
:1029D000E02D309729F01995811102C0E3D834C059
:1029E000EFD832C08091C7239091C823C817D90768
:1029F000F9F4E091CB23F091CC23309711F4D2D8A5
:102A000023C01995811102C0CDD81EC02091432347
:102A1000309144238091412390914223820F931F50
:102A20008093432390934423109241231092422396
:102A3000ECE5F3E202E0069300E2069305C080387D
:102A400011F4D4D801C0F2D9FF91EF91DF91CF9169
:102A5000BF91AF919F918F917F916F915F914F91B6
:102A60003F912F911F910F910F900BBE0F900FBEB2
:102A70000F901F90189587E08093A2007894E7EB61
:102A8000F3E21082118212821382148281E0858324
:102A90000E94D9060E94CD060E946B0A84E00E9423
:102AA000CF06FFCF089508958091B323882351F076
:102AB0000E94D3068091B223882321F00E94D10680
:102AC0000C94D70608950895089581E08093B32368
:102AD00008951092B323089581E08093B22308955E
:102AE0001092B223089581E08093B123089510924B
:102AF000B1230895FC0180810C94D5060895AA1B8A
:102B0000BB1B51E107C0AA1FBB1FA617B70710F0D8
:102B1000A61BB70B881F991F5A95A9F7809590950A
:102B2000BC01CD010895EE0FFF1F881F8BBF0790DA
:102B3000F691E02D1994FB01DC0102C001900D9289
:0C2B400041505040D8F70895F894FFCFA2
:102B4C000600FF0901A101950875011901290881E9
:102B5C000295087501190129089102C067017F01CE
:102B6C00820130010000808094202E20000038204B
:102B7C0032200621C1201C2009025B00030100A0A9
:102B8C0032090400000103000000092111010001B9
:102B9C00223B000705810308000209040100010320
:102BAC00000000092111010001221B00070582030E
:102BBC0008000409040200020300000009211101AD
:102BCC000001221C00070584030800040705030309
:102BDC00080004001201000200000008EB0333217E
:102BEC0000010102000105010904A101A100050178
:102BFC0009300931150026FF00750895028102C0C5
:102C0C00C0D607E007E307AB07000005010906A1E2
:102C1C0001050719E029E7150025017501950881C3
:102C2C000281011900296515002565750895068135
:102C3C000005081901290515002501750195059157
:102C4C000295039101C0260838083B0822080000B1
:102C5C000003000000000000000000000000000065
:102C6C000000000000000000000000000000000058
:102C7C000000000000000000000000000000000048
:102C8C000000000000000000000000000000000038
:102C9C0000000000436F6D706F73697465204849C4
:102CAC0044204B6579626F617264202B204A6F79E6
:102CBC00737469636B0041544D454C20415346007D
:102CCC0004030904010204081020408000172E455B
:082CDC005C748BA2B9D0E7FF84
:00000001FF
