:1000000015C1000034C1000032C1000030C1000041
:100010002EC100002CC100002AC1000028C1000030
:1000200026C1000024C1000022C1000020C1000040
:100030001EC100001CC100001AC1000018C1000050
:1000400016C1000014C1000012C1000010C1000060
:100050000EC100000CC100000AC1000008C1000070
:1000600006C1000004C1000002C1000000C1000080
:10007000FEC00000FCC00000FAC00000F8C0000094
:10008000F6C00000F4C00000F2C00000F0C00000A4
:10009000EEC00000ECC00000EAC00000E8C00000B4
:1000A000E6C00000E4C00000E2C00000E0C00000C4
:1000B000DEC00000DCC00000DAC00000D8C00000D4
:1000C000D6C00000D4C00000D2C00000D0C00000E4
:1000D000CEC00000CCC00000CAC00000C8C00000F4
:1000E000C6C00000C4C00000C2C00000C0C0000004
:1000F000BEC00000BCC00000BAC00000B8C0000014
:10010000B6C00000B4C00000B2C00000B0C0000023
:10011000AEC00000ACC00000AAC00000A8C0000033
:10012000A6C00000A4C00000A2C00000A0C0000043
:100130009EC000009CC000009AC0000098C0000053
:1001400096C0000094C0000092C0000090C0000063
:100150008EC000008CC000008AC0000088C0000073
:1001600086C0000084C0000082C0000080C0000083
:100170007EC000007CC000007AC0000078C0000093
:1001800076C0000074C0000072C0000070C00000A3
:100190006EC000006CC000006AC0000068C00000B3
:1001A00066C0000064C0000062C0000060C00000C3
:1001B0005EC000005CC000005AC0000058C00000D3
:1001C00056C0000054C0000052C0000050C00000E3
:1001D0004EC000004CC000004AC0000048C00000F3
:1001E00046C0000044C0000042C0000040C0000003
:1001F0003EC000000C94C6150C9484168E04CD04E9
:100200008404CF04860488048A048C048E041206B5
:100210007806D80638079407D50503086108B31097
:10022000B610B910BC10BF10C210C51011241FBEEB
:10023000CFEFCDBFDFE5DEBF00E00CBF11E2A0E0F5
:10024000B0E2E0EDFFE200E00BBF02C007900D92CC
:10025000A839B107D9F723E2A8E9B1E201C01D929C
:10026000A23FB207E1F70E947C170C94E617C8CEB4
:1002700080E008953091E4232091E523822F90E0DF
:100280000297C1F4311118C08091E8239091E923BD
:100290000197A1F4E2EEF3E288E991E28087918789
:1002A00081E090E08287938783E891E08487958757
:1002B00081E0089580E0089580E0089580E0089549
:1002C00081E080939E2108950F931F9303E811E02E
:1002D00021E030E048E951E260E083E00E947414DC
:1002E0001F910F910895CF931092A2211092A021F7
:1002F00081E080939E21E8DFC82F81110E94BA1708
:100300008C2FCF910895811106C06130710519F4C9
:1003100088E991E26ED7D8CF08950C94BE1708955E
:100320002AE331E040E050E260EA71E282EA91E2E1
:100330000C941F0B0895FF920F931F93CF93DF939D
:100340001F92CDB7DEB79C0180919E21882359F181
:10035000D9018FB78983F894F98084E02AE931E2E2
:10036000F90111928A95E9F78D919D910D90BC91BB
:10037000A02D80939A2190939B21A0939C21B093D0
:100380009D2100E611E024E030E04AE951E260E01E
:1003900084E80E94741491E0892780939E21FFBE17
:1003A00080919E2189270F90DF91CF911F910F910E
:1003B000FF900895E0E0F6E09FEF91839583E0E2FF
:1003C000F6E03FE3328388E1808B818B828B838BE5
:1003D000848B858B20EC218340E4458340E8458372
:1003E000E0E4F6E04CEF4283828B838B848B858B39
:1003F000868B878B43E041834583E0E6F6E03283DA
:10040000808B818B828B838B848B858B218326834E
:10041000E0E8F6E09283808B818B828B838B848BE8
:10042000858B868B878BE0EAF6E090EF9283848B56
:10043000858B868B878B8FE081838583E7D2F9C09C
:100440000895809148062091680690E0922B969539
:10045000879596958795BC017F7080FF17C021E036
:1004600030E0E1E0F0E0822FAF01022E02C0440F45
:10047000551F0A94E2F746235723452B41F02F5F7F
:100480003F4F2C30310579F78FEF089580E00895C4
:10049000809188062091280690E0922BBC017F7005
:1004A00080FF17C021E030E0E1E0F0E0822FAF01F3
:1004B000022E02C0440F551F0A94E2F74623572329
:1004C000452B41F02F5F3F4F2C30310579F78FEFEF
:1004D000089580E008958823F4F19BEF980F9230FF
:1004E000E0F1853034F495E0981B923008F042C07A
:1004F00036C09AEF980F9230B0F531C062E023E039
:1005000030E090E080E0E1E0F0E0AF01022E02C0D8
:10051000440F551F0A94E2F7842B9F5F2150310945
:10052000961798F308958150482F50E04B5F5F4F26
:1005300024E030E080E0E1E0F0E0BF01022E02C004
:10054000660F771F0A94E2F7862B2F5F3F4F241721
:10055000350799F7089580E0089588E1089585307A
:100560006CF282E0E0CF8550853008F084E08111A4
:10057000DACF089566E0681B653008F064E0611129
:10058000BECF80E00895CF935CDFC82F81DFCC23FE
:1005900024F48823C4F090E009C0C6301CF09BEF1F
:1005A0009C0F02C095E09C1B882354F086301CF001
:1005B0002BEF280F02C025E0281B921708F4C82F44
:1005C0008C2F89DF01C080E0CF91089561DF8823FF
:1005D0003CF0E82F880FFF0BE858FE4D808101C0EA
:1005E00080E88093A4212DDF88233CF0E82F880F3A
:1005F000FF0BE858FE4D808101C080E8E4EAF1E29B
:100600008183208190912620291304C09091272076
:10061000981771F084EA91E221D7882349F0E6E245
:10062000F0E2A4EAB1E28C91808311968C918183EF
:1006300008951092C1211092BE211092BF211092F4
:10064000BB211092C2211092C021E8ECF1E281E6B8
:10065000808380E68183128213828FE584838EE516
:100660008583168217828DE5808711861286138610
:100670001486158689E586878BE58787108A118A17
:100680008AE5828B8CE5838BE3ECF1E28EE080835C
:100690008DE081838BE0828387E083838FEF848387
:1006A00008954F925F926F927F928F929F92AF9236
:1006B000BF92CF92DF92EF92FF920F931F93CF934F
:1006C000DF93EAEAF1E283EB91E211928E179F0742
:1006D000E1F74090A92104E811E2C0E0D0E0B12C9C
:1006E0000F2EF5E06F2EF02D6894772472F80F2E00
:1006F000F0EAEF2EF6E0FF2EF02D0F2EF0E2CF2ED7
:10070000F6E0DF2EF02D6894882487F899249394DE
:10071000AC2EFE01ED53FE4D8081D70114968C93D3
:10072000B4E0CB1303C0F601868203C0D601159650
:100730008C92F7018085807F8095F82FF07F5F2E67
:1007400084FDB39485FDB39486FDB39455200CF4D9
:10075000B394F80184E090E0252D30E0A901B901BF
:10076000082E02C0759567950A94E2F760FF0AC0EB
:100770006081693038F4062E000C770B66557E4D8B
:10078000DB019C92019631968830910539F7CA01B8
:10079000019748235923452B49F0B42DB095B52135
:1007A00009F4B52D8B2F8195B82301C0B52DB0323A
:1007B00079F020F4B03109F448C00EC0B03409F427
:1007C00046C0B03849F40F2EF3E07F2EF02D42C022
:1007D000BB2311F06A2C792C21960C5F1F4F452CFE
:1007E000C530D10509F094CF5092A92180E88093BB
:1007F0002506B3E0B715E0F0E62DF0E0EE0FFF1FA1
:10080000EE0FFF1FE853FE4DE70DF11D8081909123
:10081000C121911106C08093C02181E08093C12144
:100820000DC09091C021891749F08093C02106C066
:100830008091C121813011F41092C12181E08B158A
:1008400008F080E08093BC2107C0712C03C068943D
:10085000772471F86A2CC0CFDF91CF911F910F914F
:10086000FF90EF90DF90CF90BF90AF909F908F90D0
:100870007F906F905F904F9008958091C12108956F
:10088000EAEAF1E220E030E040E050E061E070E0D0
:100890009191992349F0CB01022E02C0880F991F34
:1008A0000A94E2F7482B592B2F5F3F4F293031052F
:1008B00079F7CA010895809128068093BA21809122
:1008C000C1218093BE218091C0218093BD21809160
:1008D000BA2184FD29C08091BE21813009F04DC02C
:1008E0008091BF21811149C0E091BD218E2F90E000
:1008F000FC01E955F109E930F10590F48827E2504F
:10090000FF4F8F4F0C94D51784E009C080E107C0DA
:1009100080E205C080E403C080E801C081E097D098
:1009200081E08093BB2129C08091C1219091A821B1
:1009300091110BC0813009F58093A8218091BD21D0
:100940008093A7211092A62118C0813051F5809183
:10095000A621811112C08091BC21882371F081E011
:100960008093A6210AC08091A72135D68091A72126
:10097000F6D51092A8211092A6218091BA2184FF69
:1009800007C08091BB21813019F451D01092BB2156
:100990008091BE218093BF21089582E0C0CF88E07E
:1009A000BECF8091A6218111E4CFDDCF7ADE83CF47
:1009B0000895EDEDF1E220E030E090E0AC01022E90
:1009C00002C0559547950A94E2F740FD60832F5F7A
:1009D0003F4F31962830310589F7089580912806D8
:1009E0008093ED215EDE8091ED2184FF0AC045DF1A
:1009F000813049F0C8DD91E0811101C090E0892F7C
:100A000003C081E001C081E081700895E0E0F6E07C
:100A10008FEF81838583E0E2F6E080E48183868343
:100A200008958FEF8093060661E0C3CF08958FEF9E
:100A30008093050660E0BDCF08958093060661E0CF
:100A4000B8CF08958093050660E0B3CF08958093F2
:100A50000706EDEDF1E220E030E0682F70E081E084
:100A6000AB01022E02C0559547950A94E2F740FF6C
:100A700003C09081982790832F5F3F4F3196283095
:100A8000310571F70895E0E0F6E09FEF95838683E6
:100A9000EDEDF1E220E030E090E0AC01022E02C08A
:100AA000559547950A94E2F7417041932F5F3F4F68
:100AB0002830310591F70895CF93DF93ADEDB1E282
:100AC0006DEE71E2FD0140E050E0C1E0D0E09F0139
:100AD0002A1B3B0B9191992341F0CE0102C0880F54
:100AE000991F2A95E2F7482B592BE617F70779F754
:100AF000CA01DF91CF91089580E48093260681E0BA
:100B00008093E521089580E480932706EDEDF1E2DE
:100B1000908581E08927808708958091EE219091CA
:100B2000EF2101968093EE219093EF21809128068A
:100B300084FD0DC08091EE219091EF21843F914082
:100B400058F0E1DF1092EE211092EF210895D4DFEA
:100B50001092EE211092EF2108957F928F929F9232
:100B6000AF92BF92CF92DF92EF92FF920F931F93BB
:100B7000CF93DF93CDB7DEB72897CDBFDEBF98E028
:100B8000E0E7F1E2DE01119601900D929A95E1F70E
:100B900090E0FC013197E830F10508F003C38827A5
:100BA000E95FFE4F8F4F0C94D5178091DC2188238D
:100BB00009F4D1C10BC2F801F1908F018F2D3DDFF7
:100BC000FFE028E982E0F15020408040E1F700C0DA
:100BD00000008F2D37DF02DF8093DC21A016B106E5
:100BE00009F487C28091DC21882329F382C2F801AD
:100BF000F2908F018F2D21DFFFE028E982E0F15094
:100C000020408040E1F700C000008F2D1BDFE6DEB2
:100C10008093DC21C016D10661F08091DC2188230D
:100C200031F307C05E0199E0A90EB11CFE013196B7
:100C30006F018091DC21811106C08091DC21882325
:100C400009F49BC256C2F3DEADC2F801E2908F01F7
:100C50008E2DF3DEF401F1904F018F2DEEDEFFE1DA
:100C60002FEB82E0F15020408040E1F700C000000F
:100C70008E2DE8DE8F2DE6DE14DDFFDD813011F4F0
:100C80007092DC2180DC81117092DC210A151B0539
:100C900009F434C28091DC218823B9F22FC2F40117
:100CA000E1904F018E2DC9DEF801F2908F018F2D5A
:100CB000C4DEFFE12FEB82E0F15020408040E1F7FD
:100CC00000C000008E2DBEDE8F2DBCDEEADCD5DD3F
:100CD000813011F47092DC2156DC81117092DC219C
:100CE000C016D10671F08091DC218823C1F209C0C1
:100CF000FE0131965F01772473946E01F5E0CF0E0B
:100D0000D11C8091DC2181110AC08091DC218111EC
:100D1000F5C14E0125E0820E911C840196CF87DE3D
:100D200041C2F80182918F0188DEF70181917F0134
:100D300084DEFFE227E585E0F15020408040E1F7C6
:100D400000C00000AEDC99DD813011F49092DC210E
:100D50001ADC81119092DC21A016B10609F4D9C1E8
:100D60008091DC218823E9F2D4C1F70181917F01D0
:100D700069DEF80182918F0165DEFFE227E585E0FB
:100D8000F15020408040E1F700C000008ADC75DDB2
:100D9000813011F49092DC21F6DB81119092DC21FC
:100DA000C016D10671F08091DC218823F1F209C0D0
:100DB000FE0131965F01992493946E01F5E0CF0E08
:100DC000D11C8091DC2181110AC08091DC2181112C
:100DD000A0C17E0125E0E20EF11C8701A2CF27DE33
:100DE000E1C1F80182918F0128DEF70181917F0135
:100DF00024DEFFE227E585E0F15020408040E1F766
:100E000000C000004EDC39DD813011F4B092DC21ED
:100E1000BADB8111B092DC21C016D10609F484C17D
:100E20008091DC218823E9F27FC1F80182918F0152
:100E300009DEF70181917F0105DEFFE227E585E00C
:100E4000F15020408040E1F700C000002ADC15DDB1
:100E5000813011F4B092DC2196DB8111B092DC215B
:100E6000C016D10651F08091DC218823F1F205C033
:100E7000FE0131966F01BB24B3948091DC21811176
:100E80000AC08091DC2181114FC17E01F5E0EF0E97
:100E9000F11C8701A6CFCBDD85C1F70181917F01D0
:100EA000CCDDF80182918F01C8DDFFE227E585E006
:100EB000F15020408040E1F700C00000F2DBDDDCB3
:100EC000813011F4B092DC215EDB8111B092DC2123
:100ED0000C151D0509F431C18091DC218823E9F24C
:100EE0002CC1F70181917F01ADDDF80182918F0165
:100EF000A9DDFFE227E585E0F15020408040E1F7E1
:100F000000C00000CEDBB9DC813011F4B092DC21EE
:100F10003ADB8111B092DC210C151D0559F080914E
:100F2000DC218823F1F206C06E0195E0C90ED11CC8
:100F3000BB24B3948091DC2181110BC08091DC2112
:100F40008111FBC0FE0131967F018E01075F1F4FAB
:100F5000A4CF6DDD27C165DDFFE72AE186E0F15012
:100F600020408040E1F700C0000038DD8093DC21A4
:100F70005EDD9FE7EAE1F6E09150E040F040E1F706
:100F800000C000002BDD8093DC2185E57CDD2FE7B0
:100F90008AE196E0215080409040E1F700C00000D7
:100FA0001DDD8093DC218AEA6EDDEFE7FAE126E0C1
:100FB000E150F0402040E1F700C000000FDD8093D9
:100FC000DC218091DC21882309F4C5CF30DDEAC023
:100FD0008F2D012E01C0880F0A94EAF754DD8FEDA2
:100FE00093E9E4E081509040E040E1F700C0000068
:100FF000F5DC8093DC21802F100F11F0153049F4BF
:10100000082F019506C001E010E00F2EF7E0FF2E3B
:10101000F02D8091DC218823D9F209DDC3C08F2D0A
:10102000002E01C0880F0A94EAF72DDDC114D10407
:1010300049F0C601E9EFF0E03197F1F700C0000098
:101040000197C1F7CBDC882319F0B092DC2105C0F1
:101050000F5F1F4F0830110511F7F5EFCF16F1E0C4
:10106000DF0618F02AEFC21AD108EA94EE2021F127
:101070008091DC21811120C000E010E0D0CF00E0A1
:1010800010E08F2D002E01C0880F0A94EAF7FBDCD8
:101090008FE996E8E1E081509040E040E1F700C040
:1010A00000009CDC882319F0B092DC2105C00F5FA2
:1010B0001F4F0830110529F78091DC218823F9F2B0
:1010C0000AC00F2EF4ECCF2EF9E0DF2EF02DFF2416
:1010D000F394BB24B3948091DC21811108C08091EA
:1010E000DC218111E9CF6894EE24E3F8C5CF9FDCC1
:1010F00059C08091DC21882359F19BCD8091DC215E
:101100008111FFCDCE0101964C018E01075F1F4F6B
:10111000C6CD8091DC21811154CEFE0131967F0134
:101120008E01075F1F4F21CE8091DC218111A5CE5A
:101130008E010B5F1F4F780178CE8091DC218111E9
:10114000F9CECE0101967C018E01075F1F4FC9CEFB
:101150001885812F72DC9FE0E8E9F2E09150E040D1
:10116000F040E1F700C00000812F6CDC37DC809399
:10117000DC218E01085F1F4F50CD1981812F5DDC6E
:101180002FE088E992E0215080409040E1F700C0D4
:101190000000812F57DC22DC8093DC218E010E5F62
:1011A0001F4F20CD2896CDBFDEBFDF91CF911F917D
:1011B0000F91FF90EF90DF90CF90BF90AF909F90F6
:1011C0008F907F900895F6C80895C7CC0895CF9367
:1011D000DAD9C82F8091280684FD06C0CC2329F0D7
:1011E00026DC8C2F2ADC01C0F1D9CF910895DECB0B
:1011F0000895FC01808147CC08950F931F93CF93EE
:10120000DF9300D01F92CDB7DEB756DC082F192F21
:1012100037DB09831A838B839C83CE0101968BD89D
:101220002496CDBFDEBFDF91CF911F910F9108951E
:1012300074CC08950F931F93CF93DF93CDB7DEB790
:101240002797CDBFDEBF8FEF809370008093710032
:101250008093720080937300809374008093750074
:101260008093760065E081E490E07AD66CE170E0EE
:1012700082E06CD68A836DE170E082E067D6898374
:1012800089819A81019621F480E493E289839A838B
:1012900089819A818B839C83E0E6F0E082838C8154
:1012A00083838FB78E83F8949E81E0E5F0E08081A0
:1012B000826080839FBF818181FFFDCF8FB78F8345
:1012C000F8949F8100E510E0D80116968C9116974E
:1012D000897F16968C931697E0E6F0E080E8858388
:1012E0008BEB868316968C911697846016968C935A
:1012F0008081816080839FBF61E080E490E030D690
:101300008FB78D83F8949D81F80180818E7F8083D3
:101310009FBF2796CDBFDEBFDF91CF911F910F9169
:101320000895CF93DF931F92CDB7DEB79FB7998310
:10133000F8949981E82FF0E0E059FF4F60958081A3
:10134000682360839FBF0F90DF91CF910895CF9363
:10135000DF931F921F92CDB7DEB7863011F060E0A9
:1013600001C068E18091510081FD2AC08FB7898357
:10137000F8949981E0E5F0E08081826080839FBFEE
:10138000818181FFFDCF8FB78A83F8949A81A0E590
:10139000B0E016968C911697897F16968C931697C7
:1013A000E0E6F0E080E885838BEB868316968C91EF
:1013B0001697846016968C938081816080839FBF8E
:1013C000636084E490E0CCD560E480E0AADF0F9015
:1013D0000F90DF91CF91089580E008953091E4233C
:1013E0002091E523822F90E00397B1F4311116C0CC
:1013F0008091E8239091E923892B91F4E2EEF3E2C6
:1014000080EF91E28087918782E19AE084879587D7
:101410001286138681E0089580E0089580E00895A3
:1014200080E00895089581E08093F221089510925C
:10143000F6211092F42181E08093F2210C94B317ED
:1014400008950C94B71708952EEE39E046EA50E25D
:1014500064EF71E286EF91E2F2C00895FF920F937C
:101460001F93CF93DF931F92CDB7DEB79C0180917E
:10147000F221882309F1F9018FB78983F894F98063
:101480001092F0211092F121808191818093F021BE
:101490009093F12103E11AE022E030E040EF51E2C5
:1014A00060E082E80E94741491E089278093F22121
:1014B000FFBE8091F22189270F90DF91CF911F917C
:1014C0000F91FF90089580E0089580E008951092B4
:1014D0000C2210920A221092002288E0E1E0F2E24F
:1014E000DF011D928A95E9F7109209220C94AC173E
:1014F00008950C94B017089525E63AE048EC50E2C0
:101500006AE072E28CE092E29AC008950F931F9312
:1015100080910022811118C088E0E1E0F2E2A8EF9A
:10152000B1E201900D928A95E1F71092092208EA42
:101530001AE028E030E048EF51E260E081E80E94E4
:1015400074148093002201C080E01F910F910895D0
:1015500010920022809109228111D8CF08951F9303
:10156000CF93DF931F92CDB7DEB79FB79983F894DF
:10157000198190910322992341F08917A9F0E4E0A1
:10158000F2E293E02191211102C01FBF1EC0281773
:1015900021F09F5F9830B1F705C0983019F097306F
:1015A00020F00CC01FBF11C092E0E92FF0E0EF5F08
:1015B000FD4D818180839F5F9730B9F7109208229B
:1015C00081E080930922A2DF1FBF81E00F90DF91AD
:1015D000CF911F9108951F93CF93DF931F92CDB7A3
:1015E000DEB79FB79983F8941981909103229923CC
:1015F000B1F0891741F0A4E0B2E2E3E09D919923B4
:1016000049F0981303C01FBF81E014C0EF5FE830BA
:10161000A9F702C0E83021F41FBF80E00BC0E2E070
:10162000F0E0EF5FFD4D808381E0809309226EDF63
:101630001FBF81E00F90DF91CF911F910895CF934D
:10164000DF93DC01EA019091E22399230CF068C05A
:10165000907609F045C08091E323863009F040C0C0
:1016600076D1DC011A962C911A97213209F077C0B5
:101670002091E52330E021323105B1F49C01275F50
:101680003F4F2093EA233093EB23E2EEF3E21996E7
:101690008C912681378190E02817390708F4C90119
:1016A0008287938781E068C0FC01478550E042173C
:1016B000530709F056C0C093EA23D093EB23E2EE20
:1016C000F3E226813781DC0150968D919C915197F0
:1016D0002817390708F4C9018287938781E04CC035
:1016E000903209F040C08091E323823039F083309A
:1016F00071F08130D1F5F90119953EC0E2EEF3E2C7
:10170000A087B18781E090E08287938735C0E2EEC1
:10171000F3E26087718781E090E0828793872CC035
:101720009076903221F58091E3238A3039F08B3026
:1017300051F08930F1F4F90119951EC08091E5232B
:101740008C9381E019C08091E8239091E923892B43
:1017500091F48091E423DB018C9381E00DC080E063
:101760000BC080E009C080E007C080E005C080E0D9
:1017700003C080E001C080E0DF91CF910895E09147
:101780001222F09113220190F081E02D2281338109
:101790002E0F3F1FFC014081E40FF11DE217F307FC
:1017A000A0F481818430A1F0861306C014C0818129
:1017B0008430A1F08617A9F08081E80FF11DE217AF
:1017C000F307A8F380E090E0089580E090E00895AA
:1017D00080E090E008958E2F9F2F089580E090E0A4
:1017E00008958E2F9F2F08958091E4238F7795C7BA
:1017F000089590911422992381F1E0911222F091A1
:1018000013220190F081E02D9481891740F5E09337
:101810001022F0931122228133812E0F3F1FE217F5
:10182000F307F8F49181943061F49281891309C02F
:101830009381961306C0E0931022F093112281E069
:1018400008959081E90FF11DE217F30758F3E09333
:101850001022F093112280E0089580E0089580E046
:10186000089580E00895EF92FF921F93CF93DF9346
:10187000C82F60E0BEDF182F882381F1A0911222CB
:10188000B0911322EC2FF0E0EE0FFF1F12968D9116
:101890009C911397E80FF91FE080F180D70116960D
:1018A000ED91FC9117971995682F8C2FA2DF182FB7
:1018B0008823A1F0C0911022D091112265E0CE01C1
:1018C0005EDFEC01892B21F08A810E948D15F6CF15
:1018D000D7011296ED91FC9113971995812FDF9105
:1018E000CF911F91FF90EF9008951F93CF93DF93B7
:1018F000182F7FDF882339F1C0911022D091112257
:1019000065E0CE013CDFEC01892B41F04C815D812B
:101910006B818A810FD78111F3CF15C0A09112225C
:10192000B0911322E12FF0E0EE0FFF1F12968D9180
:101930009C911397E80FF91F0190F081E02D019021
:10194000F081E02D1995DF91CF911F91089580913D
:10195000102290911122089555C60895CF93809139
:1019600014228823C1F0E0911222F09113220190F9
:10197000F081E02D8481882371F0C0E08C2F73DF2B
:10198000CF5FE0911222F09113220190F081E02DBF
:101990008481C81798F3109214228091182281FD37
:1019A0000E94AB171092182210921922CF9108951D
:1019B000CF9380911422882349F1A0911222B091F3
:1019C0001322ED91FC91119784818823F9F0C0E0F6
:1019D000EC2FF0E0EE0FFF1F12968D919C91139764
:1019E000E80FF91F0190F081E02D0084F185E02DD2
:1019F000309709F01995CF5FA0911222B091132270
:101A0000ED91FC9111978481C81710F3CF9108953F
:101A10000F931F93CF93DF93E2EEF3E212861386C8
:101A20001486158616861786808188230CF07EC260
:101A30002091E8233091E9232115310509F07BC27B
:101A40006DC28F7109F0A0C09091E323963079F0B8
:101A5000983009F48FC0911197C02230310509F0F8
:101A600019C262E070E088E192E25DD669C28091BD
:101A7000E4239091E523292F332722303105A9F063
:101A800020F42130310541F0C7C123303105D9F1AF
:101A90002F30310551F1C0C180912820909129202B
:101AA000DC016C9170E03FD656C0E0912820F091A7
:101AB00029202189821708F0EDC19927880F991FE5
:101AC000880F991FE0912A20F0912B20E80FF91F31
:101AD00080819181FC016281738125D6E091EA23A6
:101AE000F091EB2382E0818336C080912C2090918D
:101AF0002D20009709F4CEC1DC0112966D917C91E6
:101B0000139711D628C099278130910571F038F0CC
:101B1000029709F08AC1E6E4F1E23BE109C064E022
:101B200070E08CE691E2FFD516C0E2E6F1E239E022
:101B3000A0E1B1E220E0819190E08D939D932F5F31
:101B40002317C8F3632F660F6E5F60930E2170E05A
:101B50008EE091E2E8D5E2EEF3E28681978122857C
:101B600033858217930708F0EBC18093EC239093A1
:101B7000ED23E6C12130310509F08CC161E070E050
:101B800084E192E2D0D5DCC18130E1F59091E3238C
:101B90009A30C1F52130310509F04CC180911422F1
:101BA000882309F447C1C091E623D091E72300912F
:101BB000122210911322D801ED91FC918481C81753
:101BC00008F038C160E08C2F14DE882309F42DC1A1
:101BD000CE019927880F991FD8011296ED91FC919B
:101BE0001397E80FF91F0190F081E02D868197810E
:101BF000FC0119958093162261E070E086E192E283
:101C000092D59EC1823009F010C18091E3238111E9
:101C100005C12230310509F03DC18091E62312D67D
:101C200090E080930E2290930F2262E070E08EE0AD
:101C300092E279D585C18F7109F09FC09091E3231D
:101C4000933091F118F49130A9F097C0953021F0BC
:101C5000993009F443C091C08091E8239091E92321
:101C6000892B09F017C184EF9BE08093EE239093BA
:101C7000EF2366C18091E8239091E923892B09F035
:101C800009C18091E4239091E523019709F002C1F5
:101C900080911822909119228D7F80931822909321
:101CA00019220E94AB174CC18091E8239091E9233F
:101CB000892B09F0EFC08091E4239091E5230197EF
:101CC00009F0AEC080911822909119228260809311
:101CD0001822909319220E94AA1732C18091E823FA
:101CE0009091E923892B09F0D5C01AD5882309F4EE
:101CF0009CC02091E4233091E5233327E0912820F4
:101D0000F0912920818990E08217930708F48DC013
:101D100025DE8091E4239091E5238093142288238B
:101D200009F40EC199278150904C880F991F880F94
:101D3000991FE0912A20F0912B20E80FF91FE093E2
:101D40001222F09313220190F081E02D84818823E8
:101D500009F4F6C0C0E060E08C2FC7DD882309F4E9
:101D600064C0CF5FE0911222F09113220190F081C4
:101D7000E02D8481C81778F3E3C08130E9F49091B5
:101D8000E3239B30C9F48091E8239091E923892BC8
:101D900009F050C080911422882309F44BC0E2EE70
:101DA000F3E2C481D2818C2F5EDD882309F43DC02B
:101DB0006D2F8C2F9ADD37C08230B9F58091E323E7
:101DC000813019F0833099F02DC08091E8239091F3
:101DD000E923892B09F05EC08091E4239091E523EB
:101DE000892B09F057C08091E62347D51CC080910C
:101DF000E8239091E923892B09F04CC08091E423DA
:101E00009091E523892B09F045C0C2EED3E28C8185
:101E100035D68C819ED607C080E005C080E003C027
:101E200080E001C080E081118CC08091E2238F713D
:101E3000813081F580911422882309F471C00091CA
:101E4000E6231091E723C0911222D0911322E8815A
:101E5000F9818481081708F065C060E0802FC9DC33
:101E60008823C1F0F801FF27CF01880F991FEA816D
:101E7000FB81E80FF91FC081D181EE81FF811995A7
:101E8000682F802FB6DC882329F0EC81FD8119951D
:101E9000811157C08091E2238F71823009F044C0D4
:101EA000809114228823B1F1A0911222B0911322C3
:101EB000ED91FC9111978481882371F1C0E0EC2FA2
:101EC000F0E0EE0FFF1F12968D919C911397E80F93
:101ED000F91F00811181D8011696ED91FC91179799
:101EE0001995682F8C2F85DC882359F1D801149619
:101EF000ED91FC9115971995811123C0CF5FA091A9
:101F00001222B0911322ED91FC9111979481C9177F
:101F1000B0F217C080E015C080E013C080E011C0AF
:101F200080E00FC080E00DC080E00BC0982F90765D
:101F300009F07BCF80CE982F907609F076CF81CDB7
:101F400081E0DF91CF911F910F9108954091CA01D7
:101F5000E62FF72F8093CA0184914093CA01089518
:101F60001BBEFC0128ED24BF60830895CF93DF934F
:101F70001F921F92CDB7DEB7811126C09091D82352
:101F80009923F9F09091DD23911101C0FFCF9FB704
:101F90009A83F8942A81ECEDF3E291819150918338
:101FA0002FBF0FC09091DD239F3F09F4FFCF9FB754
:101FB0009983F8942981ECEDF3E291819F5F9183FD
:101FC0002FBF8093D82305C09091D823992351F334
:101FD000F8CF0F900F90DF91CF9108950F93E8EC19
:101FE000F4E080818F7D808380818F7D8083ECE829
:101FF000F3E202E0059310928E2310928F2300E209
:10200000069300E40693E4E8F3E200E40693E2EECC
:10201000F3E21486158616861786128613861092AA
:102020006F230F9108950F9385E080936F23EDE860
:10203000F3E204E00593E5E8F3E204E005930F9191
:1020400008950F9383E080936F2310928E23109254
:102050008F23ECE8F3E202E006930F910895E091FC
:10206000EE23F091EF23309709F0199508950F931F
:10207000CF93DF9380916F23833019F4F0DFAEDFCD
:102080005EC080916B2390916C23C091EC23D09122
:10209000ED23C81BD90B71F520916D2330916E2370
:1020A000820F931F80936D2390936E232091E823DA
:1020B0003091E9238217930721F080911A22882317
:1020C00041F084E080936F23E4E8F3E202E00693BA
:1020D00036C0E091F023F091F123309799F01995F3
:1020E000882381F010926B2310926C23C091EC2313
:1020F000D091ED23C830D10528F010921A22C8E003
:10210000D0E003C081E080931A22E0E7F3E2C68FBB
:10211000D78F80916B2390916C232091EA2330918B
:10212000EB23280F391F20A331A3C80FD91FC09359
:102130006B23D0936C23ECE8F3E202E00693DF918B
:10214000CF910F910895FC018181E82FE7708E2FC8
:1021500090E0FC013197E730F105D0F48827E15F8A
:10216000FE4F8F4F22C780E190E0089580E290E01B
:10217000089580E490E0089580E890E0089580E07C
:1021800091E0089580E092E008958FEF93E0089544
:1021900088E090E00895282F2F7030E0220F331F41
:1021A000082E000C990B8827990F881F9927820FFA
:1021B000931F02979C01220F331F220F331F220F00
:1021C000331F820F931F855E9C4D08950F93CF930D
:1021D0008091CC0480FF64C081E08093CC04E4E86B
:1021E000F3E200E80693ECE8F3E200E8069380935C
:1021F000CA04E4E8F3E200E1069380916F238823A8
:1022000029F08350823008F42ADFE8DE80918623AB
:1022100090918723089709F045C088E0E3E6F3E250
:10222000A2EEB3E201900D928A95E1F7E8ECF4E0BA
:10223000808180628083808180628083E9DBC82F17
:10224000811103C0F0DEC1E02EC08091E22388231B
:102250006CF410926D2310926E2310926B231092E7
:102260006C2382E080936F2302DF1DC08091E823FE
:102270009091E923892B11F4E4DE15C010926D23AF
:1022800010926E2310926B2310926C2381E0809346
:102290006F23E4E8F3E202E0069300E2069303C052
:1022A000C0E001C0C1E08C2FCF910F9108958F92B3
:1022B0009F92AF92BF92DF92EF92FF920F931F9384
:1022C000CF93DF93D82E67DF8C01CD2DCF70D0E078
:1022D000CE01880F991FCD2D0D2C000CDD0BCC27C6
:1022E000DD0FCC1FDD27C80FD91FCE01880F991F26
:1022F000880F991F880F991F9C012C573C4D79011D
:10230000C90121DF4C01DD200CF079C0FE01EE0F88
:10231000FF1FEE0FFF1FEE0FFF1FE059FC4D228D38
:10232000338DD80115968D919C911697820F931F2E
:1023300015968D939C93169713962D913C91149717
:102340008217930709F445C0281B390B2115B4E007
:102350003B0738F02FEF33E0C901B40112D6281B38
:10236000390BF801808181FF09C0C901B40109D688
:1023700041E0892B09F040E0842F01C080E0D801C2
:102380009C9180FB91F99C93FE01EE0FFF1FEE0FD5
:10239000FF1FEE0FFF1FE059FC4D128E138E268B90
:1023A000378B11962D913C91129715968D919C919A
:1023B0001697820F931FCC0FDD1FCC0FDD1FCC0FA4
:1023C000DD1FC857DC4D88839983F70102E006932F
:1023D000E0C0D8018C9181FFC9C08D7F8C93CC0F58
:1023E000DD1FCC0FDD1FCC0FDD1FC059DC4D1A8E59
:1023F0001B8E1E8A1F8AF70102E00693CAC0FE01E7
:10240000EE0FFF1FEE0FFF1FEE0FFF1FE059FC4DF9
:10241000A688B788D8018C9182FF19C01196ED91DA
:10242000FC91129715962D913C91169713968D91CC
:102430009C911497B401A5D5B0E4DB9EB0011124A2
:1024400065527E4DAC01CF01820F931FB6D5F801C6
:10245000258136812A0D3B1D258336838381948116
:102460008217930768F485839683CC0FDD1FCC0F0A
:10247000DD1FCC0FDD1FC059DC4D8A8D9B8D76C0D2
:10248000FE01EE0FFF1FEE0FFF1FEE0FFF1FE059C3
:10249000FC4D428D538DA416B50609F067C0281770
:1024A000390709F463C0AC01421B530B9A01211593
:1024B00054E0350740F02FEF33E0C901B40161D596
:1024C000281B390B05C0C901B4015BD5281B390B8A
:1024D000FE01EE0FFF1FEE0FFF1FEE0FFF1FE05973
:1024E000FC4D168A178A2815390500F5D8018C91FC
:1024F00084608C93B0E4DB9EC001112485529E4D14
:10250000FE01EE0FFF1FEE0FFF1FEE0FFF1FE8573C
:10251000FC4D80839183CC0FDD1FCC0FDD1FCC0FD2
:10252000DD1FC059DC4D8A8E9B8E1CC0F801418195
:10253000528185819681840F951FFE01EE0FFF1F4A
:10254000EE0FFF1FEE0FFF1FE857FC4D80839183B6
:10255000CC0FDD1FCC0FDD1FCC0FDD1FC059DC4DB4
:102560002A8F3B8FF70102E0069313C0D8018C91AC
:1025700080FF0FC08E7F8C931796ED91FC9118977A
:10258000309739F015966D917C9116974D2D80E01E
:102590001995DF91CF911F910F91FF90EF90DF90F0
:1025A000BF90AF909F908F9008951F93CF93DF932C
:1025B0001F92CDB7DEB78FB78983F894198181E078
:1025C000D5DCEAECF4E080E4808380E28083E1EC17
:1025D000F4E0808181608083A9ECB4E08C9182601A
:1025E0008C93E8ECF4E08081806480838C9181603E
:1025F0008C938081806880831FBF0F90DF91CF9183
:102600001F9108950F931F93CF93DF931F921F92F3
:10261000CDB7DEB700E610E0F801108280E30E943B
:10262000A709E0ECF4E080818064808381E0F80118
:1026300080838FB78A83F8941A8180E090E0FC0150
:10264000EE0FFF1FEE0FFF1FEE0FFF1FE059FC4DB7
:10265000158A01968A30910591F780E090E0FC019F
:10266000EE0FFF1FEE0FFF1FEE0FFF1FE80FF91F0A
:10267000E55EFC4D20812E7F2083019688309105F8
:1026800071F76AE170E082E061DC8F3F19F08093BE
:10269000FA0403C08FE18093FA046BE170E082E0FA
:1026A00055DC8F3F19F08093FB0403C08FE18093CA
:1026B000FB04E0ECF4E080818460808380818068AA
:1026C000808380818061808384E893E2868397831E
:1026D0008081806280838FEF8093C504E8ECF4E012
:1026E0008081816080831092D8238091E1238F3F85
:1026F00009F4FFCF8FB78983F8949981ECEDF3E269
:1027000085818F5F85839FBF50DF1FBF0F900F9024
:10271000DF91CF911F910F9108958093C304089585
:102720008091C3040895E2EEF3E280879187628787
:1027300073870895282F2F7030E0220F331F082E43
:10274000000C990B8827990F881F9927820F931FD8
:10275000FC01EE0FFF1FEE0FFF1FEE0FFF1FE059F2
:10276000FC4D2589207C09F069C06370613011F04F
:1027700018F404C060EC03C060E801C060E44038B5
:102780005105E9F050F440325105A9F040345105AB
:10279000A1F040315105D9F40CC0411522E0520797
:1027A00091F04F3F23E0520781F04115514079F4F9
:1027B00008C021E00DC022E00BC023E009C024E0E6
:1027C00007C025E005C026E003C027E001C020E0E7
:1027D000FC01EE0FFF1FEE0FFF1FEE0FFF1FE05972
:1027E000FC4D158A36E0348B262B258BFC01EE0F31
:1027F000FF1FEE0FFF1FEE0FFF1FE059FC4D258955
:10280000207C203C69F4FC01EE0FFF1FEE0FFF1F40
:10281000EE0FFF1FE059FC4D25892770273081F00E
:10282000880F991F880F991F880F991FFC01E05985
:10283000FC4D85898062858B81E0089580E0089554
:1028400081E00895E82FEF70F0E0EE0FFF1F082EF3
:10285000000C990B8827990F881F9927E80FF91FFB
:10286000EE0FFF1FEE0FFF1FEE0FFF1FE059FC4D95
:10287000858982FB882780F908950F93282F2F7070
:1028800030E0A901440F551F282F082E000C330BF0
:102890002227330F221F3327240F351FA901440F8E
:1028A000551F440F551F440F551FFA01EC57FC4D9F
:1028B00001E00693FA01E059FC4D958992FF11C0A1
:1028C000FA01E059FC4D95899B7F958B64DCFC01F6
:1028D000808180FF06C08E7F80830780F085E02D99
:1028E000199581E00F9108956F927F928F929F9238
:1028F000AF92BF92CF92DF92EF92FF920F931F930E
:10290000CF93DF931F92CDB7DEB7782E662E4A01A4
:10291000590141DC6C01272D872D8F70E82EF12C99
:10292000C701880F991FE72C072C000CFF08EE2425
:10293000FF0CEE1CFF24E80EF91EF701EE0FFF1F3F
:10294000EE0FFF1FEE0FFF1FE059FC4D8589807CC5
:1029500009F481C0F701EE0FFF1FEE0FFF1FEE0F0E
:10296000FF1FE059FC4D8589807C803C61F0F701B8
:10297000EE0FFF1FEE0FFF1FEE0FFF1FE059FC4D84
:10298000858982FD6AC08FB78983F8948981F601B1
:10299000908190FF03C08FBF80E060C0F6019081FE
:1029A000916090838FBF81829282A382B4821582CC
:1029B000168207831087611006C091E0A114B1044C
:1029C00019F090E001C091E0F601808190FB81F95F
:1029D0008B7F8083222364F4F701EE0FFF1FEE0F3D
:1029E000FF1FEE0FFF1FE059FC4D128E138E2FC0FC
:1029F000F701EE0FFF1FEE0FFF1FEE0FFF1FE05955
:102A0000FC4D8589807C803CA9F4C701880F991F03
:102A1000880F991F880F991F8C579C4D94DBBC0120
:102A2000C501AFD2892B31F0F60180818E7F808382
:102A300080E014C0F701EE0FFF1FEE0FFF1FEE0F37
:102A4000FF1FE059FC4D168A178A128E138E872DB0
:102A50002EDC81E003C080E001C080E00F90DF91B8
:102A6000CF911F910F91FF90EF90DF90CF90BF908B
:102A7000AF909F908F907F906F900895FF920F93EB
:102A80001F93CF93DF93182FC82FCF70D0E0CE01C4
:102A9000880F991FC12F012E000CDD0BCC27DD0FF5
:102AA000CC1FDD27C80FD91F812F75DBDC01FE018C
:102AB000EE0FFF1FEE0FFF1FEE0FFF1FEC57FC4D39
:102AC00002E005938C9180FF22C08E7F8C93179635
:102AD000ED91FC9118973097D1F011235CF4CC0F55
:102AE000DD1FCC0FDD1FCC0FDD1FC059DC4D6A8D03
:102AF0007B8D0AC0CC0FDD1FCC0FDD1FCC0FDD1F7F
:102B0000C059DC4D6E897F89412F81E01995DF9195
:102B1000CF911F910F91FF900895CF93C82FAEDFF3
:102B2000EC2FEF70F0E0EE0FFF1F8C2FCC0F990B06
:102B30008827990F881F9927E80FF91FEE0FFF1FAD
:102B4000EE0FFF1FEE0FFF1FE059FC4D158ACF91CE
:102B50000895E82FEF70F0E0EE0FFF1F282F082EEA
:102B6000000C330B2227330F221F3327E20FF31FF2
:102B7000EE0FFF1FEE0FFF1FEE0FFF1FE059FC4D82
:102B800095899460958B7ADF81E008951F920F926A
:102B90000FB60F9211240BB60F920F932F933F9302
:102BA0004F935F936F937F938F939F93AF93BF9355
:102BB000CF93EF93FF938091CB0488233CF480E87C
:102BC0008093CA040E94D80CB0D189C08091CB04F4
:102BD00082FF20C084E08093CA0480918C2386FF0A
:102BE0007EC08091CC0481FD7AC0F0DA811177C07B
:102BF00080916F23813011F424DA71C0843009F0A0
:102C00006EC0EDE8F3E204E00593E5E8F3E204E0EA
:102C1000059365C08091CB0481FF5CC082E0809306
:102C2000CA048091842386FF5AC08091CC0481FD20
:102C300056C0CCDA811153C080916F23823041F4A9
:102C400084E080936F23E4E8F3E202E0069347C058
:102C5000833009F044C0EDE8F3E204E00593E5E8D1
:102C6000F3E204E005933BC080E18093CA04C1E035
:102C70008C2F04DF8C2F806801DFCF5FC530C1F758
:102C80000E94AE0C1092C304E0E7F3E2158A96E0CE
:102C9000948B80E4858B158E948F858F83E693E2E9
:102CA000808F918F9BD91BC08091CB0486FF07C07A
:102CB00080E48093CA0480E059D935D110C0809156
:102CC000CB0485FF0CC080E28093CA0481E04ED91A
:102CD0002BD105C08091CB0484FDC6CFE5CFFF91F9
:102CE000EF91CF91BF91AF919F918F917F916F9114
:102CF0005F914F913F912F910F910F900BBE0F90CD
:102D00000FBE0F901F9018951F920F920FB60F9243
:102D100011240BB60F920F931F932F933F934F9352
:102D20005F936F937F938F939F93AF93BF93CF9353
:102D3000DF93EF93FF938091CC0481FD03C046DACB
:102D40008111C3C082E08093CC048091C504819539
:102D5000880FE4E8F3E2E81BF1092081318124586F
:102D60003342369527953695279536952795822FA8
:102D7000869520FD02C090E001C090E8890FE82F01
:102D8000EF70F0E0EE0FFF1F282F082E000C330B22
:102D90002227330F221F3327E20FF31FDF01AA0F71
:102DA000BB1FAA0FBB1FAA0FBB1FA059BC4D549637
:102DB0009C9195FF8AC0EE0FFF1FEE0FFF1FEE0FD5
:102DC000FF1FEC57FC4D00E20693811179C0809102
:102DD0006F23843019F443D901D977C00091862339
:102DE000109187238091EC239091ED23C0916B2368
:102DF000D0916C2398012C0F3D1F8217930718F474
:102E00008C010C1B1D0B8091EA239091EB23A801F0
:102E100063E673E28C0F9D1FD0D0C00FD11FC0930B
:102E20006B23D0936C230830110569F480916D23D6
:102E300090916E238C0F9D1F2091E8233091E92300
:102E40008217930780F0E2EEF3E2C287D38706840D
:102E5000F785E02D309729F01995811102C0E3D84C
:102E600034C0EFD832C08091EC239091ED23C81785
:102E7000D907F9F4E091F023F091F123309711F4A0
:102E8000D2D823C01995811102C0CDD81EC020917F
:102E90006D2330916E2380916B2390916C23820F70
:102EA000931F80936D2390936E2310926B23109247
:102EB0006C23E4E8F3E202E0069300E2069305C027
:102EC000803811F4D4D801C0F2D9FF91EF91DF918D
:102ED000CF91BF91AF919F918F917F916F915F91B2
:102EE0004F913F912F911F910F910F900BBE0F901B
:102EF0000FBE0F901F90189587E08093A2007894E2
:102F0000ECEDF3E21082118212821382148281E0CE
:102F100085830E941A090E94E3080E94AC0C88E095
:102F20000E94E508FFCF089508958091DB23882350
:102F300081F00E94F7088091DA23882351F00E94E3
:102F4000E7088091D923882321F00E94FD080C9482
:102F5000180908950895089581E08093DB2308956A
:102F60001092DB23089581E08093DA230895109274
:102F7000DA23089581E08093D92308951092D9230C
:102F80000895AA1BBB1B51E107C0AA1FBB1FA617B0
:102F9000B70710F0A61BB70B881F991F5A95A9F702
:102FA00080959095BC01CD010895EE0FFF1F881FFD
:102FB0008BBF0790F691E02D1994FB01DC0102C054
:102FC00001900D9241505040D8F70895F894FFCFEA
:102FD0000600FF0901A10195207501190129108141
:102FE0000295087501190129089102C073018D012C
:102FF000900138010000808094202E2000003820AD
:1030000032200321BE201C2009025B00030100A026
:103010003209040000010300000009211101000130
:10302000223B000705810308000209040100010397
:103030000000000921110100012218000705820388
:103040000800040904020002030000000921110124
:103050000001221C00070584030800040705030380
:10306000080004001201000200000008EB033321F5
:1030700000010102000105010904A1010501093057
:103080000931150026FF00750895028102C0170A54
:10309000210A240AEC09000005010906A10105071F
:1030A00019E029E7150025017501950881028101C4
:1030B0001900296515002565750895068100050824
:1030C0001901290515002501750195059102950342
:1030D0009101C0670A790A7C0A630A0000000003B4
:1030E00000000000000000000000000000000000E0
:1030F00000000000000000000000000000000000D0
:1031000000000000000000000000000000000000BF
:10311000000000000000437573746F6D204849443F
:1031200020436F6D706F73697465204465766963C1
:10313000650041544D454C204153460004030904A9
:10314000010204081020408000172E455C748BA2F9
:10315000B9D0E7FF0807FFFF0605FFFF04FFFFFFE9
:08316000FFFF0002FFFF010365
:00000001FF
